:020000041000EA
:1000000000B5324B212058609868022188439860DF
:10001000D860186158612E4B002199600221596106
:100020000121F02299502B49196001219960352056
:1000300000F044F80222904214D00621196600F024
:1000400034F8196E01211966002018661A6600F04E
:100050002CF8196E196E196E052000F02FF8012189
:100060000842F9D1002199601B49196000215960AB
:100070001A491B48016001219960EB211966A021F2
:10008000196600F012F800219960164914480160C1
:100090000121996001BC002800D000471248134993
:1000A000086003C880F30888084703B5996A0420EC
:1000B0000142FBD001200142F8D103BD02B5186610
:1000C0001866FFF7F2FF186E186E02BD00000240BE
:1000D000000000180000070000035F00212200005C
:1000E000F4000018222000A00001001008ED00E03C
:1000F00000000000000000000000000074B24E7A12
:1001000000200420F7010010C3010010C5010010F9
:10011000C1010010C1010010C1010010C101001097
:10012000C1010010C1010010C1010010C701001081
:10013000C1010010C1010010C9010010CB01001065
:10014000CD010010CD010010CD010010CD01001037
:10015000CD010010CD010010CD010010CD01001027
:10016000CD010010CD010010CD010010CD01001017
:10017000CD010010CD010010CD010010CD01001007
:10018000CD010010CD010010CD010010CD010010F7
:10019000CD010010CD010010CD010010CD010010E7
:1001A000CD010010CD010010CD010010CD010010D7
:1001B000CD010010CD010010CD010010CD010010C7
:1001C00000BE00BE00BE00BE00BE00BEEFF3058054
:1001D000103800BEF2EB8871D80200100003001046
:1001E0003402001090A31AE700202249086006C8D4
:1001F00081F30888104720480068002835D10DA4F5
:100200000ECC002902D000F012F8F9E71B491C4A75
:10021000002000E001C19142FCD11A4988471A49E7
:1002200088471A49884700BEFDE701C901C29A42C2
:10023000FBD3704700030010C0000020A0BF0020C7
:10024000E0C10010A0BF0020D0D6002010D90010BF
:10025000000004200000042010D900100010042029
:1002600000100420000000007047094800F014F856
:100270000047000008ED00E0000000D0D0D60020CC
:10028000D0FD0220253300207113002019340020F6
:10029000575600000000000001B40248844601BC2B
:1002A000604700BFA14A002006005250ABB3605324
:1002B000E8D2002006005250861C0302F8D200202B
:1002C000060052505422A29D00D300200500525037
:0802D000DE65F46810D900108E
:1002D800CC020010C0020010B40200100CD30020A1
:1002E800A802001018D3002024D3002060D30020D7
:0802F8006CD30020A0D300200C
:10030000F8B5C0460448054B10B5834203D0044BF2
:10031000002B00D0984710BDD0D60020D0D60020AA
:100320000000000006480749091A8B10C90FC918B8
:1003300010B5491003D0044B002B00D0984710BDD6
:10034000D0D60020D0D600200000000010B5074C09
:100350002378002B09D1FFF7D5FF054B002B02D0E6
:10036000044800E000BF0123237010BD28DA0020FC
:1003700000000000A0BF0020054B10B5002B03D0EB
:100380000449054800E000BFFFF7CCFF10BDC046A0
:10039000000000002CDA0020A0BF002030B50024AF
:1003A0000B4B0C4D83B001949C632B68002B0CD03D
:1003B0000021286801AA0BF097F8019B2C60002B04
:1003C00003D08022044B52051A6003B030BDC046F2
:1003D0000040034090FD022004ED00E070B5D02500
:1003E00080242D06A4040A206C610AF0AFFD96203B
:1003F000AC6180000AF0AAFDF5E7C04670B5D025D3
:1004000004242D060A206C610AF0A0FD0248AC61AC
:100410000AF09CFDF6E7C04660EA000070B504787B
:10042000002C17D0002120220D26114B00255D5FE6
:10043000104B00290FD1A54214D099690A42FCD172
:100440001C60017801300D394C4261410478C9B219
:10045000002CEED170BD99690A42F1D099690A4227
:10046000F9D1EDE799690A42FCD11E60E5E7C04683
:100470008CFC0020004003402F4BF0B54F46464611
:10048000D64699460123C0B59846002684B02B4F26
:100490002B4D02AC434622002670682100933800A1
:1004A00001230BF091FD22000723682138000096FC
:1004B0000BF0F2FDE3789A46A3791A099000101820
:1004C0000F22400013401B1860792B80030999000C
:1004D0008C46634410405B001B182079AB70030905
:1004E00099008C46634410405B001B18EB70534628
:1004F000A1782B710B0998001B1811405B005B1849
:1005000061786B710B0998001B1811405B005B1838
:100510002178AB710B0998001B180A405B009B18EF
:10052000EB714B462A001868402102F04FFAFA207E
:1005300080000AF00BFDADE794D500209CD600208A
:10054000A0D5002010B50D4C0D4805F041FD00234D
:1005500001222000082102F05BFD2000012102F0B1
:1005600095FD1420074901F087FA0121142001F0BC
:100570003FFA0121200002F0BBFD10BD0040034006
:1005800060CD00205D010020F0B5D6464F464646BE
:10059000C0B50378012B02D14278522A06D001203F
:1005A0004042E0BCBA46B146A846F0BD8478322C41
:1005B000F5D1C478022CF2D10579502DF1D14579CD
:1005C0002E2DEED18579302DEBD1C579312DE8D1A5
:1005D000CE1E002E45DD0D1FFE2D4AD80F2D48D909
:1005E0000325A84647423D40AC46AA4645462F4211
:1005F00008D06546012D4AD06346454545D1602265
:100600009A4613006246B21A91469208904600221A
:1006100014008444674695007D5901326C40904532
:10062000F8D82204120E624053402202120E5340A8
:10063000240E032263404C46944352461219DBB207
:10064000D2B2A1450DD0845C6340541CE4B2B442E4
:1006500007DA045D0232D2B26340964201DD825C69
:100660005340401803380078C01A431E9841404256
:1006700097E701240200241A15786B40A518EDB203
:10068000DBB20132B542F7DBEBE72300B8E700222B
:10069000B6E7C0460278002330B5002A04D120E036
:1006A0000133C25C002A1CD0282AF9D15A1CD2B2CC
:1006B000815C3B2908D0DB430A4DAC180132E15480
:1006C000D2B2815C3B29F8D10132D3B2C15C292975
:1006D00007D0054D9C1A01332955DBB2C15C29298D
:1006E000F8D130BD68FC002098E00020F0B5454608
:1006F00057464E46DE46994BE0B598461F88984DC2
:10070000984B8BB0FC180023EE5E2403092E00DD0D
:10071000C8E03036F3B20593302306930226AE5775
:10072000092E00DDAFE03036F3B204933023079397
:100730000326AE57092E00DD96E03036F3B2029361
:10074000302300930526AE57092E00DD7DE03036BC
:10075000F3B20193302308930626AE57092E65DCC9
:100760003036F3B2039330230993ED796DB2092D3E
:100770004FDC30263035EDB280207B4B00221B78D9
:1007800040019946794B1B789A46794B1B789B46DA
:1007900003E01032824200D193E0A35C91B2013BAE
:1007A000DBB2FD2BF5D9734B0909079A0901C9186A
:1007B000059B1004069A1B021A431300049A034374
:1007C00012061343089A0B60029B1004009A1B0246
:1007D0001A431300019A0343120613434B60039B11
:1007E00032041802099B0343180010432B0605002E
:1007F0001D434B460B7353464B735B468B7304236D
:100800008D60CB730BB0F0BCBB46B246A946A04688
:10081000F0BD0A21280004F095FA30300A21C6B252
:10082000280004F08FFA3031CDB2A5E70A2130005C
:1008300004F088FA3030C3B20A213000099304F082
:1008400081FA3031CBB203938FE70A21300004F0F4
:1008500079FA3030C3B20A213000089304F072FAFA
:100860003031CBB2019377E70A21300004F06AFA05
:100870003030C3B20A213000009304F063FA303103
:10088000CBB202935EE70A21300004F05BFA30300D
:10089000C3B20A213000079304F054FA3031CBB2CE
:1008A000049345E70A21300004F04CFA3030C3B21B
:1008B0000A213000069304F045FA3031CBB205939B
:1008C0002CE7BF235B009F4245D00137BFB2802297
:1008D0004346284C0021200052011F8005F00EFAEB
:1008E000079A059B1104069A1B021A431300049AE7
:1008F0000B4312061343089A2360029B1104009ACB
:100900001B021A431300019A0B4312061343636040
:10091000039B32041802099B8021034318001043F3
:100920002B0605001D434B462373534663735B46FA
:10093000A37304238020A560E3730F4C4901278033
:1009400000030BF045FD80228020210052000003AF
:100950000BF07EFD56E70027B9E7C046BCFD02203C
:10096000A0D5002081000100CBFD0220CDFD02209A
:10097000CCFD0220A8E0002060FB0020F0B5DE46A0
:100980004E4645465746E0B583B0FFF7AFFE0A2412
:10099000002120220D26B14BB1489B4600255D5F0A
:1009A000B04B002900D0CBE0A54200D1D0E099693E
:1009B0000A42FCD11C60017801300D394C42614182
:1009C0000478C9B2002CECD18021A74C49012088C1
:1009D0000A26813000030BF0FBFC5B46002120223D
:1009E0000D270020185EA14D9E4B002900D0B4E0D9
:1009F000B04200D1B9E099690A42FCD11E60297861
:100A000001350D394E4271412E78C9B2002EECD11C
:100A1000002120220D27964D924B0A36002900D046
:100A2000A8E0864200D1ADE099690A42FCD11E607F
:100A3000297801350D394E4271412E78C9B2002E08
:100A4000ECD1802220888B498130000352010BF0C9
:100A5000FFFC5B460A25002120220020185E864C00
:100A6000804B0D36002900D091E0A84200D196E0DD
:100A700099690A42FCD11D60217801340D394D423B
:100A800069412578C9B2002DECD1002120220D2624
:100A90007A4C744B0A35002900D085E0854200D19C
:100AA0008AE099690A42FCD11D60217801340D3930
:100AB0004D4269412578C9B2002DECD1704B00261A
:100AC0009946704B674C984643464946F25C01A8EC
:100AD00004F0A8F86B461F795B460020185E002FD3
:100AE00015D00D2500232021AC4601AA002B6ED184
:100AF000B84266D0A3691942FCD12760137801324D
:100B00000D3B5F427B411778DBB2002FEED1F34300
:100B10001B076AD0202861D02022A3691A42FCD189
:100B2000FF23226033426BD0802301369B009E421C
:100B3000CAD103B0F0BCBB46B246A946A046F0BD40
:100B400099690A4200D135E799690A42F8D131E73B
:100B500099690A42FCD11E6029E799690A4200D1CD
:100B60004CE799690A42F8D148E799690A42FCD1F1
:100B70001F6040E799690A4200D158E799690A4223
:100B8000F8D154E799690A42FCD11F604CE7996992
:100B90000A4200D16FE799690A42F8D16BE7996977
:100BA0000A42FCD11E6063E799690A4200D17BE7E3
:100BB00099690A42F8D177E799690A42FCD11E6027
:100BC0006FE7A3691942FCD16346236092E7A369EA
:100BD000194292D0A3691942F9D18EE72022A36964
:100BE0001A42FCD10D23236096E70A2829D020223F
:100BF000A3691A42FCD10A232360FF23334293D115
:100C00000D2500220A272023AA461F49002A11D1B8
:100C1000B8421DD0A2691342FCD127600A78013185
:100C20000D3A57427A410F78D2B2002F00D17BE7BC
:100C3000002AEDD0A2691342EFD0A2691342F9D184
:100C4000EBE72022A3691A42FCD10D232360CEE7F3
:100C5000A2691342FCD152462260DBE78CFC0020E3
:100C60007CCD002000400340BCFD022088CD002048
:100C700094CD0020A8E00020A4CD0020B4CD002019
:100C800070CD00200010081078CD0020F0B59F4BEB
:100C9000DE4657464E4645469A469D4BE0B59B4636
:100CA0009C4B83B0994608F0C9FF07229A4B0090ED
:100CB0009A56FA239B00534301229BB20193974B10
:100CC000974E1B6837005340964A80211340964A3E
:100CD000300013600822954B49001A60FA239B00EC
:100CE0009C46934A674493680B42FCD1D3680380C7
:100CF00002308742F7D108228E4B8D491A60F832B4
:100D00000B681342FCD08B68134206D18021884BBC
:100D10004900DA689A680A42FBD00025804C208896
:100D200004F074FF844904F06AFF04F091FF023478
:100D300080B22D18A742F2D1FA212800490004F010
:100D400001F80004030C1A0050467C49984603F051
:100D500069FF53461C78002C1BD00D2150468C4651
:100D600020220021764B00255D5F764B002900D0C4
:100D7000B2E0A54200D1B7E099690A42FCD11C60FB
:100D8000017801300D394C4261410478C9B2002C20
:100D9000ECD16D4B1C685D68308804F037FF664904
:100DA00004F02DFF04F054FF434680B2C01A04F053
:100DB000CDFA02000B0004F058FA02000B002000EC
:100DC000290004F02BFA023604000D00B742E3D1EB
:100DD0005D4B00221C605D605C4B04F028FA04F05F
:100DE000FDFA5B4A5B4B04F040FA00225A4B04F0D8
:100DF0001EFA0B000200594650460A604B605749E4
:100E000003F010FF53461C78002C18D050460021E8
:100E100020220D264A4B00255D5F4A4B002969D1EF
:100E2000A5426ED099690A42FCD11C60017801305C
:100E30000D394C4261410478C9B2002CEED1484BC7
:100E40001D786C1CE4B21C705B461868596804F08D
:100E5000B9FA4B46002258555946002306200A602D
:100E60004B602D4B0F21185603F06CFF49B200293F
:100E700026D14B461D7828002900012C12D90122C9
:100E80004B469B5C1E1CAB4200D22E1CF5B20E1CC6
:100E9000994200D91E1C0132C018D3B2F1B280B2FF
:100EA0009C42EDD82F4B1D702F4B1970210003F081
:100EB00049FF2E4B1870FFF761FD0023284A13707D
:100EC00008F0BCFE019A009B9B1A294A9446634491
:100ED000181A0AF03BF8E6E699690A4200D14EE793
:100EE00099690A42F8D14AE799690A42FCD16146F8
:100EF000196041E799690A4297D099690A42F9D184
:100F000093E799690A42FCD11E608BE754E0002008
:100F1000D8D90020CCFC0220A0D5002008C0044075
:100F200078F700200F00000F08D0044000E00440D4
:100F300000C0044000F0044000404E3FC8CD0020F7
:100F40008CFC002000400340E0D9002000407F409E
:100F500014AE47E17A64504000408F40D4CD002069
:100F6000CAFD0220CBFD0220CDFD0220CCFD0220D7
:100F700060EA0000F0B5DE4657464E46454600237F
:100F8000E0B5BBB06022002122A8219304F0B6FE98
:100F9000C24A537816789C46C14BB1001D785F78E1
:100FA000A80028187118400049003818614410380A
:100FB0001039C0B2C9B2884251D89978880008184F
:100FC000D97840004018917810388C000919D478ED
:100FD000490009191039C0B2C9B288423FD81979FD
:100FE00088000818597940004018117910388C0091
:100FF00009195479490009191039C0B2C9B2884297
:101000002DD8997988000818D9794000401891792D
:1010100010388C000919D479490009191039C0B267
:10102000C9B288421BD8117A88000818517A40004A
:101030004018197A10388C0009195C7A490009198E
:101040001039C0B2C9B2884209D3964805F062F897
:101050003BB0F0BCBB46B246A946A046F0BD917875
:10106000914C8946D1788B4611790B9151790D912C
:1010700091790F91D1791191117A1391527A159238
:101080009A789046DA7892461A790A925A790C92AE
:101090009A790E92DA7910921A7A129200225B7A79
:1010A00018921493814B17920997814A9918DA1E66
:1010B0001278B24225D1981E0078604521D1581E81
:1010C000007848451DD1187858451AD158780B9F9B
:1010D000B84216D198780D9FB84212D1D8780F9F98
:1010E000B8420ED11879119FB8420AD15879139F8E
:1010F000B84206D19879159FB84202D101201991C2
:101100001790AA4226D19A1E12780998824221D1BC
:101110005A1E127842451DD11A7852451AD15A7872
:101120000A98824216D19A780C98824212D1DA78C3
:101130000E9882420ED11A79109882420AD15A79B9
:101140001298824206D19A791498824202D10122E1
:10115000169118921033A342A7D1179B002B00D1F0
:1011600098E0189B002B00D194E0199B169A9342AB
:1011700000D96DE74F4A1F0094464F491A00674453
:101180008C46624490464D4A4D4C94466344994681
:101190004C4B1BAE9B46424612883B8812A90A85DF
:1011A0000A002A2133800023521813704A461288FD
:1011B00012A98A850A002E2152181370FA8812A9E2
:1011C0000A860A003221521813703A8912A98A86B7
:1011D0000A003621521813707A8912A90A870A0068
:1011E0003A2152181370B370BB7B5A4607937B7B2E
:1011F0001C3906933B7B21A8059320AB04931FABBE
:1012000003931EAB02931DAB01931CAB0093330001
:1012100003F01CFD3C2212AB9B18187800281DD04F
:10122000294B0D2500229B5EAA469C46654600225E
:10123000BC4620232F0021A9002A1ED1874223D09B
:10124000A2691342FCD120600A7801310D3A504264
:1012500042410878D2B20028EED167461022944667
:101260001A4AE044E14494463B00169A674410331E
:10127000BA4200D2ECE61F008DE7A2691342E2D029
:10128000A2691342F9D1DEE7A2691342FCD15246AA
:101290002260D5E70E4804F03DFFD9E668FC002047
:1012A00098E00020DCCD0020038F09100310081007
:1012B000FDEFF7EF001008100210081004100810DE
:1012C0000040034004CE00208CFC002010F0F7EF1B
:1012D00028CE0020F0B54546DE464E465746002350
:1012E000E0B5AA4DC9B0FC22002109A898462B60A0
:1012F000089304F003FD0023A54EA64C019350274C
:1013000009F004F938232860A763626B01211340B8
:1013100001220020336052420AF03EF80128EFD14A
:1013200001239A4602339B464746A369DB0614D441
:101330001022BC46A3691A42FCD12368DBB20A2BF7
:101340000DD01727019902A80131C0194354A36990
:1013500001911A42EED0E046D1E7B846CFE7019AB4
:1013600002A8511C88461821401883548A4B6746AE
:101370001B78012B0CD0022B5ED0002B26D08022B4
:101380000021520008A804F0B9FC00230193CCE727
:1013900002AB1B7E062B0AD1130008AA94466344B5
:1013A000013B1B780D2B02D14346062B69D000234D
:1013B000794A1370794B00229B5E152B53D0202263
:1013C000A3691A42FCD115232360D8E702AB1B7E28
:1013D0002F2BD4D102AB5B7E3F2BD0D108AA9446F1
:1013E000019B63449A1E1278212AC8D1013B1B78C5
:1013F0000D2BC4D196226A4B12011B88934200D157
:10140000B7E000D9AAE096229200934200D1A3E06F
:101410009622D200934200D097E00227614B3A0017
:10142000614903A81F7003F0FDFB03A8FEF7F6FF58
:101430005246594B1A70A2E7434608A8D9B2FFF7A3
:10144000A3F8002805D108A8FFF724F9FFF792FDBB
:1014500095E7524B00229B5E152B0BD02022A369EF
:101460001A42FCD1AFE72022A3691A42FCD10D2316
:101470002360A4E72022A3691A42FCD10D23236034
:10148000ECE702AB5B7E302B7DD002AB9B7E302B3A
:1014900077D002ABDB7E302B71D002AB1B7F302BC1
:1014A0006BD002AB5B7F302B10D03C4B00229B5E9D
:1014B000152B04D02023A2691A42FCD183E70B33F9
:1014C000A2691A42FCD10D232360F3E7052308AA81
:1014D000944663445B783249303B0988DAB2DBB228
:1014E000994215D22D4B00229B5E152B09D020234B
:1014F000A2691A42FCD1152323600223264A1370E5
:101500003DE70B33A2691A42FCD10D232360EEE7BD
:10151000224B00215B5E062B10D02023A1691942CB
:10152000FCD106232360052A03D8204B92009B5848
:1015300099464946174801F00FFDDEE71A33A169C5
:101540001942FCD10D232360E7E796225200934213
:1015500000D063E7002761E757465FE79622520114
:10156000934208D096229201934200D056E7052775
:1015700054E75F4652E7042750E70423A7E75B469A
:10158000A5E70223A3E75346A1E7C04690FD02204A
:101590003450034000400340C7FD02208CFC002073
:1015A0009CD50020C0FD02204CCE0020B0CE0020F3
:1015B000F0B5CE46474680B585B004F0B7FDFA20B9
:1015C000800001F003F896216B48490001F000FC0F
:1015D000FEF7B8FF0221002000F0FAF802210120F6
:1015E00000F0F6F86548FEF719FF022000F034F924
:1015F000D02304221B065A620AF0A4FD1F211B20DF
:1016000000F0E6F8002200211B2000F0F9F800218C
:101610001B2000F00DF98021594A490113688846C2
:101620004B40E021C9010B405649FA200B6096233C
:101630009B031361800000F0C9FF0AF0C7FB524D05
:10164000002628000AF0DEFB504B012799461800BF
:101650004F490AF08FFC0321142002AC00F0B8F8C7
:101660000321152000F0B4F8012322006821484628
:10167000267000970AF0A8FC07232200682148463C
:1016800000960AF009FDE3789946A3791A099000BB
:1016900010180F22400013401B1860792B8003099B
:1016A00099008C46634410405B001B182079AB7096
:1016B000030999008C46634410405B001B18EB70D3
:1016C0004B46A1782B710B0998001B1811405B0049
:1016D0005B1861786B710B0998001B1811405B0057
:1016E0005B182178AB710B0998001B180A405B004E
:1016F0009B18EB71274B2A001868402101F066F90E
:10170000254B42461B6825481988254B1980254BD7
:101710009C466144090304F0F7FA00238022224921
:1017200022480196009709F087FC00238022204977
:1017300020480196009709F07FFC0323C0221E4930
:101740000093120100231D48019609F075FC052342
:1017500080221B4900931B480023019609F06CFC72
:1017600000238022184919480196009709F064FC6B
:1017700009F0BEF9FEE7C0460040034060CE0020FD
:1017800000C0044000D00440A0D500209CD600201A
:10179000801A060094D5002098D50020A8E00020EB
:1017A000BCFD02208100010070CE00209D010020C0
:1017B0007CCE00204D0A002088CE0020951000200D
:1017C00094CE002039020020A4CE0020BD010020CC
:1017D000094A830094464022634410B51C68C00047
:1017E0006240C02414408022520113431C60034B0A
:1017F0009C466044416010BD04C00140004001406F
:101800000A4B80009C4604236044002901D00C232D
:101810000821002A00D10B00026853400C221A4014
:1018200080235B01184302607047C04604C001403A
:10183000084B80009C466044002905D080239B0112
:101840001843402303607047C0239B011843402383
:101850000360F8E704C001400123D0228340120650
:1018600093629361094A8300944640226344196855
:10187000C0004A40C0211140802252011343196028
:10188000034B9C46052360444360704704C00140FD
:1018900000400140024B18688007C00F7047C046E7
:1018A00000C0064070B5EFF3108C72B60D4D2B687A
:1018B000002BFCD0BFF35F8F0724CB08C618C05C99
:1018C00001230C40A3401C000440034207D1034302
:1018D0003370BFF35F8F2C608CF3108870BD1000E5
:1018E00001F0BEFE2C0100D0F8B54746CE46884632
:1018F00080B5EFF3108C72B6214D2C68002CFCD013
:10190000BFF35F8F9A422CD8D4080727055D0619CC
:1019100001241740BC402C421FD0072101278946D3
:1019200009E0D408055D06194C4639001440A14071
:101930000C00294211D001329342F2D201204042E0
:10194000BFF35F8F00220E4B1A608CF310880028C3
:101950000FDBC0BCB946B046F8BD2C431000347054
:10196000EEE7BFF35F8F00232B608CF3108801201C
:1019700040424346002BECD0089801F071FEC0466F
:101980002C0100D00021044B044ABFF35F8F02C337
:101990009342FAD17047C046000100D0800100D0C8
:1019A000044A1078431CDBB2172B00D910231370A4
:1019B0007047C046A8D5002010B50100024A034870
:1019C000FFF770FF10BDC046C8CE0020A8DF002082
:1019D00000B5054B83B00100009318221F23034874
:1019E000FFF782FF03B000BDE8CE0020A8DF002093
:1019F00001238340002904D0034A1360034A136083
:101A00007047034A1360FBE780E200E000E100E07A
:101A100080E100E001228240034B1B6813405A1E04
:101A20009341D8B27047C04600E100E001238340F3
:101A3000014A13607047C04600E200E0084B1030D6
:101A40009B688000C358002B07D0064A00209B1AD1
:101A50002F229A424041C0B270470020FCE7C046A6
:101A600000ED00E0ACD50020024B10309B688000F8
:101A7000C058704700ED00E070B50D00EFF3108620
:101A800072B60F4A1368002BFCD0BFF35F8F0D4B6B
:101A900010309B6884001B590B4A934203D09D422F
:101AA00001D001F0FBFD074B9B681D51BFF35F8F19
:101AB000BFF35F8F0022024B1A6086F3108870BD5F
:101AC000240100D000ED00E0CD010010F0B5574634
:101AD0004E46DE464546E0B585B006000291170049
:101AE000EFF3108B72B6674A1368002BFCD0BFF37C
:101AF0005F8F0025644B5D579A46002D00DAA4E005
:101B00006B00624C03935B199B009846A146C1444D
:101B10004B4652469B79103613705D4BB2009B6862
:101B2000019299580B1B2F2B34D95A4B994200D054
:101B3000A4E0039B584A9C46584B6544AD00635350
:101B4000434602336519E418554B0121043B1B1B26
:101B50001B055B0D13436B80524BEF71AB80FF2372
:101B6000AB71029BAB604B460B431900484B019A8B
:101B70009B689950BFF35F8FBFF35F8F0022414B8B
:101B80001A608BF3108805B0F0BCBB46B246A9467C
:101B9000A046F0BD01200A008243D379BB422FD872
:101BA00045464E46130040491B1B5B415943090DF6
:101BB0003A4B63533A4B02356519043B5B1B1B05DB
:101BC000354D5B0D2B4373800426B446E0444444FA
:101BD000131F1B1B4C46A17102991B05A1604946AE
:101BE0005B0D2B43A380314BE77101431360BDE7CD
:101BF0005800C01880002018C679BE422BD90200B8
:101C00000623D356002BF3DA101D8246284880465F
:101C100004267642B446E14450464E46361A300514
:101C2000400D824656461C48957106439680039A9D
:101C3000944665441D4AAD00641922604246A37172
:101C4000029BA280E771A36090E701F027FD0025C9
:101C500053465D5754E7101D824690884005001595
:101C600084464046D444664604302018301AE026A4
:101C70000005400D360230438046C9E701F00EFDF5
:101C800057E7C046240100D0C3FD0220ACD5002098
:101C900000ED00E0CD01001000E0FFFF00A1FFFF1C
:101CA000DCD5002001BDFFFFAAAA00000148804743
:101CB00001BD0000F0B5DE4657464E464546E0B54C
:101CC0000C0083B0EFF3108972B6584A1368002BEA
:101CD000FCD0BFF35F8F564B9A68030010339F0010
:101CE000D559544A9046954232D0A54243D0524EDF
:101CF000AA1B2F2A2CD801228240924651464F4AD5
:101D000012681140019151464D4A1160BFF35F8F37
:101D1000EFF305829346002A33D101232A009A4328
:101D200093689C4208D177E04B005B189B00F31846
:101D30009968A1422AD01A00062151560029F3DAE7
:101D4000019B002B19D052463E4B1A603B4B1A6048
:101D5000374B9B68DD51BFF35F8FBFF35F8F00226E
:101D6000324B1A6089F3108803B0F0BCBB46B24610
:101D7000A946A046F0BD1500EAE75246304B1A606E
:101D8000E6E79342C9D001F089FCC6E7062159561F
:101D9000002921DB4A005018800034188046A068D2
:101DA0009860E079D871062020569871002824DBCD
:101DB000A488F01A6405241544440019E0240005A1
:101DC000400D24022043988052181F4B9200B618F1
:101DD0001A781970B271B3E7594600290FD1FF3153
:101DE00091711A49918018490A789A71184A9B1B77
:101DF0005B415A43120D0A70A2E71648E3E7164A00
:101E00001649D21A083A5002400D014399801449EC
:101E100052080A43DA8093E706215156130000293D
:101E2000B8DA5A46002AEAD14546DCE7240100D058
:101E300000ED00E0CD010010ACD5002000E100E095
:101E400080E100E080E200E0C3FD022001BDFFFF71
:101E5000AAAA000001BD0000E6D5002000F0FFFFA7
:101E600000F8FFFF032310B50400074A184094460A
:101E7000C0009C43FC3383406444226881409A4301
:101E800013000B43236010BD00E400E070B5EFF3D6
:101E9000058101240443EFF3108C72B6214A1368C4
:101EA000002BFCD0BFF35F8F1F4B05001F4AED1ABC
:101EB0006D416A43120D1E4D8900AE6852B27658CC
:101EC000A6421CD00621595691421CD012215956C7
:101ED000914222D01E215956914220D02A21595692
:101EE0000324914210D0134B19781A708171BFF3FB
:101EF0005F8F00220B4B1A608CF3108870BDAB68AB
:101F00000D4C5C50EFE700246100091989005B1853
:101F1000FF21997109499980E5E70124F4E702243A
:101F2000F2E7C046240100D0ACD50020AAAA0000E8
:101F300000ED00E0C3FD0220CD01001001BDFFFF58
:101F4000054B064A1360064A136053609360D360E2
:101F500013615361936170478080808000E400E0EA
:101F600004E400E000B5074B83B0010000930022B9
:101F700005230548FFF7B8FC002801DB1F23181ACA
:101F800003B000BD04CF0020C9FD0220024B9C46D7
:101F900061448900016070474000003410B50400BE
:101FA000FFF7FEFC01002000FFF7F0FF01235B427A
:101FB0006360BFF35F8F10BD10B50400FFF7F0FC46
:101FC00001002000FFF7E2FF01235B426360002372
:101FD0002372BFF35F8F10BD10B504000120FFF71F
:101FE000F7FC044B9C46604480002060BFF35F8F89
:101FF00010BDC04640000034034B9C46614489003C
:102000000160BFF35F8F70474000003483680B4866
:1020100010B5844661446244090112019A185918A6
:1020200054684B6801209C4201D802D00020C0B205
:1020300010BD12680B689A42F9D8F7E7FFFFFF0F4F
:10204000074810B50268EFF3108172B61368002BD1
:10205000FCD0BFF35F8F06F05BFC0020002110BDB9
:1020600064FC0020F8B557464E464546DE46E0B5CE
:1020700099460CAB1C780DAB1B78060090469A462F
:102080000768002C11D1BC7B002C42D065003B6856
:102090002D19033D59194B78BB73002B00D1FB73ED
:1020A00000238B704B700B7004E065003B682D19AA
:1020B000033D5919B2682A4B94464246E3181B0166
:1020C00063441A604A465A600A9A9A600B9ADA6028
:1020D00000238B704B700B707B7B9B46002B2BD0AF
:1020E00022005946B8687B6898473A68002816D09D
:1020F0005B4658465B005B445519033BA870D118FA
:10210000D35C002B00D06B705B460C707B73A345D7
:1021100013D0F0BCBB46B246A946A046F8BD5B460C
:102120005B005B44033BD3189C705119525D002A3D
:1021300000D05A705B460B707C7342464B46307D34
:1021400000F0BCFB051E06D05346002B03D1210036
:10215000306800F0FFFD0E9B002BDAD01D70D8E731
:10216000FFFFFF0FF0B5DE4657464E4645460023BB
:10217000E0B58BB00893674B8200D45800239B4690
:10218000099000F011FB626806000F00EFF3108564
:1021900072B61368002BFCD0BFF35F8F23689C4698
:1021A0005B7B9946002B00D169E0A2685A4B9046B0
:1021B0004B441B01984443461A685B6810001900A1
:1021C000801BB941002900DC63E0099800F076FB30
:1021D00000230022984600230692079300239A4684
:1021E0006368BFF35F8F5A461A6085F310885346C1
:1021F000002B08D10028C4D10BB0F0BCBB46B246BE
:10220000A946A046F0BD089B414618024B4618431C
:10221000D047626806000F00EFF3108572B61368AE
:10222000002BFCD0BFF35F8F002F50DB33003B430C
:1022300002D02369002B61D12368D97B002907D004
:102240004A00521819688C4649466244033A517054
:102250009A7B002A01D14A469A734A46DA734B4662
:10226000E168013BCA5C0132CA545B462361636882
:10227000BFF35F8F5A461A6085F3108881E7002309
:1022800000229846002306920793002300209A46D6
:10229000A6E7002902D1002800D096E70021604679
:1022A00000F0D6FC43461A685B68069207934346E3
:1022B0009B689A464346DB689846E3684B44013B7B
:1022C0001B7808931B0203432361002088E72369DE
:1022D000002BB1D0069A079B921BBB41002B15DB4C
:1022E00059460491012103914946029141460191C9
:1022F000514620000091FFF7B5FEB6E700F054FA12
:1023000032003B0012184B41002BE9DA0122034B4B
:102310005242E5E7BCF40020FFFFFF0FFFFFFF7F05
:1023200010B5144C6368002B04D00A211248FFF743
:102330002DFE10BD2300114A1021206800F0A2FBE1
:10234000032000F025FA032000F022FB03200C49B3
:1023500000F06EFAFFF724FB0A4B9C46032323751B
:10236000D0231B061B6860446375074B80006060C8
:10237000DC60DAE7F4D5002064FC0020CD1D0020ED
:10238000251F002040000034BCF4002000487047A6
:10239000F4D50020F0B54E464546DE465746E0B53A
:1023A00085B0019310AB1B78060003930023994678
:1023B000984600927268EFF3108B72B61368002B88
:1023C000FCD0BFF35F8F3568AC7B002C3DD067003D
:1023D0002B683F19033FDB195A78AA73002A00D1F2
:1023E000EA73B168474A8C4600980199A218120115
:1023F0006244106051600E9991600F99D16042461D
:102400009A705A701A706B7B9A46002B67D0220024
:102410001900A8686B6898472A68002852D053466C
:1024200050465B005344D719033BB870D118D35CB6
:10243000002B00D07B7053460C706B7354454FD00B
:10244000F3681B19013B187800E000207368BFF3A4
:102450005F8F42461A608BF31088002C4FD04B469A
:10246000002B08D10002204305B0F0BCBB46B246A9
:10247000A946A046F0BD039B002B3ED00E9B00203A
:102480000F999847030004000D000B4335D0002935
:102490000ADA009A019B121BAB4100920193002BB8
:1024A0000ADB039B994685E700F07EF924184D412D
:1024B00000940195002DF4DA0123134C5B42009344
:1024C0000194EEE753465B005344033BD3189C70E2
:1024D000D119D25D002A00D05A7053460B706C732C
:1024E000307D009A019B00F0E9F981460028A7D0D1
:1024F0002100306800F02EFCA2E70020B4E70120A4
:102500004042B1E7FFFFFF0FFFFFFF7F407D7047B5
:10251000F0B54746CE46040080B50D0096267642BB
:10252000F71736196F4185B08F4215D812D000F0D9
:102530003BF932003B00121A8B41002B16DC002BBA
:1025400039D02000290000F063F905B0C0BCB946BD
:10255000B046F0BD8642EAD90026002700F024F9F3
:1025600032003B00121A8B41002BE8DD002302935E
:102570000193124B3200009311483B00FFF70AFF12
:102580000028DEDBB846B1460E4F0F4E736A984501
:1025900004D8B26A9145D4D99845D2D13A68EFF3BC
:1025A000108172B61368002BFCD0BFF35F8F380028
:1025B00006F078F9EAE7002AC3D0D7E7011E002029
:1025C000F4D5002064FC00200040054070B50600F2
:1025D00000F0EAF8FA2204000D0000233000002188
:1025E000920003F0D5FA00196941002902DBFFF7D8
:1025F0008FFF70BD012001494042F8E7FFFFFF7FD8
:10260000F0B5EFF30583CE46474680B505000C00D4
:1026100085B0002B12D02C4A0020536A9C4203D86C
:10262000926A0130AA4204D305B0C0BCB946B04694
:10263000F0BDE01A421E9041C0B2F5E7234E02936E
:102640000193234B0200009330000B00FFF7A2FE22
:10265000031EE0DD20BF7168EFF3108772B60A68D1
:10266000002AFCD0BFF35F8FDAB294463068427B19
:1026700062451DD0FF221A405100894601689144ED
:1026800088464946414403398978002913D0F168C6
:102690001B0A88464244013A1278DBB29A420FD0B4
:1026A0007368BFF35F8F00221A6087F31088B2E768
:1026B000FF221A40EBE732699342F1D13161EFE733
:1026C000614600F047FBEBE700400540F4D50020F1
:1026D000011E0020F0B5EFF30582D6464F46464670
:1026E0001000C0B51038EFF3108872B6214C236883
:1026F000002BFCD0BFF35F8F0123190081401E4DDA
:102700001F006963AA461D4D29601D4D2E78AC46F9
:102710003500C5402F402B4209D1BFF35F8F2760A2
:1027200088F31088E0BCBA46B146A846F0BD5346CF
:10273000144D5F6A83005D59AF420ED3124A8E4337
:102740009B5862461670BFF35F8F0022226088F3A9
:102750001088002BE6D09847E4E70C4B92009C468B
:10276000624413681360BFF35F8F0023236088F314
:102770001088D7E7280100D0004005403C70054094
:10278000C8FD02207CFC002088DE0020D03F0540F0
:1027900010B50100024A0348FFF784F810BDC04697
:1027A00020CF0020C2FD0220034B596A0A00986A1C
:1027B000596A8A42FAD170470040054070B504005A
:1027C0000D00124A536A1900966A536A8B42FAD175
:1027D0003000190024184D41AB4211D80ED02B0007
:1027E0000A494A6A9A42FCD307D1084A02E0516A70
:1027F000994202D1916AA142F9D370BDA642EED9A5
:10280000012301246442E5175B42E9E700400540EB
:10281000064A536A9942FCD807D1044B02E05A6A2F
:10282000914202D19A6A8242F9D370470040054032
:1028300070B504000D00EFF3108672B61A4A1368E3
:10284000002BFCD0BFF35F8F002D1BD02000FFF7C3
:102850000BF9164981420AD02000FFF70DF901213A
:102860002000FFF7C5F80123A340114A1360114B64
:10287000A400E550BFF35F8F00220B4B1A6086F374
:10288000108870BD0B4BA200D5500122A2400A490E
:1028900020000B7893430B700449FFF70BFA0021DB
:1028A0002000FFF7A5F8E5E7280100D095240020D7
:1028B0003860054088DE0020C8FD0220F0B54F4694
:1028C000D6464646C0B507002C4C616A0D00A66A84
:1028D000616AA942FAD18B4208D805D00120E0BC38
:1028E000BA46B146A846F0BDB242F7D9EFF3108A16
:1028F00072B6234801680029FCD0BFF35F8F012521
:10290000BD4020491D4C8846097889462943C9B2F3
:102910008C46414660460870391D1B488900656336
:102920000A51B9000B50216A0020294219D0616A6E
:102930000800A66A616A8142FAD18B4219D801D196
:10294000B24216D8CC4516D00C4B1F201D625D63D9
:1029500001230740BB400D4A1E38136043464A46D8
:102960001A70BFF35F8F0022054B1A608AF310883C
:10297000B5E70020F5E70120F3E7C0460040054039
:10298000280100D0C8FD02207CFC002080E200E08D
:10299000EFF3108C72B60A490B68002BFCD0BFF322
:1029A0005F8F01238340074A0748136202789A43E6
:1029B0000270BFF35F8F00230B608CF310887047A9
:1029C000280100D000400540C8FD0220042330B596
:1029D000D3560F4C9B001B590025545F87B00594BC
:1029E000072414570B4D049406241457039405240C
:1029F0001457029402241457013CA4006459019412
:102A0000D27852B20092044A02F020F907B030BDE9
:102A100010D000202CD0002044CF002070B505003D
:102A200014001600002915D00C00002A12D080686E
:102A30006B689847296800280ED073009B196200C4
:102A4000033B1219CB18033A9C7088188A5C002A41
:102A500015D10670200070BD63001B197200033B86
:102A60009219CB18033A9E7088188A5C002A02D10A
:102A700004703400EEE75A7004703400EAE75A70CC
:102A80000670E7E730B583600023CCB243730133AF
:102A9000047342608373C4730D000068012C06D96F
:102AA000421C0133DBB2137003329C42F9D1FF2187
:102AB00029404B005918002340180338437030BD9B
:102AC000F8B5CE46474606000C0080B5002907D071
:102AD0004D0003686D18033D5A195778002F04D133
:102AE0002000C0BCB946B046F8BD7900C919033909
:102AF000884643445978894600215970517073685B
:102B00003A002100806898473368002814D0424674
:102B10009A18947059195B5D002B00D053700F7098
:102B2000270049463000FFF7CBFF39000200300094
:102B3000FFF774FF0400D3E7424641465D19AF70CA
:102B40009A185B5C002B00D06B701470E9E7C046EC
:102B5000F0B557464546DE464E46E0B50D006B00E3
:102B600001685B19DF1E0400C85D83B00192CA19B9
:102B7000002850D043001B18033BCB185E78B446A6
:102B8000002E1AD1019E002E42D0E67B002E04D0EA
:102B900073009B19CB18033B5D70A37B002B00D106
:102BA000A573E57300282FD10023537003B0F0BC48
:102BB000BB46B246A946A046F0BD72006244033A45
:102BC00089184A78904600224A7091465A7001004E
:102BD00032002000FFF722FF43468246002B07D039
:102BE0005B0021684344033BCB185A78002A16D176
:102BF000424651462000FFF711FF2168019BCA1988
:102C0000002BC2D10028CFD043001B18033BCB18A8
:102C100000219970C8E7019B002BB6D1C4E7500092
:102C20008018033809184878834648464870587019
:102C300041462000FFF7F2FE594680462000FFF78C
:102C40003FFF414602002000FFF7E8FE8046CFE745
:102C5000F0B557464546DE464E46E0B583B0019195
:102C6000457B04006B0000685B19DF1EC15DC21963
:102C7000002952D04B005B18033BC3185E78B44662
:102C8000002E1CD1019E002E44D0E67B002E04D0E5
:102C900073009B19C318033B5D70A37B002B00D10D
:102CA000A573E573002931D10023280053706173A7
:102CB00003B0F0BCBB46B246A946A046F0BD7200C8
:102CC0006244033A8018427890460022427091464E
:102CD0005A7020003200FFF7A1FE43468246002BC7
:102CE00007D05B0021684344033BCB185A78002A85
:102CF00017D1424651462000FFF790FE019B01008C
:102D00002068C219002BC0D10029CDD04B005B1820
:102D1000033BC31800209870C6E7019B002BB4D179
:102D2000C2E750008018033809184878834648469F
:102D30004870587041462000FFF770FE59468046A3
:102D40002000FFF7BDFE414602002000FFF766FEAF
:102D50008046CEE770B5040000292CD0437B8B421F
:102D60002ED0056848004018033828188278002AB9
:102D700021D053009B18033BEA5CEE188A4202D133
:102D80001BE0002A08D053009B18033BEB185A782D
:102D90008A42F6D142785A70002301228370437030
:102DA0002000FFF7D5FE617B02002000FFF736FE12
:102DB0006073012000E0002070BD43783370EBE7C2
:102DC00001221900FFF7C4FE60730120F4E7C0463A
:102DD000F8B5CE464746040080B506200E0000F048
:102DE00003FB051E51D0524B5249E21853425A413F
:102DF0008023DB039C4692054F4B62441A604F4B85
:102E00001A6010008B689843FBD1494B8021E3186E
:102E10005A4253414A4A5B0049009952062000F049
:102E2000E3FA3100C00001F0B5FFC30932D14022FE
:102E3000012190466162A362256BEB0736D427001F
:102E40008026E36A00232C3776013E433360062058
:102E5000256300F0C9FA4146800001F09BFF236B17
:102E600005009846DB073BD46022E36A5A406E2394
:102E70001340336043462363802310229B013B436E
:102E80001A60304B23630323A3642800C0BCB946F7
:102E9000B046F8BD2C4A93423FD900232B492C4A17
:102EA0006162A362256B9046EB07C8D52200C02360
:102EB00030329B011343234A06201A60666AA26AD5
:102EC000B601B61800F090FA224901F063FFB6028D
:102ED0000100300001F05EFF0021FFF76FFCAEE75C
:102EE0002200C02330329B011343164A06201A6089
:102EF000636AA26A9B019946914400F075FA4B46B9
:102F000014499B02994601F045FF0100484601F033
:102F100041FF0021FFF752FCA6E77F229901884676
:102F200010400130400819008044030082E7C04689
:102F30000080FCBF00C0004000E0004000F0004006
:102F40008CFC002001030000FEFF0000FFFF0000DA
:102F5000C0FF3F004E0E0000F8B5040006200D0033
:102F600000F042FA2900C00001F014FFC30924D088
:102F7000224A934239D90023214A224E6262A36237
:102F8000256BEB0720D52200C02330329B01134371
:102F90001D4A06201A60676AA26ABF01BF1800F0C6
:102FA00023FA1A4901F0F6FEBF020100380001F0D1
:102FB000F1FE0021FFF702FC06E0402601226262DA
:102FC000A362256BEB07DED4E36A220080232C3258
:102FD0005B011343002206201A60256300F004FA07
:102FE0003100800001F0D6FEF8BD7F221040013094
:102FF00040089E011A0036180300E0E7FEFF0000BB
:10300000FFFF0000C0FF3F00010300004E0E000064
:103010000539013AF8B5D2004C0105001443002BE4
:1030200005D002222243012B2AD105331C432E6BEB
:10303000F3070BD4EA6A802362406E2414402A000E
:103040005B012C3213431C602E63F8BD2A00C023A1
:1030500030329B0113430B4A06201A606F6AAA6A3A
:10306000BF01BF1800F0C0F9074901F093FEBF028D
:103070000100380001F08EFE0021FFF79FFBD9E729
:103080001400D4E7010300004E0E0000F8B54B1EFB
:103090009941066B05000C01F3070BD41023E96A74
:1030A0002A004C401C4080232C325B0113431C60DF
:1030B0002E63F8BD0200C02330329B0113430A4A3D
:1030C0001A60476A826ABF010620BF1800F08CF9B7
:1030D000064901F05FFEBF020100380001F05AFE10
:1030E0000021FFF76BFBD9E7010300004E0E000043
:1030F0004B1E9941F52349429943054B01319C46AA
:10310000604443425841034BFF314000C152704775
:103110000080FCBF8CFC002030B50C2083B000F098
:10312000B9F9FEF7B7FB00280ED0994B994A1A60FF
:103130005A609A60DA601A615A619A61DA611A62B9
:10314000954A5A6203B030BD944CA06700F0F6F97E
:103150000122934B1A60636C012BFCD10322914B2B
:103160001A608E4A936B012BFCD1013301218E4AE8
:103170008E480093043300F03DF905238C4A0093F8
:1031800001218C4800F036F98B4B5A68FF2A02D88F
:10319000802252005A6080227D4C824B21691201AC
:1031A000854D1A60002907D0606901F0F3FD431CCA
:1031B0005800C0180338FDD2E0217F4B02201A6866
:1031C0001140802252012A431160196848400321AE
:1031D0000140116004219A681142FCD080228021B4
:1031E00092012A4309011160802252005A60734BF8
:1031F0002361734B5968FF2900D85A600321684A3C
:103200006F4B116002399A681142FCD0E0201A68B5
:103210001040802252011A43106018684840032170
:1032200001400220116066498A681042FCD0802269
:1032300092011343802212011A608022614B5200D6
:103240004A606361604B5968FF2900D85A60802248
:103250005E4BE16912015C4D1A60002907D060697C
:1032600001F098FD431C5800C0180338FDD2E0223D
:1032700055490B681A4080235B012B431A60802359
:1032800080229B012B4312011A608022414B520085
:103290004A60E3614E4B5968FF2900D85A6080228A
:1032A0004C4B216A12014A4D1A60002907D060690F
:1032B00001F070FD431C5800C0180338FDD2E02215
:1032C00043490B681A4080235B012B431A6080231B
:1032D00080229B012B4312011A60802380225B0015
:1032E0004B602C4BD20223623B4B5968914200D277
:1032F0005A608022394B616A1201374D1A600029E9
:1033000007D0606901F046FD431C5800C01803381F
:10331000FDD2E02230490B681A4080235B012B4329
:103320001A60802380229B012B4312011A608023A4
:10333000DB024B60184B6362294B5A68FF2A02D8A4
:10334000802252005A608022264BA1691201244D2E
:103350001A60002907D0606901F01CFD431C580069
:10336000C0180338FDD2E0221D490B681A408023A3
:103370005B012B431A60802380229B012B431201A7
:103380001A6080235B004B600E4BA361DAE6C046F7
:10339000ACDF0020006CDC021BB7000000800040A6
:1033A0003CB0004030B00040002F6859008002401F
:1033B000008C864700C0024030800040001BB700F0
:1033C0003C800040405973075480004054B0004096
:1033D0006080004060B000406C8000406CB00040F5
:1033E0004880004048B00040014B8000C058704702
:1033F000ACDF0020F8B5040021481D0017000E00C6
:1034000001F0C8FC0100380001F0C4FC069B29044F
:103410001B0319432368002B20DB1A4B1A4DE218BB
:1034200053425A4180235B019C461203174B62446E
:103430001A60174B1A601700AB689F43FBD1C0227C
:10344000231D92011A4321232660A0601360236884
:10345000002BFCDA0823E1601360F8BD3F232268EB
:103460001340B342D9D1A3681B051B0D8342D4D1AD
:10347000EE22E368D20213408B42CED1EDE7C04684
:10348000001BB7000040FDBF00C0004000E000404E
:1034900000F000408023024A9B000343D362704740
:1034A0000080054010B5140080221B4BD2051A6025
:1034B00000281AD00123194A1843194BDA61194A16
:1034C00042401A62596298628022134BD2051A60F8
:1034D0001549164A1160E022D2041A60002C07D167
:1034E0008022134B12061A6010BD0D4BD861EBE71A
:1034F00063011B1B9A008023121912015B049A427C
:1035000000D30C4A0C4B1A60054B5A608022084BC2
:10351000D2051A60E8E7C04600B00540D3C007B046
:10352000008005402D3FF84FFCFF010008200140BE
:1035300000A00540FFFFFF00ACF40020AA23064ACC
:103540001B0113602F230549D360054B1960536895
:10355000002BFCDA7047C0460040024000B0FA0081
:10356000006002402C4B2D4A70B51A602C4A2D4B3E
:103570002D491A6014008B689C43FBD12B4D2C4EB7
:10358000B54208D2013E761BB60808CD9847230005
:103590000134B342F9D1FFF7BFFD264A214B1A602F
:1035A000214A9368DB43DB01DD09002BF9D140227E
:1035B000214B224C224E9A675A671A67DA66B44248
:1035C00008D223682000002B20D00C34FEF7F4FC36
:1035D000B442F6D31B4E1C4CC022A168300002F04E
:1035E00093FBA660FEF7CEF9FEF7AAFCFEF798FE65
:1035F000164C174EB44208D2013E361BB60808CC12
:1036000098472B0001359E42F9D170BD0834FEF772
:10361000C5FCB442D5D3DDE700E00040BFCDFBFEE2
:10362000FE7F3C0000F0004000C00040B4D6002007
:10363000C4D60020FFFFFF0100F00140A4D6002007
:10364000B4D600200000002000ED00E0C4D6002029
:10365000D0D6002000BEFDE710B5FFF7FBFFC04647
:103660000FB400B5084883B002F0B2FC049B002BF5
:1036700007D005A91800019101F00CFB034802F0E6
:10368000A7FC0120FFF7E6FF5CD000205CCE002005
:1036900010B50148FFF7E4FF6CD0002010B50148D9
:1036A000FFF7DEFF7CD000209A4200D2885470479A
:1036B0007047C046F8B557464E464546DE46E0B52B
:1036C00099460A9B07009A460D9B8846934615002B
:1036D0000B9E9B0710D10C9B9E420DD29D1B14008C
:1036E0000E005D4422004B46013431002020B847D3
:1036F000A542F7D1B0460B9E002E27D0444675193F
:103700005346AA1B013E985D21004B46B847002E48
:10371000F6D123002C0098460D9B9B070FD55B46E6
:10372000E51A0C9BAB420AD94646984622004B4606
:10373000310020200135B8470134A845F6D82000D3
:10374000F0BCBB46B246A946A046F8BD2C00E3E754
:10375000F0B54F464646D646C0B584B098460EAB47
:103760001B78129F994694460D9C109B119EBA0798
:1037700025D4002E4BD19C4200D3BFE001223A4019
:1037800092461F2C00D9B8E00C9A551E302201E059
:10379000202C03D001342A55A342F9D85246002ADE
:1037A0000DD0A6420BD9202C44D00C9A551E3022A5
:1037B00001E0202C3ED001342A55B442F9D1FA065A
:1037C0004DD57A053FD4002C39D10F9B102B00D159
:1037D00079E00F9B022B00D18AE030230C9A012460
:1037E00013704B46002B3FD02D230C9A13550134F8
:1037F0000C9B624600930397434602960194FFF7A1
:1038000059FF04B0E0BCBA46B146A846F0BD01225B
:1038100015003D40AA463A422FD04A46002A02D11E
:103820000C323A4200D0013E9C42BAD21F2CABD996
:10383000202E27D92024FA06DAD57A0503D4A3420C
:103840002DD0A6422BD00F9B102B32D0022B20D094
:10385000202CCDD030220C9B1B191A700134202C47
:10386000C6D04B46002BBFD17B070DD43B07BFD53D
:1038700020230C9A13550134BAE79C429FD21F2C87
:1038800000D881E720249AE72B230C9A13550134A2
:10389000AEE7202CACD00C9B1B1901343AE0631E20
:1038A000012C92D00F9A102A2AD0022A2FD01C0065
:1038B000D0E7BB060ED4202C9AD00C9B1A190134E9
:1038C00078231370C4E7BB060DD478230C9A012427
:1038D0001370BFE7202C00D18AE758220C9B1B19DC
:1038E0001A700134B4E758230C9A01241370B1E71D
:1038F0000C9A603301241370ACE7202400265EE7A5
:10390000023CBA06E9D40C9A12191C00D8E70C9AAA
:103910009246534462221A709AE7C04610B50028B6
:1039200000D110BD02F008FBFBE7C0460B0010B54C
:10393000002802D049681B68984710BDF0B5DE46E4
:1039400057464E464546E0B59BB09B46249B89466C
:103950009846259B0B900C924046424619009A4689
:1039600001F0E1FC002800D0D8E001224046514699
:10397000774B524201F0D2FC002800D0CEE0012269
:1039800040465146734B524201F0B2FC002800D031
:10399000C4E0002200234046514601F0A9FC002863
:1039A00000D0B9E1424653460A9209938023289AEF
:1039B000DB001A400E92289A1A4201D10623269360
:1039C0000A9A099B1600134300D0C7E0289B0025E4
:1039D00000261B0500D49BE100230D93269A0D9B26
:1039E0009A4200DC9FE1D01A431E26938023289A36
:1039F000DB001A430023002728920D93279B002405
:103A0000BB4200D9DC1B0223289A1A400E92289A46
:103A1000134203D07B427B415B421C400D9B002B39
:103A200007D00A9809992A00330001F000FC0A9097
:103A30000991002200234046514601F059FC00281C
:103A400005D0802000068446099961440991289A8E
:103A5000414B0B9D13400493269B0A9A0293099BAA
:103A600003940092019349465B4628000C9A00F0AB
:103A70008BF90400002F62D0289B220098061F2398
:103A8000C0179843631C984649465B466530A84773
:103A90000D9B0025DA179C18DB0F9A465440013F16
:103AA00001E0202D13D00AAA94461F23200063446E
:103AB0000A2101355E1901F06DF9303131702000B5
:103AC0000A2101F067F926000400092EE9D8052330
:103AD0000693002304930A330393534605970B9FE1
:103AE000029312AB009342465B464946380001956B
:103AF000FFF72EFE0E9B0400002B20D00C9BC51A56
:103B0000279BAB421BD91E0022005B464946202062
:103B10000135B8470134AE42F6D810E0289B424642
:103B20000493279B49460393269B0B980293534685
:103B3000009201935B460C9A00F026F904002000E5
:103B40001BB0F0BCBB46B246A946A046F0BDC0467D
:103B5000FFFFEF7FFFFFEFFFFFF7FFFF734B099FB3
:103B60009C467800400D604401F0F0FB704A714BB8
:103B700001F07BFB704A714B01F050FB3B03704A34
:103B80001B0B1A4304000D00300011006D4B002286
:103B900001F03BFB6C4A6D4B01F067FB02000B0030
:103BA0002000290001F03AFB01F0E8FB0D9001F044
:103BB000CDFB674A674B04000D0001F056FB002265
:103BC000654B01F02BFB01F0D9FB644A0600644B06
:103BD0002000290001F049FB040030000D000F9681
:103BE00001F0B4FB5F4A604B01F03FFB02000B00A9
:103BF0002000290001F009FB02000B0006000F0065
:103C000001F033FB320004000D003B0030003900AE
:103C100001F004FB002210901191544B2000290068
:103C200001F005FB0022524B01F0F8FA02000B00F4
:103C30002000290001F0FBFA00224E4B01F0EEFAC1
:103C400002000B002000290001F0F1FA0D00802194
:103C5000040032003B000020C90501F0D6FA020042
:103C60000B002000290001F0D9FA02000B00109887
:103C7000119901F0DCFA0022314B01F0CFFA3E4BF2
:103C80000F9C9C4664440022230501F0EEFA0500D7
:103C90000E0002000B000A98099901F029FB002888
:103CA0000AD00D9B2800013B31000D930022304BC0
:103CB00001F0BDFA05000E00C6270D992B006331F7
:103CC0008F42BF4128997F420437090500D495E609
:103CD000334300D182E6099C284A2100284B0A98E8
:103CE00001F014FB002808D000222100254B0A987F
:103CF00001F0FEFA002800D070E6269B002B00D1D0
:103D00007CE60E9B5A1E9341269AD31A269375E69B
:103D1000002304270D9371E643460A9380231B0674
:103D20005344099342E6002326935FE601FCFFFF1C
:103D3000FB799F501344D33FB3C8608B288AC63F9A
:103D40000000F03F0000F83F61436F63A787D23F58
:103D500071A379094F930A400000E03F1655B5BBA7
:103D6000B16B0240EF39FAFE422EE63F00002C40D4
:103D70000000244000001840FF0300002D431CEB0E
:103D8000E2361A3F80842E41F0B54E46DE46574655
:103D90004546E0B597B09946209E219F229B8346D9
:103DA000984607910C923B0032003000390001F038
:103DB000BAFA002800D0A9E1012230003900CA4B2C
:103DC000524201F095FA002800D0E1E001223000D3
:103DD0003900C64B524201F0A1FA002800D0B7E0EA
:103DE000002230003900C24B01F098FA002800D0C0
:103DF00099E0002230003900BE4B01F079FA00282A
:103E000000D090E0002200233000390001F070FA69
:103E1000002800D0B1E000230D93249B5B0501D462
:103E20000623984608AB9C461722002430234146BF
:103E3000624404E0013413550139202C01D00929D2
:103E4000F8D888463000390001F098FA4346DA0085
:103E5000A94B05009B181A685B680892099301F04A
:103E600075FA02000B003000390001F0CEF9089A13
:103E7000099B01F0FAF90A900B9101F0A3FA82462E
:103E800001F060FA02000B000A980B9901F0BDF9ED
:103E900000229A4B0A900B9101F040FA002800D1C1
:103EA000C0E001239C46E244504601F04BFA020078
:103EB0000B000898099901F021FA002802D000238C
:103EC0009A4601354346002B6AD008AB17269C461C
:103ED00008956644554614E001235B4243440A2199
:103EE00028009A4600F056FF0134303137193970F6
:103EF00028000A2100F04EFF092D00D8D0E0D0465E
:103F00000500202CE8D10EAB98460323249A1340D9
:103F1000012B00D196E02023249A01930392239A47
:103F2000434602921EE0249B58460493239B00962E
:103F30000197039343460C9A029307994B46FFF768
:103F4000FDFC17B0F0BCBB46B246A946A046F0BD8A
:103F5000249B5B070ED40322694B249901920391A1
:103F600023990291009358464B460C9A0799FFF704
:103F7000A1FBE6E70422634BEFE73B0032000020A1
:103F8000002101F042F9012306000F000D9344E7E0
:103F9000249B0393239B0293042301935A4BE1E751
:103FA000280001F0D3F902000B003000390001F0C5
:103FB0002CF9524B002206000F0001F099F90EABCC
:103FC000984600280AD10022300039004B4B01F0FE
:103FD000A5F9002802D1EB0700D50135202C94D09B
:103FE00008AA94461723280063440A2101341E19A5
:103FF00000F0A8FE3031280031700A2100F0A2FE46
:10400000051EEBD10323249A1340012B1BD0202C37
:1040100000D180E70D9B002B35D02D224146631C3B
:104020000A5579E700220A980B99344B01F060F9A0
:10403000002800D046E75346002B51D101239C466F
:10404000E2443FE72024239B002BE0D00D9B002B74
:1040500003D1249A0C33134202D0239B013B2393B8
:10406000239BA342D3D908AB9C461722302362443A
:10407000202C00D14FE72399013413558C42C6D030
:10408000202CF8D147E7249B5B0724D4249A2300F3
:10409000120700D440E72022414601330A553BE78E
:1040A0005746089D202C00D12DE7220030214046A4
:1040B000002F09D00132B154202A00D123E7D34385
:1040C0001B191B18002BF5D10EAB98462E23414629
:1040D000541C8B5482E72B224146631C0A551BE774
:1040E000DB0700D4EEE6A9E7FFFFEFFFFFFFEF7F5E
:1040F00065CDCD4165CDCDC180D200200000E03F2F
:1041000088D000208CD0002098D00020249B0393DE
:10411000239B029303230193004B23E794D00020B9
:10412000F0B5DE464E4657464546E0B59FB01C000A
:10413000289B91460993C94AC94B8B4608901A603F
:10414000002900D118E2002320789A46002800D1E7
:104150001AE226001D005C460AE02A006F1C4B464E
:10416000089D2100A8473D0001363078002870D016
:104170002528F2D110239B46083B9A46043B9846DB
:10418000023B00219C46721C107816000300203B65
:10419000DBB2102B03D8B34F9B00FB589F460300A4
:1041A000303B092B32D900230A932A2868D00023F8
:1041B00098462E283ED00300683BDBB2122B1CD859
:1041C000A94A9B00D3589F46012301321943DBE7DC
:1041D000634601321943D7E7434601321943D3E717
:1041E0005B4601321943CFE7534601321943CBE70F
:1041F00080235B007078194301360300253BDBB256
:10420000532BAAD8994A9B00D3589F4600270300F6
:10421000B800C01901364000C018337830381A0091
:10422000303A0700092AF3D90A901800002398466B
:104230002E28C0D180237078DB0019430300303B67
:10424000721C092B00D8A1E12A2800D1B2E1160086
:10425000B1E7A346AA462C00D14503D801235B420F
:104260004B449A464B46524659460020089DA84763
:1042700020001FB0F0BCBB46B246A946A046F0BD28
:10428000099B40CB0A96002E03DB50780993561CFD
:104290008DE72838014370420A9009935078561CE4
:1042A00085E7782800D1DFE1582800D14CE26F285B
:1042B00000D14FE3622801D100F030FC10230A0046
:1042C0009A430B92692801D000F0A9FC0A230C93B1
:1042D0004B0500D5D0E10B9A802311009B001940BB
:1042E0008B461A4200D0A1E2802311005B001940E6
:1042F0008A461A4200D0B6E313005B0600D5EDE211
:10430000130009991B0601D400F076FC08C91BB202
:10431000D8171A18424092B209919346DA0F1292B6
:10432000002B09D1802310220B99DB000B40914315
:104330000B91002B00D0E4E20B9A6123920600D58A
:1043400041230EA91F228C46DBB262440A3B5F4622
:104350001395A34655460C9CB2460D9316000AE0F1
:104360003033DBB201357355A74200D2EDE2202D88
:1043700000D1EAE207002100380000F00BFDCBB2CB
:104380000929EDD90D9A94466344DBB2EAE780230C
:104390009B007078194301362FE77078682800D1A8
:1043A000CDE180230136194327E770786C2800D1CE
:1043B000BFE180235B00194301361EE7462800D188
:1043C0009BE10722099B0491073393430A9A190042
:1043D0000392424602920CC90898009201930991F7
:1043E0002A004B462100FFF7CFFC01360500BCE652
:1043F0002A006F1C4B46089D21002520A847013646
:104400003D00B2E68B0700D4ADE1099B2A009A4635
:104410006B1C9846534601CB21009A46089F4B4699
:10442000C0B2B8470A9B9C466544012B00D886E27F
:10443000089B4746B04626004C4699463A00230062
:10444000013731002020C847AF42F7D1A14653467B
:10445000340046460993013687E6C046E13E002017
:10446000A8F40020A0D00020E4D0002030D100200B
:10447000099B04CB9B4643460992002B00D1C6E022
:1044800013789C46002B00D1BDE34346013B099ABB
:104490000133D0180A9F130001E0834203D05A78F9
:1044A0000133002AF9D1099A0A979B1A0B938023AA
:1044B0000A00DB001A400C92194204D00B9B4345C2
:1044C00001D943460B9302231A000A400D920B4276
:1044D00000D187E16046002800D168E10C9B002BE9
:1044E00000D10DE1A844C246099B57465B1B984684
:1044F000089BB2462A0026004C46994609E0230054
:104500003100551CC8474346585D002800D126E1BC
:104510002A009742F3D1A1463D00340056460D9B38
:10452000002B00D043E15B46013609931DE6099B51
:104530001A0008CA9246002B48D0212211438B460C
:104540000EA884461F216144099500220F27A44626
:104550000D0002E0202A0CD00B003C001C40200083
:104560003730092C00D807380132A85419090F2B0D
:10457000F0D86446099D32E0DC4B20780893002394
:104580009A46002800D0E4E5002465E6434606008C
:104590000A9F9800C0180132400080191678030065
:1045A00030003038303B0928F3D9300098461600E7
:1045B0000A9700E6099B023604CB9046D243404658
:1045C000D2171040804609933078F4E51022080095
:1045D000904311321043834600224905B0D55B4613
:1045E0000693082305934346049310230393002363
:1045F000029316AB019200932A004B4621000898C3
:10460000FFF7A6F85346050001360993ADE5137888
:104610009C46002B00D1F7E202235B4237E72023C0
:1046200002009A43472A04D180231B011943022325
:104630009843452801D1202319430722099B04915F
:10464000073393430A9A19000392424602920CC917
:1046500008980092019309912A004B462100FFF728
:104660006DF90136050080E510230C930C230A0038
:104670009A430B924B0503D501230B9A9A430B9255
:10468000692800D127E6642800D124E60B9A80230C
:1046900011009B0019408B461A4200D066E180232E
:1046A00011005B0019408A461A4200D039E213001B
:1046B0005B0600D53CE113001B0600D4A6E2099B73
:1046C00004CB1204120C934609935B46002B00D0D6
:1046D0009AE10B9A1033110099430B91520500D4C3
:1046E00092E100239A460B9B06930A9B059343464F
:1046F00004930C9B039300230CE12023194360E6F1
:10470000099B0A9A5B1B98464B4691461F00B2468E
:104710002600089C2A003B003100A0474346013593
:10472000585D0028F6D14A463400B94656460A92EA
:10473000F5E6C0239B00B078194302365DE5C0233F
:10474000B0781943023658E50C230A009A43143313
:104750001A43103B0B920C934B058DD496E7A14660
:1047600034005646DBE60A9A012A00D853E26B1E53
:104770009F18089BB04626004C4699462A00230005
:10478000013531002020C847BD42F7D1A146340091
:104790004646099B3A0001CB210098467D1C4B46BA
:1047A000089FC0B2B847434601360993DDE40B9B2E
:1047B0000A9AA8469A4200D8B5E694466544ED1A8E
:1047C000089B4746B04626004C4699463A002300CF
:1047D000013731002020C847AF42F7D1A14634004D
:1047E0004646A0E60B9A0A99531C914200D814E25F
:1047F0004B199B1A1F00089BB24626004C4699464F
:104800002A002300013531002020C847BD42F7D1DE
:104810000A9BA14601330B93099B34001B78564633
:104820009C466046002800D058E67CE60722099B9B
:1048300007339343013294469C4462465F68099271
:104840001A68FB17109311931098119903005340A5
:104850000E930B007B400F9394460E9A0F9B121AF7
:104860008B410E920F93FB0F6246129300233A4343
:104870009B463DD00B9A6123920600D5412300222E
:10488000DBB20EA90A3B8C4692460D9343461F327B
:1048900062441395159655460E9E0F9FA24690466C
:1048A0000C9C14930CE03032D2B2434601355A5579
:1048B000BB4500D18AE1202D00D18AE106000F001E
:1048C000220000233000390000F0A2FAD2B2092AF7
:1048D000E9D90D9B9C466244D2B2E6E7FF230999D1
:1048E00004C913401A00099117E5C046713400202D
:1048F0000B9A1033110099430B915205BAD500233E
:104900009A460B9B06930A9B0593434604930C9B84
:104910000393129B02935346019316AB2A00009314
:1049200021004B460898FEF713FF013605001CE4F2
:10493000FF22099B02CB11408B460993C5E65346E3
:10494000454609930136FFF710FC56465C46AA46D9
:10495000139DD6E708230C930B910B99642800D084
:1049600084E60B9B5B0500D586E6B4E40722099B31
:1049700007339343013294469C44624609921A6875
:104980005B6810009B4613005A46134307D10B9AED
:104990001033110099430B91520500D5A1E60B9AF3
:1049A0006123920600D541230022DBB20EA90A3B07
:1049B0008C4692460D9343461F3262445F461295E1
:1049C000A34655460400B24690460C9E13930DE054
:1049D0003032D2B2434601355A550023BB4200D192
:1049E00000E1202D00D100E104000F00320000237F
:1049F0002000390000F00CFAD2B2092AE8D90D9B48
:104A00009C466244D2B2E5E70B9A6123920600D538
:104A10004123DBB20EA90A3B1F228C460D932300D3
:104A200062445C461295170055469B46B2460C9E62
:104A300008E03033DBB201357B55B4420ED3202D74
:104A40000CD004003100200000F0A4F9CBB20929F9
:104A5000EFD90D9A94466344DBB2ECE756465C46C8
:104A6000AA46129D3FE6099B1A0008CAD91713925D
:104A70005A184A409246DA0F1292002B08D180232E
:104A800010220B99DB000B4091430B91002B2BD193
:104A90000B9A6123920600D541230EAA1F27944644
:104AA000DBB20A3B0D9567445D460993A346544625
:104AB000B2460C9E08E03033DBB201357B55B44280
:104AC0000ED3202D0CD004003100200000F062F93C
:104AD000CBB20929EFD9099A94466344DBB2ECE7DB
:104AE00056465C46AB460D9D0B9B2A0006930A9BDF
:104AF00021000593434604930C9B08980393129B53
:104B0000013602935B46019316AB00934B46FEF7CA
:104B10001FFE139B05000993FFF727FB02230C934D
:104B20001AE7099B04CB92461293002A08D18023EE
:104B300010220B99DB000B4091430B91002B2BD1E2
:104B40000B9A6123920600D541230EAA1F27944693
:104B5000DBB20A3B0D9567445D460993A346544674
:104B6000B2460C9E08E03033DBB201357B55B442CF
:104B70000ED3202D0CD004003100200000F00AF9E3
:104B8000CBB20929EFD9099A94466344DBB2ECE72A
:104B900056465C46AB460D9D0B9B2A0006930A9B2E
:104BA00021000593434604930C9B0898039300232C
:104BB00002935B46019316AB00934B46FEF7C8FD8C
:104BC000129B050009930136FFF7CFFAB44200D8D3
:104BD00071E6149B54460E960F97AA469846159E6A
:104BE000139D8EE6A64200D8FBE6139B56469846D8
:104BF000AA465C46129D76E508C9D8171A184240A5
:104C00000991FFF78AFB00230B9350E4099B04CB27
:104C10009346099359E52F00BBE50B9301E6063B4C
:104C20000C939AE60EB4012210B585B007AC08CCFF
:104C300001000094524204480394FFF771FA05B052
:104C400010BC08BC03B01847693400200CB410B580
:104C500084B006AC08CC0A00009401000448039418
:104C6000FFF75EFA04B010BC08BC02B01847C0469B
:104C70006934002000B585B00391012102900093B2
:104C8000034813004A4202A9FFF74AFA05B000BDE3
:104C9000ED36002010B5094A0300146884B0002CDA
:104CA00008D0012200910648524203A9A0470120E2
:104CB00004B010BD01F08CF90020F9E7A8F4002041
:104CC000DD36002001480421014B184720D6002082
:104CD000C14A0020014B5B681847000020D6002025
:104CE000142310B50100188804331B88984710BDA1
:104CF000162310B50100188802331B88984710BD91
:104D0000F8B54746CE4680B50F1E19D014239946F4
:104D1000043304000025012698464B461888434674
:104D200021681B88984701C4431E984101354042C1
:104D30000640AF42F1D13000C0BCB946B046F8BD24
:104D40000126F8E7124A936F9B0815D29066D16648
:104D5000002905D0FFE7FFE7FFE7516F106F7047AD
:104D600004B580210906C2175140002800D0C8436D
:104D700007F004FA002104BDF0B5146E556E576FAC
:104D8000166FFFF7E3FF1466556657671667F0BDA9
:104D9000000000D0114A936F9B0813D21066516631
:104DA000002905D0FFE7FFE7FFE7516F106F70475D
:104DB00004B5002801D00020C04307F0DFF900212E
:104DC00004BDC046F0B5146E556E576F166FFFF7F1
:104DD000E5FF1466556657671667F0BD000000D002
:104DE00094464A4A926F9208624601D228E0C04631
:104DF000F0B5464E346E756E776F366F00F020F862
:104E00009446424A14665566576716676246F0BD77
:104E100094463E4A926F9208624601D254E0C046E0
:104E2000F0B53A4E346E756E776F366F00F04CF811
:104E30009446364A14665566576716676246F0BD53
:104E4000002B24DB11D000293EDA00B5C9434042D3
:104E500000D1013100F038F8C943404200D101319E
:104E6000DB43524200D1013300BD002AEBD10028C0
:104E700001D1002905D00020C90FC90701D1C043C5
:104E8000410800B507F07AF90022002300BD00B503
:104E900000290ADBDB43524200D1013300F014F851
:104EA000C943404200D1013100BDC943404200D155
:104EB0000131DB43524200D1013300F005F8DB43FE
:104EC000524200D1013300BD002923D1002B18D15B
:104ED000002A0CD0BC460D4F38667A6600210023AC
:104EE000FFE7FFE7FFE77A6F386F674670470028F4
:104EF00001D00748010000B507F040F90022002367
:104F000000BD02000B00002000217047000000D00F
:104F1000FFFFFFFF002B00D0BFE0130C28D1002AB9
:104F2000E7D080B4114F39667A66FFE7FFE730B407
:104F3000040C7B6F396F1B0423433B667A66FFE7E3
:104F4000FFE7FFE7C04684B27B6F3D6F1B0423433E
:104F50003B667A66FFE7FFE7C04600232C042D0C72
:104F60007A6F386F00196941B0BC7047000000D0FB
:104F7000F0B594460025140E01D112020835140F25
:104F800001D112010435940F01D192000235D40FE2
:104F900001D152000135D40B0134254F7C66254CDC
:104FA0003C660E0C93B2FFE7FFE7FFE73C6F6643FA
:104FB000360C7703BE467343DF0B5B04C01AB9415E
:104FC000130C7343DB18C91ACE086643360CB6447B
:104FD00093B273431F0F1B01C01AB941130C7343E3
:104FE0001F0B1B05C01AB941860D8F023E43664355
:104FF000360C092D24DB520A7243801A7703460AC5
:105000006643360C16235B1BDE40DF40BF19644647
:105010006643821B7046043506330100D940A84020
:10502000C01900D30131A24206D20023F0BD000016
:10503000000000D0FFFFFFFF121B0130F3D3F1E7A8
:1050400009277F1BFE406446A2B27243801A00D239
:105050000139220C7243130C1204821A99410B007D
:105060007046043513370100F940A840801900D379
:105070000131002B02D1A2420AD2F0BD013000D38F
:105080000131121BFAD2013BF8D1A24200D2F0BD8D
:10509000013000D30131121BF7E7F0B51C0C00D032
:1050A00080E00CB400251C0A04D11B02160E334309
:1050B000120208351C0B04D11B01160F33431201D9
:1050C00004359C0B04D19B00960F334392000235AC
:1050D000DC0B02D192185B4101351C00971864412A
:1050E0000134464F7C66464C3C660E0CFFE7FFE7FA
:1050F000FFE7C0463C6F6643360C7703BE4697B267
:105100007743C01B00D20139C01B00D201399FB2C6
:105110007743C91BC91B170C77437E04FF0B801B09
:10512000B941CE086643360C0C2D33DBB644120B66
:105130001F053A431B0B97B27743C01B00D20139BE
:105140009FB27743C91B170C77433E043F0C801B6B
:10515000B941860D8F023E43664329277F1BFE40DF
:105160000C3D7746AF40BF1930BCA2B2ABB2724320
:105170007343801A9941220C7243130C1204801A53
:10518000994102000B000137001BA941F9D2781E9A
:105190000021F0BD0C277F1BFE4077467F0BAF4000
:1051A000FF19E0E700245D1C07D0144F7D663966C7
:1051B000FFE7FFE7FFE7FFE73C6F95B29EB265436D
:1051C0006643401BB141150C1E0C65436643360413
:1051D0002F0C3E432D04401BB141994204D20200E2
:1051E0000B0020000021F0BD01D19042F7D3801ABE
:1051F000994101349942F2D3F6E70000000000D053
:10520000FFFFFFFF48404140484018B41B4B5B681C
:10521000FC46019308BD04DF7B52002018B4174BF5
:105220001B68FC46019308BD00DF855200209446B0
:10523000134A926F920809D2624618B40F4BDB688A
:10524000FC46019308BD0CDF3D5500200C4AF0B52B
:10525000146E556E576F166F6246FFF7EEFF084AE1
:105260001466556657671667F0BD18B4034B9B6804
:10527000FC46019308BD08DFE1530020D8D7002089
:10528000000000D0FFB550404240504059404B40D4
:10529000594000E0FFB5154F4C00640D03D0BC42EF
:1052A00004D10C0314D80020090D09055C00640D1D
:1052B00003D0BC4204D11C030AD800221B0D1B05DD
:1052C00001264B4009D44B4003D58B4200D182428A
:1052D000FFBD9942FCD19042FFBD0B43DB18034355
:1052E0001343F5D0C9434918FFBD0000FF07000074
:1052F00000B5FFF7CFFF804100BDC04600B5FFF706
:10530000C9FF01D9002000BD012000BD00B5FFF795
:10531000B9FF01D9002000BD012000BD00B5FFF795
:10532000B1FF804100BD012040054A00121804D899
:105330005A00121801D80020704701207047002041
:10534000704700000021002805D17047C117484070
:10535000401AFAD0C90713B5064B1B6898470CBC16
:10536000441CA2401005120B0349091B09051943EF
:10537000114310BD60FC00201F04000010B54C005C
:10538000620D8023D218DB00D21A5B057E2A10DD65
:105390009E3A13DACC170903490819435242D14007
:1053A000640001341532202A05DAD04008436043F6
:1053B00010BD002010BD0846604310BDC80FC018C6
:1053C000013810BD18B4044B5B6AFC46019308BD5C
:1053D00024DF955800200000D8D7002018B4044BD3
:1053E0009B69FC46019308BD18DF095700200000A7
:1053F000D8D70020132370B51D78012D15D010DDEE
:105400001C48FFF775FC1C4C01008022200000F0B6
:105410007BFC022D06D01948FFF762FC184B186080
:1054200070BD154C174BA364F5E7164B124C236067
:105430006360A360E36023616361A361E36123624E
:105440006362A362E36223636363A363E36323642E
:105450006364A364E36423656365A365E36523660E
:105460006366A366E36623676367A367E367A36472
:10547000D1E7C04653440000D8D700204C33000089
:1054800060FC00204952002007B5604601880A0AE6
:105490000230DF2AFAD1C9B2820804D302884088D8
:1054A0000004104300E00068014A5050039007BD1B
:1054B000D8D700200FB403BC0CBCF0B50124E4071E
:1054C000634000E0F0B50C0DCF0F661E3605891B5A
:1054D000640503D3C943404200D30131640D03D0B6
:1054E000661CF60A07D0E41B00207F00791C8907A0
:1054F0008912803C24031D0DDF0F6E1E36059B1B99
:105500006D0503D3DB43524200D301336D0D03D04D
:105510006E1CF60A07D0ED1B00227F007B1C9B0748
:105520009B12803D2D032F1B661B58D4A446202EB2
:1055300046DA20371400BC401D00BD40F240334124
:105540002A4380185941CB0F05D0C943C0430022DC
:1055500064425041514162464D0D28D10D0D07D195
:1055600000281FD0241940414941013A0D0DF9D0BE
:10557000640006D3013000D30131002C01D1400872
:105580004000013A0BD4941CE40A04D112051144E2
:10559000DB071944F0BDD907204B194300E0D907B8
:1055A0000020F0BD0029DDD1002CDBD1F0BD01329F
:1055B000C6074008CD0728434908002EE1D0D9E7A7
:1055C0003C2E29DA203E40371400BC4000D0012494
:1055D000F24014431A00BB401C43D317ACE7AC465F
:1055E000202F08DA20360400B4400D00B540F84002
:1055F00039412843A5E73C2F0CDA203F4036040010
:10560000B44000D00124F84004430800B1400C43EA
:10561000C117EAE710001900002494E70000F07FAA
:10562000F0B50C0D661E3605891BE60A6405640D8F
:1056300002D0651CED0A04D0002001210905803C40
:105640002403A4461C0D671E3F05DB1BE70A640507
:10565000640D02D0651CED0A04D0002201231B0555
:10566000803C24037740644497B484B296B2744378
:10567000070C7E43150C6F4380B26843361802D383
:10568000012000043F183004350C00197D41844688
:1056900088B29AB250430C0C62431F0C7C438EB20A
:1056A0007E43921902D301263604A4191604170C5E
:1056B0003618674101BC81B29AB25143040C62436F
:1056C0001B0C5C4380B25843121802D30120000423
:1056D00024181004130C401863412D185E4100205B
:1056E000474106BC88B293B258430C0C6343120C7A
:1056F000544389B251435B1802D301210904641851
:1057000019041A0C091862416D18564100204741CE
:1057100018BCF902720D1143F0026A0D1043ED023C
:105720000A0D03D16D1940414941013B124E9B1BAB
:105730007600B3420ED26D0007D3013000267141CE
:105740006646354301D1400840001B05C918E407EF
:105750002144F0BD0BDA013306D1013004D101310F
:105760004F0D01D04908F2E7E1070020F0BD0136F6
:1057700031050020EBE70000FF030000F0B51C0D31
:10578000671E3F05DB1BE70A6405640D02D0661C3B
:10579000F60A04D0002201231B05803C2403D025F7
:1057A0002D060026F6432E661E096E66CE0FF619EC
:1057B000B44649004F0D02D07E1CF60A03D00020EB
:1057C0000021403F3F033E1BB600B444013F7F052C
:1057D000C91B49082E6F013676089C02950D25439A
:1057E0007543ED137543AD1301356D10F603761B4C
:1057F0000CB4CC02450D2C43A2B2B3B25A43270CD1
:105800007B43350C6F43A4B26C431B1902D30124B4
:1058100024043F191C041D0CA4187D4124196D415A
:10582000009A91B2ACB26143170C7C432B0C5F43DE
:1058300092B25A43A41802D301221204BF182204C0
:10584000230C52187B41019C6C431B19520ED90149
:105850000A434401A01A81B2B2B2514303145A431D
:10586000360C734387B27743D617D21900277E418F
:1058700036049B191704160C7F185E417316ED1839
:10588000F301002680337541A90F06D16400690A2F
:10589000E8055B0A184309D22FE0042294448033C0
:1058A0007541A90AA8059B0A184326D340414941DE
:1058B0002404009A019B0D005543641B4343E41AE2
:1058C00095B286B27543170C7E43030C5F4392B2C8
:1058D0005A43B61802D301221204BF183204330C03
:1058E00052197B4152429C41002C02D400220130CB
:1058F00051414008CA071043490802B06246D70721
:105900009210084BD218084B9A4203D212058918FC
:10591000C919F0BD0020002A01DC3900F0BD0133B7
:105920001905F5E7FD030000FE07000007DA002176
:1059300007E0C90FC907520D03D0C91201E04C4955
:10594000090500207047C0464A00F2D2520D013AC4
:10595000484B9A42EAD2F0B51405091B520801D30C
:10596000001849419B08D2181205944640A44A0CDD
:10597000A25C0B09534353431B1353435B131202A3
:10598000D21A13005B435B0B4C086343DB13534396
:10599000DB1501335B10D21A130CD21A13005B43D0
:1059A0008902840D21438DB29EB275430F0C7E4354
:1059B0001B0C5F438CB25C43361902D301242404D0
:1059C0003F193404330C64197B419D01A40E2C4310
:1059D0002034A5B25543241454432D0C6419A4114A
:1059E000D203121B95B28EB27543170C7E430C0C7A
:1059F000674393B26343F61802D301231B04FF18D5
:105A00003304340C5B197C41DB186441DB18002340
:105A100063419EB276439DB21F0C7D437F436C046D
:105A2000ED0BA4197D4106028F08361BAF417D079F
:105A3000F6086E41B4B295B26C4337147D43120C34
:105A40005743B6B25643EA17AD1900267241120405
:105A5000BF182E042A0C36197A410832521117D277
:105A60009D0A9C05D117101969416144F0BD0000E1
:105A7000FF070000FE070000F8EBDFD6CDC5BEB87B
:105A8000B2ADA8A4A09C9995928F8D8A88858381B8
:105A900052415D0ADC05D11714194D412B006343B7
:105AA000A6B27643A2B2270C7A437F435104D20BAD
:105AB00089197A41D218D21880054942904102D4FE
:105AC000002301345D4160086908ED072843614403
