:020000041000EA
:1000000000B5324B212058609868022188439860DF
:10001000D860186158612E4B002199600221596106
:100020000121F02299502B49196001219960352056
:1000300000F044F80222904214D00621196600F024
:1000400034F8196E01211966002018661A6600F04E
:100050002CF8196E196E196E052000F02FF8012189
:100060000842F9D1002199601B49196000215960AB
:100070001A491B48016001219960EB211966A021F2
:10008000196600F012F800219960164914480160C1
:100090000121996001BC002800D000471248134993
:1000A000086003C880F30888084703B5996A0420EC
:1000B0000142FBD001200142F8D103BD02B5186610
:1000C0001866FFF7F2FF186E186E02BD00000240BE
:1000D000000000180000070000035F00212200005C
:1000E000F4000018222000A00001001008ED00E03C
:1000F00000000000000000000000000074B24E7A12
:1001000000200420F7010010C3010010C5010010F9
:10011000C1010010C1010010C1010010C101001097
:10012000C1010010C1010010C1010010C701001081
:10013000C1010010C1010010C9010010CB01001065
:10014000CD010010CD010010CD010010CD01001037
:10015000CD010010CD010010CD010010CD01001027
:10016000CD010010CD010010CD010010CD01001017
:10017000CD010010CD010010CD010010CD01001007
:10018000CD010010CD010010CD010010CD010010F7
:10019000CD010010CD010010CD010010CD010010E7
:1001A000CD010010CD010010CD010010CD010010D7
:1001B000CD010010CD010010CD010010CD010010C7
:1001C00000BE00BE00BE00BE00BE00BEEFF3058054
:1001D000103800BEF2EB8871D8020010F80200104F
:1001E0003402001090A31AE700202249086006C8D4
:1001F00081F30888104720480068002835D10DA4F5
:100200000ECC002902D000F012F8F9E71B491C4A75
:10021000002000E001C19142FCD11A4988471A49E7
:1002200088471A49884700BEFDE701C901C29A42C2
:10023000FBD37047F8020010C00000202CCD002036
:1002400064CF001030CD002088E80020BCEA001008
:100250000000042000000420BCEA0010001004206C
:1002600000100420000000007047094800F014F856
:100270000047000008ED00E0000000D088E8002002
:1002800064160320093F00206D1F0020FD3F002061
:10029000575600000000000001B40248844601BC2B
:1002A000604700BF5D56002006005250ABB360535C
:1002B000F8E4002006005250861C030208E50020E6
:1002C000060052505422A29D10E500200500525015
:0802D000DE65F468BCEA0010D1
:1002D800CC020010C0020010B40200101CE500207F
:1002E800A802001028E5002034E5002070E5002071
:1002F800F8B5C0460448054B10B5834203D0044BFB
:10030800002B00D0984710BD88E8002088E800201E
:100318000000000006480749091A8B10C90FC918C0
:1003280010B5491003D0044B002B00D0984710BDDE
:1003380088E8002088E800200000000010B5074C7D
:100348002378002B09D1FFF7D5FF054B002B02D0EE
:10035800044800E000BF0123237010BDD0EB00204B
:10036800000000002CCD0020054B10B5002B03D059
:100378000449054800E000BFFFF7CCFF10BDC046A8
:1003880000000000D4EB00202CCD002030B5002464
:100398000B4B0C4D83B001949C632B68002B0CD045
:1003A8000021286801AA0BF0EDFD019B2C60002BB1
:1003B80003D08022044B52051A6003B030BDC046FA
:1003C800004003402416032004ED00E070B5D0255A
:1003D80004242D060A206C610BF006FB0248AC6170
:1003E8000BF002FBF6E7C04660EA0000802210B579
:1003F80052000021034806F073FA0022024B1A70DB
:1004080010BDC0462C10012059160320802210B5BB
:100418000024074B5200002106481C7006F060FAC1
:1004280096210548490003F081FB044B1C7010BD60
:100438005B1603202C1001200040034059160320AE
:1004480070B582B00AF002F90A4D0B4C0B4E0190C0
:10045800FA2101A889000BF081FA28000CF0F4FABF
:1004680020682A00402103F09BF83000216806F03C
:1004780043FCEDE76CE7002074E700200CDD00206A
:10048800F0B5DE4657464E464546E0B589B01E00F3
:1004980012AB1B7806AC9B4613AB1B7803909A46AD
:1004A80014AB1B780491994615AB1B780A21984622
:1004B80016AB1F78002310002370150005F040FAD2
:1004C800C0B202010A212800059205F039FA059AFE
:1004D8003000114361700A2105F032FA0A21C5B2D1
:1004E800300005F02DFA2D010D4358460A21A5705C
:1004F80005F026FA0A21C5B2584605F021FA2D0161
:100508000D4350460A21E57005F01AFA0A21C5B2D2
:10051800504605F015FA2D010D4348460A2125716C
:1005280005F00EFA0A21C5B2484605F009FA2D0170
:100538000D4340460A21657105F002FA0A21C5B249
:10054800404605F0FDF92D010D4338000A21A5713B
:1005580005F0F6F90A21C5B2380005F0F1F90023D3
:100568002D010D43E5712200009304990398083387
:100578000CF018FB09B0F0BCBB46B246A946A04631
:10058800F0BDC046F0B5C646002300B584B00C00E7
:1005980006000322002103A89846029306F0A0F95A
:1005A8000123214F02AD2A000093682138000CF086
:1005B800F9FA43462A0000936821380007330CF003
:1005C80059FBAB7930001A099100521A52009B1856
:1005D8006A79DBB22380130999005B1A5B00D31890
:1005E8002A79A370130999005B1A5B00D318E3708A
:1005F800AA78EB782371130999005B1A5B00D3186A
:100608006A786371130999005B1A5B00D3182A781A
:10061800A371130999005B1A5B00D318E37104B046
:1006280080BCB846F0BDC04654E8002010B50C4C5C
:10063800012301222000072103F0D4FA2000012120
:1006480003F00EFB1420074901F0EEFF01211420EE
:1006580001F0A6FF0121200003F034FB10BDC046C5
:10066800004003405D010020F0B5C64600B5050016
:100678000E0082B0002900D1C3E04B1E984600242A
:10068800754F3800295D06F037FB444500D1A2E0DC
:100698000134B442F5DB714B0422290001A801930F
:1006A8000CF0EAFB002800D1B5E00123002E00D0B1
:1006B80099E003206A42DBB210400A2E00D8C0E05D
:1006C800002800D1A9E0012229784A40012800D158
:1006D800B1E069784A40032800D0AFE0A9784A40E1
:1006E800032188461B1ADBB29C469C080021002384
:1006F80028189F00C75901337940DFB2BC42F8D8A7
:100708000B041B0E4B405A400B021B0E5340090EA4
:1007180003224B406146914342465418DBB2E2B291
:100728008C4539D0A95C4B40511CC9B28E4233D993
:10073800695C4B40911CC9B2DBB28E422CD9695C12
:100748004B40D11CC9B28E4226D9695C4B40111D61
:10075800C9B28E4220D9695C4B40511DC9B28E4244
:100768001AD9695C4B40911DC9B28E4214D9695C93
:100778004B40D11DC9B28E420ED9695C4B40110065
:100788000831C9B28E4207D9695C0932D2B24B40EE
:10079800964201D9AA5C5340AE19013E32789A427A
:1007A80054D12B78012B10D16B78522B0DD1AB780B
:1007B800322B0AD1EB78022B07D12A79502A14D090
:1007C800302A02D1AA79392A2BD00120404202B01E
:1007D80080BCB846F0BD0A20013406F09FF9A64255
:1007E80000DD4EE757E7331C63E76B792E2BECD11E
:1007F800AB79302BE9D1E8793138431E9841404232
:10080800E5E7164B0100042201A801930CF034FB24
:1008180001230028C0D10320D9E7002290460132E5
:1008280060E7287A31280FD03238421E9041404282
:1008380098430230CBE70121884653E702218846D6
:1008480050E7012300226DE73038C0E7044806F07E
:1008580053FA01204042BAE770DD0020212121210E
:1008680078DD00200A00F8B54318023B023A05007B
:100878001C78002A0CDD002301263000E95C2040AA
:1008880049000918E9540133DBB264089342F4DBE8
:10089800154E164F34682900381906F027F8E0235A
:1008A80007343460DB009C4203D0114B1B68002BDB
:1008B80018D1104CE02223683900D800C01A8023D0
:1008C800DB029C4600026044D2000CF08FFDE0225F
:1008D8002368002101333800D200236006F000F8B5
:1008E80000233360F8BDC0462810012028090120E4
:1008F8001C0901204C060120F0B5D64646464F4655
:10090800C0B5594E594D3278531CA854584ADBB2D9
:10091800924612683370511E52461160092B01D05D
:10092800002975D1534806F0E7F933780021994634
:10093800EB18013B1B78504898464B465C1EE4B2C6
:1009480006F0DAF9002C00D18BE04B46023B062B6F
:1009580000D87BE000202A0000238446A1086746CF
:1009680001CA01334740DBB2BC469942F7D13B0488
:100978001B0E39027B40090E59403B0E5940032299
:100988002300C9B29343224226D0EA5C51405A1C44
:10099800D2B2944220D9AA5C51409A1CD2B2C9B2B0
:1009A800944219D9AA5C5140DA1CD2B2944213D9A4
:1009B800AA5C51401A1DD2B294420DD9AA5C51408A
:1009C8005A1DD2B2944207D9AA5C0633DBB2514011
:1009D8009C4201D9EB5C59407F240C40274806F023
:1009E8008BF9274B00229B5EA04519D0152B30D0E0
:1009F8002021244A93691942FCD11523136000234E
:100A0800002109222800337005F06AFF534619684F
:100A18004B425941C8B2E0BCBA46B146A846F0BDFF
:100A2800062B0BD02021174A93691942FCD10623C3
:100A3800136028003178FFF715FFE0E72021114AFD
:100A480093691942FCD10D231360EBE700210023C1
:100A58009BE720210B4A93691942FCD10D231360AF
:100A6800C6E70021BAE7C0465416032078F10020F3
:100A78001C0901208CDD002044DD002058DD002009
:100A8800341501200040034070B501242300C579C6
:100A980001791A4E2B404900C9183368C9B29C46DF
:100AA800017161440A0241796B08234049005918D1
:100AB8008379AD085B002C40C9B21C19104B4171F9
:100AC8008918E4B2090200229B5E611884713160C2
:100AD800062B0AD020200B4A93691842FCD1062322
:100AE8000948136006F008F970BD2020054A93698B
:100AF8001842FCD10D231360ECE7C0461C09012005
:100B08003415012000400340CCDD002070B5037887
:100B1800002486B02F2B01D006B070BD43783F2B40
:100B2800FAD14018C31E1B78212BF5D1831E1B78E0
:100B38000D2BF1D1013803780A2BEDD1334806F09B
:100B480039F89622324B12011B8893425CD04DD85B
:100B580096229200934255D09622D200934200D119
:100B6800022400231322002101A8009305F0B8FEF7
:100B780023001721274A684604F03EFED0230822A6
:100B88001B065A6101200AF02FFF6B461C78002CC7
:100B980018D06846002120220D261F4B00255D5FD6
:100BA8001E4B002919D1A5421BD099690A42FCD1D4
:100BB8001C60017801300D394C4261410478C9B29A
:100BC800002CEED1D02308221B069A61144B073A59
:100BD80014481A7005F0EEFF9EE799690A42FCD1A5
:100BE800E6E799690A42FCD11E60DEE796225201C7
:100BF800934205D0962292019342B2D10524B0E7E0
:100C08000424AEE70124ACE70324AAE700DE0020B1
:100C18007CE7002014DE002034150120004003404A
:100C28005B1603202CDE0020F0B5CE46474680B583
:100C380006009BB0C9480D0005F0BCFF002D0CD084
:100C48006B1E98460024C64F3800315D06F054F8F4
:100C580044452FD00134AC42F6DBD02308221B06D2
:100C68005A6101200AF0C0FE6946BE4B30001A885E
:100C78000A852A216A46521869469B781370BA4B2E
:100C88001A888A852E216A469B7852181370B74BAA
:100C980009A902220B800CF0EFF8002801D1062DDB
:100CA8000FD0D02308221B069A611BB0C0BCB946DE
:100CB800B046F0BD0A20013405F030FFA542C3DC80
:100CC800CBE7AB4805F076FF3378302B00D18FE1C6
:100CD8007378302B00D165E1B378302B00D197E1E0
:100CE800F378302B00D191E13379302B00D18BE1AF
:100CF8007379302B00D185E19E4B00229B5E152B2A
:100D080000D1C0E020219C4A93691942FCD11523E7
:100D180013600336032231000AA80CF0ADF800284E
:100D280000D1BCE0032231000BA80CF0A5F8041E8A
:100D3800B7D1924805F03EFF002133220DA80C944C
:100D480005F0CEFD0323032206938D4B0CA89A567B
:100D58003026059202229A563625049200215A5EC0
:100D68003721039207229A56029206229A56019236
:100D78005B79844A5BB20093022304F03DFD0221B3
:100D8800814805F0B9FF684634210C9A0D9B8019FB
:100D980053400E9A445C53400F9A5340109A534064
:100DA800119A5340129A5340139A5340149A53403D
:100DB800159A5340169A5340179A5340189A53401D
:100DC8001A0E54403522825C5440425D6F485440AC
:100DD8001A045C40120E1B0254401B0E5C40022396
:100DE8005C40E4B2210005F087FF6B469B195C5517
:100DF800073D012400265A4F6D4406E0002E4AD1D3
:100E080001200AF0F1FD01360134295D380005F0B2
:100E180073FF1221300004F06BFD0029EED0012091
:100E28000AF0E2FD372CEED16B4630229B18187879
:100E3800002800D135E700214E4B0D2500241C5F0A
:100E48000CAE4D4B103A002911D1844216D0996945
:100E58000A42FCD11860317801360D3948424141C7
:100E68003078C9B2002800D11BE70029EDD0996974
:100E78000A42EFD099690A42F9D1EBE799690A4227
:100E8800FCD11D60E3E720213B4A93691942FCD15C
:100E98000D23136036E70A2005F040FEBFE70D2258
:100EA80000210C900DA805F01BFD03230193013BC5
:100EB8001021374A00930CA8013B04F09DFC0C9AC2
:100EC8000D9B344853400E9A53400F9A53401C0EC2
:100ED8001A04120E5C401B0254401B0E5C40012396
:100EE8005C40E4B2210005F007FF3F226B469B18E7
:100EF8001C706B460F3A9B181C78002C18D00021E8
:100F080020220D271B4B0CA800255D5F1A4B0029DA
:100F180018D1A5421DD099690A42FCD11C600178FC
:100F280001300D394C4261410478C9B2002CEED130
:100F3800194805F03FFE194805F03CFE0222184BFF
:100F48001A70EFE699690A42E8D099690A42F9D11C
:100F5800E4E799690A42FCD11F60DCE740DE002023
:100F680070DD002014DF002018DF002006300000AC
:100F780058DE00203415012000400340B8DE002070
:100F88006CE70020CCDE002044DD002058DD002086
:100F980084DE0020E0DD002098DE0020A4DE0020B2
:100FA8005B16032001230133F35C1A4A303B128895
:100FB800DCB2A2420AD2184B00229B5E152B19D034
:100FC8002021164A93691942FCD1A0E62100144851
:100FD80005F092FE052C03D8124BA400E35899465D
:100FE80049460E4802F0A2FDC82002F0D9F890E662
:100FF8000023D8E72021094A93691942FCD10D231F
:101008001360DDE72B3BCEE70423CCE70323CAE7D5
:101018000223C8E77CE70020341501200040034084
:101028006CDE0020BCE00020F0B528218BB00BF06E
:1010380095FE08AD411C062228000BF057FF2E78BC
:101048002A79B300F6186B787600103BF618AB785F
:1010580094009F00DF191419EB786A79124D103B40
:10106800103A28007F006400FF18A4180BF0ECFC6D
:101078002B78F6B20493AB78FFB20393EB78E4B223
:1010880002932B792200019368213B0007480096C0
:10109800FFF7F6F9290006A8FFF774FA28000BF005
:1010A8007DFC0BB0F0BDC0466CE7002054E8002082
:1010B800F0B528218BB00BF051FE08AD411C06227B
:1010C80028000BF013FF2E78B300F6186B78760023
:1010D800103BF618AB78F6B29F00DF19EB787F006B
:1010E800103BFF182B79FFB29C001C196B79640028
:1010F8000E4D103BE4182800E4B20BF0A5FCAB79C8
:10110800EA79049603970294297909480191697943
:1011180000916821FFF7B4F9290006A8FFF732FA11
:1011280028000BF03BFC0BB0F0BDC0466CE700207C
:1011380054E80020F0B5454657464E46DE46E0B531
:101148008E4B8F4D1F7898468E4B8BB0FC18002322
:10115800EE5E2403092E00DDCCE03036F3B20693B0
:10116800302307930226AE57092E00DDB3E0303650
:10117800F3B20593302308930326AE57092E00DDFA
:101188009AE03036F3B20193302302930526AE5726
:10119800092E00DD81E03036F3B204933023099341
:1011A8000626AE57092E69DC3036F3B20393302396
:1011B8000093ED796DB2092D53DC30263035EDB250
:1011C800714872490378724A9B460B789A4613789D
:1011D800994600230370802013700B700022400191
:1011E80003E01032824200D193E0A35C91B2013B4C
:1011F800DBB2FD2BF5D9674B0909089A0901C91813
:10120800069B1004079A1B021A431300059A03430E
:1012180012061343099A0B60019B1004029A1B02E1
:101228001A431300049A0343120613434B60039BAB
:1012380032041802009B0343180010432B060500D4
:101248001D435B460B7353464B734B468B7304230A
:101258008D60CB730BB0F0BCBB46B246A946A04626
:10126800F0BD0A21280004F043FB30300A21C6B241
:10127800280004F03DFB3031CDB2A1E70A2130004F
:1012880004F036FB3030C3B20A213000009304F07A
:101298002FFB3031CBB203938BE70A21300004F0E7
:1012A80027FB3030C3B20A213000099304F020FB39
:1012B8003031CBB2049373E70A21300004F018FBF5
:1012C8003030C3B20A213000029304F011FB3031F0
:1012D800CBB201935AE70A21300004F009FB303001
:1012E800C3B20A213000089304F002FB3031CBB2BC
:1012F800059341E70A21300004F0FAFA3030C3B20E
:101308000A213000079304F0F3FA3031CBB2069388
:1013180028E743461F4C0021200001371F7005F0C5
:10132800DFFA089A069B1104079A1B021A43130056
:10133800059A0B4312061343099A2360019B110473
:10134800029A1B021A431300049A0B431206134312
:101358006360039B3204009E1B021E432B0635006C
:1013680015431D435B462373534663734B46A37370
:101378000423A560E3730BF0DBFE6BE75A1603202A
:101388006CE70020810001005F160320611603202E
:101398006016032038F20020F0B5DE4657464E4668
:1013A80045460023E0B587B00B22002103A802932D
:1013B80005F096FA002398468E4B9A468E4B99462E
:1013C8008E4B9B4653461868002800D0F2E009F07F
:1013D8003DF9019048460BF037FB5B464A461868D2
:1013E800402102F0DDF80122854B864E1B6837004C
:1013F8005340854A80211340844A300013600822F4
:10140800834B49001A60FA239B009C46814A674433
:1014180093680B42FCD1D368038002308742F7D12E
:1014280008227D4B7B491A60F8320B681342FCD0C6
:101438008B68134206D18021764B4900DA689A6896
:101448000A42FBD000240025308805F0B5F973491D
:1014580005F0ABF905F0D2F90022714B04F0BDFCA0
:101468000022704B04F0A7FC02000B0004F0D3FC30
:1014780002000B002000290004F0A6FC023604003C
:101488000D00B742E0D10022674B04F0A6FC04F03F
:101498007BFD434600225C1C644B04F0BCFC04F05A
:1014A80067FD6B46082142465B189854604BE4B2CE
:1014B8001B78002B22D04B46072159564A01521A55
:1014C80093019B1AD8004018FA218001890004F082
:1014D80037FA5346050018604B4606200F21185668
:1014E80004F006FA49B200296CD000265148504B46
:1014F800401B1E700AF078FA53461E604B46DB7993
:101508005BB2042B4CDC4B4606200F21185604F026
:10151800EFF949B2002943D16B46197A0800012C2A
:1015280066D909236B44A4461E000D0001220C0055
:10153800404633780F1C994200D21F1CF9B22F1C69
:101548009D4200D91F1CFDB2E41817000132A4B255
:10155800D2B20136B842ECD120006446364B19703D
:10156800364B21001D7004F0C3F9354B0024187068
:10157800FFF7E0FD8021334B4901187881300003E3
:101588000BF0F4FE80222F4B2F491878520181303E
:1015980000030BF02BFF0F22002102A805F0A0F991
:1015A800244901A80AF0DAF953461868A046002829
:1015B80000D10CE71F4B181A0AF016FA00235246FE
:1015C800136004E7FFF7B6FD80211E4B4901187828
:1015D800813000030BF0CAFE80221A4B1A49187892
:1015E8005201813000030BF001FF53461D687CE770
:1015F8000D00B3E730F000206CE7002074E700200E
:1016080008C004402C1101200F00000F08D004402E
:1016180000E0044000C0044000F0044000404E3F99
:1016280000408F40006DFA3F00407F4000C05240AC
:101638005C16032060EA00005F1603206116032091
:10164800601603205A16032038F20020F0B5DE4653
:1016580057464E4645460023E0B5ABB01B22002155
:1016680023A8229305F03CF9C84CC948217805F015
:1016780043FB23780E2B00D002E20F3B002499464F
:1016880023004C46C34DC44EC44F621C00D115E123
:10169800A1461C002B78013BDBB2FD2B0FD8C04ABA
:1016A8001034944200D16FE3BA4903E010349442F5
:1016B80000D169E3635C013BDBB2FD2BF6D9B94885
:1016C80005F078FAD02308221B06103C0894012064
:1016D8005A610AF089F9B44B1893B44B1993089AD4
:1016E800131E00DAC1E24D46914500DD30E30A934E
:1016F800994500D9CDE000230993AD4B02279B46BD
:10170800AC4B9A462421A34B14AAEB5C52181370D5
:10171800A94B0131EB5C14AA52181370002328203E
:10172800013114AA52181370A44A14A9AA5C091802
:101738000A70A34A0130AA5C14A909180A702A2160
:1017480014AA521813709F4A0330AA5C14A90918E6
:101758000A709D4A0130AA5C14A909180A702E2142
:1017680014AA52181370994A0330AA5C14A90918CC
:101778000A70974A0130AA5C14A909180A70322124
:1017880014AA52181370934A0330AA5C14A90918B2
:101798000A70914A0130AA5C14A909180A70362106
:1017A80014AA521813708D498D4B8E4A0A98EB5C17
:1017B800AA5C695CA84200D122E10998002800D1FE
:1017C800A9E0049321AB039320AB02931FAB0193D1
:1017D8001EAB069105921C21834A009322A81DABDB
:1017E80004F00AF83900584605F086FA239A229B35
:1017F80050465340249A5340259A5340269A5340C2
:10180800279A5340289A53401A041902120E5A4034
:10181800090E4A401B0E53405F40FFB2390005F0E5
:101828006BFA724805F0C6F9382214AB9B181E787B
:10183800002E1FD06E4B002400229B5E0D219C467B
:101848008846210064462022AC462500694B22A820
:10185800002953D1B54258D099690A42FCD11E607B
:10186800017801300D394E4271410678C9B2002E17
:10187800EED165460F2001F093FC089B994503DDE6
:101888005D4B9D4200D140E20A9B1035AB4200D32C
:1018980038E7D02308221B0600219A6118980232E3
:1018A80005F01EF80A220021199805F019F82BB046
:1018B800F0BCBB46B246A946A046F0BD1C00384B5A
:1018C80098462B78013BDBB2FD2B0CD93000103445
:1018D80005F070F9444500D156E22B7C1035013BE8
:1018E800DBB2FD2BF2D8380005F064F923002C4A4E
:1018F8001033934200D147E21035C6E699690A428F
:10190800ADD099690A42F9D1A9E799690A42FCD18F
:1019180041461960A0E7059321AB049320AB0393DC
:101928001FAB02931EAB01931DAB079106921D21BD
:10193800324A009322A8022303F05EFF390058467A
:1019480005F0DAF95420239A229B5340249A5340F5
:10195800259A5340269A5340279A5340289A534031
:1019680014AA190412181278090E59404A4019028B
:10197800090E4A401B0E53405F40FFB239005046E3
:1019880005F0BAF9012309934BE7C046591603201D
:101998004CDF00200010081074DF002088DF0020D2
:1019A800007F010060DF00201009012004090120E8
:1019B80044DD002058DD0020011008100210081036
:1019C800031008100410081005100810061008105D
:1019D8000710081008100810091008100E10081039
:1019E8000D1008100C100810E8DF002008E0002097
:1019F8003415012000400340F0FF1700C4DF002029
:101A08000320049321AB039320AB02931FAB0193F4
:101A18001EAB0790069105921E21CF4A009322A87B
:101A28001DAB03F0E9FE3900584605F065F954216D
:101A38005524239A229B50465340249A5340259A72
:101A48005340269A5340279A5340289A534014AA41
:101A5800521814A90919097812784A4019045A40E9
:101A6800090E4A401902090E4A401B0E53405F40B6
:101A7800FFB2390005F040F914AB1B191F70D0E60E
:101A8800B6490B781891303B9A009B185B009A4630
:101A98004A788B78303A303B92449A009B18CA783F
:101AA8005B00303A9B185BB20C930B79303B9A0081
:101AB8009B184A795B00303A9B185BB215938B7977
:101AC800303B9A009B18CA795B00303A9B185BB28E
:101AD80017930B7A303B9A009B184A7A5B00303A8E
:101AE8009F499B185BB21B930B781991303B9A0066
:101AF8009B185B0098464A788B78303A303B904484
:101B08009A009B18CA785B00303A9B185BB20B931B
:101B18000B79303B9A009B184A795B00303A9B1846
:101B28005BB214938B79303B9A009B18CA795B009F
:101B3800303A9B185BB216930B7A303B9A009B188D
:101B48004A7A5B00303A9B185BB21A93D04500D1B1
:101B5800EAE0534642469B1A002B00DDA7E6002325
:101B68009B461393129311930E93099310930F931B
:101B78000D930A93013B00269946089317E05046B7
:101B8800281A002809DB484601307FD0AB4500D130
:101B98008DE05846281A002878DBA84541D04046F1
:101BA800281A002843DD6F4B10369E4252D06E4BE8
:101BB800F01803785A1ED2B2FD2AF4D8303B457883
:101BC8009A009B185B00303DED188378303B9A00F3
:101BD8009B18C2785B00303A9B1802795BB2303AA6
:101BE800910052184179520030395218817952B215
:101BF80030398C000919C4794900303C0919047A34
:101C0800407A303CA700BC4664446400303824184D
:101C180049B264B2AA45B2D10C9898423DD0181A7C
:101C2800AFE70B9898423DD0181A0028BBDC0898FB
:101C3800013005D00998A8423ED0281A0028B2DD04
:101C48000E93484B089610361394129111920995E9
:101C58009E42ACD1D02308221B065A61012009F00C
:101C6800C3FE4B46013300D039E5404804F0A2FFDB
:101C78003F4B00229B5E152B00D17DE020213D4A81
:101C880093691942FCD11523136002E6B146AB46AD
:101C980010940F910D920A937FE71598904210D0F7
:101CA800101A6EE71498904210D0101A79E70A9823
:101CB800984210D0181A6EE70E98984210D0181A49
:101CC800BCE71798884215D0081A5AE71698884230
:101CD8000BD0081A65E70D98824211D0101A5AE7FE
:101CE8001198824215D0101AA8E71A98A0429ED0DF
:101CF800201A56E71B98A04200D144E7201A40E773
:101D08000F9888420AD0081A45E7089B00250A93CD
:101D1800F8E41298884215D0081A8FE71098A04264
:101D280000D13AE7201A36E70B9B0C9A934207D169
:101D3800149B159A934203D1169B179A93422FD05E
:101D4800D31A09E71398A04200D12CE7201A75E7A7
:101D5800C0235B03CBE4C046A0DF002010090120AC
:101D680004090120007F01000010081014E0002081
:101D7800341501200040034020210D4A936919427F
:101D8800FCD10D23136079E7D02308221B065A6182
:101D9800012009F029FE074B1893074B199364E7B4
:101DA8001A9B1B9A934200D1D9E6D31AD4E6C046AF
:101DB800004003401009012004090120D64BF0B56A
:101DC8004E469946DE465746454600234A46E0B504
:101DD8001360D24B91B00022D1490093D14800231F
:101DE8000AF09CFBD04B8046009300220023CF4989
:101DF800CF480AF093FBCF4B00269A46CE4C03906F
:101E0800454608F023FC0023020001212800009623
:101E18000AF0E0FB09F082F84B4618605023A363F0
:101E2800626B183B134052461360012201210020C7
:101E3800524209F0FFFF0128E3D1A3691027DB060E
:101E4800DFD4A8463D00A3691D401F42FAD123688C
:101E5800DBB29B46B94B1B78032B00D133E15B46C1
:101E68000A2B3CD05846B64BB5491A78531CDBB2FE
:101E78009C460B70B3498854B34905AA09C909C2DD
:101E8800B2490DAA09C909C20888108089789170D9
:101E9800AF4907AA09C909C209781170AD490AAA48
:101EA80009C909C2634609781170AB4A0492082B24
:101EB8000ED0212B5ED00D2B64D10B22A1480DA989
:101EC8000AF0DAFF00280AD0A3691F42BAD097E7C0
:101ED80004229C4804A90AF0CFFF0028F4D10A2064
:101EE80004F01CFE964B96491B785A1C0A705946FA
:101EF800944AD15408F0AAFB002302000221039857
:101F080000960AF067FB0023002203214046009652
:101F18000AF060FBD02308221B065A61012009F051
:101F280063FD864B1B789B46012B00D1BCE0022B3E
:101F380050D0002B37D0894B00229B5E152B12D036
:101F48002022A3691A42FCD1152323608022002194
:101F580052007C4804F0C4FC794B08221E70D02340
:101F68001B069A61B0E72022A3691A42FCD10D230F
:101F78002360E5E70822734805A90AF07DFF0028D9
:101F8800A2D1ACE7132B9FD109226E4807A90AF00A
:101F980073FF0028A3D009226A480AA90AF06CFF37
:101FA800002891D19BE708F051FB5B4602000093A3
:101FB8000121002303980AF00DFB2F2161480AF044
:101FC800CDFE5F4A5F4B1178C31AC91AC9B2FEF732
:101FD8009DFDBBE7624804F0EDFD08F037FB0023E8
:101FE80002000121039800960AF0F4FA544B554870
:101FF8001978FEF739FB0130C3B2042B00D9B9E0D8
:10200800584A9B00D3589F4603234C4A4D481370A7
:10201800FEF73AFD514B00229B5E152B3DD0202246
:10202800A3691A42FCD18FE74648FFF741F88DE7CC
:102038004448FEF7F9FF89E74B4804F0BBFD414BE4
:102048001B78002B05D125E03E4B01355B5D002B4D
:1020580020D0282BF8D13B4A6B1CDBB2D25C3B2A40
:1020680009D0ED434149C9184A550133354ADBB215
:10207800D25C3B2AF6D133490133DAB2895C29298B
:1020880008D03B4DD01A295401322E49D2B2895C6E
:102098002929F6D1FFF7DAFA58E72022A3691A426C
:1020A800FCD10D232360BAE708F0D0FA0023020020
:1020B8000121039800960AF08DFA214B21481978DE
:1020C800FEF7B2FD42E708F0C1FA00230200022140
:1020D800404600950AF07EFA08F0B8FA002302009C
:1020E8000221039800950AF075FA002300220321C3
:1020F800404600950AF06EFA002300220321039857
:1021080000950AF067FA5846FEF7F6FB002800D15A
:10211800DAE60AF025FFD7E624160320BD010020E1
:102128008813000024E00020DD0100203075000045
:1021380030E0002034500340004003405B16032089
:10214800591603202C1001201CDF002028DF002056
:1021580034DF002040DF0020212121213415012017
:102168003CE0002074E0002058E000201009012025
:1021780004090120084B00229B5E152B04D0202265
:10218800A3691A42FCD1DFE62022A3691A42FCD1D6
:102198000D232360F3E7C0463415012030B585B020
:1021A80004F0B6FDFA20800000F0FAFF96215E48A0
:1021B800490001F0F7FBFEF739FA0221002000F090
:1021C800DFF80221012000F0DBF8D025022000F022
:1021D8001BF9042308242D066B62032000F014F970
:1021E8006C620AF09DFD1F211B2000F0C9F8002237
:1021F80000211B2000F0DCF800211B2000F0F0F883
:1022080080234A4A5B01116849484B40E021C901D3
:102218000B4048490B60962301211B041361464B70
:102228001B684B4045490B4045490B60454B802195
:102238001C60FA239B00C418490093680B42FCD128
:10224800D36803800230A042F7D108223E4B3749B9
:102258001A60F8320B681342FCD08B68134206D11F
:102268008021324B4900DA689A680A42FBD0012083
:1022780000F096FF0AF076FB344935480AF068FC0E
:102288000321142000F07CF80321152000F078F8D1
:102298000AF02CFF2F4804F08DFC2F4C02A82100D7
:1022A800FEF770F920000AF079FB4020002100F0C9
:1022B80065FF0722FA21A256890001325001801ACF
:1022C8008301181AC0008018800103F039FB00242C
:1022D80003258022214B22491860520000232148FF
:1022E8000194009509F0F6FBC02200231E49120153
:1022F8001E480194009509F0EDFB022380221C4939
:102308000093520000231B48019409F0E3FB0123CA
:10231800802219490093520000231848019409F0BB
:10232800D9FB09F0EDF8FEE70040034000C0044087
:102338002C11012000D0044008C004400F00000FF9
:1023480008D0044000E0044000F00440801A060071
:1023580054E8002020DD00206CE7002030F0002049
:1023680088E000206911002094E000208D1B0020E7
:10237800A0E0002011020020B0E000209D01002014
:10238800094A830094464022634410B51C68C00083
:102398006240C02414408022520113431C60034B46
:1023A8009C466044416010BD04C0014000400140AB
:1023B8000A4B80009C4604236044002901D00C236A
:1023C8000821002A00D10B00026853400C221A4051
:1023D80080235B01184302607047C04604C0014077
:1023E800084B80009C466044002905D080239B014F
:1023F8001843402303607047C0239B0118434023C0
:102408000360F8E704C001400123D022834012068C
:1024180093629361094A8300944640226344196891
:10242800C0004A40C0211140802252011343196064
:10243800034B9C46052360444360704704C0014039
:1024480000400140024B18688007C00F7047C04623
:1024580000C0064070B5EFF3108C72B60D4D2B68B6
:10246800002BFCD0BFF35F8F0724CB08C618C05CD5
:1024780001230C40A3401C000440034207D103433E
:102488003370BFF35F8F2C608CF3108870BD100021
:1024980001F0D0FE2C0100D0F8B54746CE4688465C
:1024A80080B5EFF3108C72B6214D2C68002CFCD04F
:1024B800BFF35F8F9A422CD8D4080727055D061909
:1024C80001241740BC402C421FD007210127894610
:1024D80009E0D408055D06194C4639001440A140AE
:1024E8000C00294211D001329342F2D2012040421D
:1024F800BFF35F8F00220E4B1A608CF31088002800
:102508000FDBC0BCB946B046F8BD2C431000347090
:10251800EEE7BFF35F8F00232B608CF31088012058
:1025280040424346002BECD0089801F083FEC04699
:102538002C0100D00021044B044ABFF35F8F02C373
:102548009342FAD17047C046000100D0800100D004
:10255800044A1078431CDBB2172B00D910231370E0
:102568007047C0467EE7002010B50100024A0348C4
:10257800FFF770FF10BDC046D4E000204CF10020EA
:1025880000B5054B83B00100009318221F230348B0
:10259800FFF782FF03B000BDF4E000204CF10020FB
:1025A80001238340002904D0034A1360034A1360BF
:1025B8007047034A1360FBE780E200E000E100E0B7
:1025C80080E100E001228240034B1B6813405A1E41
:1025D8009341D8B27047C04600E100E00123834030
:1025E800014A13607047C04600E200E0084B103013
:1025F8009B688000C358002B07D0064A00209B1A0E
:102608002F229A424041C0B270470020FCE7C046E2
:1026180000ED00E080E70020024B10309B6880004E
:10262800C058704700ED00E070B50D00EFF310865C
:1026380072B60F4A1368002BFCD0BFF35F8F0D4BA7
:1026480010309B6884001B590B4A934203D09D426B
:1026580001D001F00DFE074B9B681D51BFF35F8F42
:10266800BFF35F8F0022024B1A6086F3108870BD9B
:10267800240100D000ED00E0CD010010F0B5574670
:102688004E46DE464546E0B585B006000291170085
:10269800EFF3108B72B6674A1368002BFCD0BFF3B8
:1026A8005F8F0025644B5D579A46002D00DAA4E041
:1026B8006B00624C03935B199B009846A146C1448A
:1026C8004B4652469B79103613705D4BB2009B689F
:1026D800019299580B1B2F2B34D95A4B994200D091
:1026E800A4E0039B584A9C46584B6544AD0063538D
:1026F800434602336519E418554B0121043B1B1B63
:102708001B055B0D13436B80524BEF71AB80FF23AE
:10271800AB71029BAB604B460B431900484B019AC7
:102728009B689950BFF35F8FBFF35F8F0022414BC7
:102738001A608BF3108805B0F0BCBB46B246A946B8
:10274800A046F0BD01200A008243D379BB422FD8AE
:1027580045464E46130040491B1B5B415943090D32
:102768003A4B63533A4B02356519043B5B1B1B0517
:10277800354D5B0D2B4373800426B446E044444436
:10278800131F1B1B4C46A17102991B05A1604946EA
:102798005B0D2B43A380314BE77101431360BDE709
:1027A8005800C01880002018C679BE422BD90200F4
:1027B8000623D356002BF3DA101D8246284880469C
:1027C80004267642B446E14450464E46361A300551
:1027D800400D824656461C48957106439680039ADA
:1027E800944665441D4AAD00641922604246A371AF
:1027F800029BA280E771A36090E701F039FD0025F4
:1028080053465D5754E7101D8246908840050015D1
:1028180084464046D444664604302018301AE026E0
:102828000005400D360230438046C9E701F020FD1F
:1028380057E7C046240100D05516032080E7002042
:1028480000ED00E0CD01001000E0FFFF00A1FFFF58
:10285800B0E7002001BDFFFFAAAA00000148804799
:1028680001BD0000F0B5DE4657464E464546E0B588
:102878000C0083B0EFF3108972B6584A1368002B26
:10288800FCD0BFF35F8F564B9A68030010339F004C
:10289800D559544A9046954232D0A54243D0524E1B
:1028A800AA1B2F2A2CD801228240924651464F4A11
:1028B80012681140019151464D4A1160BFF35F8F74
:1028C800EFF305829346002A33D101232A009A4365
:1028D80093689C4208D177E04B005B189B00F31883
:1028E8009968A1422AD01A00062151560029F3DA24
:1028F800019B002B19D052463E4B1A603B4B1A6085
:10290800374B9B68DD51BFF35F8FBFF35F8F0022AA
:10291800324B1A6089F3108803B0F0BCBB46B2464C
:10292800A946A046F0BD1500EAE75246304B1A60AA
:10293800E6E79342C9D001F09BFCC6E70621595649
:10294800002921DB4A005018800034188046A0680E
:102958009860E079D871062020569871002824DB09
:10296800A488F01A6405241544440019E0240005DD
:10297800400D24022043988052181F4B9200B6182D
:102988001A781970B271B3E7594600290FD1FF318F
:1029980091711A49918018490A789A71184A9B1BB3
:1029A8005B415A43120D0A70A2E71648E3E7164A3C
:1029B8001649D21A083A5002400D01439980144929
:1029C80052080A43DA8093E706215156130000297A
:1029D800B8DA5A46002AEAD14546DCE7240100D095
:1029E80000ED00E0CD01001080E7002000E100E0EC
:1029F80080E100E080E200E05516032001BDFFFF02
:102A0800AAAA000001BD0000BAE7002000F0FFFFFD
:102A180000F8FFFF032310B50400074A1840944646
:102A2800C0009C43FC3383406444226881409A433D
:102A380013000B43236010BD00E400E070B5EFF312
:102A4800058101240443EFF3108C72B6214A136800
:102A5800002BFCD0BFF35F8F1F4B05001F4AED1AF8
:102A68006D416A43120D1E4D8900AE6852B2765808
:102A7800A6421CD00621595691421CD01221595603
:102A8800914222D01E215956914220D02A215956CE
:102A98000324914210D0134B19781A708171BFF337
:102AA8005F8F00220B4B1A608CF3108870BDAB68E7
:102AB8000D4C5C50EFE700246100091989005B1890
:102AC800FF21997109499980E5E70124F4E7022477
:102AD800F2E7C046240100D080E70020AAAA00003F
:102AE80000ED00E055160320CD01001001BDFFFFE9
:102AF800054B064A1360064A136053609360D3601F
:102B080013615361936170478080808000E400E026
:102B180004E400E000B5074B83B0010000930022F5
:102B280005230548FFF7B8FC002801DB1F23181A06
:102B380003B000BD10E100205E160320024B9C4646
:102B480061448900016070474000003410B50400FA
:102B5800FFF7FEFC01002000FFF7F0FF01235B42B6
:102B68006360BFF35F8F10BD10B50400FFF7F0FC82
:102B780001002000FFF7E2FF01235B4263600023AE
:102B88002372BFF35F8F10BD10B504000120FFF75B
:102B9800F7FC044B9C46604480002060BFF35F8FC5
:102BA80010BDC04640000034034B9C466144890078
:102BB8000160BFF35F8F70474000003483680B48A3
:102BC80010B5844661446244090112019A185918E3
:102BD80054684B6801209C4201D802D00020C0B242
:102BE80010BD12680B689A42F9D8F7E7FFFFFF0F8C
:102BF800074810B50268EFF3108172B61368002B0E
:102C0800FCD0BFF35F8F06F08BFB0020002110BDC6
:102C180018150120F8B557464E464546DE46E0B53C
:102C280099460CAB1C780DAB1B78060090469A466B
:102C38000768002C11D1BC7B002C42D065003B6892
:102C48002D19033D59194B78BB73002B00D1FB7329
:102C580000238B704B700B7004E065003B682D19E6
:102C6800033D5919B2682A4B94464246E3181B01A2
:102C780063441A604A465A600A9A9A600B9ADA6064
:102C880000238B704B700B707B7B9B46002B2BD0EB
:102C980022005946B8687B6898473A68002816D0D9
:102CA8005B4658465B005B445519033BA870D11836
:102CB800D35C002B00D06B705B460C707B73A34514
:102CC80013D0F0BCBB46B246A946A046F8BD5B4649
:102CD8005B005B44033BD3189C705119525D002A7A
:102CE80000D05A705B460B707C7342464B46307D71
:102CF80000F0CEFB051E06D05346002B03D1210061
:102D0800306800F011FE0E9B002BDAD01D70D8E75A
:102D1800FFFFFF0FF0B5DE4657464E4645460023F7
:102D2800E0B58BB00893674B8200D45800239B46CC
:102D3800099000F023FB626806000F00EFF310858E
:102D480072B61368002BFCD0BFF35F8F23689C46D4
:102D58005B7B9946002B00D169E0A2685A4B9046EC
:102D68004B441B01984443461A685B6810001900DD
:102D7800801BB941002900DC63E0099800F088FB5A
:102D880000230022984600230692079300239A46C0
:102D98006368BFF35F8F5A461A6085F310885346FD
:102DA800002B08D10028C4D10BB0F0BCBB46B246FA
:102DB800A946A046F0BD089B414618024B46184359
:102DC800D047626806000F00EFF3108572B61368EB
:102DD800002BFCD0BFF35F8F002F50DB33003B4349
:102DE80002D02369002B61D12368D97B002907D041
:102DF8004A00521819688C4649466244033A517091
:102E08009A7B002A01D14A469A734A46DA734B469E
:102E1800E168013BCA5C0132CA545B4623616368BE
:102E2800BFF35F8F5A461A6085F3108881E7002345
:102E380000229846002306920793002300209A4612
:102E4800A6E7002902D1002800D096E700216046B5
:102E580000F0E8FC43461A685B680692079343460D
:102E68009B689A464346DB689846E3684B44013BB7
:102E78001B7808931B0203432361002088E723691A
:102E8800002BB1D0069A079B921BBB41002B15DB88
:102E98005946049101210391494602914146019105
:102EA800514620000091FFF7B5FEB6E700F066FA3C
:102EB80032003B0012184B41002BE9DA0122034B88
:102EC8005242E5E750060120FFFFFF0FFFFFFF7F9B
:102ED80010B5144C6368002B04D00A211248FFF780
:102EE8002DFE10BD2300114A1021206800F0B4FB0C
:102EF800032000F037FA032000F034FB03200C49CC
:102F080000F080FAFFF724FB0A4B9C460323237545
:102F1800D0231B061B6860446375074B8000606004
:102F2800DC60DAE7C8E70020181501208D290020A9
:102F3800E52A002040000034500601200048704770
:102F4800C8E70020F0B54E464546DE465746E0B590
:102F580085B0019310AB1B780600039300239946B4
:102F6800984600927268EFF3108B72B61368002BC4
:102F7800FCD0BFF35F8F3568AC7B002C3DD0670079
:102F88002B683F19033FDB195A78AA73002A00D12E
:102F9800EA73B168474A8C4600980199A218120151
:102FA8006244106051600E9991600F99D160424659
:102FB8009A705A701A706B7B9A46002B67D0220061
:102FC8001900A8686B6898472A68002852D05346A9
:102FD80050465B005344D719033BB870D118D35CF3
:102FE800002B00D07B7053460C706B7354454FD048
:102FF800F3681B19013B187800E000207368BFF3E1
:103008005F8F42461A608BF31088002C4FD04B46D6
:10301800002B08D10002204305B0F0BCBB46B246E5
:10302800A946A046F0BD039B002B3ED00E9B002076
:103038000F999847030004000D000B4335D0002971
:103048000ADA009A019B121BAB4100920193002BF4
:103058000ADB039B994685E700F090F924184D4157
:1030680000940195002DF4DA0123134C5B42009380
:103078000194EEE753465B005344033BD3189C701E
:10308800D119D25D002A00D05A7053460B706C7368
:10309800307D009A019B00F0FBF981460028A7D0FB
:1030A8002100306800F040FCA2E70020B4E70120CE
:1030B8004042B1E7FFFFFF0FFFFFFF7F407D7047F2
:1030C800F0B54746CE46040080B50D0096267642F8
:1030D800F71736196F4185B08F4215D812D000F016
:1030E8004DF932003B00121A8B41002B16DC002BE5
:1030F80039D02000290000F075F905B0C0BCB946E8
:10310800B046F0BD8642EAD90026002700F036F91D
:1031180032003B00121A8B41002BE8DD002302939A
:103128000193124B3200009311483B00FFF70AFF4E
:103138000028DEDBB846B1460E4F0F4E736A98453D
:1031480004D8B26A9145D4D99845D2D13A68EFF3F8
:10315800108172B61368002BFCD0BFF35F8F380064
:1031680006F0A8F8EAE7002AC3D0D7E7C12900206B
:10317800C8E70020181501200040054070B504007C
:103188000D0000F0FBF800196941002902DBFFF788
:1031980097FF70BD012001494042F8E7FFFFFF7F1C
:1031A80070B5060000F0EAF8FA2204000D000023CA
:1031B80030000021920003F0C1FA0019694100298A
:1031C80002DBFFF77DFF70BD012001494042F8E7AF
:1031D800FFFFFF7FF0B5EFF30583CE46474680B586
:1031E80005000C0085B0002B12D02C4A0020536A31
:1031F8009C4203D8926A0130AA4204D305B0C0BCED
:10320800B946B046F0BDE01A421E9041C0B2F5E79B
:10321800234E02930193234B0200009330000B00CE
:10322800FFF790FE031EE0DD20BF7168EFF3108703
:1032380072B60A68002AFCD0BFF35F8FDAB29446F0
:103248003068427B62451DD0FF221A4051008946F2
:1032580001689144884649464144033989780029E0
:1032680013D0F1681B0A88464244013A1278DBB24F
:103278009A420FD07368BFF35F8F00221A6087F3FA
:103288001088B2E7FF221A40EBE732699342F1D186
:103298003161EFE7614600F047FBEBE7004005408E
:1032A800C8E70020C1290020F0B5EFF30582D64613
:1032B8004F4646461000C0B51038EFF3108872B676
:1032C800214C2368002BFCD0BFF35F8F012319002A
:1032D80081401E4D1F006963AA461D4D29601D4D82
:1032E8002E78AC463500C5402F402B4209D1BFF39C
:1032F8005F8F276088F31088E0BCBA46B146A846BD
:10330800F0BD5346144D5F6A83005D59AF420ED33A
:10331800124A8E439B5862461670BFF35F8F002295
:10332800226088F31088002BE6D09847E4E70C4B1E
:1033380092009C46624413681360BFF35F8F0023BA
:10334800236088F31088D7E7280100D000400540A3
:103358003C7005405D1603202415012034F0002040
:10336800D03F054010B50100024A0348FFF772F844
:1033780010BDC0462CE1002053160320034B596AA8
:103388000A00986A596A8A42FAD170470040054093
:1033980070B504000D00124A536A1900966A536A00
:1033A8008B42FAD13000190024184D41AB4211D894
:1033B8000ED02B000A494A6A9A42FCD307D1084A20
:1033C80002E0516A994202D1916AA142F9D370BDD3
:1033D800A642EED9012301246442E5175B42E9E7DE
:1033E80000400540064A536A9942FCD807D1044B6D
:1033F80002E05A6A914202D19A6A8242F9D370472E
:103408000040054070B504000D00EFF3108672B659
:103418001A4A1368002BFCD0BFF35F8F002D1BD016
:103428002000FFF7F9F8164981420AD02000FFF77B
:10343800FBF801212000FFF7B3F80123A340114A4C
:103448001360114BA400E550BFF35F8F00220B4BB4
:103458001A6086F3108870BD0B4BA200D55001226C
:10346800A2400A4920000B7893430B700449FFF7E8
:10347800F9F900212000FFF793F8E5E7280100D0CB
:10348800793000203860054034F000205D160320B4
:10349800F0B54F46D6464646C0B507002C4C616A83
:1034A8000D00A66A616AA942FAD18B4208D805D0F4
:1034B8000120E0BCBA46B146A846F0BDB242F7D9F1
:1034C800EFF3108A72B6234801680029FCD0BFF3D5
:1034D8005F8F0125BD4020491D4C884609788946E3
:1034E8002943C9B28C46414660460870391D1B48BD
:1034F800890065630A51B9000B50216A00202942EE
:1035080019D0616A0800A66A616A8142FAD18B42C1
:1035180019D801D1B24216D8CC4516D00C4B1F2071
:103528001D625D6301230740BB400D4A1E381360CE
:1035380043464A461A70BFF35F8F0022054B1A6054
:103548008AF31088B5E70020F5E70120F3E7C046C5
:1035580000400540280100D05D16032024150120F5
:1035680080E200E0EFF3108C72B60A490B68002B7A
:10357800FCD0BFF35F8F01238340074A07481362DB
:1035880002789A430270BFF35F8F00230B608CF3BD
:1035980010887047280100D0004005405D160320C0
:1035A800042330B5D3560F4C9B001B590025545F9C
:1035B80087B00594072414570B4D04940624145718
:1035C800039405241457029402241457013CA400C0
:1035D80064590194D27852B20092044A02F00CF96C
:1035E80007B030BD1CE2002038E2002050E1002086
:1035F80070B5050014001600002915D00C00002A2B
:1036080012D080686B689847296800280ED073002C
:103618009B196200033B1219CB18033A9C70881857
:103628008A5C002A15D10670200070BD63001B1942
:103638007200033B9219CB18033A9E7088188A5C73
:10364800002A02D104703400EEE75A700470340086
:10365800EAE75A700670E7E730B583600023CCB21A
:1036680043730133047342608373C4730D000068AD
:10367800012C06D9421C0133DBB2137003329C4281
:10368800F9D1FF2129404B0059180023401803386D
:10369800437030BDF8B5CE46474606000C0080B5ED
:1036A800002907D04D0003686D18033D5A19577853
:1036B800002F04D12000C0BCB946B046F8BD79003F
:1036C800C9190339884643445978894600215970F5
:1036D800517073683A002100806898473368002861
:1036E80014D042469A18947059195B5D002B00D08B
:1036F80053700F70270049463000FFF7CBFF3900A1
:1037080002003000FFF774FF0400D3E74246414649
:103718005D19AF709A185B5C002B00D06B70147049
:10372800E9E7C046F0B557464546DE464E46E0B5A1
:103738000D006B0001685B19DF1E0400C85D83B0D3
:103748000192CA19002850D043001B18033BCB181C
:103758005E78B446002E1AD1019E002E42D0E67B38
:10376800002E04D073009B19CB18033B5D70A37B1C
:10377800002B00D1A573E57300282FD100235370C7
:1037880003B0F0BCBB46B246A946A046F0BD7200E5
:103798006244033A89184A78904600224A70914652
:1037A8005A70010032002000FFF722FF434682468C
:1037B800002B07D05B0021684344033BCB185A78A1
:1037C800002A16D1424651462000FFF711FF216812
:1037D800019BCA19002BC2D10028CFD043001B1867
:1037E800033BCB1800219970C8E7019B002BB6D189
:1037F800C4E75000801803380918487883464846BB
:103808004870587041462000FFF7F2FE594680463E
:103818002000FFF73FFF414602002000FFF7E8FEC7
:103828008046CFE7F0B557464546DE464E46E0B5FA
:1038380083B00191457B04006B0000685B19DF1EB3
:10384800C15DC219002952D04B005B18033BC31855
:103858005E78B446002E1CD1019E002E44D0E67B33
:10386800002E04D073009B19C318033B5D70A37B23
:10387800002B00D1A573E573002931D1002328005E
:103888005370617303B0F0BCBB46B246A946A0466C
:10389800F0BD72006244033A8018427890460022D4
:1038A800427091465A7020003200FFF7A1FE43464D
:1038B8008246002B07D05B0021684344033BCB18AA
:1038C8005A78002A17D1424651462000FFF790FE49
:1038D800019B01002068C219002BC0D10029CDD05E
:1038E8004B005B18033BC31800209870C6E7019B88
:1038F800002BB4D1C2E75000801803380918487863
:10390800834648464870587041462000FFF770FECD
:10391800594680462000FFF7BDFE414602002000C0
:10392800FFF766FE8046CEE770B5040000292CD06C
:10393800437B8B422ED0056848004018033828186E
:103948008278002A21D053009B18033BEA5CEE18CA
:103958008A4202D11BE0002A08D053009B18033B7F
:10396800EB185A788A42F6D142785A70002301221D
:10397800837043702000FFF7D5FE617B02002000B2
:10398800FFF736FE6073012000E0002070BD437829
:103998003370EBE701221900FFF7C4FE60730120C2
:1039A800F4E7C046F8B5CE464746040080B5062081
:1039B8000E0000F003FB051E51D0524B5249E2188D
:1039C80053425A418023DB039C4692054F4B624485
:1039D8001A604F4B1A6010008B689843FBD1494B13
:1039E8008021E3185A4253414A4A5B0049009952E0
:1039F800062000F0E3FA3100C00001F0A1FFC3097E
:103A080032D14022012190466162A362256BEB0707
:103A180036D427008026E36A00232C3776013E43FC
:103A280033600620256300F0C9FA4146800001F0A2
:103A380087FF236B05009846DB073BD46022E36AC7
:103A48005A406E2313403360434623638023102279
:103A58009B013B431A60304B23630323A364280074
:103A6800C0BCB946B046F8BD2C4A93423FD90023A2
:103A78002B492C4A6162A362256B9046EB07C8D597
:103A88002200C02330329B011343234A06201A60C8
:103A9800666AA26AB601B61800F090FA224901F0E7
:103AA8004FFFB6020100300001F04AFF0021FFF786
:103AB8006FFCAEE72200C02330329B011343164A45
:103AC80006201A60636AA26A9B019946914400F035
:103AD80075FA4B4614499B02994601F031FF0100E3
:103AE800484601F02DFF0021FFF752FCA6E77F2290
:103AF80099018846104001304008190080440300AD
:103B080082E7C0460080FCBF00C0004000E00040E3
:103B180000F000403415012001030000FEFF000002
:103B2800FFFF0000C0FF3F004E0E0000F8B5040084
:103B380006200D0000F042FA2900C00001F000FF45
:103B4800C30924D0224A934239D90023214A224E5C
:103B58006262A362256BEB0720D52200C0233032B6
:103B68009B0113431D4A06201A60676AA26ABF01B7
:103B7800BF1800F023FA1A4901F0E2FEBF02010063
:103B8800380001F0DDFE0021FFF702FC06E04026C8
:103B980001226262A362256BEB07DED4E36A22008E
:103BA80080232C325B011343002206201A60256310
:103BB80000F004FA3100800001F0C2FEF8BD7F2257
:103BC8001040013040089E011A0036180300E0E753
:103BD800FEFF0000FFFF0000C0FF3F0001030000E0
:103BE8004E0E00000539013AF8B5D2004C01050027
:103BF8001443002B05D002222243012B2AD105337E
:103C08001C432E6BF3070BD4EA6A802362406E24B0
:103C180014402A005B012C3213431C602E63F8BD4C
:103C28002A00C02330329B0113430B4A06201A6036
:103C38006F6AAA6ABF01BF1800F0C0F9074901F00E
:103C48007FFEBF020100380001F07AFE0021FFF775
:103C58009FFBD9E71400D4E7010300004E0E0000D3
:103C6800F8B54B1E9941066B05000C01F3070BD400
:103C78001023E96A2A004C401C4080232C325B0147
:103C880013431C602E63F8BD0200C02330329B0131
:103C980013430A4A1A60476A826ABF010620BF189E
:103CA80000F08CF9064901F04BFEBF020100380014
:103CB80001F046FE0021FFF76BFBD9E70103000086
:103CC8004E0E00004B1E9941F52349429943054B7E
:103CD80001319C46604443425841034BFF31400048
:103CE800C15270470080FCBF3415012030B50C204C
:103CF80083B000F0B9F9FEF7A5FB00280ED0994B68
:103D0800994A1A605A609A60DA601A615A619A612F
:103D1800DA611A62954A5A6203B030BD944CA067C2
:103D280000F0F6F90122934B1A60636C012BFCD169
:103D38000322914B1A608E4A936B012BFCD10133FD
:103D480001218E4A8E480093043300F03DF9052383
:103D58008C4A009301218C4800F036F98B4B5A6845
:103D6800FF2A02D8802252005A6080227D4C824B62
:103D780021691201854D1A60002907D0606901F098
:103D8800DFFD431C5800C0180338FDD2E0217F4BEB
:103D980002201A681140802252012A4311601968D2
:103DA800484003210140116004219A681142FCD067
:103DB8008022802192012A43090111608022520049
:103DC8005A60734B2361734B5968FF2900D85A60B6
:103DD8000321684A6F4B116002399A681142FCD07E
:103DE800E0201A681040802252011A4310601868B7
:103DF8004840032101400220116066498A68104248
:103E0800FCD0802292011343802212011A60802282
:103E1800614B52004A606361604B5968FF2900D8C2
:103E28005A6080225E4BE16912015C4D1A600029DC
:103E380007D0606901F084FD431C5800C01803389E
:103E4800FDD2E02255490B681A4080235B012B43C1
:103E58001A60802380229B012B4312011A60802262
:103E6800414B52004A60E3614E4B5968FF2900D824
:103E78005A6080224C4B216A12014A4D1A6000296F
:103E880007D0606901F05CFD431C5800C018033876
:103E9800FDD2E02243490B681A4080235B012B4383
:103EA8001A60802380229B012B4312011A60802311
:103EB80080225B004B602C4BD20223623B4B59683B
:103EC800914200D25A608022394B616A1201374D03
:103ED8001A60002907D0606901F032FD431C5800C0
:103EE800C0180338FDD2E02230490B681A408023FD
:103EF8005B012B431A60802380229B012B43120114
:103F08001A608023DB024B60184B6362294B5A68A6
:103F1800FF2A02D8802252005A608022264BA169CB
:103F28001201244D1A60002907D0606901F008FDCC
:103F3800431C5800C0180338FDD2E0221D490B6805
:103F48001A4080235B012B431A60802380229B0147
:103F58002B4312011A6080235B004B600E4BA36158
:103F6800DAE6C04650F10020006CDC021BB7000006
:103F7800008000403CB0004030B00040002F68593D
:103F880000800240008C864700C00240308000401C
:103F9800001BB7003C800040405973075480004024
:103FA80054B000406080004060B000406C80004029
:103FB8006CB000404880004048B00040014B800091
:103FC800C058704750F10020F8B5040021481D0082
:103FD80017000E0001F0B4FC0100380001F0B0FC3D
:103FE800069B29041B0319432368002B20DB1A4B6B
:103FF8001A4DE21853425A4180235B019C46120332
:10400800174B62441A60174B1A601700AB689F433E
:10401800FBD1C022231D92011A4321232660A060F0
:1040280013602368002BFCDA0823E1601360F8BDF5
:104038003F2322681340B342D9D1A3681B051B0D47
:104048008342D4D1EE22E368D20213408B42CED110
:10405800EDE7C046001BB7000040FDBF00C00040B0
:1040680000E0004000F000408023024A9B00034328
:10407800D36270470080054010B5140080221B4BA6
:10408800D2051A6000281AD00123194A1843194B7F
:10409800DA61194A42401A62596298628022134BC7
:1040A800D2051A601549164A1160E022D2041A6036
:1040B800002C07D18022134B12061A6010BD0D4B3D
:1040C800D861EBE763011B1B9A00802312191201C8
:1040D8005B049A4200D30C4A0C4B1A60054B5A6099
:1040E8008022084BD2051A60E8E7C04600B00540B8
:1040F800D3C007B0008005402D3FF84FFCFF0100FA
:104108000820014000A00540FFFFFF003C060120F9
:10411800AA23064A1B0113602F230549D360054BC8
:1041280019605368002BFCDA7047C0460040024013
:1041380000B0FA00006002402C4B2D4A70B51A609E
:104148002C4A2D4B2D491A6014008B689C43FBD1D7
:104158002B4D2C4EB54208D2013E761BB60808CD31
:10416800984723000134B342F9D1FFF7BFFD264A2F
:10417800214B1A60214A9368DB43DB01DD09002BE0
:10418800F9D14022214B224C224E9A675A671A676E
:10419800DA66B44208D223682000002B20D00C3401
:1041A800FEF7E2FCB442F6D31B4E1C4CC022A168B9
:1041B800300002F09BFBA660FEF7BCF9FEF798FC06
:1041C800FEF786FE164C174EB44208D2013E361B47
:1041D800B60808CC98472B0001359E42F9D170BD2E
:1041E8000834FEF7B3FCB442D5D3DDE700E0004065
:1041F800BFCDFBFEFE7F3C0000F0004000C0004049
:104208006CE800207CE80020FFFFFF0100F001407F
:104218005CE800206CE800200000002000ED00E0D1
:104228007CE8002088E8002000BEFDE710B5FFF715
:10423800FBFFC0460FB400B5084883B002F0BAFCD3
:10424800049B002B07D005A91800019101F0F8FA8A
:10425800034802F0AFFC0120FFF7E6FF68E2002008
:104268006CDD002010B50148FFF7E4FF78E200207C
:1042780010B50148FFF7DEFF88E200209A4200D21D
:10428800885470477047C046F8B557464E4645466D
:10429800DE46E0B599460A9B07009A460D9B88467C
:1042A800934615000B9E9B0710D10C9B9E420DD286
:1042B8009D1B14000E005D4422004B460134310062
:1042C8002020B847A542F7D1B0460B9E002E27D034
:1042D800444675195346AA1B013E985D21004B467A
:1042E800B847002EF6D123002C0098460D9B9B075B
:1042F8000FD55B46E51A0C9BAB420AD94646984651
:1043080022004B46310020200135B8470134A8452A
:10431800F6D82000F0BCBB46B246A946A046F8BD78
:104328002C00E3E7F0B54F464646D646C0B584B004
:1043380098460EAB1B78129F994694460D9C109B8D
:10434800119EBA0725D4002E4BD19C4200D3BFE062
:1043580001223A4092461F2C00D9B8E00C9A551E0B
:10436800302201E0202C03D001342A55A342F9D889
:104378005246002A0DD0A6420BD9202C44D00C9AC4
:10438800551E302201E0202C3ED001342A55B4427B
:10439800F9D1FA064DD57A053FD4002C39D10F9BB7
:1043A800102B00D179E00F9B022B00D18AE030233B
:1043B8000C9A012413704B46002B3FD02D230C9AE6
:1043C800135501340C9B62460093039743460296AB
:1043D8000194FFF759FF04B0E0BCBA46B146A846BD
:1043E800F0BD012215003D40AA463A422FD04A4668
:1043F800002A02D10C323A4200D0013E9C42BAD285
:104408001F2CABD9202E27D92024FA06DAD57A0515
:1044180003D4A3422DD0A6422BD00F9B102B32D011
:10442800022B20D0202CCDD030220C9B1B191A70C7
:104438000134202CC6D04B46002BBFD17B070DD4AE
:104448003B07BFD520230C9A13550134BAE79C4289
:104458009FD21F2C00D881E720249AE72B230C9A9F
:1044680013550134AEE7202CACD00C9B1B1901343A
:104478003AE0631E012C92D00F9A102A2AD0022A01
:104488002FD01C00D0E7BB060ED4202C9AD00C9B52
:104498001A19013478231370C4E7BB060DD47823A6
:1044A8000C9A01241370BFE7202C00D18AE7582208
:1044B8000C9B1B191A700134B4E758230C9A012479
:1044C8001370B1E70C9A603301241370ACE7202411
:1044D80000265EE7023CBA06E9D40C9A12191C00C1
:1044E800D8E70C9A9246534462221A709AE7C0465B
:1044F80010B5002800D110BD02F010FBFBE7C04644
:104508000B0010B5002802D049681B68984710BDF9
:10451800F0B5DE4657464E464546E0B59BB09B464D
:10452800249B89469846259B0B900C924046424610
:1045380019009A4601F0CDFC002800D0D8E00122ED
:1045480040465146774B524201F0BEFC002800D04D
:10455800CEE0012240465146734B524201F09EFC88
:10456800002800D0C4E0002200234046514601F054
:1045780095FC002800D0B9E1424653460A920993B7
:104588008023289ADB001A400E92289A1A4201D1F9
:10459800062326930A9A099B1600134300D0C7E006
:1045A800289B002500261B0500D49BE100230D93C2
:1045B800269A0D9B9A4200DC9FE1D01A431E26934F
:1045C8008023289ADB001A430023002728920D93A2
:1045D800279B0024BB4200D9DC1B0223289A1A40DF
:1045E8000E92289A134203D07B427B415B421C40C7
:1045F8000D9B002B07D00A9809992A00330001F077
:10460800ECFB0A900991002200234046514601F034
:1046180045FC002805D0802000068446099961449D
:104628000991289A414B0B9D13400493269B0A9AA3
:104638000293099B03940092019349465B46280024
:104648000C9A00F08BF90400002F62D0289B2200FE
:1046580098061F23C0179843631C984649465B4633
:104668006530A8470D9B0025DA179C18DB0F9A4682
:104678005440013F01E0202D13D00AAA94461F237D
:10468800200063440A2101355E1901F059F93031DF
:10469800317020000A2101F053F926000400092E88
:1046A800E9D805230693002304930A33039353465A
:1046B80005970B9F029312AB009342465B4649460F
:1046C80038000195FFF72EFE0E9B0400002B20D02A
:1046D8000C9BC51A279BAB421BD91E0022005B46C8
:1046E800494620200135B8470134AE42F6D810E0DB
:1046F800289B42460493279B49460393269B0B9885
:1047080002935346009201935B460C9A00F026F9F7
:10471800040020001BB0F0BCBB46B246A946A04628
:10472800F0BDC046FFFFEF7FFFFFEFFFFFF7FFFF82
:10473800734B099F9C467800400D604401F0DCFBF8
:10474800704A714B01F067FB704A714B01F03CFBFA
:104758003B03704A1B0B1A4304000D003000110084
:104768006D4B002201F027FB6C4A6D4B01F053FBA7
:1047780002000B002000290001F026FB01F0D4FB09
:104788000D9001F0B9FB674A674B04000D0001F07A
:1047980042FB0022654B01F017FB01F0C5FB644AA0
:1047A8000600644B2000290001F035FB04003000AE
:1047B8000D000F9601F0A0FB5F4A604B01F02BFB48
:1047C80002000B002000290001F0F5FA02000B009E
:1047D80006000F0001F01FFB320004000D003B0033
:1047E8003000390001F0F0FA002210901191544B7A
:1047F8002000290001F0F1FA0022524B01F0E4FAFE
:1048080002000B002000290001F0E7FA00224E4BBD
:1048180001F0DAFA02000B002000290001F0DDFAAD
:104828000D008021040032003B000020C90501F082
:10483800C2FA02000B002000290001F0C5FA0200AC
:104848000B001098119901F0C8FA0022314B01F0C1
:10485800BBFA3E4B0F9C9C4664440022230501F0A2
:10486800DAFA05000E0002000B000A98099901F017
:1048780015FB00280AD00D9B2800013B31000D9341
:104888000022304B01F0A9FA05000E00C6270D9949
:104898002B0063318F42BF4128997F4204370905B5
:1048A80000D495E6334300D182E6099C284A2100CA
:1048B800284B0A9801F000FB002808D000222100AC
:1048C800254B0A9801F0EAFA002800D070E6269BEA
:1048D800002B00D17CE60E9B5A1E9341269AD31AD0
:1048E800269375E6002304270D9371E643460A9341
:1048F80080231B065344099342E6002326935FE670
:1049080001FCFFFFFB799F501344D33FB3C8608B72
:10491800288AC63F0000F03F0000F83F61436F63FC
:10492800A787D23F71A379094F930A400000E03F5F
:104938001655B5BBB16B0240EF39FAFE422EE63F81
:1049480000002C400000244000001840FF03000035
:104958002D431CEBE2361A3F80842E41F0B54E46BB
:10496800DE4657464546E0B597B09946209E219FBA
:10497800229B8346984607910C923B0032003000F8
:10498800390001F0A6FA002800D0A9E10122300080
:104998003900CA4B524201F081FA002800D0E1E008
:1049A800012230003900C64B524201F08DFA00282E
:1049B80000D0B7E0002230003900C24B01F084FA81
:1049C800002800D099E0002230003900BE4B01F0E9
:1049D80065FA002800D090E000220023300039005A
:1049E80001F05CFA002800D0B1E000230D93249B6D
:1049F8005B0501D40623984608AB9C461722002481
:104A080030234146624404E0013413550139202C17
:104A180001D00929F8D888463000390001F084FA15
:104A28004346DA00A94B05009B181A685B68089290
:104A3800099301F061FA02000B003000390001F01F
:104A4800BAF9089A099B01F0E6F90A900B9101F06E
:104A58008FFA824601F04CFA02000B000A980B9973
:104A680001F0A9F900229A4B0A900B9101F02CFA57
:104A7800002800D1C0E001239C46E244504601F0E2
:104A880037FA02000B000898099901F00DFA00287E
:104A980002D000239A4601354346002B6AD008AB62
:104AA80017269C4608956644554614E001235B4248
:104AB80043440A2128009A4600F042FF013430316D
:104AC8003719397028000A2100F03AFF092D00D85B
:104AD800D0E0D0460500202CE8D10EAB9846032341
:104AE800249A1340012B00D196E02023249A0193A5
:104AF8000392239A434602921EE0249B584604934D
:104B0800239B00960197039343460C9A02930799B7
:104B18004B46FFF7FDFC17B0F0BCBB46B246A946B2
:104B2800A046F0BD249B5B070ED40322694B249951
:104B38000192039123990291009358464B460C9A8F
:104B48000799FFF7A1FBE6E70422634BEFE73B0079
:104B580032000020002101F02EF9012306000F0089
:104B68000D9344E7249B0393239B0293042301930F
:104B78005A4BE1E7280001F0BFF902000B003000B2
:104B8800390001F018F9524B002206000F0001F01D
:104B980085F90EAB984600280AD10022300039006A
:104BA8004B4B01F091F9002802D1EB0700D50135F4
:104BB800202C94D008AA94461723280063440A217D
:104BC80001341E1900F094FE3031280031700A219A
:104BD80000F08EFE051EEBD10323249A1340012B0F
:104BE8001BD0202C00D180E70D9B002B35D02D2227
:104BF8004146631C0A5579E700220A980B99344B01
:104C080001F04CF9002800D046E75346002B51D15B
:104C180001239C46E2443FE72024239B002BE0D05D
:104C28000D9B002B03D1249A0C33134202D0239BF3
:104C3800013B2393239BA342D3D908AB9C4617225D
:104C480030236244202C00D14FE7239901341355B7
:104C58008C42C6D0202CF8D147E7249B5B0724D48C
:104C6800249A2300120700D440E72022414601334A
:104C78000A553BE75746089D202C00D12DE7220016
:104C880030214046002F09D00132B154202A00D1EA
:104C980023E7D3431B191B18002BF5D10EAB9846FD
:104CA8002E234146541C8B5482E72B224146631C19
:104CB8000A551BE7DB0700D4EEE6A9E7FFFFEFFF85
:104CC800FFFFEF7F65CDCD4165CDCDC190E40020DC
:104CD8000000E03F94E2002098E20020A4E20020D7
:104CE800249B0393239B029303230193004B23E705
:104CF800A0E20020F0B5DE464E4657464546E0B5F0
:104D08009FB01C00289B91460993C94AC94B8B4602
:104D180008901A60002900D118E2002320789A46EA
:104D2800002800D11AE226001D005C460AE02A008D
:104D38006F1C4B46089D2100A8473D00013630787E
:104D4800002870D02528F2D110239B46083B9A46AC
:104D5800043B9846023B00219C46721C10781600C2
:104D68000300203BDBB2102B03D8B34F9B00FB584A
:104D78009F460300303B092B32D900230A932A2887
:104D880068D0002398462E283ED00300683BDBB24B
:104D9800122B1CD8A94A9B00D3589F4601230132E5
:104DA8001943DBE7634601321943D7E7434601322B
:104DB8001943D3E75B4601321943CFE75346013223
:104DC8001943CBE780235B00707819430136030051
:104DD800253BDBB2532BAAD8994A9B00D3589F4650
:104DE80000270300B800C01901364000C018337806
:104DF80030381A00303A0700092AF3D90A90180007
:104E0800002398462E28C0D180237078DB001943F0
:104E18000300303B721C092B00D8A1E12A2800D1DD
:104E2800B2E11600B1E7A346AA462C00D14503D843
:104E380001235B424B449A464B4652465946002052
:104E4800089DA84720001FB0F0BCBB46B246A94643
:104E5800A046F0BD099B40CB0A96002E03DB507894
:104E68000993561C8DE72838014370420A9009932C
:104E78005078561C85E7782800D1DFE1582800D102
:104E88004CE26F2800D14FE3622801D100F030FCDA
:104E980010230A009A430B92692801D000F0A9FC5C
:104EA8000A230C934B0500D5D0E10B9A80231100FF
:104EB8009B0019408B461A4200D0A1E280231100C2
:104EC8005B0019408A461A4200D0B6E313005B061D
:104ED80000D5EDE2130009991B0601D400F076FC19
:104EE80008C91BB2D8171A18424092B209919346C2
:104EF800DA0F1292002B09D1802310220B99DB00C4
:104F08000B4091430B91002B00D0E4E20B9A6123F4
:104F1800920600D541230EA91F228C46DBB26244BB
:104F28000A3B5F461395A34655460C9CB2460D9323
:104F380016000AE03033DBB201357355A74200D2C0
:104F4800EDE2202D00D1EAE207002100380000F050
:104F5800F7FCCBB20929EDD90D9A94466344DBB22C
:104F6800EAE780239B007078194301362FE77078B1
:104F7800682800D1CDE180230136194327E77078EE
:104F88006C2800D1BFE180235B00194301361EE77E
:104F9800462800D19BE10722099B049107339343DC
:104FA8000A9A19000392424602920CC90898009284
:104FB800019309912A004B462100FFF7CFFC0136E7
:104FC8000500BCE62A006F1C4B46089D21002520E1
:104FD800A84701363D00B2E68B0700D4ADE1099B36
:104FE8002A009A466B1C9846534601CB21009A46E4
:104FF800089F4B46C0B2B8470A9B9C466544012BA4
:1050080000D886E2089B4746B04626004C4699469B
:105018003A002300013731002020C847AF42F7D1BA
:10502800A1465346340046460993013687E6C046F2
:10503800C54A002038060120ACE20020F0E200203A
:105048003CE30020099B04CB9B4643460992002B76
:1050580000D1C6E013789C46002B00D1BDE343463F
:10506800013B099A0133D0180A9F130001E08342DB
:1050780003D05A780133002AF9D1099A0A979B1A62
:105088000B9380230A00DB001A400C92194204D0CB
:105098000B9B434501D943460B9302231A000A4050
:1050A8000D920B4200D187E16046002800D168E1EB
:1050B8000C9B002B00D10DE1A844C246099B574622
:1050C8005B1B9846089BB2462A0026004C46994628
:1050D80009E023003100551CC8474346585D0028A5
:1050E80000D126E12A009742F3D1A1463D003400C1
:1050F80056460D9B002B00D043E15B4601360993D1
:105108001DE6099B1A0008CA9246002B48D02122A6
:1051180011438B460EA884461F216144099500223D
:105128000F27A4460D0002E0202A0CD00B003C00FB
:105138001C4020003730092C00D807380132A85409
:1051480019090F2BF0D86446099D32E0DC4B207812
:10515800089300239A46002800D0E4E5002465E679
:10516800434606000A9F9800C01801324000801983
:105178001678030030003038303B0928F3D9300066
:10518800984616000A9700E6099B023604CB90461B
:10519800D2434046D2171040804609933078F4E550
:1051A800102208009043113210438346002249051B
:1051B800B0D55B4606930823059343460493102312
:1051C80003930023029316AB019200932A004B46E7
:1051D80021000898FFF7A6F8534605000136099301
:1051E800ADE513789C46002B00D1F7E202235B4221
:1051F80037E7202302009A43472A04D180231B0162
:10520800194302239843452801D120231943072233
:10521800099B0491073393430A9A19000392424663
:1052280002920CC908980092019309912A004B46F2
:105238002100FFF76DF90136050080E510230C9376
:105248000C230A009A430B924B0503D501230B9AB2
:105258009A430B92692800D127E6642800D124E6F6
:105268000B9A802311009B0019408B461A4200D0EC
:1052780066E1802311005B0019408A461A4200D07B
:1052880039E213005B0600D53CE113001B0600D48D
:10529800A6E2099B04CB1204120C934609935B46C1
:1052A800002B00D09AE10B9A1033110099430B910F
:1052B800520500D492E100239A460B9B06930A9B61
:1052C8000593434604930C9B039300230CE120238E
:1052D800194360E6099B0A9A5B1B98464B46914620
:1052E8001F00B2462600089C2A003B003100A04758
:1052F80043460135585D0028F6D14A463400B94680
:1053080056460A92F5E6C0239B00B0781943023648
:105318005DE5C023B0781943023658E50C230A002E
:105328009A4314331A43103B0B920C934B058DD4BC
:1053380096E7A14634005646DBE60A9A012A00D8C9
:1053480053E26B1E9F18089BB04626004C469946B0
:105358002A002300013531002020C847BD42F7D17B
:10536800A14634004646099B3A0001CB21009846E5
:105378007D1C4B46089FC0B2B84743460136099387
:10538800DDE40B9B0A9AA8469A4200D8B5E69446F3
:105398006544ED1A089B4746B04626004C46994698
:1053A8003A002300013731002020C847AF42F7D127
:1053B800A14634004646A0E60B9A0A99531C91422E
:1053C80000D814E24B199B1A1F00089BB24626000E
:1053D8004C4699462A002300013531002020C84751
:1053E800BD42F7D10A9BA14601330B93099B3400B8
:1053F8001B7856469C466046002800D058E67CE656
:105408000722099B07339343013294469C44624622
:105418005F6809921A68FB171093119310981199F5
:10542800030053400E930B007B400F9394460E9A53
:105438000F9B121A8B410E920F93FB0F6246129329
:1054480000233A439B463DD00B9A6123920600D530
:1054580041230022DBB20EA90A3B8C4692460D93EB
:1054680043461F3262441395159655460E9E0F9F6C
:10547800A24690460C9C14930CE03032D2B24346BC
:1054880001355A55BB4500D18AE1202D00D18AE16A
:1054980006000F00220000233000390000F08EFAC9
:1054A800D2B2092AE9D90D9B9C466244D2B2E6E7FA
:1054B800FF23099904C913401A00099117E5C0464A
:1054C800554000200B9A1033110099430B91520557
:1054D800BAD500239A460B9B06930A9B059343462D
:1054E80004930C9B0393129B02935346019316ABB0
:1054F8002A00009321004B460898FEF713FF013657
:1055080005001CE4FF22099B02CB11408B4609933E
:10551800C5E65346454609930136FFF710FC564643
:105528005C46AA46139DD6E708230C930B910B996A
:10553800642800D084E60B9B5B0500D586E6B4E4BE
:105548000722099B07339343013294469C446246E1
:1055580009921A685B6810009B4613005A46134369
:1055680007D10B9A1033110099430B91520500D5BE
:10557800A1E60B9A6123920600D541230022DBB2F3
:105588000EA90A3B8C4692460D9343461F3262444D
:105598005F461295A34655460400B24690460C9EB7
:1055A80013930DE03032D2B2434601355A550023E9
:1055B800BB4200D100E1202D00D100E104000F0022
:1055C800320000232000390000F0F8F9D2B2092A8D
:1055D800E8D90D9B9C466244D2B2E5E70B9A612359
:1055E800920600D54123DBB20EA90A3B1F228C4646
:1055F8000D93230062445C461295170055469B465E
:10560800B2460C9E08E03033DBB201357B55B4421C
:105618000ED3202D0CD004003100200000F090F9AA
:10562800CBB20929EFD90D9A94466344DBB2ECE773
:1056380056465C46AA46129D3FE6099B1A0008CAD0
:10564800D91713925A184A409246DA0F1292002B31
:1056580008D1802310220B99DB000B4091430B915A
:10566800002B2BD10B9A6123920600D541230EAA59
:105678001F279446DBB20A3B0D9567445D460993A4
:10568800A3465446B2460C9E08E03033DBB20135DF
:105698007B55B4420ED3202D0CD0040031002000DD
:1056A80000F04EF9CBB20929EFD9099A9446634420
:1056B800DBB2ECE756465C46AB460D9D0B9B2A00D9
:1056C80006930A9B21000593434604930C9B089874
:1056D8000393129B013602935B46019316AB00932A
:1056E8004B46FEF71FFE139B05000993FFF727FBA8
:1056F80002230C931AE7099B04CB92461293002AC3
:1057080008D1802310220B99DB000B4091430B91A9
:10571800002B2BD10B9A6123920600D541230EAAA8
:105728001F279446DBB20A3B0D9567445D460993F3
:10573800A3465446B2460C9E08E03033DBB201352E
:105748007B55B4420ED3202D0CD00400310020002C
:1057580000F0F6F8CBB20929EFD9099A94466344C8
:10576800DBB2ECE756465C46AB460D9D0B9B2A0028
:1057780006930A9B21000593434604930C9B0898C3
:105788000393002302935B46019316AB00934B46A9
:10579800FEF7C8FD129B050009930136FFF7CFFA03
:1057A800B44200D871E6149B54460E960F97AA4649
:1057B8009846159E139D8EE6A64200D8FBE6139BDD
:1057C80056469846AA465C46129D76E508C9D817FB
:1057D8001A1842400991FFF78AFB00230B9350E403
:1057E800099B04CB9346099359E52F00BBE50B931E
:1057F80001E6063B0C939AE60CB410B584B006ACEF
:1058080008CC0A000094010004480394FFF772FAD8
:1058180004B010BC08BC02B01847C0464D40002078
:1058280000B585B00391012102900093034813004D
:105838004A4202A9FFF75EFA05B000BDD142002036
:1058480010B5094A0300146884B0002C08D001225E
:1058580000910648524203A9A047012004B010BD98
:1058680001F0A8F90020F9E738060120C14200201C
:1058780001480421014B1847F0E700207D5600201D
:10588800014B5B6818470000F0E70020142310B5AF
:105898000100188804331B88984710BD162310B5DB
:1058A8000100188802331B88984710BDF8B5474691
:1058B800CE4680B50F1E19D0142399460433040030
:1058C8000025012698464B461888434621681B88C0
:1058D800984701C4431E9841013540420640AF42F3
:1058E800F1D13000C0BCB946B046F8BD0126F8E792
:1058F800124A936F9B0815D29066D166002905D08D
:10590800FFE7FFE7FFE7516F106F704704B580218D
:105918000906C2175140002800D0C84307F01CFAF6
:10592800002104BDF0B5146E556E576F166FFFF762
:10593800E3FF1466556657671667F0BD000000D090
:10594800114A936F9B0813D210665166002905D03F
:10595800FFE7FFE7FFE7516F106F704704B50028B6
:1059680001D00020C04307F0F7F9002104BDC0466C
:10597800F0B5146E556E576F166FFFF7E5FF146696
:10598800556657671667F0BD000000D094464A4A2E
:10599800926F9208624601D228E0C046F0B5464EA2
:1059A800346E756E776F366F00F020F89446424A71
:1059B80014665566576716676246F0BD94463E4AB8
:1059C800926F9208624601D254E0C046F0B53A4E52
:1059D800346E756E776F366F00F04CF89446364A21
:1059E80014665566576716676246F0BD002B24DBC0
:1059F80011D000293EDA00B5C943404200D1013137
:105A080000F038F8C943404200D10131DB4352422B
:105A180000D1013300BD002AEBD1002801D10029B3
:105A280005D00020C90FC90701D1C043410800B5FE
:105A380007F092F90022002300BD00B500290ADB17
:105A4800DB43524200D1013300F014F8C94340420D
:105A580000D1013100BDC943404200D10131DB43CF
:105A6800524200D1013300F005F8DB43524200D125
:105A7800013300BD002923D1002B18D1002A0CD0F6
:105A8800BC460D4F38667A6600210023FFE7FFE722
:105A9800FFE77A6F386F67467047002801D00748DC
:105AA800010000B507F058F90022002300BD0200EC
:105AB8000B00002000217047000000D0FFFFFFFF0F
:105AC800002B00D0BFE0130C28D1002AE7D080B407
