:020000041000EA
:1000000000B5324B212058609868022188439860DF
:10001000D860186158612E4B002199600221596106
:100020000121F02299502B49196001219960352056
:1000300000F044F80222904214D00621196600F024
:1000400034F8196E01211966002018661A6600F04E
:100050002CF8196E196E196E052000F02FF8012189
:100060000842F9D1002199601B49196000215960AB
:100070001A491B48016001219960EB211966A021F2
:10008000196600F012F800219960164914480160C1
:100090000121996001BC002800D000471248134993
:1000A000086003C880F30888084703B5996A0420EC
:1000B0000142FBD001200142F8D103BD02B5186610
:1000C0001866FFF7F2FF186E186E02BD00000240BE
:1000D000000000180000070000035F00212200005C
:1000E000F4000018222000A00001001008ED00E03C
:1000F00000000000000000000000000074B24E7A12
:1001000000200420F7010010C3010010C5010010F9
:10011000C1010010C1010010C1010010C101001097
:10012000C1010010C1010010C1010010C701001081
:10013000C1010010C1010010C9010010CB01001065
:10014000CD010010CD010010CD010010CD01001037
:10015000CD010010CD010010CD010010CD01001027
:10016000CD010010CD010010CD010010CD01001017
:10017000CD010010CD010010CD010010CD01001007
:10018000CD010010CD010010CD010010CD010010F7
:10019000CD010010CD010010CD010010CD010010E7
:1001A000CD010010CD010010CD010010CD010010D7
:1001B000CD010010CD010010CD010010CD010010C7
:1001C00000BE00BE00BE00BE00BE00BEEFF3058054
:1001D000103800BEF2EB8871D8020010F80200104F
:1001E0003402001090A31AE700202249086006C8D4
:1001F00081F30888104720480068002835D10DA4F5
:100200000ECC002902D000F012F8F9E71B491C4A75
:10021000002000E001C19142FCD11A4988471A49E7
:1002200088471A49884700BEFDE701C901C29A42C2
:10023000FBD37047F8020010C0000020F8C4002073
:1002400030C7001000C50020B8DB0020E8DD00103A
:100250000000042000000420E8DD0010001004204D
:1002600000100420000000007047094800F014F856
:100270000047000008ED00E0000000D0B8DB0020DF
:100280007C12032049380020C11800203D3900208D
:10029000575600000000000001B40248844601BC2B
:1002A000604700BF9D4F002006005250ABB3605323
:1002B00020D8002006005250861C030230D80020AF
:1002C000060052505422A29D38D8002005005250FA
:0802D000DE65F468E8DD0010B2
:1002D800CC020010C0020010B402001044D8002064
:1002E800A802001050D800205CD8002098D8002020
:1002F800F8B5C0460448054B10B5834203D0044BFB
:10030800002B00D0984710BDB8DB0020B8DB0020D8
:100318000000000006480749091A8B10C90FC918C0
:1003280010B5491003D0044B002B00D0984710BDDE
:10033800B8DB0020B8DB00200000000010B5074C37
:100348002378002B09D1FFF7D5FF054B002B02D0EE
:10035800044800E000BF0123237010BD00DF002027
:1003680000000000F8C40020054B10B5002B03D096
:100378000449054800E000BFFFF7CCFF10BDC046A8
:100388000000000004DF0020F8C4002030B500247D
:100398000B4B0C4D83B001949C632B68002B0CD045
:1003A8000021286801AA0BF02FFA019B2C60002B72
:1003B80003D08022044B52051A6003B030BDC046FA
:1003C800004003403C12032004ED00E0802210B5F9
:1003D80052000021034805F007FF0022024B1A7063
:1003E80010BDC04638FC00206D120320802210B5D5
:1003F8000024074B5200002106481C7005F0F4FE4B
:1004080096210548490003F031F8044B1C7010BDD3
:100418007412032038FC0020004003406D120320B2
:1004280070B5D02504242D060A206C610AF01EFF41
:100438000248AC610AF01AFFF6E7C04660EA00001D
:1004480010B50C4C012302222000072103F06AF8A2
:100458002000012103F0A4F81420074901F096FDBB
:100468000121142001F04EFD0121200003F0CAF8FB
:1004780010BDC046004003405D010020F0B5C646EF
:1004880000B50478012C11D14378522B0ED1837812
:10049800322B0BD1C278022A08D10379502B0AD00B
:1004A800312B03D18379392B00D180E001204042E0
:1004B80080BCB846F0BD43792E2BF7D18379302B19
:1004C800F4D1C379312BF1D1002968D003264342F6
:1004D8001E404B1E092B7BD9002E77D0012E72D0DF
:1004E8005134032E01D1032260248B1BDBB29C46BE
:1004F8009B0898460025002386199F00F759013369
:100508007D40DFB2B845F8D82B041B0E6B405C4029
:100518002B021B0E5C402D0E6C40032365469D4349
:100528005219E4B2D2B2AC4539D0835C5C40531C5A
:10053800DBB2994233D9C35C5C40931CDBB2E4B2B2
:1005480099422CD9C35C5C40D31CDBB2994226D9B2
:10055800C35C5C40131DDBB2994220D9C35C5C408C
:10056800531DDBB299421AD9C35C5C40931DDBB2C0
:10057800994214D9C35C5C40D31DDBB299420ED9B1
:10058800C35C5C4013000833DBB2994207D9C35CF3
:100598000932D2B25C40914201D9835C5C40411877
:1005A80001390878001B431E9841404280E7007AD1
:1005B800342806D03238431E9841404290430230D6
:1005C80076E7333874E7012200248EE700228CE7AF
:1005D8000022AAE70278002330B5002A04D120E0DF
:1005E8000133C25C002A1CD0282AF9D15A1CD2B285
:1005F800815C3B2908D0DB430A4DAC180132E15439
:10060800D2B2815C3B29F8D10132D3B2C15C29292D
:1006180007D0054D9C1A01332955DBB2C15C292945
:10062800F8D130BD2811012054E5002070B5837938
:10063800194C1A09950055190F226D0013405B19C2
:10064800457923802B099E009B1915405B005B1997
:100658000579A3702B099E009B1915405B005B1957
:10066800E370217181780B099D005B1911405B00D3
:100678005B18637141780B099D005B1911405B00A1
:100688005B18A37101780B0998001B180A405B00DE
:100698009B18E37170BDC046A0DA00201A4BF0B574
:1006A800D6469A46194B4F46464699460123C0B549
:1006B8009846002684B0164F02AD09F04FFC434619
:1006C8002A002E70040000936821012338000BF0E3
:1006D80089FE2A0007236821380000960BF0EAFEFD
:1006E8002800E978FFF7A2FF4B46524640211868D8
:1006F80002F0F6FB09F032FCFA239B009C466444A6
:10070800201A0AF0B3FDD8E7A0DA002094DA002016
:1007180084DB0020F0B5DE4657464E464546E0B538
:1007280089B01E0012AB1B7806AC9B4613AB1B7836
:1007380003909A4614AB1B780491994615AB1B7825
:100748000A21984616AB1F78002310002370150065
:1007580004F096FDC0B202010A212800059204F0B7
:100768008FFD059A3000114361700A2104F088FD5D
:100778000A21C5B2300004F083FD2D010D4358460F
:100788000A21A57004F07CFD0A21C5B2584604F080
:1007980077FD2D010D4350460A21E57004F070FDE8
:1007A8000A21C5B2504604F06BFD2D010D434846A1
:1007B8000A21257104F064FD0A21C5B2484604F0F7
:1007C8005FFD2D010D4340460A21657104F058FD77
:1007D8000A21C5B2404604F053FD2D010D433800EF
:1007E8000A21A57104F04CFD0A21C5B2380004F0B5
:1007F80047FD00232D010D43E57122000093049964
:10080800039808330BF0EEFD09B0F0BCBB46B246C6
:10081800A946A046F0BDC046F0B5454657464E46E7
:10082800DE46E0B5954B964C1F789846954B8DB0B3
:10083800FD180023E65E2D03092E00DDCBE03036DF
:10084800F3B20693302307930226A657092E00DD3C
:10085800B2E03036F3B20593302308930326A65747
:10086800092E00DD99E03036F3B202933023099364
:100878000526A657092E00DD80E03036F3B2049332
:1008880030230A930626A657092E68DC3036F3B2C1
:100898000393302301930726A657092E51DC3023F2
:1008A8003036F6B20B938021774B00241B78490130
:1008B8009B46764B1B789A46754B1B78994603E006
:1008C80010348C4200D195E02B5DA2B2013BDBB223
:1008D800FD2BF5D96F4B12091201D218069B19028C
:1008E800089B1804079B0B431900059B01431B0633
:1008F800194311600A99029B080409991B021943BC
:100908000B000499034309060B435360039B0199A9
:100918001802014308000B9B31061B0418435B4671
:100928001373534653734B460600937304230E43C5
:100938009660D3730DB0F0BCBB46B246A946A0463C
:10094800F0BD0A21300004F073FC3030C3B20A2134
:1009580030000B9304F06CFC3031CEB2A3E70A21CF
:10096800300004F065FC3030C3B20A213000019336
:1009780004F05EFC3031CBB203938CE70A213000DF
:1009880004F056FC3030C3B20A2130000A9304F058
:100998004FFC3031CBB2049374E70A21300004F0E5
:1009A80047FC3030C3B20A213000099304F040FC00
:1009B8003031CBB202935BE70A21300004F038FCF7
:1009C8003030C3B20A213000089304F031FC3031D2
:1009D800CBB2059342E70A21300004F029FC3030FD
:1009E800C3B20A213000079304F022FC3031CBB2A5
:1009F800069329E74346274D01372200FFB200211D
:100A080028001F7005F0F0FB089A069B1104079A4E
:100A18001B021A431300059A0B43120613430A9A42
:100A28002B60029B1104099A1B021A431300049AB3
:100A38000B43120613436B60039B210018020B9BA8
:100A48001A04019B034318001043330606001E4393
:100A58005B462B7353466B734B46AB730423802062
:100A6800AE60EB730C4D00032F700BF077FF802006
:100A78002200290000030BF0B1FF5BE7721203208C
:100A8800A0DA0020810001007712032079120320E8
:100A98007812032064E5002020010120F0B5DE462D
:100AA80057464E4645460023E0B587B00B22002145
:100AB80003A8029305F098FB00239B46974B9946A1
:100AC800974B9A4609F04AFA0122964B01901B6807
:100AD800954E5340954A37001340954A802113603C
:100AE8000822944B30001A60FA239B009C46924AD5
:100AF8006744490093680B42FCD1D36803800230F5
:100B08008742F7D108228D4B8B491A60F8320B685F
:100B18001342FCD08B68134206D18021864B4900D2
:100B2800DA689A680A42FBD000257F4C208805F0D5
:100B3800E3FA834905F0D9FA05F000FB023480B2E4
:100B48002D18A742F2D1FA212800490004F070FBC1
:100B580003041B0C984600240025308805F0CCFAC5
:100B6800774905F0C2FA05F0E9FA434680B2C01A9F
:100B780004F062FE02000B0004F0EDFD02000B0021
:100B88002000290004F0C0FD023604000D00B74221
:100B9800E3D100226B4B04F0C0FD04F095FE002267
:100BA800694B04F0D8FD5B4600225C1C674B04F0DF
:100BB800B4FD04F07DFE5A4602AB98544B46644897
:100BC800196805F01DFD634BE4B21B78002B6AD150
:100BD80006200725604B0F2118565D5704F028FBA7
:100BE80049B2042D54DC002941D102AB1978080020
:100BF800012C56D9A4460E0001220C0058465D1C53
:100C08002B780F1C994200D21F1CF9B21F1CB3424B
:100C180000D9371CFEB2E41817000132A4B2D2B2D0
:100C28000135B842ECD1200064464C4B19704C4B4E
:100C380021001E7004F0FCFA4A4B00241870FFF7DC
:100C4800EBFD8021484B49011878813000030BF0F7
:100C580085FE8022444B45491878520181300003B3
:100C68000BF0BCFE0F22002102A805F0BDFA09F026
:100C780075F95346019A1B68A346D31A3C4A944611
:100C88006344181A0AF0F2FA00235246136019E76F
:100C98000E29ECD1372DEADD02AB19780800012CBA
:100CA800A8D80E00C1E70725FA212B4B89005D570C
:100CB8006B015B1B9801C01AC0004019800104F049
:100CC800DFFA534618600620234B0F21185604F00C
:100CD800AFFA49B2002903D000231E4A137080E7F7
:100CE800FFF79AFD8021204B4901187807258130AC
:100CF80000030BF033FE80221B4B1C49187852016D
:100D0800813000030BF06AFE0620134B0F211856A2
:100D18005D5704F08DFA49B2DEE7C04694DA002048
:100D28002CFC002008C0044038FD00200F00000FF4
:100D380008D0044000E0044000C0044000F0044033
:100D480000404E3F00407F400040524000408F40EE
:100D5800FCD2002073120320A0DA002077120320AF
:100D680079120320781203207212032064E5002010
:100D780060EA0000F0B54E4645465746DE46E0B507
:100D8800C94BD5B01E78303EB300F618C64B760076
:100D98005B78303BF118C44B0E009B78303B9F00CA
:100DA800DF19C14B7F00DB78303BFF187BB20E9315
:100DB800BD4B1B79303B9A009B18BB4A5B005279AC
:100DC800303A9B185BB21793B74B9B79303B9A002C
:100DD8009B18B54A5B00D279303A9B185BB21993DD
:100DE800B14B1B7A303B9A009B18AF4A5B00527A92
:100DF800303A9B185BB21B93AC4B1D78303DAB006F
:100E0800ED186D00A846A94B5B78303B9844A74B7A
:100E18009B78303B9A009B18A44A5B00D278303A02
:100E28009B185BB29946A14B1B79303B9A009B18E3
:100E38009E4A5B005279303A9B185BB216939B4BE3
:100E48009B79303B9A009B18984A5B00D279303ADC
:100E58009B185BB21893954B1B7A303B9A009B18F2
:100E6800924A5B00527A303A9B185BB21A938845D3
:100E780000D112E14346CB1A002B00DDB5E0002477
:100E88006022002123A8229405F0AEF960220021F7
:100E98003CA83B9405F0A8F900239C469B46159373
:100EA8001493139310930C93129311930D93013B86
:100EB8000B930A9363460025B2460F9319E05046F8
:100EC800301A00280BDB0A98013000D194E0B345B2
:100ED80000D1A2E05846301A002800DA8CE0B0456C
:100EE80041D04046301A002843DD714B10359D42F1
:100EF80052D0704BE81803785A1ED2B2FD2AF4D8A3
:100F0800303B46789A009B185B00303EF618837891
:100F1800303B9A009B18C2785B00303A9B180279E4
:100F28005BB2303A91005218417952003039521868
:100F3800817952B230398C000919C4794900303CA2
:100F48000919047A407A303CA700BC46644464001E
:100F58003038241849B264B2B245B0D10E989842DC
:100F680051D0181AADE7994552D04846181A0028AA
:100F7800BBDC0B98013005D00C98B04252D0301A27
:100F88000028B2DD10934A4B0B9510351594149137
:100F980013920C969D42ACD10A9C0B9D21002A000D
:100FA800454805F02DFB631C02D06B1C00D09CE06B
:100FB800424805F083FA424B00229B5E152B00D174
:100FC800D0E120213F4A93691942FCD115231360CF
:100FD8003D4805F073FA0A220021334805F004F968
:100FE8000A220021314805F0FFF855B0F0BCBB4695
:100FF800B246A946A046F0BDB3460A95129411918F
:101008000F920D936BE71798904210D0101A58E77B
:101018001698904210D0101A65E70D98984210D093
:10102800181A59E71098834210D0181AA8E7199887
:10103800884216D0081A44E7189888420BD0081A34
:1010480051E70F98824212D0101A45E7139882424E
:1010580012D0101A94E71A98A04200D189E7201AF2
:1010680041E71B98A04200D12DE7201A29E71198E3
:1010780081420AD0081A2FE7149888420BD1159894
:10108800844200D131E7201A7AE71298A04200D1B1
:1010980025E7201A20E7081A72E70E9B994515D014
:1010A8004A469B1AE8E6C0462811012054E500206C
:1010B800007F0100001008100CD3002080D300200E
:1010C8004C1101200040034084D30020169B179A3E
:1010D800934208D1189B199A934204D11A9B1B9AE0
:1010E800934200D1CBE6D31AC6E6A24805F0E6F94A
:1010F8002B00AC4201DDC0235B030A9A0C939A4291
:1011080000D965E701239A469B4B56469B4622AD7C
:101118002C219A4B12AAE35C52181370984B013198
:10112800E35C12AA5218137000233020013112AA6E
:1011380052181370934A12A9A25C09180A70924AAD
:101148000130A25C12A909180A70322112AA521899
:1011580013708E4A0330A25C12A909180A708C4ACF
:101168000130A25C12A909180A70362112AA521875
:101178001370884A0330A25C12A909180A70864ABB
:101188000130A25C12A909180A703A2112AA521851
:101198001370824A0330A25C12A909180A70804AA7
:1011A80012A9A25C013009180A703E2112AA52182D
:1011B80013707C4BE35C98467B4BE35C99467B4B16
:1011C800E35C9A460C9B9C4200D182E0534606930E
:1011D8004B4605934346049321AB039320AB0293FC
:1011E8001FAB01931EAB1E21714A009328001DAB53
:1011F80003F0A2FF239A229B297E5340249A3BA8FE
:101208005340259A5340269A5340279A53406A7E62
:101218004A40A97E4A4019045A40090E4A40190218
:10122800090E4A401B0E53405E40534606934B46F8
:1012380005934346049321AB039320AB02931FAB62
:1012480001931EAB00931E21594A1DABF6B203F061
:1012580073FFA42212AB9B181B789946002B1ED053
:10126800544B0D2700229B5EBC46984600214746FA
:101278002022A0464C46504B3BA800291CD1A7422F
:1012880021D099690A42FCD11C60017801300D39DE
:101298004C4261410478C9B2002CEED144460A9B05
:1012A8000B9A934202DD454B9C4258D00C9B10345C
:1012B8009C4200D82CE78BE699690A42E4D09969E8
:1012C8000A42F9D1E0E799690A42FCD161461960FE
:1012D800D7E7534606934B460593434603270493A3
:1012E80021AB039320AB02931FAB01931EAB5A466D
:1012F800009328001DAB07971E3903F01DFF239AA2
:10130800229B3BA85340249A5340259A5340269A3F
:101318005340279A5340289A534019042A7F090EAC
:1013280059404A401902090E4A401B0E53405E407C
:10133800534606934B4605934346049321AB0393C8
:1013480020AB02931FABF6B201931EAB00931F2193
:101358001B4A089607971DAB03F0EEFE79E70024B9
:101368000C92D5E62021144A93691942FCD10D2329
:10137800136026E624D8002018D300200010081097
:1013880001100810021008100310081004100810AB
:10139800051008100610081007100810081008108B
:1013A800091008100D1008100C1008100E10081065
:1013B80060D300204C11012000400340F0FF1700CB
:1013C8003CD3002070B50278002386B02F2A01D0C4
:1013D80006B070BD42783F2AFAD18278362AF7D112
:1013E800C278312AF4D14018C21E1278212AEFD1CE
:1013F800821E12780D2AEBD1013802780A2AE7D129
:101408009621284A090112888A4249D03AD8962159
:1014180089008A4240D09621C9008A4200D102231D
:10142800214A1121137001A8204A03F085FE6B465A
:1014380000211C7999758C4217D020220D251C4B50
:1014480001A800269E5F1B4B002912D1A64214D08A
:1014580099690A42FCD11C60017801300D394C426F
:1014680061410478C9B2002CEED10122124B1A70E6
:10147800AEE799690A42FCD1EDE799690A42FCD1C5
:101488001D60E5E7962149018A4207D09621890126
:101498008A42C5D10523C3E70123C1E70423BFE777
:1014A8000323BDE79CDA00206A12032088D30020BA
:1014B8004C110120004003407412032010B503783A
:1014C800062B0CD0444B00229B5E152B2CD02021E0
:1014D800424A93691942FCD11523136010BD431881
:1014E8009A1E12780D2AEDD1013B1B780A2BE9D1FF
:1014F8000629E7D14378302B6BD08378302B66D020
:10150800C378302B61D00379302B5CD04379302BF2
:101518001AD0314B00229B5E152B0DD020212F4A6B
:1015280093691942FCD1D7E720212C4A93691942C3
:10153800FCD10D231360CAE72022284B99690A427F
:10154800FCD10D221A60E9E72C3B0233C35C244925
:10155800303B0988DAB291420CD21F4B00229B5EC5
:10156800152B28D020221D4B99690A42FCD115223F
:101578001A60B3E7184B00215B5E062B13D02021BD
:10158800164B98690142FCD106211960052A02D838
:10159800144B9200D4582100104801F067FF022232
:1015A800114B1A709AE720210C4B98690142FCD123
:1015B8000D211960E3E72022084B99690A42FCD102
:1015C8000D221A60CEE70323BFE70223BDE70123FC
:1015D800BBE70023B9E7C0464C1101200040034097
:1015E8009CDA0020E8D3002074120320F0B52821EB
:1015F8008BB00AF0D3FF06AC411C062220000BF08A
:101608005BF8A378254D9A009B18E2785B00103AA6
:101618009B182279224E9100521861795200103994
:1016280052182978DBB20491A978D2B20391E978EB
:10163800002702912979019121788800091860789A
:10164800490010380918C9B2300000916821FFF725
:1016580061F86B46202201249B181F7008AA0123F9
:101668006821300000940AF0BDFE08AA072368210B
:10167800300000970AF01EFF23226B469B1819784A
:1016880008A8FEF7D3FF074B2A001868402101F08D
:1016980027FC054B1C700BB0F0BDC046A0DA00203B
:1016A80084DB002094DA00207312032070B528210F
:1016B8008AB00AF073FF06AC411C062220000AF02B
:1016C800FBFF2178234D88000918607849001038FD
:1016D8000918C9B2AB79EA790491A1781E4E88003D
:1016E8000918E078490010380918C9B2039121791E
:1016F800880009186079490010380918C9B20291A0
:101708002979300001916979002400916821FFF757
:1017180001F86B4620229B181C70012308AA00932D
:10172800682130000AF05EFE08AA0723682130000D
:1017380000940AF0BFFE23226B469B18197808A86C
:10174800FEF774FF054B2A004021186801F0C8FB1A
:101758000AB070BDA0DA002084DB002094DA0020F3
:10176800F0B5DE464E46574645460023E0B5CC4F19
:1017780085B03B60CB4B0122CB490093CB4800237B
:101788000AF00EFBCA4B0122009306000023C94948
:10179800C9480AF005FBC94B02909846C84B9946C0
:1017A800C84B9B4601235A469B1A03930025C64CF7
:1017B80008F0D4FB002302000121300000950AF054
:1017C8004BFB09F033F850233860A363626B183B76
:1017D800134042461360012201210020524209F0C1
:1017E8006BFF0128E4D1A369DB06DFD4B246B64C0F
:1017F80010221500A3691D401A42FAD12668F6B2D4
:101808000A2E2DD14B461B7849465A1C0A705A4657
:10181800D65408F0A3FB00231E0002000221009307
:1018280002980AF019FB3300009600220321504663
:101838000AF012FBA54B1E78012E6CD0022E4CD05C
:10184800002E3BD0802200215200584604F0CCFCE8
:1018580000234A461370A369DB06C9D55646A5E797
:1018680008F07CFB002302000221504600950AF094
:10187800F3FA4B4649461A78531CDBB20B705946AB
:101888008E54212B0DD0122BE5D10A79312AE2D1C1
:101898008A79392ADFD10A7A342AB5D0322ADAD1BC
:1018A800B2E70A79502AD6D14A792E2AD3D18A7931
:1018B800302AD0D1CA79312ACDD1A5E708F04EFB1C
:1018C800002302000121029800960AF0C5FA4B464F
:1018D80058461978FFF776FDB4E708F03FFB002378
:1018E80002000121009302980AF0B6FA4B461E78CE
:1018F80058463100FEF7C2FD01285FD01ADC431CB0
:1019080000D1A8E0002800D099E05846FEF762FE12
:10191800FFF730FA96E708F021FB00230200009356
:10192800012102980AF098FA4B4658461978FFF7B1
:10193800C5FD87E7022800D081E0F11E01230029B8
:1019480033DD331F0C2B00D89FE0FE2B00D99CE021
:101958008B089C4660465A468C460023010001CA03
:1019680001354340A942FAD81A0E18045A40000E0D
:101978001B0242401B0E5340012260466146534001
:1019880002329043DBB2C2B281420ED05D46285C7F
:101998004340501CC0B2814207DD285C0232D2B2FB
:1019A8004340914201DDAA5C5340494A925D9A4204
:1019B80000D047E75846FFF779FE43E7F11E0123B9
:1019C800002933DD331FFE2B00D985E00C2B00D80E
:1019D80082E08B089C4608005A46614600238446EC
:1019E80001CA01354340A942FAD81A0E18045A40D0
:1019F800000E1B0242401B0E53400122604653401A
:101A0800023290436146DBB2C2B260450ED05D46F9
:101A1800285C4340501CC0B2814207DD285C02327A
:101A2800D2B24340914201DDAA5C5340284A925DFC
:101A38009A4200D006E75846FFF7D8FD02E7254B43
:101A480000229B5E152B19D02022A3691A42FCD1D3
:101A580015232360F6E61F4B00229B5E152B06D04C
:101A68002022A3691A42FCD115232360EAE620222A
:101A7800A3691A42FCD10D232360F1E72022A36950
:101A88001A42FCD10D232360DEE75A460123107861
:101A9800434003988018C0B201328142F7DC84E7E2
:101AA8003C1203209D010020881300009CD30020D5
:101AB800BD01002030750000A8D300203450034039
:101AC8006D12032038FC00200040034074120320EC
:101AD80035FC00204C1101205A4601231078434060
:101AE80003988018C0B201328842F7DB9EE7C046EF
:101AF800F0B5C64600B584B004F08EFD684800F025
:101B0800EFFF96216748490001F0ECFBFEF798FCCF
:101B18000221002000F0E6F80221012000F0E2F89E
:101B2800022000F023F9D02304221B065A620AF08F
:101B380017FD1F211B2000F0D5F8002200211B20D3
:101B480000F0E8F800211B2000F0FCF88023564A3A
:101B58005B01116801204B40E021C9010B4053494A
:101B680000260B6096239B03136100F0B9FF0AF06F
:101B78003BFB4F4C012720000AF052FB4D4B4E49CE
:101B8800984618000AF004FC0321142002AD00F066
:101B9800A9F80321152000F0A5F80AF0C9FD0123D2
:101BA8002A00682140462E7000970AF01BFC072384
:101BB8002A006821404600960AF07CFCEB7898469B
:101BC800AB791A09900010180F22400013401B1817
:101BD80068792380030999008C46634410405B00B0
:101BE8001B182879A370030999008C466344104098
:101BF8005B001B18E3704346A97823710B09980012
:101C08001B1811405B005B18697863710B09980019
:101C18001B1811405B005B182978A3710B09980009
:101C28001B180A405B009B18E371244B22001868BC
:101C3800402101F055F90721615603244A01521A3F
:101C480093019B1AD8004018FA218001890003F0FB
:101C580017FB1B4B802218601A4900231A4801966B
:101C6800009409F079FBC022002318491201184892
:101C78000196009409F070FB022380221549009315
:101C880015480023019609F067FB002380221349B9
:101C980013480196009709F05FFB09F0B9F8FEE7D1
:101CA800B80B00000040034000C0044000D00440CE
:101CB800A0DA002084DB0020801A060094DA0020D5
:101CC8002CFC0020B4D300206D080020C0D30020D5
:101CD80031150020CCD300206D040020DCD3002077
:101CE800F1010020094A830094464022634410B55C
:101CF8001C68C0006240C024144080225201134373
:101D08001C60034B9C466044416010BD04C0014008
:101D1800004001400A4B80009C460423604400298F
:101D280001D00C230821002A00D10B00026853407F
:101D38000C221A4080235B01184302607047C0469A
:101D480004C00140084B80009C466044002905D02F
:101D580080239B011843402303607047C0239B01E5
:101D6800184340230360F8E704C001400123D02250
:101D78008340120693629361094A83009446402285
:101D880063441968C0004A40C021114080225201B2
:101D980013431960034B9C46052360444360704716
:101DA80004C0014000400140024B18688007C00F82
:101DB8007047C04600C0064070B5EFF3108C72B68D
:101DC8000D4D2B68002BFCD0BFF35F8F0724CB0889
:101DD800C618C05C01230C40A3401C000440034209
:101DE80007D103433370BFF35F8F2C608CF31088E7
:101DF80070BD100001F0BEFE2C0100D0F8B54746BA
:101E0800CE46884680B5EFF3108C72B6214D2C680B
:101E1800002CFCD0BFF35F8F9A422CD8D408072738
:101E2800055D061901241740BC402C421FD007212C
:101E38000127894609E0D408055D06194C46390092
:101E48001440A1400C00294211D001329342F2D231
:101E580001204042BFF35F8F00220E4B1A608CF3C3
:101E6800108800280FDBC0BCB946B046F8BD2C432B
:101E780010003470EEE7BFF35F8F00232B608CF304
:101E88001088012040424346002BECD0089801F00E
:101E980071FEC0462C0100D00021044B044ABFF358
:101EA8005F8F02C39342FAD17047C046000100D049
:101EB800800100D0044A1078431CDBB2172B00D9EC
:101EC800102313707047C046A8DA002010B501002F
:101ED800024A0348FFF770FF10BDC04600D4002037
:101EE80078E4002000B5054B83B001000093182268
:101EF8001F230348FFF782FF03B000BD20D4002052
:101F080078E4002001238340002904D0034A1360A9
:101F1800034A13607047034A1360FBE780E200E05E
:101F280000E100E080E100E001228240034B1B68F1
:101F380013405A1E9341D8B27047C04600E100E0F2
:101F480001238340014A13607047C04600E200E065
:101F5800084B10309B688000C358002B07D0064AF6
:101F680000209B1A2F229A424041C0B2704700209D
:101F7800FCE7C04600ED00E0ACDA0020024B103070
:101F88009B688000C058704700ED00E070B50D00F8
:101F9800EFF3108672B60F4A1368002BFCD0BFF31C
:101FA8005F8F0D4B10309B6884001B590B4A93427E
:101FB80003D09D4201D001F0FBFD074B9B681D51EA
:101FC800BFF35F8FBFF35F8F0022024B1A6086F367
:101FD800108870BD240100D000ED00E0CD01001094
:101FE800F0B557464E46DE464546E0B585B0060094
:101FF80002911700EFF3108B72B6674A1368002B33
:10200800FCD0BFF35F8F0025644B5D579A46002DC7
:1020180000DAA4E06B00624C03935B199B009846BE
:10202800A146C1444B4652469B79103613705D4B0E
:10203800B2009B68019299580B1B2F2B34D95A4B2D
:10204800994200D0A4E0039B584A9C46584B6544EB
:10205800AD006353434602336519E418554B01211B
:10206800043B1B1B1B055B0D13436B80524BEF712D
:10207800AB80FF23AB71029BAB604B460B4319004F
:10208800484B019A9B689950BFF35F8FBFF35F8FEE
:102098000022414B1A608BF3108805B0F0BCBB4698
:1020A800B246A946A046F0BD01200A008243D37972
:1020B800BB422FD845464E46130040491B1B5B4187
:1020C8005943090D3A4B63533A4B02356519043BA2
:1020D8005B1B1B05354D5B0D2B4373800426B446F3
:1020E800E0444444131F1B1B4C46A17102991B0575
:1020F800A16049465B0D2B43A380314BE771014337
:102108001360BDE75800C01880002018C679BE4289
:102118002BD902000623D356002BF3DA101D824672
:102128002848804604267642B446E14450464E4646
:10213800361A3005400D824656461C4895710643AE
:102148009680039A944665441D4AAD00641922603E
:102158004246A371029BA280E771A36090E701F059
:1021680027FD002553465D5754E7101D8246908889
:102178004005001584464046D4446646043020187D
:10218800301AE0260005400D360230438046C9E784
:1021980001F00EFD57E7C046240100D06E1203205F
:1021A800ACDA002000ED00E0CD01001000E0FFFFF8
:1021B80000A1FFFFDCDA002001BDFFFFAAAA000092
:1021C8000148804701BD0000F0B5DE4657464E463F
:1021D8004546E0B50C0083B0EFF3108972B6584A53
:1021E8001368002BFCD0BFF35F8F564B9A6803002F
:1021F80010339F00D559544A9046954232D0A54293
:1022080043D0524EAA1B2F2A2CD801228240924634
:1022180051464F4A12681140019151464D4A11608A
:10222800BFF35F8FEFF305829346002A33D1012372
:102238002A009A4393689C4208D177E04B005B18C8
:102248009B00F3189968A1422AD01A00062151561A
:102258000029F3DA019B002B19D052463E4B1A6035
:102268003B4B1A60374B9B68DD51BFF35F8FBFF361
:102278005F8F0022324B1A6089F3108803B0F0BCDC
:10228800BB46B246A946A046F0BD1500EAE752464D
:10229800304B1A60E6E79342C9D001F089FCC6E7E3
:1022A80006215956002921DB4A00501880003418AD
:1022B8008046A0689860E079D87106202056987109
:1022C800002824DBA488F01A640524154444001966
:1022D800E0240005400D24022043988052181F4B2B
:1022E8009200B6181A781970B271B3E759460029E6
:1022F8000FD1FF3191711A49918018490A789A7162
:10230800184A9B1B5B415A43120D0A70A2E71648F4
:10231800E3E7164A1649D21A083A5002400D01431B
:102328009980144952080A43DA8093E706215156E6
:1023380013000029B8DA5A46002AEAD14546DCE7F4
:10234800240100D000ED00E0CD010010ACDA00203F
:1023580000E100E080E100E080E200E06E1203208E
:1023680001BDFFFFAAAA000001BD0000E6DA0020B7
:1023780000F0FFFF00F8FFFF032310B50400074A31
:1023880018409446C0009C43FC3383406444226850
:1023980081409A4313000B43236010BD00E400E022
:1023A80070B5EFF3058101240443EFF3108C72B686
:1023B800214A1368002BFCD0BFF35F8F1F4B050029
:1023C8001F4AED1A6D416A43120D1E4D8900AE6811
:1023D80052B27658A6421CD00621595691421CD0BA
:1023E80012215956914222D01E215956914220D08D
:1023F8002A2159560324914210D0134B19781A7088
:102408008171BFF35F8F00220B4B1A608CF3108829
:1024180070BDAB680D4C5C50EFE7002461000919F2
:1024280089005B18FF21997109499980E5E7012422
:10243800F4E70224F2E7C046240100D0ACDA002019
:10244800AAAA000000ED00E06E120320CD010010E2
:1024580001BDFFFF054B064A1360064A136053602F
:102468009360D3601361536193617047808080806B
:1024780000E400E004E400E000B5074B83B001008D
:102488000093002205230548FFF7B8FC002801DB6C
:102498001F23181A03B000BD3CD400207612032075
:1024A800024B9C466144890001607047400000343B
:1024B80010B50400FFF7FEFC01002000FFF7F0FF55
:1024C80001235B426360BFF35F8F10BD10B504004A
:1024D800FFF7F0FC01002000FFF7E2FF01235B4259
:1024E800636000232372BFF35F8F10BD10B5040033
:1024F8000120FFF7F7FC044B9C46604480002060F5
:10250800BFF35F8F10BDC04640000034034B9C46AC
:10251800614489000160BFF35F8F70474000003459
:1025280083680B4810B5844661446244090112016E
:102538009A18591854684B6801209C4201D802D057
:102548000020C0B210BD12680B689A42F9D8F7E7AC
:10255800FFFFFF0F074810B50268EFF3108172B64E
:102568001368002BFCD0BFF35F8F06F061FB0020DF
:10257800002110BD24110120F8B557464E464546A6
:10258800DE46E0B599460CAB1C780DAB1B7806000F
:1025980090469A460768002C11D1BC7B002C42D08B
:1025A80065003B682D19033D59194B78BB73002B07
:1025B80000D1FB7300238B704B700B7004E0650037
:1025C8003B682D19033D5919B2682A4B9446424677
:1025D800E3181B0163441A604A465A600A9A9A60D3
:1025E8000B9ADA6000238B704B700B707B7B9B46D9
:1025F800002B2BD022005946B8687B6898473A6868
:10260800002816D05B4658465B005B445519033BCF
:10261800A870D118D35C002B00D06B705B460C708F
:102628007B73A34513D0F0BCBB46B246A946A0466F
:10263800F8BD5B465B005B44033BD3189C705119A3
:10264800525D002A00D05A705B460B707C7342467C
:102658004B46307D00F0BCFB051E06D05346002BD0
:1026680003D12100306800F0FFFD0E9B002BDAD06B
:102678001D70D8E7FFFFFF0FF0B5DE4657464E4600
:1026880045460023E0B58BB00893674B8200D458C9
:1026980000239B46099000F011FB626806000F00BA
:1026A800EFF3108572B61368002BFCD0BFF35F8F71
:1026B80023689C465B7B9946002B00D169E0A268A1
:1026C8005A4B90464B441B01984443461A685B6832
:1026D80010001900801BB941002900DC63E009984B
:1026E80000F076FB00230022984600230692079309
:1026F80000239A466368BFF35F8F5A461A6085F3D2
:1027080010885346002B08D10028C4D10BB0F0BC68
:10271800BB46B246A946A046F0BD089B41461802F2
:102728004B461843D047626806000F00EFF3108548
:1027380072B61368002BFCD0BFF35F8F002F50DBFD
:1027480033003B4302D02369002B61D12368D97B36
:10275800002907D04A00521819688C464946624435
:10276800033A51709A7B002A01D14A469A734A4625
:10277800DA734B46E168013BCA5C0132CA545B46D6
:1027880023616368BFF35F8F5A461A6085F3108828
:1027980081E700230022984600230692079300232E
:1027A80000209A46A6E7002902D1002800D096E723
:1027B8000021604600F0D6FC43461A685B68069222
:1027C800079343469B689A464346DB689846E36806
:1027D8004B44013B1B7808931B02034323610020F1
:1027E80088E72369002BB1D0069A079B921BBB414F
:1027F800002B15DB594604910121039149460291AA
:1028080041460191514620000091FFF7B5FEB6E719
:1028180000F054FA32003B0012184B41002BE9DA61
:102828000122034B5242E5E778F90020FFFFFF0F32
:10283800FFFFFF7F10B5144C6368002B04D00A21FA
:102848001248FFF72DFE10BD2300114A1021206801
:1028580000F0A2FB032000F025FA032000F022FB81
:1028680003200C4900F06EFAFFF724FB0A4B9C4644
:1028780003232375D0231B061B6860446375074B2D
:1028880080006060DC60DAE7F4DA002024110120BF
:10289800F1220020492400204000003478F900206B
:1028A80000487047F4DA0020F0B54E464546DE464B
:1028B8005746E0B585B0019310AB1B78060003932B
:1028C80000239946984600927268EFF3108B72B60F
:1028D8001368002BFCD0BFF35F8F3568AC7B002CEE
:1028E8003DD067002B683F19033FDB195A78AA735C
:1028F800002A00D1EA73B168474A8C4600980199CA
:10290800A21812016244106051600E9991600F99EB
:10291800D16042469A705A701A706B7B9A46002BA7
:1029280067D022001900A8686B6898472A680028B1
:1029380052D0534650465B005344D719033BB870F6
:10294800D118D35C002B00D07B7053460C706B738E
:1029580054454FD0F3681B19013B187800E000205C
:102968007368BFF35F8F42461A608BF31088002CA0
:102978004FD04B46002B08D10002204305B0F0BCD5
:10298800BB46B246A946A046F0BD039B002B3ED0ED
:102998000E9B00200F999847030004000D000B437D
:1029A80035D000290ADA009A019B121BAB4100922C
:1029B8000193002B0ADB039B994685E700F07EF91B
:1029C80024184D4100940195002DF4DA0123134C8D
:1029D8005B4200930194EEE753465B005344033B8C
:1029E800D3189C70D119D25D002A00D05A70534672
:1029F8000B706C73307D009A019B00F0E9F98146F9
:102A08000028A7D02100306800F02EFCA2E70020A3
:102A1800B4E701204042B1E7FFFFFF0FFFFFFF7F50
:102A2800407D7047F0B54746CE46040080B50D009E
:102A380096267642F71736196F4185B08F4215D81A
:102A480012D000F03BF932003B00121A8B41002BE8
:102A580016DC002B39D02000290000F063F905B0FE
:102A6800C0BCB946B046F0BD8642EAD90026002768
:102A780000F024F932003B00121A8B41002BE8DDEC
:102A8800002302930193124B3200009311483B003C
:102A9800FFF70AFF0028DEDBB846B1460E4F0F4E9F
:102AA800736A984504D8B26A9145D4D99845D2D169
:102AB8003A68EFF3108172B61368002BFCD0BFF3AD
:102AC8005F8F380006F07EF8EAE7002AC3D0D7E720
:102AD80025230020F4DA00202411012000400540BD
:102AE80070B5060000F0EAF8FA2204000D00002391
:102AF80030000021920003F0C1FA00196941002951
:102B080002DBFFF78FFF70BD012001494042F8E763
:102B1800FFFFFF7FF0B5EFF30583CE46474680B54C
:102B280005000C0085B0002B12D02C4A0020536AF7
:102B38009C4203D8926A0130AA4204D305B0C0BCB3
:102B4800B946B046F0BDE01A421E9041C0B2F5E762
:102B5800234E02930193234B0200009330000B0095
:102B6800FFF7A2FE031EE0DD20BF7168EFF31087B8
:102B780072B60A68002AFCD0BFF35F8FDAB29446B7
:102B88003068427B62451DD0FF221A4051008946B9
:102B980001689144884649464144033989780029A7
:102BA80013D0F1681B0A88464244013A1278DBB216
:102BB8009A420FD07368BFF35F8F00221A6087F3C1
:102BC8001088B2E7FF221A40EBE732699342F1D14D
:102BD8003161EFE7614600F047FBEBE70040054055
:102BE800F4DA002025230020F0B5EFF30582D6465D
:102BF8004F4646461000C0B51038EFF3108872B63D
:102C0800214C2368002BFCD0BFF35F8F01231900F0
:102C180081401E4D1F006963AA461D4D29601D4D48
:102C28002E78AC463500C5402F402B4209D1BFF362
:102C38005F8F276088F31088E0BCBA46B146A84683
:102C4800F0BD5346144D5F6A83005D59AF420ED301
:102C5800124A8E439B5862461670BFF35F8F00225C
:102C6800226088F31088002BE6D09847E4E70C4BE5
:102C780092009C46624413681360BFF35F8F002381
:102C8800236088F31088D7E7280100D0004005406A
:102C98003C700540751203203C11012060E30020C0
:102CA800D03F054010B50100024A0348FFF784F8F9
:102CB80010BDC04658D400206C120320034B596A3B
:102CC8000A00986A596A8A42FAD17047004005405A
:102CD80070B504000D00124A536A1900966A536AC7
:102CE8008B42FAD13000190024184D41AB4211D85B
:102CF8000ED02B000A494A6A9A42FCD307D1084AE7
:102D080002E0516A994202D1916AA142F9D370BD99
:102D1800A642EED9012301246442E5175B42E9E7A4
:102D280000400540064A536A9942FCD807D1044B33
:102D380002E05A6A914202D19A6A8242F9D37047F4
:102D48000040054070B504000D00EFF3108672B620
:102D58001A4A1368002BFCD0BFF35F8F002D1BD0DD
:102D68002000FFF70BF9164981420AD02000FFF72F
:102D78000DF901212000FFF7C5F80123A340114AEE
:102D88001360114BA400E550BFF35F8F00220B4B7B
:102D98001A6086F3108870BD0B4BA200D550012233
:102DA800A2400A4920000B7893430B700449FFF7AF
:102DB8000BFA00212000FFF7A5F8E5E7280100D06D
:102DC800B92900203860054060E30020751203200F
:102DD800F0B54F46D6464646C0B507002C4C616A4A
:102DE8000D00A66A616AA942FAD18B4208D805D0BB
:102DF8000120E0BCBA46B146A846F0BDB242F7D9B8
:102E0800EFF3108A72B6234801680029FCD0BFF39B
:102E18005F8F0125BD4020491D4C884609788946A9
:102E28002943C9B28C46414660460870391D1B4883
:102E3800890065630A51B9000B50216A00202942B4
:102E480019D0616A0800A66A616A8142FAD18B4288
:102E580019D801D1B24216D8CC4516D00C4B1F2038
:102E68001D625D6301230740BB400D4A1E38136095
:102E780043464A461A70BFF35F8F0022054B1A601B
:102E88008AF31088B5E70020F5E70120F3E7C0468C
:102E980000400540280100D0751203203C11012094
:102EA80080E200E0EFF3108C72B60A490B68002B41
:102EB800FCD0BFF35F8F01238340074A07481362A2
:102EC80002789A430270BFF35F8F00230B608CF384
:102ED80010887047280100D0004005407512032073
:102EE800042330B5D3560F4C9B001B590025545F63
:102EF80087B00594072414570B4D049406241457DF
:102F0800039405241457029402241457013CA40086
:102F180064590194D27852B20092044A02F00CF932
:102F280007B030BD48D5002064D500207CD40020EF
:102F380070B5050014001600002915D00C00002AF1
:102F480012D080686B689847296800280ED07300F3
:102F58009B196200033B1219CB18033A9C7088181E
:102F68008A5C002A15D10670200070BD63001B1909
:102F78007200033B9219CB18033A9E7088188A5C3A
:102F8800002A02D104703400EEE75A70047034004D
:102F9800EAE75A700670E7E730B583600023CCB2E1
:102FA80043730133047342608373C4730D00006874
:102FB800012C06D9421C0133DBB2137003329C4248
:102FC800F9D1FF2129404B00591800234018033834
:102FD800437030BDF8B5CE46474606000C0080B5B4
:102FE800002907D04D0003686D18033D5A1957781A
:102FF800002F04D12000C0BCB946B046F8BD790006
:10300800C9190339884643445978894600215970BB
:10301800517073683A002100806898473368002827
:1030280014D042469A18947059195B5D002B00D051
:1030380053700F70270049463000FFF7CBFF390067
:1030480002003000FFF774FF0400D3E74246414610
:103058005D19AF709A185B5C002B00D06B70147010
:10306800E9E7C046F0B557464546DE464E46E0B568
:103078000D006B0001685B19DF1E0400C85D83B09A
:103088000192CA19002850D043001B18033BCB18E3
:103098005E78B446002E1AD1019E002E42D0E67BFF
:1030A800002E04D073009B19CB18033B5D70A37BE3
:1030B800002B00D1A573E57300282FD1002353708E
:1030C80003B0F0BCBB46B246A946A046F0BD7200AC
:1030D8006244033A89184A78904600224A70914619
:1030E8005A70010032002000FFF722FF4346824653
:1030F800002B07D05B0021684344033BCB185A7868
:10310800002A16D1424651462000FFF711FF2168D8
:10311800019BCA19002BC2D10028CFD043001B182D
:10312800033BCB1800219970C8E7019B002BB6D14F
:10313800C4E7500080180338091848788346484681
:103148004870587041462000FFF7F2FE5946804605
:103158002000FFF73FFF414602002000FFF7E8FE8E
:103168008046CFE7F0B557464546DE464E46E0B5C1
:1031780083B00191457B04006B0000685B19DF1E7A
:10318800C15DC219002952D04B005B18033BC3181C
:103198005E78B446002E1CD1019E002E44D0E67BFA
:1031A800002E04D073009B19C318033B5D70A37BEA
:1031B800002B00D1A573E573002931D10023280025
:1031C8005370617303B0F0BCBB46B246A946A04633
:1031D800F0BD72006244033A80184278904600229B
:1031E800427091465A7020003200FFF7A1FE434614
:1031F8008246002B07D05B0021684344033BCB1871
:103208005A78002A17D1424651462000FFF790FE0F
:10321800019B01002068C219002BC0D10029CDD024
:103228004B005B18033BC31800209870C6E7019B4E
:10323800002BB4D1C2E75000801803380918487829
:10324800834648464870587041462000FFF770FE94
:10325800594680462000FFF7BDFE41460200200087
:10326800FFF766FE8046CEE770B5040000292CD033
:10327800437B8B422ED00568480040180338281835
:103288008278002A21D053009B18033BEA5CEE1891
:103298008A4202D11BE0002A08D053009B18033B46
:1032A800EB185A788A42F6D142785A7000230122E4
:1032B800837043702000FFF7D5FE617B0200200079
:1032C800FFF736FE6073012000E0002070BD4378F0
:1032D8003370EBE701221900FFF7C4FE6073012089
:1032E800F4E7C046F8B5CE464746040080B5062048
:1032F8000E0000F003FB051E51D0524B5249E21854
:1033080053425A418023DB039C4692054F4B62444B
:103318001A604F4B1A6010008B689843FBD1494BD9
:103328008021E3185A4253414A4A5B0049009952A6
:10333800062000F0E3FA3100C00001F0A1FFC30944
:1033480032D14022012190466162A362256BEB07CE
:1033580036D427008026E36A00232C3776013E43C3
:1033680033600620256300F0C9FA4146800001F069
:1033780087FF236B05009846DB073BD46022E36A8E
:103388005A406E2313403360434623638023102240
:103398009B013B431A60304B23630323A36428003B
:1033A800C0BCB946B046F8BD2C4A93423FD9002369
:1033B8002B492C4A6162A362256B9046EB07C8D55E
:1033C8002200C02330329B011343234A06201A608F
:1033D800666AA26AB601B61800F090FA224901F0AE
:1033E8004FFFB6020100300001F04AFF0021FFF74D
:1033F8006FFCAEE72200C02330329B011343164A0C
:1034080006201A60636AA26A9B019946914400F0FB
:1034180075FA4B4614499B02994601F031FF0100A9
:10342800484601F02DFF0021FFF752FCA6E77F2256
:103438009901884610400130400819008044030073
:1034480082E7C0460080FCBF00C0004000E00040AA
:1034580000F000404C11012001030000FEFF0000B5
:10346800FFFF0000C0FF3F004E0E0000F8B504004B
:1034780006200D0000F042FA2900C00001F000FF0C
:10348800C30924D0224A934239D90023214A224E23
:103498006262A362256BEB0720D52200C02330327D
:1034A8009B0113431D4A06201A60676AA26ABF017E
:1034B800BF1800F023FA1A4901F0E2FEBF0201002A
:1034C800380001F0DDFE0021FFF702FC06E040268F
:1034D80001226262A362256BEB07DED4E36A220055
:1034E80080232C325B011343002206201A602563D7
:1034F80000F004FA3100800001F0C2FEF8BD7F221E
:103508001040013040089E011A0036180300E0E719
:10351800FEFF0000FFFF0000C0FF3F0001030000A6
:103528004E0E00000539013AF8B5D2004C010500ED
:103538001443002B05D002222243012B2AD1053344
:103548001C432E6BF3070BD4EA6A802362406E2477
:1035580014402A005B012C3213431C602E63F8BD13
:103568002A00C02330329B0113430B4A06201A60FD
:103578006F6AAA6ABF01BF1800F0C0F9074901F0D5
:103588007FFEBF020100380001F07AFE0021FFF73C
:103598009FFBD9E71400D4E7010300004E0E00009A
:1035A800F8B54B1E9941066B05000C01F3070BD4C7
:1035B8001023E96A2A004C401C4080232C325B010E
:1035C80013431C602E63F8BD0200C02330329B01F8
:1035D80013430A4A1A60476A826ABF010620BF1865
:1035E80000F08CF9064901F04BFEBF0201003800DB
:1035F80001F046FE0021FFF76BFBD9E7010300004D
:103608004E0E00004B1E9941F52349429943054B44
:1036180001319C46604443425841034BFF3140000E
:10362800C15270470080FCBF4C11012030B50C20FE
:1036380083B000F0B9F9FEF7B7FB00280ED0994B1C
:10364800994A1A605A609A60DA601A615A619A61F6
:10365800DA611A62954A5A6203B030BD944CA06789
:1036680000F0F6F90122934B1A60636C012BFCD130
:103678000322914B1A608E4A936B012BFCD10133C4
:1036880001218E4A8E480093043300F03DF905234A
:103698008C4A009301218C4800F036F98B4B5A680C
:1036A800FF2A02D8802252005A6080227D4C824B29
:1036B80021691201854D1A60002907D0606901F05F
:1036C800DFFD431C5800C0180338FDD2E0217F4BB2
:1036D80002201A681140802252012A431160196899
:1036E800484003210140116004219A681142FCD02E
:1036F8008022802192012A43090111608022520010
:103708005A60734B2361734B5968FF2900D85A607C
:103718000321684A6F4B116002399A681142FCD044
:10372800E0201A681040802252011A43106018687D
:103738004840032101400220116066498A6810420E
:10374800FCD0802292011343802212011A60802249
:10375800614B52004A606361604B5968FF2900D889
:103768005A6080225E4BE16912015C4D1A600029A3
:1037780007D0606901F084FD431C5800C018033865
:10378800FDD2E02255490B681A4080235B012B4388
:103798001A60802380229B012B4312011A60802229
:1037A800414B52004A60E3614E4B5968FF2900D8EB
:1037B8005A6080224C4B216A12014A4D1A60002936
:1037C80007D0606901F05CFD431C5800C01803383D
:1037D800FDD2E02243490B681A4080235B012B434A
:1037E8001A60802380229B012B4312011A608023D8
:1037F80080225B004B602C4BD20223623B4B596802
:10380800914200D25A608022394B616A1201374DC9
:103818001A60002907D0606901F032FD431C580086
:10382800C0180338FDD2E02230490B681A408023C3
:103838005B012B431A60802380229B012B431201DA
:103848001A608023DB024B60184B6362294B5A686D
:10385800FF2A02D8802252005A608022264BA16992
:103868001201244D1A60002907D0606901F008FD93
:10387800431C5800C0180338FDD2E0221D490B68CC
:103888001A4080235B012B431A60802380229B010E
:103898002B4312011A6080235B004B600E4BA3611F
:1038A800DAE6C0467CE40020006CDC021BB70000AE
:1038B800008000403CB0004030B00040002F685904
:1038C80000800240008C864700C0024030800040E3
:1038D800001BB7003C8000404059730754800040EB
:1038E80054B000406080004060B000406C800040F0
:1038F8006CB000404880004048B00040014B800058
:10390800C05870477CE40020F8B5040021481D0029
:1039180017000E0001F0B4FC0100380001F0B0FC03
:10392800069B29041B0319432368002B20DB1A4B31
:103938001A4DE21853425A4180235B019C461203F8
:10394800174B62441A60174B1A601700AB689F4305
:10395800FBD1C022231D92011A4321232660A060B7
:1039680013602368002BFCDA0823E1601360F8BDBC
:103978003F2322681340B342D9D1A3681B051B0D0E
:103988008342D4D1EE22E368D20213408B42CED1D7
:10399800EDE7C046001BB7000040FDBF00C0004077
:1039A80000E0004000F000408023024A9B000343EF
:1039B800D36270470080054010B5140080221B4B6D
:1039C800D2051A6000281AD00123194A1843194B46
:1039D800DA61194A42401A62596298628022134B8E
:1039E800D2051A601549164A1160E022D2041A60FD
:1039F800002C07D18022134B12061A6010BD0D4B04
:103A0800D861EBE763011B1B9A008023121912018E
:103A18005B049A4200D30C4A0C4B1A60054B5A605F
:103A28008022084BD2051A60E8E7C04600B005407E
:103A3800D3C007B0008005402D3FF84FFCFF0100C0
:103A48000820014000A00540FFFFFF0068F90020A2
:103A5800AA23064A1B0113602F230549D360054B8F
:103A680019605368002BFCDA7047C04600400240DA
:103A780000B0FA00006002402C4B2D4A70B51A6065
:103A88002C4A2D4B2D491A6014008B689C43FBD19E
:103A98002B4D2C4EB54208D2013E761BB60808CDF8
:103AA800984723000134B342F9D1FFF7BFFD264AF6
:103AB800214B1A60214A9368DB43DB01DD09002BA7
:103AC800F9D14022214B224C224E9A675A671A6735
:103AD800DA66B44208D223682000002B20D00C34C8
:103AE800FEF7F4FCB442F6D31B4E1C4CC022A1686E
:103AF800300002F07FFBA660FEF7CEF9FEF7AAFCC5
:103B0800FEF798FE164C174EB44208D2013E361BFB
:103B1800B60808CC98472B0001359E42F9D170BDF4
:103B28000834FEF7C5FCB442D5D3DDE700E0004019
:103B3800BFCDFBFEFE7F3C0000F0004000C000400F
:103B48009CDB0020ACDB0020FFFFFF0100F0014000
:103B58008CDB00209CDB00200000002000ED00E052
:103B6800ACDB0020B8DB002000BEFDE710B5FFF796
:103B7800FBFFC0460FB400B5084883B002F09EFCB6
:103B8800049B002B07D005A91800019101F0F8FA51
:103B9800034802F093FC0120FFF7E6FF94D50020CC
:103BA80098D3002010B50148FFF7E4FFA4D5002002
:103BB80010B50148FFF7DEFFB4D500209A4200D2C5
:103BC800885470477047C046F8B557464E46454634
:103BD800DE46E0B599460A9B07009A460D9B884643
:103BE800934615000B9E9B0710D10C9B9E420DD24D
:103BF8009D1B14000E005D4422004B460134310029
:103C08002020B847A542F7D1B0460B9E002E27D0FA
:103C1800444675195346AA1B013E985D21004B4640
:103C2800B847002EF6D123002C0098460D9B9B0721
:103C38000FD55B46E51A0C9BAB420AD94646984617
:103C480022004B46310020200135B8470134A845F1
:103C5800F6D82000F0BCBB46B246A946A046F8BD3F
:103C68002C00E3E7F0B54F464646D646C0B584B0CB
:103C780098460EAB1B78129F994694460D9C109B54
:103C8800119EBA0725D4002E4BD19C4200D3BFE029
:103C980001223A4092461F2C00D9B8E00C9A551ED2
:103CA800302201E0202C03D001342A55A342F9D850
:103CB8005246002A0DD0A6420BD9202C44D00C9A8B
:103CC800551E302201E0202C3ED001342A55B44242
:103CD800F9D1FA064DD57A053FD4002C39D10F9B7E
:103CE800102B00D179E00F9B022B00D18AE0302302
:103CF8000C9A012413704B46002B3FD02D230C9AAD
:103D0800135501340C9B6246009303974346029671
:103D18000194FFF759FF04B0E0BCBA46B146A84683
:103D2800F0BD012215003D40AA463A422FD04A462E
:103D3800002A02D10C323A4200D0013E9C42BAD24B
:103D48001F2CABD9202E27D92024FA06DAD57A05DC
:103D580003D4A3422DD0A6422BD00F9B102B32D0D8
:103D6800022B20D0202CCDD030220C9B1B191A708E
:103D78000134202CC6D04B46002BBFD17B070DD475
:103D88003B07BFD520230C9A13550134BAE79C4250
:103D98009FD21F2C00D881E720249AE72B230C9A66
:103DA80013550134AEE7202CACD00C9B1B19013401
:103DB8003AE0631E012C92D00F9A102A2AD0022AC8
:103DC8002FD01C00D0E7BB060ED4202C9AD00C9B19
:103DD8001A19013478231370C4E7BB060DD478236D
:103DE8000C9A01241370BFE7202C00D18AE75822CF
:103DF8000C9B1B191A700134B4E758230C9A012440
:103E08001370B1E70C9A603301241370ACE72024D7
:103E180000265EE7023CBA06E9D40C9A12191C0087
:103E2800D8E70C9A9246534462221A709AE7C04621
:103E380010B5002800D110BD02F0F4FAFBE7C04627
:103E48000B0010B5002802D049681B68984710BDC0
:103E5800F0B5DE4657464E464546E0B59BB09B4614
:103E6800249B89469846259B0B900C9240464246D7
:103E780019009A4601F0CDFC002800D0D8E00122B4
:103E880040465146774B524201F0BEFC002800D014
:103E9800CEE0012240465146734B524201F09EFC4F
:103EA800002800D0C4E0002200234046514601F01B
:103EB80095FC002800D0B9E1424653460A9209937E
:103EC8008023289ADB001A400E92289A1A4201D1C0
:103ED800062326930A9A099B1600134300D0C7E0CD
:103EE800289B002500261B0500D49BE100230D9389
:103EF800269A0D9B9A4200DC9FE1D01A431E269316
:103F08008023289ADB001A430023002728920D9368
:103F1800279B0024BB4200D9DC1B0223289A1A40A5
:103F28000E92289A134203D07B427B415B421C408D
:103F38000D9B002B07D00A9809992A00330001F03D
:103F4800ECFB0A900991002200234046514601F0FB
:103F580045FC002805D08020000684460999614464
:103F68000991289A414B0B9D13400493269B0A9A6A
:103F78000293099B03940092019349465B462800EB
:103F88000C9A00F08BF90400002F62D0289B2200C5
:103F980098061F23C0179843631C984649465B46FA
:103FA8006530A8470D9B0025DA179C18DB0F9A4649
:103FB8005440013F01E0202D13D00AAA94461F2344
:103FC800200063440A2101355E1901F059F93031A6
:103FD800317020000A2101F053F926000400092E4F
:103FE800E9D805230693002304930A330393534621
:103FF80005970B9F029312AB009342465B464946D6
:1040080038000195FFF72EFE0E9B0400002B20D0F0
:104018000C9BC51A279BAB421BD91E0022005B468E
:10402800494620200135B8470134AE42F6D810E0A1
:10403800289B42460493279B49460393269B0B984B
:1040480002935346009201935B460C9A00F026F9BE
:10405800040020001BB0F0BCBB46B246A946A046EF
:10406800F0BDC046FFFFEF7FFFFFEFFFFFF7FFFF49
:10407800734B099F9C467800400D604401F0DCFBBF
:10408800704A714B01F067FB704A714B01F03CFBC1
:104098003B03704A1B0B1A4304000D00300011004B
:1040A8006D4B002201F027FB6C4A6D4B01F053FB6E
:1040B80002000B002000290001F026FB01F0D4FBD0
:1040C8000D9001F0B9FB674A674B04000D0001F041
:1040D80042FB0022654B01F017FB01F0C5FB644A67
:1040E8000600644B2000290001F035FB0400300075
:1040F8000D000F9601F0A0FB5F4A604B01F02BFB0F
:1041080002000B002000290001F0F5FA02000B0064
:1041180006000F0001F01FFB320004000D003B00F9
:104128003000390001F0F0FA002210901191544B40
:104138002000290001F0F1FA0022524B01F0E4FAC4
:1041480002000B002000290001F0E7FA00224E4B84
:1041580001F0DAFA02000B002000290001F0DDFA74
:104168000D008021040032003B000020C90501F049
:10417800C2FA02000B002000290001F0C5FA020073
:104188000B001098119901F0C8FA0022314B01F088
:10419800BBFA3E4B0F9C9C4664440022230501F069
:1041A800DAFA05000E0002000B000A98099901F0DE
:1041B80015FB00280AD00D9B2800013B31000D9308
:1041C8000022304B01F0A9FA05000E00C6270D9910
:1041D8002B0063318F42BF4128997F42043709057C
:1041E80000D495E6334300D182E6099C284A210091
:1041F800284B0A9801F000FB002808D00022210073
:10420800254B0A9801F0EAFA002800D070E6269BB0
:10421800002B00D17CE60E9B5A1E9341269AD31A96
:10422800269375E6002304270D9371E643460A9307
:1042380080231B065344099342E6002326935FE636
:1042480001FCFFFFFB799F501344D33FB3C8608B39
:10425800288AC63F0000F03F0000F83F61436F63C3
:10426800A787D23F71A379094F930A400000E03F26
:104278001655B5BBB16B0240EF39FAFE422EE63F48
:1042880000002C400000244000001840FF030000FC
:104298002D431CEBE2361A3F80842E41F0B54E4682
:1042A800DE4657464546E0B597B09946209E219F81
:1042B800229B8346984607910C923B0032003000BF
:1042C800390001F0A6FA002800D0A9E10122300047
:1042D8003900CA4B524201F081FA002800D0E1E0CF
:1042E800012230003900C64B524201F08DFA0028F5
:1042F80000D0B7E0002230003900C24B01F084FA48
:10430800002800D099E0002230003900BE4B01F0AF
:1043180065FA002800D090E0002200233000390020
:1043280001F05CFA002800D0B1E000230D93249B33
:104338005B0501D40623984608AB9C461722002447
:1043480030234146624404E0013413550139202CDE
:1043580001D00929F8D888463000390001F084FADC
:104368004346DA00A94B05009B181A685B68089257
:10437800099301F061FA02000B003000390001F0E6
:10438800BAF9089A099B01F0E6F90A900B9101F035
:104398008FFA824601F04CFA02000B000A980B993A
:1043A80001F0A9F900229A4B0A900B9101F02CFA1E
:1043B800002800D1C0E001239C46E244504601F0A9
:1043C80037FA02000B000898099901F00DFA002845
:1043D80002D000239A4601354346002B6AD008AB29
:1043E80017269C4608956644554614E001235B420F
:1043F80043440A2128009A4600F042FF0134303134
:104408003719397028000A2100F03AFF092D00D821
:10441800D0E0D0460500202CE8D10EAB9846032307
:10442800249A1340012B00D196E02023249A01936B
:104438000392239A434602921EE0249B5846049313
:10444800239B00960197039343460C9A029307997E
:104458004B46FFF7FDFC17B0F0BCBB46B246A94679
:10446800A046F0BD249B5B070ED40322694B249918
:104478000192039123990291009358464B460C9A56
:104488000799FFF7A1FBE6E70422634BEFE73B0040
:1044980032000020002101F02EF9012306000F0050
:1044A8000D9344E7249B0393239B029304230193D6
:1044B8005A4BE1E7280001F0BFF902000B00300079
:1044C800390001F018F9524B002206000F0001F0E4
:1044D80085F90EAB984600280AD100223000390031
:1044E8004B4B01F091F9002802D1EB0700D50135BB
:1044F800202C94D008AA94461723280063440A2144
:1045080001341E1900F094FE3031280031700A2160
:1045180000F08EFE051EEBD10323249A1340012BD5
:104528001BD0202C00D180E70D9B002B35D02D22ED
:104538004146631C0A5579E700220A980B99344BC7
:1045480001F04CF9002800D046E75346002B51D122
:1045580001239C46E2443FE72024239B002BE0D024
:104568000D9B002B03D1249A0C33134202D0239BBA
:10457800013B2393239BA342D3D908AB9C46172224
:1045880030236244202C00D14FE72399013413557E
:104598008C42C6D0202CF8D147E7249B5B0724D453
:1045A800249A2300120700D440E720224146013311
:1045B8000A553BE75746089D202C00D12DE72200DD
:1045C80030214046002F09D00132B154202A00D1B1
:1045D80023E7D3431B191B18002BF5D10EAB9846C4
:1045E8002E234146541C8B5482E72B224146631CE0
:1045F8000A551BE7DB0700D4EEE6A9E7FFFFEFFF4C
:10460800FFFFEF7F65CDCD4165CDCDC1B8D7002087
:104618000000E03FC0D50020C4D50020D0D5002040
:10462800249B0393239B029303230193004B23E7CB
:10463800CCD50020F0B5DE464E4657464546E0B597
:104648009FB01C00289B91460993C94AC94B8B46C9
:1046580008901A60002900D118E2002320789A46B1
:10466800002800D11AE226001D005C460AE02A0054
:104678006F1C4B46089D2100A8473D000136307845
:10468800002870D02528F2D110239B46083B9A4673
:10469800043B9846023B00219C46721C1078160089
:1046A8000300203BDBB2102B03D8B34F9B00FB5811
:1046B8009F460300303B092B32D900230A932A284E
:1046C80068D0002398462E283ED00300683BDBB212
:1046D800122B1CD8A94A9B00D3589F4601230132AC
:1046E8001943DBE7634601321943D7E743460132F2
:1046F8001943D3E75B4601321943CFE753460132EA
:104708001943CBE780235B00707819430136030017
:10471800253BDBB2532BAAD8994A9B00D3589F4616
:1047280000270300B800C01901364000C0183378CC
:1047380030381A00303A0700092AF3D90A901800CD
:10474800002398462E28C0D180237078DB001943B7
:104758000300303B721C092B00D8A1E12A2800D1A4
:10476800B2E11600B1E7A346AA462C00D14503D80A
:1047780001235B424B449A464B4652465946002019
:10478800089DA84720001FB0F0BCBB46B246A9460A
:10479800A046F0BD099B40CB0A96002E03DB50785B
:1047A8000993561C8DE72838014370420A900993F3
:1047B8005078561C85E7782800D1DFE1582800D1C9
:1047C8004CE26F2800D14FE3622801D100F030FCA1
:1047D80010230A009A430B92692801D000F0A9FC23
:1047E8000A230C934B0500D5D0E10B9A80231100C6
:1047F8009B0019408B461A4200D0A1E28023110089
:104808005B0019408A461A4200D0B6E313005B06E3
:1048180000D5EDE2130009991B0601D400F076FCDF
:1048280008C91BB2D8171A18424092B20991934688
:10483800DA0F1292002B09D1802310220B99DB008A
:104848000B4091430B91002B00D0E4E20B9A6123BB
:10485800920600D541230EA91F228C46DBB2624482
:104868000A3B5F461395A34655460C9CB2460D93EA
:1048780016000AE03033DBB201357355A74200D287
:10488800EDE2202D00D1EAE207002100380000F017
:10489800F7FCCBB20929EDD90D9A94466344DBB2F3
:1048A800EAE780239B007078194301362FE7707878
:1048B800682800D1CDE180230136194327E77078B5
:1048C8006C2800D1BFE180235B00194301361EE745
:1048D800462800D19BE10722099B049107339343A3
:1048E8000A9A19000392424602920CC9089800924B
:1048F800019309912A004B462100FFF7CFFC0136AE
:104908000500BCE62A006F1C4B46089D21002520A7
:10491800A84701363D00B2E68B0700D4ADE1099BFC
:104928002A009A466B1C9846534601CB21009A46AA
:10493800089F4B46C0B2B8470A9B9C466544012B6A
:1049480000D886E2089B4746B04626004C46994662
:104958003A002300013731002020C847AF42F7D181
:10496800A1465346340046460993013687E6C046B9
:104978000544002064F90020D8D500201CD600206A
:1049880068D60020099B04CB9B4643460992002B1E
:1049980000D1C6E013789C46002B00D1BDE3434606
:1049A800013B099A0133D0180A9F130001E08342A2
:1049B80003D05A780133002AF9D1099A0A979B1A29
:1049C8000B9380230A00DB001A400C92194204D092
:1049D8000B9B434501D943460B9302231A000A4017
:1049E8000D920B4200D187E16046002800D168E1B2
:1049F8000C9B002B00D10DE1A844C246099B5746E9
:104A08005B1B9846089BB2462A0026004C469946EE
:104A180009E023003100551CC8474346585D00286B
:104A280000D126E12A009742F3D1A1463D00340087
:104A380056460D9B002B00D043E15B460136099397
:104A48001DE6099B1A0008CA9246002B48D021226D
:104A580011438B460EA884461F2161440995002204
:104A68000F27A4460D0002E0202A0CD00B003C00C2
:104A78001C4020003730092C00D807380132A854D0
:104A880019090F2BF0D86446099D32E0DC4B2078D9
:104A9800089300239A46002800D0E4E5002465E640
:104AA800434606000A9F9800C0180132400080194A
:104AB8001678030030003038303B0928F3D930002D
:104AC800984616000A9700E6099B023604CB9046E2
:104AD800D2434046D2171040804609933078F4E517
:104AE80010220800904311321043834600224905E2
:104AF800B0D55B46069308230593434604931023D9
:104B080003930023029316AB019200932A004B46AD
:104B180021000898FFF7A6F85346050001360993C7
:104B2800ADE513789C46002B00D1F7E202235B42E7
:104B380037E7202302009A43472A04D180231B0128
:104B4800194302239843452801D1202319430722FA
:104B5800099B0491073393430A9A1900039242462A
:104B680002920CC908980092019309912A004B46B9
:104B78002100FFF76DF90136050080E510230C933D
:104B88000C230A009A430B924B0503D501230B9A79
:104B98009A430B92692800D127E6642800D124E6BD
:104BA8000B9A802311009B0019408B461A4200D0B3
:104BB80066E1802311005B0019408A461A4200D042
:104BC80039E213005B0600D53CE113001B0600D454
:104BD800A6E2099B04CB1204120C934609935B4688
:104BE800002B00D09AE10B9A1033110099430B91D6
:104BF800520500D492E100239A460B9B06930A9B28
:104C08000593434604930C9B039300230CE1202354
:104C1800194360E6099B0A9A5B1B98464B469146E6
:104C28001F00B2462600089C2A003B003100A0471E
:104C380043460135585D0028F6D14A463400B94646
:104C480056460A92F5E6C0239B00B078194302360F
:104C58005DE5C023B0781943023658E50C230A00F5
:104C68009A4314331A43103B0B920C934B058DD483
:104C780096E7A14634005646DBE60A9A012A00D890
:104C880053E26B1E9F18089BB04626004C46994677
:104C98002A002300013531002020C847BD42F7D142
:104CA800A14634004646099B3A0001CB21009846AC
:104CB8007D1C4B46089FC0B2B8474346013609934E
:104CC800DDE40B9B0A9AA8469A4200D8B5E69446BA
:104CD8006544ED1A089B4746B04626004C4699465F
:104CE8003A002300013731002020C847AF42F7D1EE
:104CF800A14634004646A0E60B9A0A99531C9142F5
:104D080000D814E24B199B1A1F00089BB2462600D4
:104D18004C4699462A002300013531002020C84717
:104D2800BD42F7D10A9BA14601330B93099B34007E
:104D38001B7856469C466046002800D058E67CE61C
:104D48000722099B07339343013294469C446246E9
:104D58005F6809921A68FB171093119310981199BC
:104D6800030053400E930B007B400F9394460E9A1A
:104D78000F9B121A8B410E920F93FB0F62461293F0
:104D880000233A439B463DD00B9A6123920600D5F7
:104D980041230022DBB20EA90A3B8C4692460D93B2
:104DA80043461F3262441395159655460E9E0F9F33
:104DB800A24690460C9C14930CE03032D2B2434683
:104DC80001355A55BB4500D18AE1202D00D18AE131
:104DD80006000F00220000233000390000F08EFA90
:104DE800D2B2092AE9D90D9B9C466244D2B2E6E7C1
:104DF800FF23099904C913401A00099117E5C04611
:104E0800953900200B9A1033110099430B915205E4
:104E1800BAD500239A460B9B06930A9B05934346F3
:104E280004930C9B0393129B02935346019316AB76
:104E38002A00009321004B460898FEF713FF01361D
:104E480005001CE4FF22099B02CB11408B46099305
:104E5800C5E65346454609930136FFF710FC56460A
:104E68005C46AA46139DD6E708230C930B910B9931
:104E7800642800D084E60B9B5B0500D586E6B4E485
:104E88000722099B07339343013294469C446246A8
:104E980009921A685B6810009B4613005A46134330
:104EA80007D10B9A1033110099430B91520500D585
:104EB800A1E60B9A6123920600D541230022DBB2BA
:104EC8000EA90A3B8C4692460D9343461F32624414
:104ED8005F461295A34655460400B24690460C9E7E
:104EE80013930DE03032D2B2434601355A550023B0
:104EF800BB4200D100E1202D00D100E104000F00E9
:104F0800320000232000390000F0F8F9D2B2092A53
:104F1800E8D90D9B9C466244D2B2E5E70B9A61231F
:104F2800920600D54123DBB20EA90A3B1F228C460C
:104F38000D93230062445C461295170055469B4624
:104F4800B2460C9E08E03033DBB201357B55B442E3
:104F58000ED3202D0CD004003100200000F090F971
:104F6800CBB20929EFD90D9A94466344DBB2ECE73A
:104F780056465C46AA46129D3FE6099B1A0008CA97
:104F8800D91713925A184A409246DA0F1292002BF8
:104F980008D1802310220B99DB000B4091430B9121
:104FA800002B2BD10B9A6123920600D541230EAA20
:104FB8001F279446DBB20A3B0D9567445D4609936B
:104FC800A3465446B2460C9E08E03033DBB20135A6
:104FD8007B55B4420ED3202D0CD0040031002000A4
:104FE80000F04EF9CBB20929EFD9099A94466344E7
:104FF800DBB2ECE756465C46AB460D9D0B9B2A00A0
:1050080006930A9B21000593434604930C9B08983A
:105018000393129B013602935B46019316AB0093F0
:105028004B46FEF71FFE139B05000993FFF727FB6E
:1050380002230C931AE7099B04CB92461293002A89
:1050480008D1802310220B99DB000B4091430B9170
:10505800002B2BD10B9A6123920600D541230EAA6F
:105068001F279446DBB20A3B0D9567445D460993BA
:10507800A3465446B2460C9E08E03033DBB20135F5
:105088007B55B4420ED3202D0CD0040031002000F3
:1050980000F0F6F8CBB20929EFD9099A944663448F
:1050A800DBB2ECE756465C46AB460D9D0B9B2A00EF
:1050B80006930A9B21000593434604930C9B08988A
:1050C8000393002302935B46019316AB00934B4670
:1050D800FEF7C8FD129B050009930136FFF7CFFACA
:1050E800B44200D871E6149B54460E960F97AA4610
:1050F8009846159E139D8EE6A64200D8FBE6139BA4
:1051080056469846AA465C46129D76E508C9D817C1
:105118001A1842400991FFF78AFB00230B9350E4C9
:10512800099B04CB9346099359E52F00BBE50B93E4
:1051380001E6063B0C939AE60CB410B584B006ACB5
:1051480008CC0A000094010004480394FFF772FA9F
:1051580004B010BC08BC02B01847C0468D39002006
:1051680000B585B003910121029000930348130014
:105178004A4202A9FFF75EFA05B000BD113C0020C3
:1051880010B5094A0300146884B0002C08D0012225
:1051980000910648524203A9A047012004B010BD5F
:1051A80001F08CF90020F9E764F90020013C0020A7
:1051B80001480421014B184720DB0020BD4F002087
:1051C800014B5B681847000020DB0020142310B552
:1051D8000100188804331B88984710BD162310B5A2
:1051E8000100188802331B88984710BDF8B5474658
:1051F800CE4680B50F1E19D01423994604330400F7
:105208000025012698464B461888434621681B8886
:10521800984701C4431E9841013540420640AF42B9
:10522800F1D13000C0BCB946B046F8BD0126F8E758
:10523800124A936F9B0815D29066D166002905D053
:10524800FFE7FFE7FFE7516F106F704704B5802154
:105258000906C2175140002800D0C84307F09CF93E
:10526800002104BDF0B5146E556E576F166FFFF729
:10527800E3FF1466556657671667F0BD000000D057
:10528800114A936F9B0813D210665166002905D006
:10529800FFE7FFE7FFE7516F106F704704B500287D
:1052A80001D00020C04307F077F9002104BDC046B3
:1052B800F0B5146E556E576F166FFFF7E5FF14665D
:1052C800556657671667F0BD000000D094464A4AF5
:1052D800926F9208624601D228E0C046F0B5464E69
:1052E800346E756E776F366F00F020F89446424A38
:1052F80014665566576716676246F0BD94463E4A7F
:10530800926F9208624601D254E0C046F0B53A4E18
:10531800346E756E776F366F00F04CF89446364AE7
:1053280014665566576716676246F0BD002B24DB86
:1053380011D000293EDA00B5C943404200D10131FD
:1053480000F038F8C943404200D10131DB435242F2
:1053580000D1013300BD002AEBD1002801D100297A
:1053680005D00020C90FC90701D1C043410800B5C5
:1053780007F012F90022002300BD00B500290ADB5E
:10538800DB43524200D1013300F014F8C9434042D4
:1053980000D1013100BDC943404200D10131DB4396
:1053A800524200D1013300F005F8DB43524200D1EC
:1053B800013300BD002923D1002B18D1002A0CD0BD
:1053C800BC460D4F38667A6600210023FFE7FFE7E9
:1053D800FFE77A6F386F67467047002801D00748A3
:1053E800010000B507F0D8F80022002300BD020034
:1053F8000B00002000217047000000D0FFFFFFFFD6
:10540800002B00D0BFE0130C28D1002AE7D080B4CD
:10541800114F39667A66FFE7FFE730B4040C7B6FFB
:10542800396F1B0423433B667A66FFE7FFE7FFE714
:10543800C04684B27B6F3D6F1B0423433B667A668C
:10544800FFE7FFE7C04600232C042D0C7A6F386F66
:1054580000196941B0BC7047000000D0F0B594460F
:105468000025140E01D112020835140F01D11201C2
:105478000435940F01D192000235D40F01D15200A6
:105488000135D40B0134254F7C66254C3C660E0C47
:1054980093B2FFE7FFE7FFE73C6F6643360C7703FD
:1054A800BE467343DF0B5B04C01AB941130C734348
:1054B800DB18C91ACE086643360CB64493B2734358
:1054C8001F0F1B01C01AB941130C73431F0B1B0597
:1054D800C01AB941860D8F023E436643360C092D2A
:1054E80024DB520A7243801A7703460A6643360C55
:1054F80016235B1BDE40DF40BF1964466643821BF0
:105508007046043506330100D940A840C01900D3BD
:105518000131A24206D20023F0BD0000000000D0F5
:10552800FFFFFFFF121B0130F3D3F1E709277F1BB1
:10553800FE406446A2B27243801A00D20139220C9E
:105548007243130C1204821A99410B0070460435F9
:1055580013370100F940A840801900D30131002B0E
:1055680002D1A2420AD2F0BD013000D30131121B90
:10557800FAD2013BF8D1A24200D2F0BD013000D3EB
:105588000131121BF7E7F0B51C0C00D080E00CB419
:1055980000251C0A04D11B02160E334312020835DB
:1055A8001C0B04D11B01160F3343120104359C0B4D
:1055B80004D19B00960F334392000235DC0B02D1D5
:1055C80092185B4101351C00971864410134464F1D
:1055D8007C66464C3C660E0CFFE7FFE7FFE7C046DB
:1055E8003C6F6643360C7703BE4697B27743C01BC1
:1055F80000D20139C01B00D201399FB27743C91BC1
:10560800C91B170C77437E04FF0B801BB941CE08DA
:105618006643360C0C2D33DBB644120B1F053A4398
:105628001B0B97B27743C01B00D201399FB2774357
:10563800C91B170C77433E043F0C801BB941860DEC
:105648008F023E43664329277F1BFE400C3D774669
:10565800AF40BF1930BCA2B2ABB272437343801AD9
:105668009941220C7243130C1204801A99410200CA
:105678000B000137001BA941F9D2781E0021F0BDAB
:105688000C277F1BFE4077467F0BAF40FF19E0E7F2
:1056980000245D1C07D0144F7D663966FFE7FFE7DD
:1056A800FFE7FFE73C6F95B29EB265436643401B38
:1056B800B141150C1E0C6543664336042F0C3E435E
:1056C8002D04401BB141994204D202000B00200076
:1056D8000021F0BD01D19042F7D3801A99410134DD
:1056E8009942F2D3F6E70000000000D0FFFFFFFF69
:1056F80048404140484018B41B4B5B68FC46019346
:1057080008BD04DF7757002018B4174B1B68FC4608
:10571800019308BD00DF815700209446134A926F19
:10572800920809D2624618B40F4BDB68FC46019315
:1057380008BD0CDF395A00200C4AF0B5146E556EBE
:10574800576F166F6246FFF7EEFF084A14665566F4
:1057580057671667F0BD18B4034B9B68FC46019366
:1057680008BD08DFDD580020C0DC0020000000D0A4
:10577800FFB550404240504059404B40594000E02E
:10578800FFB5154F4C00640D03D0BC4204D10C0387
:1057980014D80020090D09055C00640D03D0BC4233
:1057A80004D11C030AD800221B0D1B0501264B40FF
:1057B80009D44B4003D58B4200D18242FFBD9942A8
:1057C800FCD19042FFBD0B43DB1803431343F5D0D4
:1057D800C9434918FFBD0000FF07000000B5FFF7E7
:1057E800CFFF804100BDC04600B5FFF7C9FF01D912
:1057F800002000BD012000BD00B5FFF7B9FF01D9A9
:10580800002000BD012000BD00B5FFF7B1FF8041B9
:1058180000BD012040054A00121804D85A00121889
:1058280001D8002070470120704700207047000011
:105838000021002805D17047C1174840401AFAD006
:10584800C90713B5064B1B6898470CBC441CA240FB
:105858001005120B0349091B09051943114310BD13
:10586800201101201F04000010B54C00620D802398
:10587800D218DB00D21A5B057E2A10DD9E3A13DAB5
:10588800CC170903490819435242D1406400013436
:105898001532202A05DAD0400843604310BD0020A5
:1058A80010BD0846604310BDC80FC018013810BDB0
:1058B80018B4044B5B6AFC46019308BD24DF915D74
:1058C80000200000C0DC002018B4044B9B69FC4693
:1058D800019308BD18DF055C00200000C0DC002033
:1058E800132370B51D78012D15D010DD1C48FFF766
:1058F80075FC1C4C01008022200000F07BFC022D6E
:1059080006D01948FFF762FC184B186070BD154C9B
:10591800174BA364F5E7164B124C23606360A36032
:10592800E36023616361A361E36123626362A3624D
:10593800E36223636363A363E36323646364A3642D
:10594800E36423656365A365E36523666366A3660D
:10595800E36623676367A367E367A364D1E7C04689
:1059680053440000C0DC00204C330000201101200B
:105978004557002007B5604601880A0A0230DF2A29
:10598800FAD1C9B2820804D30288408800041043BF
:1059980000E00068014A5050039007BDC0DC0020B9
:1059A8000FB403BC0CBCF0B50124E407634000E06D
:1059B800F0B50C0DCF0F661E3605891B640503D3A1
:1059C800C943404200D30131640D03D0661CF60A76
:1059D80007D0E41B00207F00791C89078912803CCE
:1059E80024031D0DDF0F6E1E36059B1B6D0503D3AB
:1059F800DB43524200D301336D0D03D06E1CF60A0F
:105A080007D0ED1B00227F007B1C9B079B12803D6B
:105A18002D032F1B661B58D4A446202E46DA2037A8
:105A28001400BC401D00BD40F24033412A43801899
:105A38005941CB0F05D0C943C043002264425041AD
:105A4800514162464D0D28D10D0D07D100281FD0B8
:105A5800241940414941013A0D0DF9D0640006D39B
:105A6800013000D30131002C01D140084000013A37
:105A78000BD4941CE40A04D112051144DB07194421
:105A8800F0BDD907204B194300E0D9070020F0BD2D
:105A98000029DDD1002CDBD1F0BD0132C60740085A
:105AA800CD0728434908002EE1D0D9E73C2E29DA52
:105AB800203E40371400BC4000D00124F24014437B
:105AC8001A00BB401C43D317ACE7AC46202F08DABA
