:020000041000EA
:1091000000200420F7910010C3910010C5910010B9
:10911000C1910010C1910010C1910010C1910010C7
:10912000C1910010C1910010C1910010C7910010B1
:10913000C1910010C1910010C9910010CB91001095
:10914000CD910010CD910010CD910010CD91001067
:10915000CD910010CD910010CD910010CD91001057
:10916000CD910010CD910010CD910010CD91001047
:10917000CD910010CD910010CD910010CD91001037
:10918000CD910010CD910010CD910010CD91001027
:10919000CD910010CD910010CD910010CD91001017
:1091A000CD910010CD910010CD910010CD91001007
:1091B000CD910010CD910010CD910010CD910010F7
:1091C00000BE00BE00BE00BE00BE00BEEFF30580C4
:1091D000103800BEF2EB8871D8920010F89200109F
:1091E0003492001090A31AE700202249086006C8B4
:1091F00081F30888104720480068002835D10DA465
:109200000ECC002902D000F012F8F9E71B491C4AE5
:10921000002000E001C19142FCD11A4988471A4957
:1092200088471A49884700BEFDE701C901C29A4232
:10923000FBD37047F8920010C0000020ECE500203E
:1092400024780110F0E50020B8010120EC93011012
:109250000000042000000420EC9301100010042002
:1092600000100420000000007047094800F014F8C6
:109270000047000008ED00E0000000D0B801012028
:109280006430032039520020E12400202D530020B7
:10929000575600000000000001B40248844601BC9B
:1092A000604700BF8D69002006005250ABB3605389
:1092B00020FE002006005250861C030230FE0020D3
:1092C000060052505422A29D38FE00200500525044
:0892D000DE65F468EC93011067
:1092D800CC920010C0920010B492001044FE0020FE
:1092E800A892001050FE00205CFE002098FE00208E
:1092F800F8B5C0460448054B10B5834203D0044B6B
:10930800002B00D0984710BDB8010120B8010120FA
:109318000000000006480749091A8B10C90FC91830
:1093280010B5491003D0044B002B00D0984710BD4E
:10933800B8010120B80101200000000010B5074C59
:109348002378002B09D1FFF7D5FF054B002B02D05E
:10935800044800E000BF0123237010BD0005012070
:1093680000000000ECE50020054B10B5002B03D0F1
:109378000449054800E000BFFFF7CCFF10BDC04618
:109388000000000004050120ECE50020802210B553
:1093980000215200044807F075FC0022034B0448E2
:1093A8001A7007F0D9FD10BD282A01205930032072
:1093B80034F4002030B500240B4B0C4D83B00194DD
:1093C8009C632B68002B0CD00021286801AA0DF0A3
:1093D80005F8019B2C60002B03D08022044B52051A
:1093E8001A6003B030BDC04600400340243003205B
:1093F80004ED00E0802210B50024094B5200002142
:1094080008481C7007F03EFC96210748490004F004
:1094180025FD064B06481C7007F09EFD10BDC04692
:109428005B300320282A01200040034059300320E4
:1094380048F4002070B5D02504242D060A206C615C
:109448000CF0FEFC0248AC610CF0FAFCF6E7C046F2
:1094580060EA000070B5EFF3108672B6084D280078
:109468000DF01EFD074C2A002068402104F030FA58
:109478002168054807F012FE86F31088012070BDA8
:10948800940001209C0001205CF4002010B5040029
:109498001F2102F0FBFF00222000002103F00EF83C
:1094A8000021200003F022F810BDC046F0B5DE46CA
:1094B80057464E464546E0B589B01E0012AB1B78AC
:1094C80006AC9B4613AB1B7803909A4614AB1B78EB
:1094D8000491994615AB1B780A21984616AB1F785C
:1094E800002310002370150006F0C2FBC0B2020171
:1094F8000A212800059206F0BBFB059A30001143AB
:1095080061700A2106F0B4FB0A21C5B2300006F0EA
:10951800AFFB2D010D4358460A21A57006F0A8FBA4
:109528000A21C5B2584606F0A3FB2D010D4350464B
:109538000A21E57006F09CFB0A21C5B2504606F0E8
:1095480097FB2D010D4348460A21257106F090FB33
:109558000A21C5B2484606F08BFB2D010D43404653
:109568000A21657106F084FB0A21C5B2404606F05F
:109578007FFB2D010D4338000A21A57106F078FB09
:109588000A21C5B2380006F073FB00232D010D43F4
:10959800E571220000930499039808330DF02EFD1D
:1095A80009B0F0BCBB46B246A946A046F0BDC046CD
:1095B800F0B5C646002300B584B00C0006000322AF
:1095C800002103A89846029307F05CFB0123214F72
:1095D80002AD2A000093682138000DF00FFD4346C4
:1095E8002A0000936821380007330DF06FFDAB792E
:1095F80030001A099100521A52009B186A79DBB29E
:109608002380130999005B1A5B00D3182A79A37089
:10961800130999005B1A5B00D318E370AA78EB78FA
:109628002371130999005B1A5B00D3186A78637178
:10963800130999005B1A5B00D3182A78A3711309E0
:1096480099005B1A5B00D318E37104B080BCB8467C
:10965800F0BDC04684010120F0B54646D6464F46C7
:109668000D00C0B5060000292BD0184B00249846E1
:10967800174B0F279A46174B99460AE0202007F008
:109688001FFCFF23234201D1002C10D10134A54235
:1096980017D04046315D07F001FD3B0023400F2BFA
:1096A800ECD10A2007F00CFCFF232342EED15046F0
:1096B80007F052FC210A4846013407F0EFFCA542A6
:1096C800E7D1E0BCBA46B146A846F0BD80F4002018
:1096D80084F8002088F400200A0070B54318013B84
:1096E800013A1C78050000230126002A0ADD300013
:1096F800E95C204049000918E9540133DBB26408E9
:109708009342F4DB1A4B1B68002B29D1194E34689D
:10971800E02207343460D200944203D0164B1B7801
:10972800002B1CD0154807F017FC154CE0222368C5
:10973800144DD800C01A8023DB029C460002604406
:109748002900D2000EF0E6F9E02223680021013357
:109758002800D200236007F095FA0023336070BD1B
:10976800044E084834682900201807F091FACFE71A
:10977800700B0120242A01205530032094F4002086
:10978800442001202423012030B5284B284C1B6895
:10979800216885B0002B3EDD0122264B1A70264D2C
:1097A800C9B22800FFF798FF08220021280007F017
:1097B80069FA00232360214B6A461D68204B214823
:1097C8001C68214B196802F0EBFD102269461F48FE
:1097D8000DF07EFD002801D1A5420AD81C4807F0EB
:1097E800BBFBFC2180208902C0020EF053F905B0B2
:1097F80030BD184807F0B0FB8022174BD2051A601D
:10980800164B174A00211A62164A00205A62002293
:1098180004F0CAFDEBE70029BEDC064B1B78002BE1
:10982800BDD14A1C2260044A5354C4E7242A0120AB
:10983800700B012055300320740B01200000041028
:109848000090001000010410040004100800041027
:10985800FCF40020C4F4002000B00540008005405E
:109868000DF005B1F20FFA4EF0B5454657464E4693
:10987800DE46E0B58E4B8F4D1F7898468E4B8BB0E9
:10988800FC180023EE5E2403092E00DDCCE0303600
:10989800F3B20693302307930226AE57092E00DD54
:1098A800B3E03036F3B20593302308930326AE575E
:1098B800092E00DD9AE03036F3B20193302302938B
:1098C8000526AE57092E00DD81E03036F3B2049349
:1098D800302309930626AE57092E69DC3036F3B2D9
:1098E800039330230093ED796DB2092D53DC3026B4
:1098F8003035EDB2714872490378724A9B460B784D
:109908009A461378994600230370802013700B70D1
:109918000022400103E01032824200D193E0A35CB0
:1099280091B2013BDBB2FD2BF5D9674B0909089AC7
:109938000901C918069B1004079A1B021A43130051
:10994800059A034312061343099A0B60019B1004FE
:10995800029A1B021A431300049A03431206134384
:109968004B60039B32041802009B0343180010430A
:109978002B0605001D435B460B7353464B734B4642
:109988008B7304238D60CB730BB0F0BCBB46B2461F
:10999800A946A046F0BD0A21280006F041F930305A
:1099A8000A21C6B2280006F03BF93031CDB2A1E752
:1099B8000A21300006F034F93030C3B20A213000F1
:1099C800009306F02DF93031CBB203938BE70A21CF
:1099D800300006F025F93030C3B20A21300009936F
:1099E80006F01EF93031CBB2049373E70A21300038
:1099F80006F016F93030C3B20A213000029306F09F
:109A08000FF93031CBB201935AE70A21300006F042
:109A180007F93030C3B20A213000089306F000F984
:109A28003031CBB2059341E70A21300006F0F8F84F
:109A38003030C3B20A213000079306F0F1F8303114
:109A4800CBB2069328E743461F4C0021200001377C
:109A58001F7007F017F9089A069B1104079A1B0252
:109A68001A431300059A0B4312061343099A2360FD
:109A7800019B1104029A1B021A431300049A0B4318
:109A8800120613436360039B3204009E1B021E43AD
:109A98002B06350015431D435B46237353466373FA
:109AA8004B46A3730423A560E3730DF0DDFE6BE75B
:109AB8005A30032094000120810001006030032007
:109AC8006230032061300320300C0120F0B5DE46FF
:109AD80057464E4645460023E0B5ADB0202200214A
:109AE80024A8239307F0CEF8BE4CBF48217807F08E
:109AF800D5FA23780E2B00D0F4E10F3B00249946C9
:109B080023004C46B94DBA4EBA4F621C00D1ECE066
:109B1800A1461C002B78013BDBB2FD2B0FD8B64ABF
:109B28001034944200D10BE1B04903E01034944260
:109B380000D105E1635C013BDBB2FD2BF6D9AF48F0
:109B480007F00AFAAE4B103C1A93AE4B0A941B93DB
:109B58000A9A131E00DAF7E04F46914500DD6CE3E0
:109B68009846994500D9FFE00020022428219F4B00
:109B780014AAFB5C52181370A34B0131FB5C14AAA6
:109B88005218137000232C25013114AA521813708F
:109B98009E4A14A9BA5C49190A709D4A0135BA5CF3
:109BA80014A949190A702E2114AA52181370994A37
:109BB8000335BA5C14A949190A70974A0135BA5C89
:109BC80014A949190A70322114AA52181370934A19
:109BD8000335BA5C14A949190A70914A0135BA5C6F
:109BE80014A949190A70362114AA521813708D4AFB
:109BF8000335BA5C14A949190A708B4A14A9BA5CCE
:109C0800013549190A703A2114AA52181370874964
:109C1800874B884AFB5CBA5C795CB84500D119E18E
:109C2800002800D1B1E0049322AB039321AB029347
:109C380020AB01931FAB0691059200937E4A1EABA1
:109C4800202123A805F070FF249A239B5340259ACE
:109C58005340269A5340279A5340289A5340299AAA
:109C680053402A9A53401A04120E5A401902090EF8
:109C78004A401B0E53405C40E4B2704807F06CF950
:109C88003C2214AB9B181D78002D1FD06C4B00266E
:109C980000229B5E0D219C468A46310066462022A2
:109CA800A4463400674B23A800293CD1AC4241D0DC
:109CB80099690A42FCD11D60017801300D394D4285
:109CC80069410578C9B2002DEED164460F2003F032
:109CD800FFFB0A9B994503DD5B4B9F4200D173E272
:109CE8001037474540D8012040E71C00424B9846B2
:109CF8002B78013BDBB2FD2B0BD93000103407F079
:109D08002BF944451CD02B7C1035013BDBB2FD2BD5
:109D1800F3D8380007F020F92300374A103393426C
:109D28000ED01035F1E699690A42C4D099690A4201
:109D3800F9D1C0E799690A42FCD151461960B7E7E1
:109D48002F4B1A932F4B1B93404807F005F93C4BB8
:109D580000229B5E152B00D1BBE12021394A936973
:109D68001942FCD1152313600A2200211A9806F023
:109D780089FF0A2200211B9806F084FF2DB0F0BC51
:109D8800BB46B246A946A046F0BD059322AB049354
:109D980021AB039320AB02931FAB01931EAB07913A
:109DA800069221212A4A009323A8022305F0BCFE2B
:109DB800249A239B3C255340259A14A85340269A5D
:109DC80040195340279A5340289A5340299A5340A0
:109DD8002A9A534020221904825C090E59404A40AD
:109DE80044E7C0465930032050F500200010081001
:109DF80078F500208CF50020007F010064F5002034
:109E08000C230120FC220120011008100210081068
:109E18000310081004100810051008100610081088
:109E28000710081008100810091008100E10081064
:109E38000D1008100C1008101CF6002040F6002029
:109E4800302F012000400340F0FF17004CF600209F
:109E5800F4F50020002800D082E1059322AB04939A
:109E680021AB039320AB02931FAB033001931EABCE
:109E78000890079106922321D64A009323A802232B
:109E880005F052FE249A239B23AD5340259A534054
:109E9800269A5340279A5340289A5340299A534068
:109EA8002A9A53402B9A53401A041902120E5A4008
:109EB800090E4A401B0E53403C215C40222314AA41
:109EC800E4B25218D4542BAB9B46C34B9A4629781C
:109ED8005046013507F0E2F8AB45F8D10A2006F004
:109EE800EFFFCAE6BD490B781A91303B9A009B18E0
:109EF8005B009A464A788B78303A303B92449A0015
:109F08009B18CA785B00303A9B185BB20E930B79AA
:109F1800303B9A009B184A795B00303A9B185BB239
:109F280017938B79303B9A009B18CA795B00303ABB
:109F38009B185BB219930B7A303B9A009B184A7AAC
:109F48005B00303AA6499B185BB21D930B781B91B6
:109F5800303B9A009B185B0098464A788B78303AD9
:109F6800303B90449A009B18CA785B00303A9B18A3
:109F78005BB20D930B79303B9A009B184A795B00D2
:109F8800303A9B185BB216938B79303B9A009B183A
:109F9800CA795B00303A9B185BB218930B7A303B56
:109FA8009A009B184A7A5B00303A9B185BB21C9364
:109FB800D04500D12DE1534642469B1A002B00DDC7
:109FC800DCE600239B4615931493139310930B938D
:109FD800129311930F930C93013B002699460A9311
:109FE80017E05046281A002809DB4846013078D087
:109FF800AB4500D186E05846281A002871DBA845F1
:10A0080041D04046281A002843DD764B10369E4240
:10A0180052D0754BF01803785A1ED2B2FD2AF4D8E4
:10A02800303B45789A009B185B00303DED188378EB
:10A03800303B9A009B18C2785B00303A9B18027933
:10A048005BB2303A910052184179520030395218B7
:10A05800817952B230398C000919C4794900303CF1
:10A068000919047A407A303CA700BC46644464006D
:10A078003038241849B264B2AA45B2D10E98984231
:10A0880036D0181AAFE70D98984236D0181A00281B
:10A09800BBDC0A98013005D00B98A84237D0281AA3
:10A0A8000028B2DD10934F4B0A9610361594149180
:10A0B80013920B959E42ACD14B46013300D047E535
:10A0C8004A4806F049FF4A4B00229B5E152B00D0F8
:10A0D80043E62021474A93691942FCD10D231360B6
:10A0E8003BE6B146AB46129411910F920C9386E76A
:10A0F8001798904210D0101A75E71698904210D011
:10A10800101A80E70C98984210D0181A75E7109822
:10A11800984210D0181AC3E71998884210D0081A24
:10A1280061E71898884211D0081A6CE70F988242A4
:10A1380011D0101A61E7139882425FD0101AAFE766
:10A148001D98A04200D150E7201A4CE71C98A04265
:10A158009FD0201A57E71198884254D0081A4CE724
:10A168000320049322AB039321AB029320AB01930A
:10A178001FAB07900691059222211F4A009323A83E
:10A188001EAB05F0D1FC239A249B5340259A5340DB
:10A19800269A5340279A5340289A5340299A534065
:10A1A8002A9A53402B9A53401A041902120E5A4005
:10A1B800090E4A401B0E53403C215C40212314AA3F
:10A1C800E4B25218D45458E50A9B00279846012057
:10A1D800CCE4C046A4F5002070F400200C23012034
:10A1E800FC220120007F0100001008104CF600201E
:10A1F800302F012000400340CCF5002014988842FD
:10A2080015D0081A4CE71298A04200D1F7E6201A98
:10A21800F3E60D9B0E9A934207D1169B179A934229
:10A2280003D1189B199A93420AD0D31AC6E61598F7
:10A23800A04200D1E9E6201A32E7C0235B038FE48D
:10A248001C9B1D9A934200D1BBE6D31AB6E6C046C2
:10A2580010B50C4C012301222000072103F05AFEFF
:10A268002000012103F094FE1420074902F062FA4D
:10A278000121142002F01AFA0121200003F0BAFE8D
:10A2880010BDC0460040034085010020F0B545469A
:10A2980057464E46DE46E0B5844B8DB00093844B5E
:10A2A80004AE0193834B0D000293834B69460393DD
:10A2B800824B04001A6804921B79337106AB9A46E4
:10A2C8007F4B1A68069252469B88938008AB984643
:10A2D8007C4B1A68089242469B8893807A4B1A688E
:10A2E8000A929A888A852E216A469B795218137099
:10A2F8000100042268460CF0EBFF002800D1B9E009
:10A30800002D00D1C4E00320634218406B1E092BC6
:10A3180000D8BFE0002800D1AEE0012322785A40DF
:10A32800012800D1AEE063785A40032800D0ACE0A1
:10A33800A3785A40032399462B1ADBB29C469B0804
:10A348009B460021002320189F00C75901337940FC
:10A35800DFB2BB45F8D80B041B0E4B405A400B022A
:10A368001B0E5340090E03224B40614691434A4657
:10A378005218DBB2D2B28C4539D0A15C4B40511C8B
:10A38800C9B28D4233D9615C4B40911CC9B2DBB272
:10A398008D422CD9615C4B40D11CC9B28D4226D963
:10A3A800615C4B40111DC9B28D4220D9615C4B40A4
:10A3B800511DC9B28D421AD9615C4B40911DC9B279
:10A3C8008D4214D9615C4B40D11DC9B28D420ED962
:10A3D800615C4B4011000831C9B28D4207D9615CFC
:10A3E8000932D2B24B40954201D9A25C534065195B
:10A3F800013D2A789A4250D10422200001A90CF08C
:10A4080067FF00283CD00422200002A90CF060FF5E
:10A41800002806D00422200003A90CF059FF0028C8
:10A4280041D1310020000DF007F903000020002B76
:10A4380006D00DB0F0BCBB46B246A946A046F0BD5A
:10A44800514620000DF0F8F803000120002BF0D150
:10A45800414620000DF0F0F803000220002BE8D15F
:10A4680020000AA90DF0E8F843425841434204206D
:10A478001843DEE70320DCE70023012299465BE767
:10A488000520D6E70123994656E70223994653E764
:10A498000123ACE7012300226FE70C4806F0FEFD1C
:10A4A80001204042C5E701204042C2E72121212185
:10A4B80001503102015232020157320298F700204E
:10A4C800A4F70020B0F70020BCF700205CF60020BD
:10A4D800F8B502780600002A00D1A2E0002304E0C3
:10A4E800DBB2F25C002A00D19BE00133282AF7D1C5
:10A4F800DCB2325D4F4D3B2A06D0E11A01346A5472
:10A50800E4B2325D3B2AF8D128000CF0B3FEC7B2A2
:10A51800002800D186E000230021EA5C2D2A02D021
:10A52800481C6A54C1B20133DAB29742F5D86918A7
:10A53800002328000B700CF09DFEC7B2002800D144
:10A5480076E000230021EA5C2C2A02D0481C6A54D9
:10A55800C1B20133DAB29742F5D86918002328004E
:10A568000B700CF087FEC7B200280CD00023002126
:10A57800EA5C3A2A02D0481C6A54C1B20133DAB202
:10A588009742F5D86D18002301342B70E3B2F25CC2
:10A59800294D292A06D0191B01336A54DBB2F25C13
:10A5A800292AF8D128000CF065FE00230021C4B246
:10A5B80000283BD0EA5C2D2A02D0481C6A54C1B25C
:10A5C8000133DAB29442F5D86918002328000B70D9
:10A5D8000CF050FEC4B2002826D000230021EA5C0B
:10A5E8002C2A02D0481C6A54C1B20133DAB2944210
:10A5F800F5D86918002328000B700CF03BFEC4B294
:10A6080000280CD000230020EA5C3A2A02D0411C22
:10A618002A54C8B20133DAB29442F5D82D1800236F
:10A628002B70F8BD290083E72900E3E72900CCE770
:10A63800290093E70C230120FC220120F0B58BB000
:10A648006A466946554B02AE1380554B04001A689A
:10A6580002921B793371534B1A888A809B780222A5
:10A668008B71010068460CF033FE052205002100BD
:10A6780030000CF02DFE0600002D03D0002801D07C
:10A688000BB0F0BD212120000CF094FD032207003F
:10A69800010001A80CF01CFE0028F1D1424806F088
:10A6A8005BFC002D63D13F2120000CF083FD451C8D
:10A6B800002E5CD03D4B0822280019680CF008FEDB
:10A6C800041EDDD17F1B082FDAD19622384B1201E8
:10A6D8001B8893425FD009D896229200934258D0A3
:10A6E8009622D20093423CD1022409E09622042407
:10A6F8005201934204D0962201349201934234D1FC
:10A7080000231122002104AE05A8049306F0BAFA2A
:10A71800230014213000274A05F006FA3478002C6B
:10A7280018D03000002120220D26234B00255D5F24
:10A73800224B002921D1A54226D099690A42FCD191
:10A748001C60017801300D394C4261410478C9B26E
:10A75800002CEED101221A4B1A481A7006F0FCFBA5
:10A768008EE7962252009342CAD00024C8E75021AF
:10A7780020000CF01FFD451C9CE799690A42DFD0B8
:10A7880099690A42F9D1DBE799690A42FCD11E604E
:10A79800D3E70124B4E70324B2E7C0462F3F000003
:10A7A800B0F60020B8F6002070F60020A8000120BE
:10A7B800A400012084F60020302F0120004003402F
:10A7C8005B3003209CF60020F0B504009BB0C54820
:10A7D8000D0006F0C1FB6946C34B20001A880A85A4
:10A7E8002A216A46521869469B781370BF4B1A880B
:10A7F8008A852E216A469B7852181370BC4B09A98A
:10A8080002220B800CF064FD002801D1062D01D036
:10A818001BB0F0BDB74806F09FFB2378302B00D162
:10A828003EE16378302B00D18AE1A378302B00D148
:10A8380088E1E378302B00D186E12379302B00D1F1
:10A8480084E16379302B00D182E1AB4B00229B5E1F
:10A85800152B00D1BBE02021A84A93691942FCD1ED
:10A86800152313600334032221000AA80CF030FDDD
:10A87800002800D1B7E0210003220BA80CF028FD26
:10A88800041EC5D19E4806F067FB002133220DA89F
:10A898000C9406F0F7F9032303220693994B0CA8AE
:10A8A8009A563034059202229A562F260492002195
:10A8B8005A5E3721039207229A56002502920622F1
:10A8C8009A566E4401925B798F4A5BB200930223D9
:10A8D80005F02AF90C9A0D9B684653400E9A001908
:10A8E80053400F9A894F5340109A5340119A53403E
:10A8F800129A5340139A5340149A5340159A53404E
:10A90800169A5340179A5340189A53403422825C3F
:10A91800190E68464A4035210019415C36204A40E4
:10A9280069460919095C4A4019045A40090E1B0274
:10A938004A401B0E5340022253406A4612191354D0
:10A948002F3C06E0002D4AD101200BF079FA0135A1
:10A958000134315D380006F0A1FB1221280005F012
:10A968005FF90029EED001200BF06AFA372CEED1FE
:10A978006B4630229B181878002800D148E7002140
:10A988005D4B0D2500241C5F0CAF5C4B103A002971
:10A9980011D1844216D099690A42FCD118603978DD
:10A9A80001370D39484241413878C9B2002800D1F1
:10A9B8002EE70029EDD099690A42EFD099690A4239
:10A9C800F9D1EBE799690A42FCD11D60E3E7202140
:10A9D8004A4A93691942FCD10D2313603BE70A20C8
:10A9E80006F06EFABFE70D2200210C900DA806F0C4
:10A9F80049F903230293464B10211B68454A0193EA
:10AA080002230CA80093013B05F08EF80D9A0C9BCD
:10AA180053400E9A53400F9A53401A0E19045A4045
:10AA2800090E1B024A401B0E534001223F2153408E
:10AA38006A46521813706B4630229B181D78002DF9
:10AA480018D000210D272C4B0CA800269E5F2B4BFD
:10AA5800103A002918D1AE421DD099690A42FCD19A
:10AA68001D60017801300D394D4269410578C9B240
:10AA7800002DEED1284806F06FFA284806F06CFA47
:10AA88000222274B1A70F6E699690A42E8D09969BA
:10AA98000A42F9D1E4E799690A42FCD11F60DCE770
:10AAA80000230133E35C1F4A303B1288DDB2AA421F
:10AAB8000AD2114B00229B5E152B39D020210F4A58
:10AAC80093691942FCD1CBE62900174806F0E6FA4B
:10AAD800052D02D8154BAD00EE583100074803F09C
:10AAE800BDF9BFE6BCF600208CF7002090F70020E7
:10AAF80006300000D4F60020302F0120004003402B
:10AB080030F700209400012044F7002070F4002062
:10AB1800A800012000F7002010F700201CF70020F3
:10AB28005B300320A4000120E8F60020E4F90020AF
:10AB38002021084A93691942FCD10D231360BDE70F
:10AB48000123AEE70223ACE70323AAE70423A8E71F
:10AB58002B3BA6E700400340F0B5002306008DB06C
:10AB6800052200210AA8099306F08CF82821300054
:10AB78000CF020FB2921451C30000CF01BFB09AC14
:10AB8800421B290020000CF0DDFB20000CF072FBBA
:10AB9800C6B2002847D022000020002311783A29A5
:10ABA80002D0451C2154E8B20133DBB201329E4287
:10ABB800F4D120180023037025782279AB00ED1812
:10ABC80063786D00103BED18A378184F9E009E190E
:10ABD800E3787600103B6479F6189300D218520097
:10ABE8003800103C14190CF05BF93B78EDB2049373
:10ABF800BB78F6B20393FB78E4B202933B79220068
:10AC08000193682133000A480095FEF74FFC39008C
:10AC180006A8FEF7CDFC38000CF0ECF80122054B35
:10AC28001A700DB0F0BD2000C4E7C04694000120A2
:10AC3800840101205C300320F0B5002306008DB0AC
:10AC4800052200210AA8099306F01CF828213000E3
:10AC58000CF0B0FA2921451C30000CF0ABFA09AC15
:10AC6800421B290020000CF06DFB20000CF002FBB9
:10AC7800C6B2002842D022000020002311782D29D6
:10AC880002D0451C2154E8B20133DBB201329E42A6
:10AC9800F4D12018002303702578194FAB00ED1864
:10ACA80063786D00103BED18A37838009E009E195C
:10ACB800E3787600103BF618237964799A009B189C
:10ACC8005B00103C1C19EDB2F6B2E4B20CF0E8F8E7
:10ACD800BB79FA7904950396029439790948019168
:10ACE800797900916821FEF7E1FB390006A8FEF7A3
:10ACF8005FFC38000CF07EF80DB0F0BD2000C9E70D
:10AD08009400012084010120002370B58AB012222A
:10AD1800002105A8049305F0B5FF2B4D04AC2800CD
:10AD28000CF0BEF8032303930323EB56152102937B
:10AD38000223EB56200001930022AB5E234A0093C6
:10AD4800022304F0F1FE059A049B25785340069AE5
:10AD58005340079A5340089A5340190E227D594090
:10AD68004A401904090E1B024A401B0E5340022296
:10AD780053402375002D18D02000002120220D24D7
:10AD8800134B00269E5F134B002910D1AE4215D0FD
:10AD980099690A42FCD11D60017801300D394D4294
:10ADA80069410578C9B2002DEED10AB070BD996924
:10ADB8000A42F0D099690A42F9D1ECE799690A4246
:10ADC800FCD11C60E4E7C04694000120D0F70020C5
:10ADD800302F012000400340282110B50CF0EAF97B
:10ADE8000822164901300CF073FA154B00229B5EBD
:10ADF800002809D1062B19D02021124A936919423B
:10AE0800FCD10623136010BD152B07D020210D4A55
:10AE180093691942FCD115231360F4E72021094AEC
:10AE280093691942FCD10D231360EFE72021054AED
:10AE380093691942FCD10D231360DDE7E8F7002080
:10AE4800302F012000400340D34BF0B545469846CB
:10AE5800DE4657464E4600234246E0B51360CF4BC8
:10AE680097B00022CE490093CE4800230BF082FD14
:10AE7800CD4B06000022CD490093CD4800230BF0AE
:10AE880079FDCC4B0490009300220023C449CA48A2
:10AE98000BF070FDC94B37009946C94BC94C9A460F
:10AEA800C94B05909B46002509F0A8FD0023020028
:10AEB8000121380000950BF0B9FD0AF007FA434666
:10AEC80018605023A363626B183B13404A46136013
:10AED80001220121002052420BF0D8F90128E3D1C8
:10AEE800A3691025DB06DED42E00A3691E401D428F
:10AEF800FAD12368DBB20393B44B1B78032B00D140
:10AF08008DE103990A2946D0534650461A78531CB6
:10AF1800DBB2037058468154AD4AAE490692AE4A38
:10AF2800079208AA41C941C2AC4941C941C209783E
:10AF38001170AB490DAA41C941C209781170A949DC
:10AF480010AA41C941C209881180A74913AA41C959
:10AF580041C20888108089789170102B14D0042B76
:10AF68005DD0292B63D00D2B69D0152B6FD00E2BFC
:10AF780006D10A22584610A90CF0AAF900280AD0CE
:10AF8800A3691D42B0D08EE70422584606A90CF0EA
:10AF98009FF90028F4D1954805F0DEFF5346514645
:10AFA8001B78C8205A1C0A705A4603990026D154A7
:10AFB8000AF046FF09F022FD00230200022104984E
:10AFC80000960BF033FD0023002203213800009681
:10AFD8000BF02CFD7D4B1B78012B00D110E1022BCF
:10AFE8005CD0002B42D0824B00229B5E152B0FD0E9
:10AFF8002022A3691A42FCD1152323608022002154
:10B008005200584605F03EFE002352461370B7E73B
:10B018002022A3691A42FCD10D232360E8E7042209
:10B02800584607A90CF054F90028A9D1B3E708221B
:10B03800584608A90CF04CF90028A1D1ABE70B221F
:10B04800584613A90CF044F9002899D1A3E709221E
:10B0580058460AA90CF03CF900289CD00922584609
:10B068000DA90CF035F900288AD194E72F2158460C
:10B078000CF0A0F8002807D052465B461178C31A96
:10B08800C91AC9B2FFF7DAFA09F0B8FC00230200BE
:10B098000121049800930BF0C9FCAFE709F0AEFC5E
:10B0A800002302000121049800960BF0BFFC5346D0
:10B0B80058461978FFF7EAF80130C3B2062B00D9D1
:10B0C800D5E04C4A9B00D3589F46FFF71DFE95E7F5
:10B0D800474B00229B5E062B50D020221600A36906
:10B0E8001E401A42FAD10623384A2360033B1370E4
:10B0F800414B1B68180003930AF03AFCFC2180209E
:10B108008902C0020CF0C6FC3C4805F025FF00236C
:10B1180000220321380000960BF088FC002300224F
:10B128000321049800960BF081FC09F067FC642366
:10B13800020000930121002305980BF077FC5DE7DE
:10B148005846FFF779FD59E75846FFF705FD55E7DB
:10B15800534658461978FFF73FFE4FE75846FFF722
:10B16800B7F9FEF7B3FC49E7214B00229B5E152B8C
:10B178000BD02022A3691A42FCD13DE72022A36903
:10B188001A42FCD10D232360A7E72022A3691A42A3
:10B19800FCD10D232360ECE7243003205D0100205F
:10B1A80088130000F4F70020C50100203075000066
:10B1B80000F80020590500200CF800203450034006
:10B1C8005930032000400340282A01205B30032027
:10B1D8000150310294F7002021212121A0F70020FD
:10B1E800ACF70020B8F70020C4F700201CF80020B6
:10B1F800302F01203CF800206C2F032024F8002079
:10B2080009F0FCFB002302000121049800960BF0D2
:10B218000DFC534658461978FFF7D6FAEEE609F0C2
:10B22800EDFB002302000221059800960BF0FEFBBF
:10B23800174B1B78002B17D1164B164A1B6803981F
:10B24800591C1160144AD054082900D098E61248B5
:10B25800C9B2FEF741FA082200210F4805F012FD95
:10B2680000230C4A13608BE60A4B1968EFE70B4B77
:10B2780000229B5E152B04D02022A3691A42FCD120
:10B28800BAE62022A3691A42FCD10D232360F3E712
:10B2980055300320700B0120740B0120302F012042
:10B2A800F0B54F464646D6460122634BC0B51B68EB
:10B2B8008EB05340614A029003911340604A802146
:10B2C800136008225F4B49001A605F4B5F4A98463B
:10B2D800FA239B0043449946404693680B42FCD1AD
:10B2E800D368038002308145F7D10822584B57496B
:10B2F8001A60F8320B681342FCD08B68134206D1EF
:10B308008021524B4900DA689A680A42FBD0002330
:10B318002422002105A80493474605F0B3FC4D4BB1
:10B3280045469A4600242D374B4EFF3732002B886E
:10B33800142104A804F0F8FB02AB5C7704A950467A
:10B3480005F0ACFE023501200AF07AFDAF42EDD1DE
:10B358000A2005F0B5FD0298039900223F4B04F03E
:10B36800F2FE3F4B002204F0D0FE04F0A5FF05F0EA
:10B3780017FC06000F003B4A1E210096019704A8FF
:10B3880004F0D2FB272202AB9B181C70504604A97C
:10B3980005F084FE002400254346188805F0DEFBEE
:10B3A800314905F0D4FB05F0FBFB00222C4B04F0DF
:10B3B800ACFE32003B0004F096FE02000B0004F0E5
:10B3C800C2FE0B0002002900200004F095FE0223B3
:10B3D8009C46E04404000D00C145DDD10094019570
:10B3E8002221224A04A804F09FFB082023230022DC
:10B3F80002A90918CA54504604A905F04FFE0022B4
:10B408001B4B2000290004F080FE04F061FF00229D
:10B41800184B04F098FE0D00040004F041FFC1B27F
:10B42800154805F03BFE200029000EB0E0BCBA46E6
:10B43800B146A846F0BDC04608C004400F00000F42
:10B4480008D0044000E00440282B012000C004403C
:10B4580000F0044078F4002058F8002000C8E93FC4
:10B4680000408F4064F8002000404E3F70F80020F4
:10B4780000407F4000C052407CF80020F0B5DE4616
:10B488004E46454657460023E0B585B00B220021BD
:10B4980001A8009305F0F6FB864B874C9946874B2D
:10B4A8009B46874B984609F0A9FA4B468548196888
:10B4B80005F0F4FD802322685B015340E022D201AD
:10B4C8001340814A5D4613600122804B59461B6830
:10B4D80053407F4A13407F4A136008227E4B1A600C
:10B4E800C8235B449A46F832A3681342FCD1E36848
:10B4F8000B8002318A45F7D10822784B1A60F8325E
:10B5080023681342FCD0A368134205D1802252005D
:10B51800E368A3681342FBD000260027288804F0BC
:10B5280083FE02000B003000390004F0E5FD02350F
:10B5380006000F00AA45F1D102000B00684805F08B
:10B54800ADFD002230003900664B04F0DEFD060038
:10B5580002000B0064480F0005F0A0FDE0222368FC
:10B56800D2011340584A300013603900FFF798FEA3
:10B5780043461E78751CEDB21D7004F091FE6B46B3
:10B5880098555A4B1B78002B26D00722584BFA2186
:10B598009A56890093059B1A9801564B80189C4629
:10B5A80040008018C000604443011B1A9B00181813
:10B5B800C00004F05DFB050006204D4B0F21185616
:10B5C80004F02EFB49B2002918D00023474A28006E
:10B5D80013700AF035FC66E7454BDB795BB2042B48
:10B5E80008DC0620424B0F21185604F019FB49B21B
:10B5F800002917D040480AF023FC54E7FEF734F935
:10B6080080213E4B49011878813000030CF042FA42
:10B6180080223A4B3A4918785201813000030CF0E5
:10B6280079FAD2E76B4619780800012D40D9013321
:10B638000F0001228A461800AC4603780D1C994277
:10B6480000D21D1CE9B23D1C9F4200D91D1C534469
:10B65800EFB29BB2150001329A46D2B20130AE4227
:10B66800EBD165461800274B1970274B29001F702E
:10B6780004F0D6FA254B1870FEF7F6F880211F4B18
:10B6880049011878813000030CF004FA80221B4B22
:10B698001B4918785201813000030CF03BFA0F2245
:10B6A8000021684605F0EEFA002342461370A1E730
:10B6B8000F00D8E79C00012000C004407409012055
:10B6C8005F30032088F8002000D0044008C0044000
:10B6D8000F00000F08D0044000E0044000F00440D0
:10B6E8009CF8002000005940A8F800205C30032096
:10B6F8009400012060EA0000881300005A300320FB
:10B70800300C0120603003206230032061300320B8
:10B7180030B5CDB005F0CEFCFA20800001F0D8FE9F
:10B7280096216848490002F0D5FAFEF791FD0221FA
:10B73800002000F0ABFE0221012000F0A7FED0257A
:10B74800022000F0E7FE042308242D066B62032084
:10B7580000F0E0FE6C620BF00FFD1A20FDF796FE7C
:10B768001B20FDF793FEE021574AC901136857488B
:10B778000B4057490B60962301211B041361554B5D
:10B788001B684B4054490B4054490B60544B802173
:10B798001C60FA239B00C418490093680B42FCD133
:10B7A800D36803800230A042F7D108224D4B4649A6
:10B7B8001A60F8320B681342FCD08B68134206D12A
:10B7C8008021414B4900DA689A680A42FBD001207F
:10B7D80001F07EFE0BF0F2FA434944480BF0E4FB1B
:10B7E8000321142000F052FE0CAC0321152000F0B8
:10B7F8004DFE0CF015F822003D4B03CB03C2392057
:10B808001B78002113706844F72205F03BFA802169
:10B81800FE204901C0020CF03DF98022FE205200B2
:10B828002100C0020CF076F9A02132480901FDF789
:10B8380013FF314C04A82100FDF7BAFE20000BF0DD
:10B84800D9FA4020002101F031FE07216156002479
:10B858004A01521A93019B1AD8004018FA21800114
:10B86800890004F005FA254B186001F0FBFB06ABD4
:10B878000293234B234A00930194002301F0B4FC64
:10B88800214B802201930223204900935200002378
:10B898001F480AF04BFB0323C0221E4900931201E4
:10B8A80000231D4801940AF041FB012380221B4913
:10B8B8000093520000231A4801940AF037FB09F05C
:10B8C800F7FFFEE70040034000C00440282B01209A
:10B8D80000D0044008C004400F00000F08D0044006
:10B8E80000E0044000F00440801A060084010120B2
:10B8F800E4F80020001008109400012060090120DD
:10B908002502002040420F006C2F0320C0F80020C1
:10B918004D220020CCF80020191C0020D8F8002067
:10B9280005020020F0B5DE4657464E46454682469B
:10B93800E0B5836899B01593C36800699B46039086
:10B94800504653460E0040698A1804901792019396
:10B9580072783478B0781202144300042043F478E3
:10B96800019B240604439C65FD4B039D9C46159A48
:10B978002F0062440594A4465C46049B62445F40E1
:10B9880027405F40BF181922D74172793079B479BE
:10B998001202104324040443F0799C460006020076
:10B9A80001992243CA65EF495C4661440692944670
:10B9B8002A005F4462403A4061446A4052181421A8
:10B9C800CA41717A307A09020143B07AAC46000460
:10B9D8000143F07A7C400006030025005C460B43D7
:10B9E8000199BA180B66E049154061449C466540C8
:10B9F8000F2461446D18E541747B317B24020C43AC
:10BA0800B17B169309040C43F17B019B0906214382
:10BA18003C008C4659660A23D4485519544058446A
:10BA28002C4060447C4024180791307C717CDC41B8
:10BA380009020143B07C2C1900040143F07C000684
:10BA480003000B439C461000019968408B66C84967
:10BA580008936144CF190100192021405140CF19A2
:10BA6800C741707D317D00020843B17D019B090407
:10BA78000843F17DE7190906014308008446D966A1
:10BA8800BC49099061448A182900614039406940DD
:10BA98008A181421CA41717E307E09020143B07EA2
:10BAA800BA1800040143F07E00060843844618676C
:10BAB800B14B0A9063445D1923007B401900114083
:10BAC80061404D190F21CD41717F307F090201433B
:10BAD800B07F019B00040143F07F5519000608431D
:10BAE80084465867A54B0B9063441C193B00534090
:10BAF800180028402023784000190A24F15C0133FB
:10BB0800E041F45C013324020C43F15C0133090485
:10BB18000C43F15C019B090621438C469967984BBD
:10BB28000C916344DF1913006B4019002818014079
:10BB380051402424C9191927F941375D0134345D6E
:10BB4800019B24023C432627F75D41183F043C43F0
:10BB58002727F75D3F062743BC46DF67894B0D97CC
:10BB680063449A182B0043401C000C406C40142777
:10BB7800A2182824FA41375D0134345D019B240260
:10BB88003C432A27F75D8A183F043C432B27F75D7F
:10BB98003F0627438024BC461F517B4B0E976344C6
:10BBA8005D1903004B401C001440444065190F24E4
:10BBB800E5411D34375D0134345D019B24023C436B
:10BBC8002E27F75D55193F043C432F27F75D3F06A5
:10BBD80027438424BC461F516C4B0F9763441818A5
:10BBE8000B0053401C002C404C4020180A24E04114
:10BBF8002634375D0134345D019B24023C433227EF
:10BC0800F75D28183F043C433327F75D3F06274379
:10BC18008824BC461F515E4B109763445918130083
:10BC28006B401C000440544061181924E1411B3446
:10BC3800375D0134345D411824023C433627F75DF3
:10BC48003F043C433727F75D019B3F0627438C247D
:10BC5800BC461F514F4B119763449A182B00434021
:10BC68001C000C406C40A4181422D4412432B75C48
:10BC78000132B25C019B12023A433A27F75D0C1974
:10BC88003F043A433B27F75D3F063A439027DA5192
:10BC9800414B1292D71803004B407D191F002740D3
:10BCA80047407D193C27F35D0137F75D0F223F02BE
:10BCB8001F433E23F35CD5411B041F433F23F35C22
:10BCC80065191B061A003A4394279446019B139260
:10BCD800DA51324B0A22634418180B0063401F00E4
:10BCE8002F404F403818069F2D4BBC46D041634427
:10BCF8005F182B002818434019000A9A1B23944602
:10BD080021406940C9199946D941264B41186344D5
:10BD18001F1903004B401C000F9A172394462C4010
:10BD28004440E419DC41204B0C1963445D190B00B5
:10BD380063401F0007404F4012237F19059D9C4612
:10BD4800AA46DF41194BE71953441D1820007840D3
:10BD5800099A08406040924640190C2528E0C046E0
:10BD680078A46AD756B7C7E8DB702024EECEBDC1E9
:10BD7800AF0F7CF52AC68747134630A8019546FDC4
:10BD8800D8988069AFF7448BB15BFFFFBED75C8959
:10BD98002211906B937198FD8E4379A62108B449BE
:10BDA80062251EF640B340C0515A5E26AAC7B6E9BE
:10BDB800FE4BE84153449A463B00381843408A44B6
:10BDC80019000E9A4B462140794051449246D94178
:10BDD800F74B411853449A4603004B40A2441C00B9
:10BDE800139A17233C40444054449246DC41F14B9B
:10BDF8000C1953449A460B006340BA441F0063462B
:10BE080007404F405744DF41089BEB4A9A4652444B
:10BE1800924682442000E71978400D9B0840604014
:10BE280050449A46E54AE841524492468A443900C9
:10BE38003818020041404846214079405144904614
:10BE4800C141129BDE48414482469846C244A244FE
:10BE580014004C403C40029217205440079A544426
:10BE68009246C441D7480C195044824608006040A5
:10BE7800BA44070002980C9B074060464F4057445D
:10BE88009A46C741D048E71950448246029840363E
:10BE98008046200078400840C24460405044E84151
:10BEA80038180290119BC9489A4650448246380077
:10BEB800029B8A4458400100484621407940514439
:10BEC8009946C141169B49449946C148029B48443A
:10BED800814618004840A14404003C4017205C40BB
:10BEE8000B9B4C449846C441BA480C1940448046C0
:10BEF800B8440F0002986740074060464F404744E7
:10BF0800C741109BB8469C46B348A0446044844649
:10BF1800029847468146200078400840CC4460405B
:10BF2800099B6044E8419A464546AC4F4044454029
:10BF38005744BC462F0067406144BC461C236144FB
:10BF4800D9410C9BA64F9A465744BC461527411821
:10BF580064444D402D190F9BFD410C009C464D1922
:10BF68001497A04F6C4023006744BC4647464340A3
:10BF780067449C4610236744DF41EF1902979946AE
:10BF8800994F129BBC4698460927029BC4445C40C3
:10BF9800604420189C46F8411C00069B60449C465F
:10BFA800B846924F44406744BC4627006F408C44D3
:10BFB80039001C236144D9418C4608998C4F8A4624
:10BFC80084445744791967467C4015276418FC4116
:10BFD80067460B9964448A4667403D00854F57443D
:10BFE8003900029FCF1929004140CF194946CF4156
:10BFF800E11902910E99804F8A46574439184746ED
:10C008000298454069188246F9410700119D51443C
:10C018004F40AA463800794F5744BC440700674050
:10C028003D006544DD41AC46059D754FAA468C44EC
:10C0380057443D196746784015274519FD4167461D
:10C04800924665446F403C006E4F0A9A5744380048
:10C05800029F9246C71920004840C7194846C74161
:10C068006948EF1950447C40401820184446E04184
:10C078003C000D9A3818924644402100634C109AAF
:10C088005444A4440C006C4064449446DC41604B26
:10C09800041963449C46139A65446140491915255F
:10C0A80092465C4BE941534425009C4661184D403B
:10C0B800BC442F004B4647406744DF41169BBA46B5
:10C0C8009946554F8A444F44BC4657467D4047469B
:10C0D80060442D18FD41514F0598BC466044001935
:10C0E800CC43574655442C437C401A272418B8465D
:10C0F800FC414B4F0B98BC46604440185146C9431D
:10C1080016272C19214369400918B946F941454FAA
:10C11800129ABC46EF43611862440F435244674089
:10C12800BF181122D741CF1902973F4F0998BC4633
:10C1380060444519E043029F3843484040190B25A5
:10C14800BC46E841394F6044BC4605901098029FB0
:10C1580060448446A444CC43059804437C40474645
:10C168006444FC418246A446314FD444BA46079CF5
:10C17800029F54446118FC4367463C434F46444081
:10C188006118F9412B4F0E9CBA46029F5444E71997
:10C19800C443604661440C4344402748E71982463B
:10C1A800069C05985444201848E0C0465D102FD6D8
:10C1B8005314440281E6A1D8C8FBD3E7E6CDE121B8
:10C1C800D60737C3870DD5F4ED145A4505E9E3A919
:10C1D800F8A3EFFCD9026F678A4C2A8D4239FAFF1F
:10C1E80081F6718722619D6D0C38E5FD44EABEA495
:10C1F800A9CFDE4B604BBBF670BCBFBEC67E9B288A
:10C20800FA27A1EA8530EFD4051D880439D0D4D99E
:10C21800E599DBE6F87CA21F6556ACC4442229F4F4
:10C2280097FF2A43A72394AB39A093FCC3595B65B6
:10C2380092CC0C8F7DF4EFFFD15D84856446D741A5
:10C24800E443CF193C434C402018E8413818029089
:10C258004B480C9C82465444A444CC430298044363
:10C2680040467C406444C441029882465444059444
:10C27800444C1398A446604482468A44F943059C7A
:10C2880002982143414048465144C141A4468A4648
:10C298003D48E24484460A9902986144CF19C14353
:10C2A80050460143394861408446CF191199029894
:10C2B8006144D7410818E143544657443943614023
:10C2C800334C0818A4460899059C61440C1951463A
:10C2D800E841C9433818014379400C19414684465E
:10C2E800CC4102902B48644484460F9902986144DB
:10C2F8008A44F9432143414048465144C1412648B4
:10C308006118844663449C46029BBC44DF4323482F
:10C318000F43674067448446D7410D9AE04362441F
:10C328009C46CF193843624448408018159AE84122
:10C338009446039DA4446246AC46049BBC441592B3
:10C3480062469C468C4463460493179B3818834482
:10C3580003929E4201D0FFF7FBFA5B46019A1599BA
:10C36800D36013009160039A30001A6162465A61E3
:10C3780019B0F0BCBB46B246A946A046F0BDC046BF
:10C388004F7EA86FE0E62CFE144301A3A111084ECE
:10C39800827E53F735F23ABDBBD2D72A91D386EBCA
:10C3A80070B5364B1400364AA6B002920393354B4B
:10C3B800354ACE0004920593F6084B0F0D000096FF
:10C3C80001933F2943D801002A0006A804F060FC25
:10C3D8003F203040020080216A4411764022431CED
:10C3E800D21A1930072A3CD93822D21A00216844B7
:10C3F80004F048FC009B4022DB0000931493019B4F
:10C40800684606A91593FFF78DFA029B1A0A23704E
:10C4180062701A0C1B0EE370039BA2701A0A237138
:10C4280062711A0C1B0EE371049BA2711A0A237223
:10C4380062721A0C1B0EE372059BA2721A0A23730E
:10C4480062731A0C1B0EA273E37326B070BD3F26ED
:10C458000A000100B2436846FFF764FA3540009EBF
:10C46800B1E70021684404F00DFC4022684606A9A3
:10C47800FFF758FA38221820B8E7C04689ABCDEF45
:10C488000123456776543210FEDCBA98094A8300C6
:10C4980094464022634410B51C68C0006240C02422
:10C4A80014408022520113431C60034B9C46604495
:10C4B800416010BD04C00140004001400A4B8000AB
:10C4C8009C4604236044002901D00C230821002A3B
:10C4D80000D10B00026853400C221A4080235B01F4
:10C4E800184302607047C04604C00140084B8000F2
:10C4F8009C466044002905D080239B0118434023B3
:10C5080003607047C0239B01184340230360F8E78A
:10C5180004C001400123D022834012069362936134
:10C52800094A83009446402263441968C0004A407F
:10C53800C02111408022520113431960034B9C46CD
:10C54800052360444360704704C001400040014037
:10C55800024B18688007C00F7047C04600C00640ED
:10C5680070B5EFF3108C72B60D4D2B68002BFCD014
:10C57800BFF35F8F0724CB08C618C05C01230C40AB
:10C58800A3401C000440034207D103433370BFF3A8
:10C598005F8F2C608CF3108870BD100001F0E2FFF3
:10C5A8002C0100D0F8B54746CE46884680B5EFF353
:10C5B800108C72B6214D2C68002CFCD0BFF35F8F15
:10C5C8009A422CD8D4080727055D0619012417407C
:10C5D800BC402C421FD007210127894609E0D40816
:10C5E800055D06194C4639001440A1400C0029424B
:10C5F80011D001329342F2D201204042BFF35F8F43
:10C6080000220E4B1A608CF3108800280FDBC0BC88
:10C61800B946B046F8BD2C4310003470EEE7BFF3BE
:10C628005F8F00232B608CF3108801204042434623
:10C63800002BECD0089801F095FFC0462C0100D0E3
:10C648000021044B044ABFF35F8F02C39342FAD11F
:10C658007047C046000100D0800100D0044A10781D
:10C66800431CDBB2172B00D9102313707047C04648
:10C67800AC00012010B50100024A0348FFF770FF23
:10C6880010BDC046FCF90020440B012000B5054B45
:10C6980083B00100009318221F230348FFF782FF8D
:10C6A80003B000BD1CFA0020440B01200123834085
:10C6B800002904D0034A1360034A13607047034AF1
:10C6C8001360FBE780E200E000E100E080E100E0C9
:10C6D80001228240034B1B6813405A1E9341D8B273
:10C6E8007047C04600E100E001238340014A13601F
:10C6F8007047C04600E200E0084B10309B6880009D
:10C70800C358002B07D0064A00209B1A2F229A42B2
:10C718004041C0B270470020FCE7C04600ED00E091
:10C72800B0000120024B10309B688000C058704751
:10C7380000ED00E070B50D00EFF3108672B60F4AF9
:10C748001368002BFCD0BFF35F8F0D4B10309B6834
:10C7580084001B590B4A934203D09D4201D001F03B
:10C768001FFF074B9B681D51BFF35F8FBFF35F8FA0
:10C778000022024B1A6086F3108870BD240100D095
:10C7880000ED00E0CD910010F0B557464E46DE466C
:10C798004546E0B585B0060002911700EFF3108B0F
:10C7A80072B6674A1368002BFCD0BFF35F8F002571
:10C7B800644B5D579A46002D00DAA4E06B00624C8A
:10C7C80003935B199B009846A146C1444B465246C9
:10C7D8009B79103613705D4BB2009B680192995893
:10C7E8000B1B2F2B34D95A4B994200D0A4E0039B42
:10C7F800584A9C46584B6544AD0063534346023340
:10C808006519E418554B0121043B1B1B1B055B0DE7
:10C8180013436B80524BEF71AB80FF23AB71029BCC
:10C82800AB604B460B431900484B019A9B689950E3
:10C83800BFF35F8FBFF35F8F0022414B1A608BF30A
:10C84800108805B0F0BCBB46B246A946A046F0BD6C
:10C8580001200A008243D379BB422FD845464E4671
:10C86800130040491B1B5B415943090D3A4B635365
:10C878003A4B02356519043B5B1B1B05354D5B0DB7
:10C888002B4373800426B446E0444444131F1B1B07
:10C898004C46A17102991B05A16049465B0D2B43CB
:10C8A800A380314BE77101431360BDE75800C018FE
:10C8B80080002018C679BE422BD902000623D35621
:10C8C800002BF3DA101D824628488046042676425B
:10C8D800B446E14450464E46361A3005400D82466D
:10C8E80056461C48957106439680039A94466544BB
:10C8F8001D4AAD00641922604246A371029BA280C2
:10C90800E771A36090E701F04BFE002553465D57A1
:10C9180054E7101D8246908840050015844640461D
:10C92800D444664604302018301AE0260005400D2D
:10C93800360230438046C9E701F032FE57E7C04669
:10C94800240100D054300320B000012000ED00E0A5
:10C95800CD91001000E0FFFF00A1FFFFE0000120E3
:10C9680001BDFFFFAAAA00000148804701BD0000E1
:10C97800F0B5DE4657464E464546E0B50C0083B056
:10C98800EFF3108972B6584A1368002BFCD0BFF336
:10C998005F8F564B9A68030010339F00D559544A4D
:10C9A8009046954232D0A54243D0524EAA1B2F2A18
:10C9B8002CD801228240924651464F4A12681140B3
:10C9C800019151464D4A1160BFF35F8FEFF3058225
:10C9D8009346002A33D101232A009A4393689C4244
:10C9E80008D177E04B005B189B00F3189968A142C7
:10C9F8002AD01A00062151560029F3DA019B002B90
:10CA080019D052463E4B1A603B4B1A60374B9B6815
:10CA1800DD51BFF35F8FBFF35F8F0022324B1A6087
:10CA280089F3108803B0F0BCBB46B246A946A046BD
:10CA3800F0BD1500EAE75246304B1A60E6E793422C
:10CA4800C9D001F0ADFDC6E706215956002921DB02
:10CA58004A005018800034188046A0689860E07931
:10CA6800D871062020569871002824DBA488F01A73
:10CA78006405241544440019E0240005400D2402EF
:10CA88002043988052181F4B9200B6181A781970D4
:10CA9800B271B3E7594600290FD1FF3191711A4994
:10CAA800918018490A789A71184A9B1B5B415A432E
:10CAB800120D0A70A2E71648E3E7164A1649D21A79
:10CAC800083A5002400D01439980144952080A431C
:10CAD800DA8093E70621515613000029B8DA5A463E
:10CAE800002AEAD14546DCE7240100D000ED00E049
:10CAF800CD910010B000012000E100E080E100E0ED
:10CB080080E200E05430032001BDFFFFAAAA000024
:10CB180001BD0000EA00012000F0FFFF00F8FFFF60
:10CB2800032310B50400074A18409446C0009C43EC
:10CB3800FC3383406444226881409A4313000B43CA
:10CB4800236010BD00E400E070B5EFF30581012417
:10CB58000443EFF3108C72B6214A1368002BFCD003
:10CB6800BFF35F8F1F4B05001F4AED1A6D416A43E3
:10CB7800120D1E4D8900AE6852B27658A6421CD0DE
:10CB88000621595691421CD012215956914222D061
:10CB98001E215956914220D02A21595603249142E8
:10CBA80010D0134B19781A708171BFF35F8F002270
:10CBB8000B4B1A608CF3108870BDAB680D4C5C5041
:10CBC800EFE700246100091989005B18FF219971BA
:10CBD80009499980E5E70124F4E70224F2E7C04611
:10CBE800240100D0B0000120AAAA000000ED00E056
:10CBF80054300320CD91001001BDFFFF054B064ABC
:10CC08001360064A136053609360D36013615361E5
:10CC1800936170478080808000E400E004E400E0D5
:10CC280000B5074B83B00100009300220523054897
:10CC3800FFF7B8FC002801DB1F23181A03B000BD5A
:10CC480038FA00205E300320024B9C46614489007C
:10CC5800016070474000003410B50400FFF7FEFC87
:10CC680001002000FFF7F0FF01235B426360BFF380
:10CC78005F8F10BD10B50400FFF7F0FC0100200025
:10CC8800FFF7E2FF01235B42636000232372BFF3D7
:10CC98005F8F10BD10B504000120FFF7F7FC044BAF
:10CCA8009C46604480002060BFF35F8F10BDC04683
:10CCB80040000034034B9C46614489000160BFF387
:10CCC8005F8F70474000003483680B4810B5844676
:10CCD80061446244090112019A18591854684B6852
:10CCE80001209C4201D802D00020C0B210BD1268B9
:10CCF8000B689A42F9D8F7E7FFFFFF0F10B5080055
:10CD08000B690C009847002802D02068616810BDA4
:10CD1800E06000210020FAE7074810B50268EFF349
:10CD2800108172B61368002BFCD0BFF35F8F06F03A
:10CD3800CFFC0020002110BD142F0120F8B5574664
:10CD48004E464546DE46E0B599460CAB1C780DAB21
:10CD58001B78060090469A460768002C11D1BC7BC8
:10CD6800002C42D065003B682D19033D59194B78BA
:10CD7800BB73002B00D1FB7300238B704B700B70BF
:10CD880004E065003B682D19033D5919B2682A4B28
:10CD980094464246E3181B0163441A604A465A60A7
:10CDA8000A9A9A600B9ADA6000238B704B700B70AA
:10CDB8007B7B9B46002B2BD022005946B8687B68AA
:10CDC80098473A68002816D05B4658465B005B4493
:10CDD8005519033BA870D118D35C002B00D06B7099
:10CDE8005B460C707B73A34513D0F0BCBB46B246C0
:10CDF800A946A046F8BD5B465B005B44033BD318DD
:10CE08009C705119525D002A00D05A705B460B7015
:10CE18007C7342464B46307D00F0D2FC051E06D09E
:10CE28005346002B03D12100306800F015FF0E9BFC
:10CE3800002BDAD01D70D8E7FFFFFF0FF0B5DE46F4
:10CE480057464E4645460023E0B58BB00893674BDE
:10CE58008200D45800239B46099000F027FC6268A2
:10CE680006000F00EFF3108572B61368002BFCD094
:10CE7800BFF35F8F23689C465B7B9946002B00D1EC
:10CE880069E0A2685A4B90464B441B0198444346BC
:10CE98001A685B6810001900801BB941002900DC82
:10CEA80063E0099800F08CFC0023002298460023D8
:10CEB8000692079300239A466368BFF35F8F5A462A
:10CEC8001A6085F310885346002B08D10028C4D176
:10CED8000BB0F0BCBB46B246A946A046F0BD089BC5
:10CEE800414618024B461843D047626806000F00B7
:10CEF800EFF3108572B61368002BFCD0BFF35F8F79
:10CF0800002F50DB33003B4302D02369002B61D153
:10CF18002368D97B002907D04A00521819688C4623
:10CF280049466244033A51709A7B002A01D14A4625
:10CF38009A734A46DA734B46E168013BCA5C013290
:10CF4800CA545B4623616368BFF35F8F5A461A6011
:10CF580085F3108881E70023002298460023069273
:10CF68000793002300209A46A6E7002902D100284B
:10CF780000D096E70021604600F0ECFD43461A68B1
:10CF88005B680692079343469B689A464346DB686C
:10CF98009846E3684B44013B1B7808931B02034304
:10CFA8002361002088E72369002BB1D0069A079BEC
:10CFB800921BBB41002B15DB5946049101210391BB
:10CFC8004946029141460191514620000091FFF7E0
:10CFD800B5FEB6E700F06AFB32003B0012184B4181
:10CFE800002BE9DA0122034B5242E5E748200120F1
:10CFF800FFFFFF0FFFFFFF7F10B5144C6368002B86
:10D0080004D00A211248FFF71FFE10BD2300114A61
:10D018001021206800F0B8FC032000F03BFB03203F
:10D0280000F038FC03200C4900F084FBFFF716FBE6
:10D038000A4B9C4603232375D0231B061B686044B8
:10D048006375074B80006060DC60DAE7F800012058
:10D05800142F0120993A00200D3C00204000003494
:10D068004820012000487047F8000120F0B54E46DE
:10D078004546DE465746E0B585B0019310AB1B78B0
:10D088000600039300239946984600927268EFF3CE
:10D09800108B72B61368002BFCD0BFF35F8F356816
:10D0A800AC7B002C3DD067002B683F19033FDB1990
:10D0B8005A78AA73002A00D1EA73B168474A8C46A5
:10D0C80000980199A21812016244106051600E99EB
:10D0D80091600F99D16042469A705A701A706B7BB2
:10D0E8009A46002B67D022001900A8686B689847F9
:10D0F8002A68002852D0534650465B005344D7193B
:10D10800033BB870D118D35C002B00D07B7053461A
:10D118000C706B7354454FD0F3681B19013B18789A
:10D1280000E000207368BFF35F8F42461A608BF3FC
:10D138001088002C4FD04B46002B08D1000220430A
:10D1480005B0F0BCBB46B246A946A046F0BD039B5D
:10D15800002B3ED00E9B00200F9998470300040037
:10D168000D000B4335D000290ADA009A019B121BE7
:10D17800AB4100920193002B0ADB039B994685E79C
:10D1880000F094FA24184D4100940195002DF4DA2A
:10D198000123134C5B4200930194EEE753465B0076
:10D1A8005344033BD3189C70D119D25D002A00D098
:10D1B8005A7053460B706C73307D009A019B00F0D7
:10D1C800FFFA81460028A7D02100306800F044FD0E
:10D1D800A2E70020B4E701204042B1E7FFFFFF0FBC
:10D1E800FFFFFF7F407D7047F0B54E464546DE465F
:10D1F8005746E0B585B01099804689461100194315
:10D2080000D1D8E0D81706005640340006005E402A
:10D2180001003500241A8D41494640460A6088605D
:10D228000F9A0E984B6008614A6100F03FFA0019A6
:10D23800694100900191002900DACAE00023002525
:10D248009A4643465A68EFF3108B72B61368002B60
:10D25800FCD0BFF35F8F43461E68B47B002C00D11F
:10D2680089E063001B19033B1A0094460393336853
:10D27800029463445A78B273002A00D1F27341468B
:10D288008968584A8C4600980199A218120162448C
:10D2980010605160544991604946D16052469A7075
:10D2A8005A701A70777B002F00D174E02200390081
:10D2B800B068736898473268002861D003997B008A
:10D2C800DB195118033B8F70D018D35C002B00D0AA
:10D2D80079E0047077732E00BC425DD04346DB686A
:10D2E8001B19013B1B7842465268BFF35F8F5146BA
:10D2F80011608BF31088002C67D0002E0DD1029A94
:10D308001B02134301364A463000D36005B0F0BC17
:10D31800BB46B246A946A046F0BD484603699847B1
:10D328000500031E01D10023EDE74A461668576839
:10D3380032003A4353D0002F0EDA009B019C9B1B0E
:10D34800BC4100930194002C00DB7AE70123274CB1
:10D358005B420093019474E700F0A8F936184F4136
:10D3680000960197002F00DB6BE701231F4C5B42FF
:10D378000093019465E700222E0000230292B2E791
:10D388007B00DB19033B0398D3189C701118125CBF
:10D39800002A15D10F7074734346187D009A019BBB
:10D3A80000F00EFA061E00D198E7434621001868DF
:10D3B80000F052FC92E701240025012200232BE70C
:10D3C8005A700F70E7E74B7083E7012300265B4232
:10D3D80099E70123054C5B42009301942EE71E0058
:10D3E800002390E7FFFFFF0FCD3A0020FFFFFF7FEC
:10D3F800F0B54746CE46040080B50D009626764225
:10D40800F71736196F4185B08F4215D812D000F042
:10D418004DF932003B00121A8B41002B16DC002B11
:10D4280039D02000290000F075F905B0C0BCB94614
:10D43800B046F0BD8642EAD90026002700F036F94A
:10D4480032003B00121A8B41002BE8DD00230293C7
:10D458000193124B3200009311483B00FFF706FE80
:10D468000028DEDBB846B1460E4F0F4E736A98456A
:10D4780004D8B26A9145D4D99845D2D13A68EFF325
:10D48800108172B61368002BFCD0BFF35F8F380091
:10D4980006F0E8F8EAE7002AC3D0D7E7E93A00201F
:10D4A800F8000120142F01200040054070B5040049
:10D4B8000D0000F0FBF800196941002902DBFFF7B5
:10D4C80097FF70BD012001494042F8E7FFFFFF7F49
:10D4D80070B5060000F0EAF8FA2204000D000023F7
:10D4E80030000021920003F0FBFA0019694100297D
:10D4F80002DBFFF77DFF70BD012001494042F8E7DC
:10D50800FFFFFF7FF0B5EFF30583CE46474680B5B2
:10D5180005000C0085B0002B12D02C4A0020536A5D
:10D528009C4203D8926A0130AA4204D305B0C0BC19
:10D53800B946B046F0BDE01A421E9041C0B2F5E7C8
:10D54800234E02930193234B0200009330000B00FB
:10D55800FFF78CFD031EE0DD20BF7168EFF3108735
:10D5680072B60A68002AFCD0BFF35F8FDAB294461D
:10D578003068427B62451DD0FF221A40510089461F
:10D58800016891448846494641440339897800290D
:10D5980013D0F1681B0A88464244013A1278DBB27C
:10D5A8009A420FD07368BFF35F8F00221A6087F327
:10D5B8001088B2E7FF221A40EBE732699342F1D1B3
:10D5C8003161EFE7614600F047FBEBE700400540BB
:10D5D800F8000120E93A0020F0B5EFF30582D646BD
:10D5E8004F4646461000C0B51038EFF3108872B6A3
:10D5F800214C2368002BFCD0BFF35F8F0123190057
:10D6080081401E4D1F006963AA461D4D29601D4DAE
:10D618002E78AC463500C5402F402B4209D1BFF3C8
:10D628005F8F276088F31088E0BCBA46B146A846E9
:10D63800F0BD5346144D5F6A83005D59AF420ED367
:10D64800124A8E439B5862461670BFF35F8F0022C2
:10D65800226088F31088002BE6D09847E4E70C4B4B
:10D6680092009C46624413681360BFF35F8F0023E7
:10D67800236088F31088D7E7280100D000400540D0
:10D688003C7005405D300320202F012064090120F3
:10D69800D03F054010B50100024A0348FEF760FF7D
:10D6A80010BDC04654FA002053300320034B596A7A
:10D6B8000A00986A596A8A42FAD1704700400540C0
:10D6C80070B504000D00124A536A1900966A536A2D
:10D6D8008B42FAD13000190024184D41AB4211D8C1
:10D6E8000ED02B000A494A6A9A42FCD307D1084A4D
:10D6F80002E0516A994202D1916AA142F9D370BD00
:10D70800A642EED9012301246442E5175B42E9E70A
:10D7180000400540064A536A9942FCD807D1044B99
:10D7280002E05A6A914202D19A6A8242F9D370475A
:10D738000040054070B504000D00EFF3108672B686
:10D748001A4A1368002BFCD0BFF35F8F002D1BD043
:10D758002000FEF7E7FF164981420AD02000FEF7B5
:10D76800E9FF01212000FEF7A1FF0123A340114A90
:10D778001360114BA400E550BFF35F8F00220B4BE1
:10D788001A6086F3108870BD0B4BA200D550012299
:10D79800A2400A4920000B7893430B700449FFF715
:10D7A800E7F800212000FEF781FFE5E7280100D017
:10D7B800A943002038600540640901205D3003203A
:10D7C800F0B54F46D6464646C0B507002C4C616AB0
:10D7D8000D00A66A616AA942FAD18B4208D805D021
:10D7E8000120E0BCBA46B146A846F0BDB242F7D91E
:10D7F800EFF3108A72B6234801680029FCD0BFF302
:10D808005F8F0125BD4020491D4C8846097889460F
:10D818002943C9B28C46414660460870391D1B48E9
:10D82800890065630A51B9000B50216A002029421A
:10D8380019D0616A0800A66A616A8142FAD18B42EE
:10D8480019D801D1B24216D8CC4516D00C4B1F209E
:10D858001D625D6301230740BB400D4A1E381360FB
:10D8680043464A461A70BFF35F8F0022054B1A6081
:10D878008AF31088B5E70020F5E70120F3E7C046F2
:10D8880000400540280100D05D300320202F0120F2
:10D8980080E200E0EFF3108C72B60A490B68002BA7
:10D8A800FCD0BFF35F8F01238340074A0748136208
:10D8B80002789A430270BFF35F8F00230B608CF3EA
:10D8C80010887047280100D0004005405D300320D3
:10D8D800042330B5D3560F4C9B001B590025545FC9
:10D8E80087B00594072414570B4D04940624145745
:10D8F800039405241457029402241457013CA400ED
:10D9080064590194D27852B20092044A02F00CF998
:10D9180007B030BD44FB002060FB002078FA0020EF
:10D9280070B5050014001600002915D00C00002A57
:10D9380012D080686B689847296800280ED0730059
:10D948009B196200033B1219CB18033A9C70881884
:10D958008A5C002A15D10670200070BD63001B196F
:10D968007200033B9219CB18033A9E7088188A5CA0
:10D97800002A02D104703400EEE75A7004703400B3
:10D98800EAE75A700670E7E730B583600023CCB247
:10D9980043730133047342608373C4730D000068DA
:10D9A800012C06D9421C0133DBB2137003329C42AE
:10D9B800F9D1FF2129404B0059180023401803389A
:10D9C800437030BDF8B5CE46474606000C0080B51A
:10D9D800002907D04D0003686D18033D5A19577880
:10D9E800002F04D12000C0BCB946B046F8BD79006C
:10D9F800C919033988464344597889460021597022
:10DA0800517073683A00210080689847336800288D
:10DA180014D042469A18947059195B5D002B00D0B7
:10DA280053700F70270049463000FFF7CBFF3900CD
:10DA380002003000FFF774FF0400D3E74246414676
:10DA48005D19AF709A185B5C002B00D06B70147076
:10DA5800E9E7C046F0B557464546DE464E46E0B5CE
:10DA68000D006B0001685B19DF1E0400C85D83B000
:10DA78000192CA19002850D043001B18033BCB1849
:10DA88005E78B446002E1AD1019E002E42D0E67B65
:10DA9800002E04D073009B19CB18033B5D70A37B49
:10DAA800002B00D1A573E57300282FD100235370F4
:10DAB80003B0F0BCBB46B246A946A046F0BD720012
:10DAC8006244033A89184A78904600224A7091467F
:10DAD8005A70010032002000FFF722FF43468246B9
:10DAE800002B07D05B0021684344033BCB185A78CE
:10DAF800002A16D1424651462000FFF711FF21683F
:10DB0800019BCA19002BC2D10028CFD043001B1893
:10DB1800033BCB1800219970C8E7019B002BB6D1B5
:10DB2800C4E75000801803380918487883464846E7
:10DB38004870587041462000FFF7F2FE594680466B
:10DB48002000FFF73FFF414602002000FFF7E8FEF4
:10DB58008046CFE7F0B557464546DE464E46E0B527
:10DB680083B00191457B04006B0000685B19DF1EE0
:10DB7800C15DC219002952D04B005B18033BC31882
:10DB88005E78B446002E1CD1019E002E44D0E67B60
:10DB9800002E04D073009B19C318033B5D70A37B50
:10DBA800002B00D1A573E573002931D1002328008B
:10DBB8005370617303B0F0BCBB46B246A946A04699
:10DBC800F0BD72006244033A801842789046002201
:10DBD800427091465A7020003200FFF7A1FE43467A
:10DBE8008246002B07D05B0021684344033BCB18D7
:10DBF8005A78002A17D1424651462000FFF790FE76
:10DC0800019B01002068C219002BC0D10029CDD08A
:10DC18004B005B18033BC31800209870C6E7019BB4
:10DC2800002BB4D1C2E7500080180338091848788F
:10DC3800834648464870587041462000FFF770FEFA
:10DC4800594680462000FFF7BDFE414602002000ED
:10DC5800FFF766FE8046CEE770B5040000292CD099
:10DC6800437B8B422ED0056848004018033828189B
:10DC78008278002A21D053009B18033BEA5CEE18F7
:10DC88008A4202D11BE0002A08D053009B18033BAC
:10DC9800EB185A788A42F6D142785A70002301224A
:10DCA800837043702000FFF7D5FE617B02002000DF
:10DCB800FFF736FE6073012000E0002070BD437856
:10DCC8003370EBE701221900FFF7C4FE60730120EF
:10DCD800F4E7C046F8B5CE464746040080B50620AE
:10DCE8000E0000F003FB051E51D0524B5249E218BA
:10DCF80053425A418023DB039C4692054F4B6244B2
:10DD08001A604F4B1A6010008B689843FBD1494B3F
:10DD18008021E3185A4253414A4A5B00490099520C
:10DD2800062000F0E3FA3100C00001F0A1FFC309AA
:10DD380032D14022012190466162A362256BEB0734
:10DD480036D427008026E36A00232C3776013E4329
:10DD580033600620256300F0C9FA4146800001F0CF
:10DD680087FF236B05009846DB073BD46022E36AF4
:10DD78005A406E23134033604346236380231022A6
:10DD88009B013B431A60304B23630323A3642800A1
:10DD9800C0BCB946B046F8BD2C4A93423FD90023CF
:10DDA8002B492C4A6162A362256B9046EB07C8D5C4
:10DDB8002200C02330329B011343234A06201A60F5
:10DDC800666AA26AB601B61800F090FA224901F014
:10DDD8004FFFB6020100300001F04AFF0021FFF7B3
:10DDE8006FFCAEE72200C02330329B011343164A72
:10DDF80006201A60636AA26A9B019946914400F062
:10DE080075FA4B4614499B02994601F031FF01000F
:10DE1800484601F02DFF0021FFF752FCA6E77F22BC
:10DE280099018846104001304008190080440300D9
:10DE380082E7C0460080FCBF00C0004000E0004010
:10DE480000F00040302F012001030000FEFF000019
:10DE5800FFFF0000C0FF3F004E0E0000F8B50400B1
:10DE680006200D0000F042FA2900C00001F000FF72
:10DE7800C30924D0224A934239D90023214A224E89
:10DE88006262A362256BEB0720D52200C0233032E3
:10DE98009B0113431D4A06201A60676AA26ABF01E4
:10DEA800BF1800F023FA1A4901F0E2FEBF02010090
:10DEB800380001F0DDFE0021FFF702FC06E04026F5
:10DEC80001226262A362256BEB07DED4E36A2200BB
:10DED80080232C325B011343002206201A6025633D
:10DEE80000F004FA3100800001F0C2FEF8BD7F2284
:10DEF8001040013040089E011A0036180300E0E780
:10DF0800FEFF0000FFFF0000C0FF3F00010300000C
:10DF18004E0E00000539013AF8B5D2004C01050053
:10DF28001443002B05D002222243012B2AD10533AA
:10DF38001C432E6BF3070BD4EA6A802362406E24DD
:10DF480014402A005B012C3213431C602E63F8BD79
:10DF58002A00C02330329B0113430B4A06201A6063
:10DF68006F6AAA6ABF01BF1800F0C0F9074901F03B
:10DF78007FFEBF020100380001F07AFE0021FFF7A2
:10DF88009FFBD9E71400D4E7010300004E0E000000
:10DF9800F8B54B1E9941066B05000C01F3070BD42D
:10DFA8001023E96A2A004C401C4080232C325B0174
:10DFB80013431C602E63F8BD0200C02330329B015E
:10DFC80013430A4A1A60476A826ABF010620BF18CB
:10DFD80000F08CF9064901F04BFEBF020100380041
:10DFE80001F046FE0021FFF76BFBD9E701030000B3
:10DFF8004E0E00004B1E9941F52349429943054BAB
:10E0080001319C46604443425841034BFF31400074
:10E01800C15270470080FCBF302F012030B50C2062
:10E0280083B000F0B9F9FEF793FA00280ED0994BA7
:10E03800994A1A605A609A60DA601A615A619A615C
:10E04800DA611A62954A5A6203B030BD944CA067EF
:10E0580000F0F6F90122934B1A60636C012BFCD196
:10E068000322914B1A608E4A936B012BFCD101332A
:10E0780001218E4A8E480093043300F03DF90523B0
:10E088008C4A009301218C4800F036F98B4B5A6872
:10E09800FF2A02D8802252005A6080227D4C824B8F
:10E0A80021691201854D1A60002907D0606901F0C5
:10E0B800DFFD431C5800C0180338FDD2E0217F4B18
:10E0C80002201A681140802252012A4311601968FF
:10E0D800484003210140116004219A681142FCD094
:10E0E8008022802192012A43090111608022520076
:10E0F8005A60734B2361734B5968FF2900D85A60E3
:10E108000321684A6F4B116002399A681142FCD0AA
:10E11800E0201A681040802252011A4310601868E3
:10E128004840032101400220116066498A68104274
:10E13800FCD0802292011343802212011A608022AF
:10E14800614B52004A606361604B5968FF2900D8EF
:10E158005A6080225E4BE16912015C4D1A60002909
:10E1680007D0606901F084FD431C5800C0180338CB
:10E17800FDD2E02255490B681A4080235B012B43EE
:10E188001A60802380229B012B4312011A6080228F
:10E19800414B52004A60E3614E4B5968FF2900D851
:10E1A8005A6080224C4B216A12014A4D1A6000299C
:10E1B80007D0606901F05CFD431C5800C0180338A3
:10E1C800FDD2E02243490B681A4080235B012B43B0
:10E1D8001A60802380229B012B4312011A6080233E
:10E1E80080225B004B602C4BD20223623B4B596868
:10E1F800914200D25A608022394B616A1201374D30
:10E208001A60002907D0606901F032FD431C5800EC
:10E21800C0180338FDD2E02230490B681A40802329
:10E228005B012B431A60802380229B012B43120140
:10E238001A608023DB024B60184B6362294B5A68D3
:10E24800FF2A02D8802252005A608022264BA169F8
:10E258001201244D1A60002907D0606901F008FDF9
:10E26800431C5800C0180338FDD2E0221D490B6832
:10E278001A4080235B012B431A60802380229B0174
:10E288002B4312011A6080235B004B600E4BA36185
:10E29800DAE6C046480B0120006CDC021BB7000020
:10E2A800008000403CB0004030B00040002F68596A
:10E2B80000800240008C864700C002403080004049
:10E2C800001BB7003C800040405973075480004051
:10E2D80054B000406080004060B000406C80004056
:10E2E8006CB000404880004048B00040014B8000BE
:10E2F800C0587047480B0120F8B5040021481D009C
:10E3080017000E0001F0B4FC0100380001F0B0FC69
:10E31800069B29041B0319432368002B20DB1A4B97
:10E328001A4DE21853425A4180235B019C4612035E
:10E33800174B62441A60174B1A601700AB689F436B
:10E34800FBD1C022231D92011A4321232660A0601D
:10E3580013602368002BFCDA0823E1601360F8BD22
:10E368003F2322681340B342D9D1A3681B051B0D74
:10E378008342D4D1EE22E368D20213408B42CED13D
:10E38800EDE7C046001BB7000040FDBF00C00040DD
:10E3980000E0004000F000408023024A9B00034355
:10E3A800D36270470080054010B5140080221B4BD3
:10E3B800D2051A6000281AD00123194A1843194BAC
:10E3C800DA61194A42401A62596298628022134BF4
:10E3D800D2051A601549164A1160E022D2041A6063
:10E3E800002C07D18022134B12061A6010BD0D4B6A
:10E3F800D861EBE763011B1B9A00802312191201F5
:10E408005B049A4200D30C4A0C4B1A60054B5A60C5
:10E418008022084BD2051A60E8E7C04600B00540E4
:10E42800D3C007B0008005402D3FF84FFCFF010026
:10E438000820014000A00540FFFFFF003420012014
:10E44800AA23064A1B0113602F230549D360054BF5
:10E4580019605368002BFCDA7047C0460040024040
:10E4680000B0FA00006002402C4B2D4A70B51A60CB
:10E478002C4A2D4B2D491A6014008B689C43FBD104
:10E488002B4D2C4EB54208D2013E761BB60808CD5E
:10E49800984723000134B342F9D1FFF7BFFD264A5C
:10E4A800214B1A60214A9368DB43DB01DD09002B0D
:10E4B800F9D14022214B224C224E9A675A671A679B
:10E4C800DA66B44208D223682000002B20D00C342E
:10E4D800FEF7D0FBB442F6D31B4E1C4CC022A168F9
:10E4E800300002F0D5FBA660FEF7AAF8FEF786FB1F
:10E4F800FEF782FD164C174EB44208D2013E361B79
:10E50800B60808CC98472B0001359E42F9D170BD5A
:10E518000834FEF7A1FBB442D5D3DDE700E00040A4
:10E52800BFCDFBFEFE7F3C0000F0004000C0004075
:10E538009C010120AC010120FFFFFF0100F0014018
:10E548008C0101209C0101200000002000ED00E06A
:10E55800AC010120B801012000BEFDE710B5FFF7AE
:10E56800FBFFC0460FB400B5084883B002F0F4FCC6
:10E57800049B002B07D005A91800019101F0F8FAB7
:10E58800034802F0E9FC0120FFF7E6FF90FB0020BA
:10E5980084F8002010B50148FFF7E4FFA0FB002035
:10E5A80010B50148FFF7DEFFB0FB00209A4200D209
:10E5B800885470477047C046F8B557464E4645469A
:10E5C800DE46E0B599460A9B07009A460D9B8846A9
:10E5D800934615000B9E9B0710D10C9B9E420DD2B3
:10E5E8009D1B14000E005D4422004B46013431008F
:10E5F8002020B847A542F7D1B0460B9E002E27D061
:10E60800444675195346AA1B013E985D21004B46A6
:10E61800B847002EF6D123002C0098460D9B9B0787
:10E628000FD55B46E51A0C9BAB420AD9464698467D
:10E6380022004B46310020200135B8470134A84557
:10E64800F6D82000F0BCBB46B246A946A046F8BDA5
:10E658002C00E3E7F0B54F464646D646C0B584B031
:10E6680098460EAB1B78129F994694460D9C109BBA
:10E67800119EBA0725D4002E4BD19C4200D3BFE08F
:10E6880001223A4092461F2C00D9B8E00C9A551E38
:10E69800302201E0202C03D001342A55A342F9D8B6
:10E6A8005246002A0DD0A6420BD9202C44D00C9AF1
:10E6B800551E302201E0202C3ED001342A55B442A8
:10E6C800F9D1FA064DD57A053FD4002C39D10F9BE4
:10E6D800102B00D179E00F9B022B00D18AE0302368
:10E6E8000C9A012413704B46002B3FD02D230C9A13
:10E6F800135501340C9B62460093039743460296D8
:10E708000194FFF759FF04B0E0BCBA46B146A846E9
:10E71800F0BD012215003D40AA463A422FD04A4694
:10E72800002A02D10C323A4200D0013E9C42BAD2B1
:10E738001F2CABD9202E27D92024FA06DAD57A0542
:10E7480003D4A3422DD0A6422BD00F9B102B32D03E
:10E75800022B20D0202CCDD030220C9B1B191A70F4
:10E768000134202CC6D04B46002BBFD17B070DD4DB
:10E778003B07BFD520230C9A13550134BAE79C42B6
:10E788009FD21F2C00D881E720249AE72B230C9ACC
:10E7980013550134AEE7202CACD00C9B1B19013467
:10E7A8003AE0631E012C92D00F9A102A2AD0022A2E
:10E7B8002FD01C00D0E7BB060ED4202C9AD00C9B7F
:10E7C8001A19013478231370C4E7BB060DD47823D3
:10E7D8000C9A01241370BFE7202C00D18AE7582235
:10E7E8000C9B1B191A700134B4E758230C9A0124A6
:10E7F8001370B1E70C9A603301241370ACE720243E
:10E8080000265EE7023CBA06E9D40C9A12191C00ED
:10E81800D8E70C9A9246534462221A709AE7C04687
:10E8280010B5002800D110BD02F04AFBFBE7C04636
:10E838000B0010B5002802D049681B68984710BD26
:10E84800F0B5DE4657464E464546E0B59BB09B467A
:10E85800249B89469846259B0B900C92404642463D
:10E8680019009A4601F0CDFC002800D0D8E001221A
:10E8780040465146774B524201F0BEFC002800D07A
:10E88800CEE0012240465146734B524201F09EFCB5
:10E89800002800D0C4E0002200234046514601F081
:10E8A80095FC002800D0B9E1424653460A920993E4
:10E8B8008023289ADB001A400E92289A1A4201D126
:10E8C800062326930A9A099B1600134300D0C7E033
:10E8D800289B002500261B0500D49BE100230D93EF
:10E8E800269A0D9B9A4200DC9FE1D01A431E26937C
:10E8F8008023289ADB001A430023002728920D93CF
:10E90800279B0024BB4200D9DC1B0223289A1A400B
:10E918000E92289A134203D07B427B415B421C40F3
:10E928000D9B002B07D00A9809992A00330001F0A3
:10E93800ECFB0A900991002200234046514601F061
:10E9480045FC002805D080200006844609996144CA
:10E958000991289A414B0B9D13400493269B0A9AD0
:10E968000293099B03940092019349465B46280051
:10E978000C9A00F08BF90400002F62D0289B22002B
:10E9880098061F23C0179843631C984649465B4660
:10E998006530A8470D9B0025DA179C18DB0F9A46AF
:10E9A8005440013F01E0202D13D00AAA94461F23AA
:10E9B800200063440A2101355E1901F059F930310C
:10E9C800317020000A2101F053F926000400092EB5
:10E9D800E9D805230693002304930A330393534687
:10E9E80005970B9F029312AB009342465B4649463C
:10E9F80038000195FFF72EFE0E9B0400002B20D057
:10EA08000C9BC51A279BAB421BD91E0022005B46F4
:10EA1800494620200135B8470134AE42F6D810E007
:10EA2800289B42460493279B49460393269B0B98B1
:10EA380002935346009201935B460C9A00F026F924
:10EA4800040020001BB0F0BCBB46B246A946A04655
:10EA5800F0BDC046FFFFEF7FFFFFEFFFFFF7FFFFAF
:10EA6800734B099F9C467800400D604401F0DCFB25
:10EA7800704A714B01F067FB704A714B01F03CFB27
:10EA88003B03704A1B0B1A4304000D0030001100B1
:10EA98006D4B002201F027FB6C4A6D4B01F053FBD4
:10EAA80002000B002000290001F026FB01F0D4FB36
:10EAB8000D9001F0B9FB674A674B04000D0001F0A7
:10EAC80042FB0022654B01F017FB01F0C5FB644ACD
:10EAD8000600644B2000290001F035FB04003000DB
:10EAE8000D000F9601F0A0FB5F4A604B01F02BFB75
:10EAF80002000B002000290001F0F5FA02000B00CB
:10EB080006000F0001F01FFB320004000D003B005F
:10EB18003000390001F0F0FA002210901191544BA6
:10EB28002000290001F0F1FA0022524B01F0E4FA2A
:10EB380002000B002000290001F0E7FA00224E4BEA
:10EB480001F0DAFA02000B002000290001F0DDFADA
:10EB58000D008021040032003B000020C90501F0AF
:10EB6800C2FA02000B002000290001F0C5FA0200D9
:10EB78000B001098119901F0C8FA0022314B01F0EE
:10EB8800BBFA3E4B0F9C9C4664440022230501F0CF
:10EB9800DAFA05000E0002000B000A98099901F044
:10EBA80015FB00280AD00D9B2800013B31000D936E
:10EBB8000022304B01F0A9FA05000E00C6270D9976
:10EBC8002B0063318F42BF4128997F4204370905E2
