:020000041000EA
:1000000000B5324B212058609868022188439860DF
:10001000D860186158612E4B002199600221596106
:100020000121F02299502B49196001219960352056
:1000300000F044F80222904214D00621196600F024
:1000400034F8196E01211966002018661A6600F04E
:100050002CF8196E196E196E052000F02FF8012189
:100060000842F9D1002199601B49196000215960AB
:100070001A491B48016001219960EB211966A021F2
:10008000196600F012F800219960164914480160C1
:100090000121996001BC002800D000471248134993
:1000A000086003C880F30888084703B5996A0420EC
:1000B0000142FBD001200142F8D103BD02B5186610
:1000C0001866FFF7F2FF186E186E02BD00000240BE
:1000D000000000180000070000035F00212200005C
:1000E000F4000018222000A00001001008ED00E03C
:1000F00000000000000000000000000074B24E7A12
:1001000000200420F7010010C3010010C5010010F9
:10011000C1010010C1010010C1010010C101001097
:10012000C1010010C1010010C1010010C701001081
:10013000C1010010C1010010C9010010CB01001065
:10014000CD010010CD010010CD010010CD01001037
:10015000CD010010CD010010CD010010CD01001027
:10016000CD010010CD010010CD010010CD01001017
:10017000CD010010CD010010CD010010CD01001007
:10018000CD010010CD010010CD010010CD010010F7
:10019000CD010010CD010010CD010010CD010010E7
:1001A000CD010010CD010010CD010010CD010010D7
:1001B000CD010010CD010010CD010010CD010010C7
:1001C00000BE00BE00BE00BE00BE00BEEFF3058054
:1001D000103800BEF2EB8871D8020010FC0200104B
:1001E0003402001090A31AE700202249086006C8D4
:1001F00081F30888104720480068002835D10DA4F5
:100200000ECC002902D000F012F8F9E71B491C4A75
:10021000002000E001C19142FCD11A4988471A49E7
:1002200088471A49884700BEFDE701C901C29A42C2
:10023000FBD37047FC020010C0000020609000203B
:100240009C92001060900020509900208C9B001020
:1002500000000420000004208C9B001000100420EB
:1002600000100420000000007047094800F014F856
:100270000047000008ED00E0000000D05099002089
:1002800070B30220A5260020E90B0020992700204A
:10029000575600000000000001B40248844601BC2B
:1002A000604700BF213E002006005250ABB36053B0
:1002B0009097002006005250861C0302A097002051
:1002C000060052505422A29DA897002005005250CB
:0802D000DE65F4688C9B001050
:1002D800CC020010C0020010B4020010B497002035
:1002E800A8020010C0970020CC9700200898002092
:0402F8001498002036
:1002FC00F8B5C0460448054B10B5834203D0044BF7
:10030C00002B00D0984710BD509900205099002028
:10031C000000000006480749091A8B10C90FC918BC
:10032C0010B5491003D0044B002B00D0984710BDDA
:10033C0050990020509900200000000010B5074C87
:10034C002378002B09D1FFF7D5FF054B002B02D0EA
:10035C00044800E000BF0123237010BDA09C0020C6
:10036C000000000060900020054B10B5002B03D05E
:10037C000449054800E000BFFFF7CCFF10BDC046A4
:10038C0000000000A49C00206090002030B50024E8
:10039C0083B00C4804F0D4FF0B4B0C4D01949C63C0
:1003AC002B68002B0CD00021286801AA08F0F4F867
:1003BC00019B2C60002B03D08022054B52051A6048
:1003CC0003B030BD5C920020004003403CB30220DF
:1003DC0004ED00E070B5D02580242D06A4040A207D
:1003EC006C6107F00BFE9620AC61800007F006FEF6
:1003FC00F5E7C04670B5D0250424074E2D060A201B
:10040C006C6107F0FBFD3000AC6104F099FF034810
:10041C0007F0F4FDF3E7C0466C92002060EA0000A0
:10042C00F8B54546DE464E4657464A4BE0B599462A
:10043C00494B00259846494B494C9B465B464946DF
:10044C00EA5C484803F0A6FD464B1878002800D11A
:10045C007CE019000D26434600220027DF5FB246E0
:10046C002023002A26D187422BD0A2691342FCD12B
:10047C0020600A7801310D3A504242410878D2B2DC
:10048C000028EED1EB431B0728D0202F1FD02022B1
:10049C00A3691A42FCD1FF2322602B4229D080236E
:1004AC000135DB009D42C9D1F0BCBB46B246A94622
:1004BC00A046F8BDA2691342DAD0A2691342F9D161
:1004CC00D6E7A2691342FCD152462260CDE7202226
:1004DC00A3691A42FCD10D232360D8E70A2F28D038
:1004EC002022A3691A42FCD10A232360FF232B424A
:1004FC00D5D10D2600220A202023B2461A49002A03
:10050C0010D187421CD0A2691342FCD120600A781A
:10051C0001310D3A504242410878D2B20028BED087
:10052C00002AEED0A2691342F0D0A2691342F9D18D
:10053C00ECE72022A3691A42FCD10D232360CFE7FC
:10054C00A2691342FCD152462260DCE743460027E5
:10055C00DF5F97E77C9200205CB20020001E081041
:10056C0000400340849E00208492002010B50B4C68
:10057C000B4804F0E5FE002301222000082101F0C5
:10058C005FFF2000002101F099FF1420054900F0C5
:10059C000FFE0121142000F0E5FD10BD00400340CA
:1005AC009C9200205D01002070B58379194C1A09CA
:1005BC00950055190F226D0013405B194579238066
:1005CC002B099E009B1915405B005B190579A370E4
:1005DC002B099E009B1915405B005B19E370217180
:1005EC0081780B099D005B1911405B005B186371EE
:1005FC0041780B099D005B1911405B005B18A371DE
:10060C0001780B0998001B180A405B009B18E371DA
:10061C0070BDC04660980020F0B557464E46454622
:10062C00DE460023E0B5984E984F3360984B994CBA
:10063C009946994B85B09846984B9A46502540461A
:10064C0004F07EFE380004F07BFE06F0B7FF382382
:10065C003060A563626B012113404A46136001228E
:10066C000020524207F0F0FE0128E8D11025A369C2
:10067C001D42E3D1A3691D42FCD12368884AD9B23B
:10068C001170A269920624D5622933D0762900D143
:10069C008BE07229EBD180220025824B5201002184
:1006AC0081481D8004F0E2FC802180207F4B4901B1
:1006BC001D80000308F06AFE802280207B495200D6
:1006CC00000308F0A3FE81207949000308F05EFEC8
:1006DC00CCE7FF211940774B00229B5E8B4200D167
:1006EC0097E02022A3691A42FCD16D4B2160197846
:1006FC006229CBD100239B466B465A461A720123C2
:10070C0002AA009306316C4808F0B6FC5B4602AABC
:10071C00682100936848073308F016FD6B4602A861
:10072C00D97AFFF741FF534640211868634A01F01C
:10073C00C1FB534619685F4B087800229B5E9C46B0
:10074C00002816D00D22202393460022002A00D028
:10075C0080E0844500D184E0A2691342FCD1206082
:10076C000A7801310D3A504242410878D2B2002841
:10077C00ECD10D220D209346202300225049002A53
:10078C0075D184457AD0A2691342FCD120600A78D5
:10079C0001310D3A504242410878D2B20028EED1D4
:1007AC003F4B1978762900D073E7424B454800221D
:1007BC009B5E0D229C46934620230022002A2FD1BB
:1007CC008C4534D0A2691342FCD1216002780130EF
:1007DC000D3A51424A410178D2B20029EED10D2294
:1007EC000D209346202300223549002A25D160454F
:1007FC002AD0A2691342FCD120600A7801310D3A4B
:10080C00504242410878D2B20028EED1244B1978DC
:10081C003FE72023A2691342FCD10D23236060E73C
:10082C00A2691342D1D0A2691342F9D1CDE7A269D2
:10083C001342FCD15A462260C4E7A2691342DBD0B2
:10084C00A2691342F9D1D7E7A2691342FCD15A46E7
:10085C002260CEE7A269134281D0A2691342F9D17A
:10086C007DE7A2691342FCD15A46226074E7A26963
:10087C0013428BD0A2691342F9D187E7A2691342C4
:10088C00FCD15A4622607EE73CB3022088920020BD
:10089C003450034000400340AC9200205498002098
:1008AC006DB3022068B302208C9E002044B100205E
:1008BC0081F0FFFF5CB2002020990020609800209E
:1008CC00CC920020B8920020184BF0B5D6469A4630
:1008DC00174B4F4699460123464600259846C0B50E
:1008EC00144F84B0144E02AC43462200257068218C
:1008FC0000933800012308F0BFFB07232200682176
:10090C003800009508F020FC2000E178FFF74CFE41
:10091C0052463068402101F0CDFA4846316804F067
:10092C00B1FDFA20800007F069FBDDE7609800203C
:10093C00C09200202099002054980020802070B58F
:10094C00354D364B2C880022E1180903400102E09A
:10095C000832824223D08B5C013BDBB2FD2BF7D9F2
:10096C002F48304BC17985791C780B022E49240411
:10097C002B43097823431B0209061B0A0B432B4903
:10098C0084785218C17824022143047840792404D5
:10099C00214309020006090A01430AC270BDC023A3
:1009AC005B009C4235D00134A4B280222C801F4DB8
:1009BC0000212800520104F059FB1948194BC27947
:1009CC0086791B7812021B0432431A43164B12020F
:1009DC001978130A090682780B43C1781202114365
:1009EC000278407912041143090200060A0A0243F4
:1009FC00802180200CC50E4D49012C80000308F08D
:100A0C00C5FC8022802029005200000308F0FEFC67
:100A1C00C4E70024C9E7C04668B302208100010086
:100A2C00609800205C9800205D9800208C9E00202F
:100A3C0044B10020F8B5DE46454657464E46E0B573
:100A4C00FFF77CFF0A2007F0D9FAAE4804F078FCD7
:100A5C00AD4B00251B68AD4C9A4601239946AC4B17
:100A6C009846AC4B9B46534641465A5DAA4803F008
:100A7C0091FAA94B1F78002F00D13EE11A000D26E8
:100A8C005B4620210020185EB4460023002B2AD19F
:100A9C00B84222D0A3691942FCD1276013780132E5
:100AAC000D3B5F427B411778DBB2002FEED1EB435D
:100ABC001B0726D020281DD02022A3691A42FCD166
:100ACC002260002D00D19EE080235B00994525D04B
:100ADC0001239C460135E144C5E7A3691942FCD1C9
:100AEC0063462360D6E7A3691942D6D0A36919429D
:100AFC00F9D1D2E72022A3691A42FCD10D2323603D
:100B0C00DAE70A2800D177E02022A3691A42FCD147
:100B1C000A23236080235B009945D9D17F4B0025A4
:100B2C0099467A4C4B464146EA5C7B4803F032FAD4
:100B3C00794B1F78002F00D1DBE01A000D265B46A5
:100B4C0020210020185EB4460023002B00D087E043
:100B5C00B84200D17EE0A3691942FCD1276013781A
:100B6C0001320D3B5F427B411778DBB2002FECD199
:100B7C00EB431B0700D182E0202800D178E0202233
:100B8C00A3691A42FCD1FF2322602B4200D182E0E0
:100B9C00802301359B009D42C4D1614804F0D0FBF9
:100BAC008021604C490120888130000308F0EEFB65
:100BBC005D4804F0C5FB0A2007F020FA5B4804F0FE
:100BCC00BFFBFFF72DFC5A4804F0BAFB80222088AB
:100BDC00584981305201000308F018FC564804F0C3
:100BEC00AFFB564804F0ACFBFFF71AFCF0BCBB465D
:100BFC00B246A946A046F8BD2022A3691A42FCD1F0
:100C0C000D23236080E70D2600220A272023B446FB
:100C1C004B49002A11D1B84216D0A2691342FCD11B
:100C2C0027600A7801310D3A57427A410F78D2B2D7
:100C3C00002F00D14CE7002AEDD0A2691342EFD06F
:100C4C00A2691342F9D1EBE7A2691342FCD16246C7
:100C5C002260E2E7A3691942FCD1634623607AE77C
:100C6C00A369194200D179E7A3691942F8D175E754
:100C7C002022A3691A42FCD10D2323607FE70A28A6
:100C8C002AD02022A3691A42FCD10A232360FF2315
:100C9C002B4200D07CE70D2600220A272023B246E7
:100CAC002749002A11D187421DD0A2691342FCD1D9
:100CBC0027600A7801310D3A57427A410F78D2B247
:100CCC00002F00D164E7002AEDD0A2691342EFD0C7
:100CDC00A2691342F9D1EBE72022A3691A42FCD195
:100CEC000D232360CDE7A2691342FCD1524622604A
:100CFC00DBE75B460020185E3AE75B460020185E97
:100D0C00D5E6C046D0920020589800200040034001
:100D1C007C9200205CB20020849E002000FE1F10FC
:100D2C00E092002068B30220EC9200200093002097
:100D3C00149300208C9E0020249300203C930020D0
:100D4C0084920020F0B52D4BDE464E464546574664
:100D5C0098462B4BE0B59B462A4B83B0994605F041
:100D6C00C5FF002400234246136054600423FA2577
:100D7C009A46254C01906D0052464B461A608022D3
:100D8C00520023681342FCD06068013D0004000C43
:100D9C0004F0F4F81D4904F0EAF804F011F980B2FB
:100DAC0003F088FC434602001E685F680B0003F0EA
:100DBC0014FC32003B0003F0E9FB43461860596019
:100DCC00042007F01BF9002DD6D1434600221868E9
:100DDC0059680F4B03F0E3FB03F0B8FC5B4618605B
:100DEC005960FFF727FE05F081FF0A4A019B9446E4
:100DFC006344181A07F002F9B1E7C046589C00206A
:100E0C00509C002000E0044000C004403333533AAF
:100E1C0000407F40B80B000070B582B004F03EFB80
:100E2C00FA20C00000F046FEE1215E48490201F0C4
:100E3C0043FAFFF79BFB0221002000F0E1F80221AE
:100E4C00012000F0DDF84824002120220D26564B0D
:100E5C00564800255D5F534B002900D08AE0A5421F
:100E6C0000D18FE099690A42FCD11C6001780130F5
:100E7C000D394C4261410478C9B2002CECD10220EE
:100E8C0000F002F9D02304221B065A6208F0B2F9D2
:100E9C001F211B2000F0B4F8002200211B2000F0C1
:100EAC00C7F800211B2000F0DBF8414B1A688023A7
:100EBC005B015340E022D20113403E4A136007F01D
:100ECC00DDFF3D4807F0F6FF3C493D4808F0AAF825
:100EDC000321142000F094F80321152000F090F861
:100EEC00384B394C1B6839481988218004F0CAFAF0
:100EFC00374A238894466344364A1B03591C511ABB
:100F0C00022944D9802149015918D21A1868D050A5
:100F1C0004338B42FAD100240125002380222E4970
:100F2C002E480194009507F0DFF8002380222C490D
:100F3C002C480194009507F0D7F80223C0222A49C7
:100F4C000093120100232948019407F0CDF80023E7
:100F5C008022274927480194009507F0C5F8002303
:100F6C008022254925480194009507F0BDF806F02C
:100F7C0017FEFEE799690A4200D176E799690A42A1
:100F8C00F8D172E799690A42FCD11E606AE78021A8
:100F9C0049015818D21A1978D15401339842FAD110
:100FAC00B9E7C046004003405CB2002050930020DB
:100FBC0000C0044000D0044060980020801A060055
:100FCC00209900205898002068B3022060930020DC
:100FDC00810001008C9E002064930020A50100205C
:100FEC0070930020150B00207C930020E903002057
:100FFC00889300209906002098930020C5010020BA
:10100C00094A830094464022634410B51C68C00012
:10101C006240C02414408022520113431C60034BD5
:10102C009C466044416010BD04C00140004001403A
:10103C000A4B80009C4604236044002901D00C23F9
:10104C000821002A00D10B00026853400C221A40E0
:10105C0080235B01184302607047C04604C0014006
:10106C00084B80009C466044002905D080239B01DE
:10107C001843402303607047C0239B01184340234F
:10108C000360F8E704C001400123D022834012061C
:10109C0093629361094A8300944640226344196821
:1010AC00C0004A40C02111408022520113431960F4
:1010BC00034B9C46052360444360704704C00140C9
:1010CC0000400140024B18688007C00F7047C046B3
:1010DC0000C0064070B5EFF3108C72B60D4D2B6846
:1010EC00002BFCD0BFF35F8F0724CB08C618C05C65
:1010FC0001230C40A3401C000440034207D10343CE
:10110C003370BFF35F8F2C608CF3108870BD1000B0
:10111C0001F05EFC2C0100D00021044B044ABFF30B
:10112C005F8F02C39342FAD17047C046000100D0D2
:10113C00800100D0044A1078431CDBB2172B00D975
:10114C00102313707047C0466898002010B501003A
:10115C00024A0348FFF7BEFF10BDC046A49300200F
:10116C00D49D002001238340002904D0034A13603E
:10117C00034A13607047034A1360FBE780E200E008
:10118C0000E100E080E100E001228240034B1B689B
:10119C0013405A1E9341D8B27047C04600E100E09C
:1011AC00024B10309B688000C058704700ED00E087
:1011BC0070B50D00EFF3108672B60F4A1368002B52
:1011CC00FCD0BFF35F8F0D4B10309B6884001B5914
:1011DC000B4A934203D09D4201D001F017FC074B00
:1011EC009B681D51BFF35F8FBFF35F8F0022024BD3
:1011FC001A6086F3108870BD240100D000ED00E069
:10120C00CD010010F0B5DE4657464E464546E0B5DA
:10121C000C0083B0EFF3108972B6584A1368002B98
:10122C00FCD0BFF35F8F564B9A68030010339F00BE
:10123C00D559544A9046954232D0A54243D0524E8D
:10124C00AA1B2F2A2CD801228240924651464F4A83
:10125C0012681140019151464D4A1160BFF35F8FE6
:10126C00EFF305829346002A33D101232A009A43D7
:10127C0093689C4208D177E04B005B189B00F318F5
:10128C009968A1422AD01A00062151560029F3DA96
:10129C00019B002B19D052463E4B1A603B4B1A60F7
:1012AC00374B9B68DD51BFF35F8FBFF35F8F00221D
:1012BC00324B1A6089F3108803B0F0BCBB46B246BF
:1012CC00A946A046F0BD1500EAE75246304B1A601D
:1012DC00E6E79342C9D001F099FBC6E706215956BF
:1012EC00002921DB4A005018800034188046A06881
:1012FC009860E079D871062020569871002824DB7C
:10130C00A488F01A6405241544440019E02400054F
:10131C00400D24022043988052181F4B9200B6189F
:10132C001A781970B271B3E7594600290FD1FF3101
:10133C0091711A49918018490A789A71184A9B1B25
:10134C005B415A43120D0A70A2E71648E3E7164AAE
:10135C001649D21A083A5002400D0143998014499B
:10136C0052080A43DA8093E70621515613000029EC
:10137C00B8DA5A46002AEAD14546DCE7240100D007
:10138C0000ED00E0CD0100106C98002000E100E0C1
:10139C0080E100E080E200E06CB3022001BDFFFFC1
:1013AC00AAAA000001BD0000A698002000F0FFFFD3
:1013BC0000F8FFFF032310B50400074A18409446B9
:1013CC00C0009C43FC3383406444226881409A43B0
:1013DC0013000B43236010BD00E400E070B5EFF385
:1013EC00058101240443EFF3108C72B6214A136873
:1013FC00002BFCD0BFF35F8F1F4B05001F4AED1A6B
:10140C006D416A43120D1E4D8900AE6852B276587A
:10141C00A6421CD00621595691421CD01221595675
:10142C00914222D01E215956914220D02A21595640
:10143C000324914210D0134B19781A708171BFF3A9
:10144C005F8F00220B4B1A608CF3108870BDAB6859
:10145C000D4C5C50EFE700246100091989005B1802
:10146C00FF21997109499980E5E70124F4E70224E9
:10147C00F2E7C046240100D06C980020AAAA000014
:10148C0000ED00E06CB30220CD01001001BDFFFFA8
:10149C00054B064A1360064A136053609360D36091
:1014AC0013615361936170478080808000E400E099
:1014BC0004E400E0024B9C466144890001607047E3
:1014CC004000003410B50400FFF734FE010020008A
:1014DC00FFF7F0FF01235B426360BFF35F8F10BD2A
:1014EC0010B50400FFF726FE01002000FFF7E2FF15
:1014FC0001235B42636000232372BFF35F8F10BD37
:10150C0083680B4810B5844661446244090112019A
:10151C009A18591854684B6801209C4201D802D083
:10152C000020C0B210BD12680B689A42F9D8F7E7D8
:10153C00FFFFFF0F074810B50268EFF3108172B67A
:10154C001368002BFCD0BFF35F8F04F039FA002036
:10155C00002110BD48B20020F8B557464E4645460E
:10156C00DE46E0B599460CAB1C780DAB1B7806003B
:10157C0090469A460768002C11D1BC7B002C42D0B7
:10158C0065003B682D19033D59194B78BB73002B33
:10159C0000D1FB7300238B704B700B7004E0650063
:1015AC003B682D19033D5919B2682A4B94464246A3
:1015BC00E3181B0163441A604A465A600A9A9A60FF
:1015CC000B9ADA6000238B704B700B707B7B9B4605
:1015DC00002B2BD022005946B8687B6898473A6894
:1015EC00002816D05B4658465B005B445519033BFC
:1015FC00A870D118D35C002B00D06B705B460C70BC
:10160C007B73A34513D0F0BCBB46B246A946A0469B
:10161C00F8BD5B465B005B44033BD3189C705119CF
:10162C00525D002A00D05A705B460B707C734246A8
:10163C004B46307D00F0B6FB051E06D05346002B02
:10164C0003D12100306800F0F9FD0E9B002BDAD09D
:10165C001D70D8E7FFFFFF0FF0B5DE4657464E462C
:10166C0045460023E0B58BB00893674B8200D458F5
:10167C0000239B46099000F00BFB626806000F00EC
:10168C00EFF3108572B61368002BFCD0BFF35F8F9D
:10169C0023689C465B7B9946002B00D169E0A268CD
:1016AC005A4B90464B441B01984443461A685B685E
:1016BC0010001900801BB941002900DC63E0099877
:1016CC0000F070FB0023002298460023069207933B
:1016DC0000239A466368BFF35F8F5A461A6085F3FE
:1016EC0010885346002B08D10028C4D10BB0F0BC95
:1016FC00BB46B246A946A046F0BD089B414618021F
:10170C004B461843D047626806000F00EFF3108574
:10171C0072B61368002BFCD0BFF35F8F002F50DB29
:10172C0033003B4302D02369002B61D12368D97B62
:10173C00002907D04A00521819688C464946624461
:10174C00033A51709A7B002A01D14A469A734A4651
:10175C00DA734B46E168013BCA5C0132CA545B4602
:10176C0023616368BFF35F8F5A461A6085F3108854
:10177C0081E700230022984600230692079300235A
:10178C0000209A46A6E7002902D1002800D096E74F
:10179C000021604600F0D0FC43461A685B68069254
:1017AC00079343469B689A464346DB689846E36832
:1017BC004B44013B1B7808931B020343236100201D
:1017CC0088E72369002BB1D0069A079B921BBB417B
:1017DC00002B15DB594604910121039149460291D6
:1017EC0041460191514620000091FFF7B5FEB6E746
:1017FC0000F04EFA32003B0012184B41002BE9DA94
:10180C000122034B5242E5E790AE0020FFFFFF0F91
:10181C00FFFFFF7F10B5144C6368002B04D00A2126
:10182C001248FFF747FE10BD2300114A1021206813
:10183C0000F09CFB032000F01FFA032000F01CFBBF
:10184C0003200C4900F068FAFFF774FC0A4B9C4625
:10185C0003232375D0231B061B6860446375074B59
:10186C0080006060DC60DAE7B498002048B20020A9
:10187C00D1120020291400204000003490AE00202A
:10188C00F0B54E464546DE465746E0B585B0019369
:10189C0010AB1B78060003930023994698460092E0
:1018AC007268EFF3108B72B61368002BFCD0BFF389
:1018BC005F8F3568AC7B002C3DD067002B683F19DF
:1018CC00033FDB195A78AA73002A00D1EA73B16876
:1018DC00474A8C4600980199A21812016244106084
:1018EC0051600E9991600F99D16042469A705A706E
:1018FC001A706B7B9A46002B67D022001900A868DF
:10190C006B6898472A68002852D0534650465B00B3
:10191C005344D719033BB870D118D35C002B00D0BB
:10192C007B7053460C706B7354454FD0F3681B1986
:10193C00013B187800E000207368BFF35F8F4246CC
:10194C001A608BF31088002C4FD04B46002B08D11B
:10195C000002204305B0F0BCBB46B246A946A046E7
:10196C00F0BD039B002B3ED00E9B00200F99984797
:10197C00030004000D000B4335D000290ADA009A4D
:10198C00019B121BAB4100920193002B0ADB039BC2
:10199C00994685E700F07CF924184D410094019597
:1019AC00002DF4DA0123134C5B4200930194EEE713
:1019BC0053465B005344033BD3189C70D119D25D42
:1019CC00002A00D05A7053460B706C73307D009A0D
:1019DC00019B00F0E7F981460028A7D02100306870
:1019EC0000F02CFCA2E70020B4E701204042B1E754
:1019FC00FFFFFF0FFFFFFF7FF0B54746CE46040009
:101A0C0080B50D0096267642F71736196F4185B0D2
:101A1C008F4215D812D000F03BF932003B00121A5D
:101A2C008B41002B16DC002B39D02000290000F054
:101A3C0063F905B0C0BCB946B046F0BD8642EAD9E0
:101A4C000026002700F024F932003B00121A8B41CB
:101A5C00002BE8DD002302930193124B320000931C
:101A6C0011483B00FFF70CFF0028DEDBB846B146FF
:101A7C000E4F0F4E736A984504D8B26A9145D4D96B
:101A8C009845D2D13A68EFF3108172B61368002BE7
:101A9C00FCD0BFF35F8F380003F05CFFEAE7002A4D
:101AAC00C3D0D7E705130020B498002048B200201B
:101ABC000040054070B5060000F0EAF8FA22040078
:101ACC000D00002330000021920003F019FA0019D8
:101ADC006941002902DBFFF78FFF70BD012001492E
:101AEC004042F8E7FFFFFF7FF0B5EFF30583CE46EA
:101AFC00474680B505000C0085B0002B12D02C4A4F
:101B0C000020536A9C4203D8926A0130AA4204D343
:101B1C0005B0C0BCB946B046F0BDE01A421E9041BB
:101B2C00C0B2F5E7234E02930193234B02000093BE
:101B3C0030000B00FFF7A4FE031EE0DD20BF716830
:101B4C00EFF3108772B60A68002AFCD0BFF35F8FE0
:101B5C00DAB294463068427B62451DD0FF221A40AF
:101B6C0051008946016891448846494641440339ED
:101B7C008978002913D0F1681B0A88464244013A3F
:101B8C001278DBB29A420FD07368BFF35F8F0022DA
:101B9C001A6087F31088B2E7FF221A40EBE732692C
:101BAC009342F1D13161EFE7614600F047FBEBE77F
:101BBC0000400540B498002005130020F0B5EFF369
:101BCC000582D6464F4646461000C0B51038EFF396
:101BDC00108872B6214C2368002BFCD0BFF35F8FAA
:101BEC000123190081401E4D1F006963AA461D4D3B
:101BFC0029601D4D2E78AC463500C5402F402B4238
:101C0C0009D1BFF35F8F276088F31088E0BCBA4618
:101C1C00B146A846F0BD5346144D5F6A83005D592A
:101C2C00AF420ED3124A8E439B5862461670BFF3D6
:101C3C005F8F0022226088F31088002BE6D0984733
:101C4C00E4E70C4B92009C46624413681360BFF3AC
:101C5C005F8F0023236088F31088D7E7280100D01A
:101C6C00004005403C7005406EB302204CB2002091
:101C7C00BC9C0020D03F054010B50100024A03482F
:101C8C00FFF728FA10BDC046C49300206BB30220A6
:101C9C00034B596A0A00986A596A8A42FAD170470A
:101CAC000040054070B504000D00124A536A19003B
:101CBC00966A536A8B42FAD13000190024184D41B0
:101CCC00AB4211D80ED02B000A494A6A9A42FCD377
:101CDC0007D1084A02E0516A994202D1916AA142A5
:101CEC00F9D370BDA642EED9012301246442E51755
:101CFC005B42E9E700400540064A536A9942FCD82A
:101D0C0007D1044B02E05A6A914202D19A6A82428C
:101D1C00F9D370470040054070B504000D00EFF397
:101D2C00108672B61A4A1368002BFCD0BFF35F8F73
:101D3C00002D1BD02000FFF733FA164981420AD040
:101D4C002000FFF735FA01212000FFF70BFA0123E1
:101D5C00A340114A1360114BA400E550BFF35F8FF1
:101D6C0000220B4B1A6086F3108870BD0B4BA2003F
:101D7C00D5500122A2400A4920000B7893430B70E6
:101D8C000449FFF73FFA00212000FFF7EBF9E5E7E4
:101D9C00280100D08D19002038600540BC9C002023
:101DAC006EB30220F0B54F46D6464646C0B5070086
:101DBC002C4C616A0D00A66A616AA942FAD18B4269
:101DCC0008D805D00120E0BCBA46B146A846F0BD03
:101DDC00B242F7D9EFF3108A72B623480168002992
:101DEC00FCD0BFF35F8F0125BD4020491D4C8846B8
:101DFC00097889462943C9B28C4641466046087029
:101E0C00391D1B48890065630A51B9000B50216AC2
:101E1C000020294219D0616A0800A66A616A8142D1
:101E2C00FAD18B4219D801D1B24216D8CC4516D072
:101E3C000C4B1F201D625D6301230740BB400D4A04
:101E4C001E38136043464A461A70BFF35F8F002258
:101E5C00054B1A608AF31088B5E70020F5E70120DE
:101E6C00F3E7C04600400540280100D06EB30220C5
:101E7C004CB2002080E200E0EFF3108C72B60A49FD
:101E8C000B68002BFCD0BFF35F8F01238340074A04
:101E9C000748136202789A430270BFF35F8F0023E6
:101EAC000B608CF310887047280100D0004005406F
:101EBC006EB30220042330B5D3560F4C9B001B5934
:101ECC000025545F87B00594072414570B4D0494D8
:101EDC00062414570394052414570294022414570F
:101EEC00013CA40064590194D27852B20092044A85
:101EFC0002F064F807B030BDB4940020D0940020F8
:101F0C00E893002070B5050014001600002915D0C8
:101F1C000C00002A12D080686B689847296800284A
:101F2C000ED073009B196200033B1219CB18033AB5
:101F3C009C7088188A5C002A15D10670200070BD30
:101F4C0063001B197200033B9219CB18033A9E7065
:101F5C0088188A5C002A02D104703400EEE75A70AB
:101F6C0004703400EAE75A700670E7E730B5836016
:101F7C000023CCB243730133047342608373C47384
:101F8C000D000068012C06D9421C0133DBB2137022
:101F9C0003329C42F9D1FF2129404B0059180023F0
:101FAC0040180338437030BDF8B5CE46474606009E
:101FBC000C0080B5002907D04D0003686D18033D57
:101FCC005A195778002F04D12000C0BCB946B0462E
:101FDC00F8BD7900C91903398846434459788946B4
:101FEC0000215970517073683A002100806898473D
:101FFC003368002814D042469A18947059195B5DC6
:10200C00002B00D053700F70270049463000FFF7AB
:10201C00CBFF390002003000FFF774FF0400D3E758
:10202C00424641465D19AF709A185B5C002B00D09C
:10203C006B701470E9E7C046F0B557464546DE466E
:10204C004E46E0B50D006B0001685B19DF1E040005
:10205C00C85D83B00192CA19002850D043001B18E8
:10206C00033BCB185E78B446002E1AD1019E002E8D
:10207C0042D0E67B002E04D073009B19CB18033B97
:10208C005D70A37B002B00D1A573E57300282FD1C5
:10209C000023537003B0F0BCBB46B246A946A04621
:1020AC00F0BD72006244033A89184A7890460022C7
:1020BC004A7091465A70010032002000FFF722FF4F
:1020CC0043468246002B07D05B0021684344033B08
:1020DC00CB185A78002A16D1424651462000FFF7F9
:1020EC0011FF2168019BCA19002BC2D10028CFD047
:1020FC0043001B18033BCB1800219970C8E7019BC8
:10210C00002BB6D1C4E75000801803380918487862
:10211C00834648464870587041462000FFF7F2FE4F
:10212C00594680462000FFF73FFF41460200200041
:10213C00FFF7E8FE8046CFE7F0B557464546DE464A
:10214C004E46E0B583B00191457B04006B000068FE
:10215C005B19DF1EC15DC219002952D04B005B1800
:10216C00033BC3185E78B446002E1CD1019E002E92
:10217C0044D0E67B002E04D073009B19C318033B9C
:10218C005D70A37B002B00D1A573E573002931D1C1
:10219C00002328005370617303B0F0BCBB46B246F9
:1021AC00A946A046F0BD72006244033A80184278FA
:1021BC0090460022427091465A7020003200FFF780
:1021CC00A1FE43468246002B07D05B0021684344A6
:1021DC00033BCB185A78002A17D1424651462000AF
:1021EC00FFF790FE019B01002068C219002BC0D1A3
:1021FC000029CDD04B005B18033BC318002098700E
:10220C00C6E7019B002BB4D1C2E7500080180338FD
:10221C000918487883464846487058704146200053
:10222C00FFF770FE594680462000FFF7BDFE414681
:10223C0002002000FFF766FE8046CEE770B5040072
:10224C0000292CD0437B8B422ED0056848004018C7
:10225C00033828188278002A21D053009B18033B9E
:10226C00EA5CEE188A4202D11BE0002A08D0530027
:10227C009B18033BEB185A788A42F6D142785A7075
:10228C0000230122837043702000FFF7D5FE617B91
:10229C0002002000FFF736FE6073012000E00020F2
:1022AC0070BD43783370EBE701221900FFF7C4FED1
:1022BC0060730120F4E7C046F8B5CE4647460400EB
:1022CC0080B506200E0000F093FA051E51D0524B3B
:1022DC005249E21853425A418023DB039C46920533
:1022EC004F4B62441A604F4B1A6010008B68984336
:1022FC00FBD1494B8021E3185A4253414A4A5B00B7
:10230C0049009952062000F073FA3100C00001F028
:10231C00F9FEC30932D14022012190466162A362C9
:10232C00256BEB0736D427008026E36A00232C3775
:10233C0076013E4333600620256300F059FA41468E
:10234C00800001F0DFFE236B05009846DB073BD4D1
:10235C006022E36A5A406E23134033604346236382
:10236C00802310229B013B431A60304B23630323D1
:10237C00A3642800C0BCB946B046F8BD2C4A9342B1
:10238C003FD900232B492C4A6162A362256B9046EE
:10239C00EB07C8D52200C02330329B011343234ADC
:1023AC0006201A60666AA26AB601B61800F020FA16
:1023BC00224901F0A7FEB6020100300001F0A2FE96
:1023CC000021FFF76FFCAEE72200C02330329B01E7
:1023DC001343164A06201A60636AA26A9B01994647
:1023EC00914400F005FA4B4614499B02994601F0C2
:1023FC0089FE0100484601F085FE0021FFF752FCE2
:10240C00A6E77F2299018846104001304008190048
:10241C008044030082E7C0460080FCBF00C000403F
:10242C0000E0004000F000405CB20020010300001E
:10243C00FEFF0000FFFF0000C0FF3F004E0E00003B
:10244C000539013AF8B5D2004C0105001443002BB4
:10245C0005D002222243012B2AD105331C432E6BBB
:10246C00F3070BD4EA6A802362406E2414402A00DE
:10247C005B012C3213431C602E63F8BD2A00C02371
:10248C0030329B0113430B4A06201A606F6AAA6A0A
:10249C00BF01BF1800F0ACF9074901F033FEBF02D1
:1024AC000100380001F02EFE0021FFF7FBFBD9E7FD
:1024BC001400D4E7010300004E0E0000F8B54B1ECB
:1024CC009941066B05000C01F3070BD41023E96A44
:1024DC002A004C401C4080232C325B0113431C60AF
:1024EC002E63F8BD0200C02330329B0113430A4A0D
:1024FC001A60476A826ABF010620BF1800F078F99B
:10250C00064901F0FFFDBF020100380001F0FAFDA1
:10251C000021FFF7C7FBD9E7010300004E0E0000B6
:10252C0030B50C2083B000F0B9F9FEF7CBFD0028D4
:10253C000ED0994B994A1A605A609A60DA601A6107
:10254C005A619A61DA611A62954A5A6203B030BDD7
:10255C00944CA06700F0AAF90122934B1A60636CAB
:10256C00012BFCD10322914B1A608E4A936B012BE9
:10257C00FCD1013301218E4A8E480093043300F0C4
:10258C003DF905238C4A009301218C4800F036F963
:10259C008B4B5A68FF2A02D8802252005A60802244
:1025AC007D4C824B21691201854D1A60002907D0A0
:1025BC00606901F0A7FD431C5800C0180338FDD218
:1025CC00E0217F4B02201A681140802252012A43DD
:1025DC0011601968484003210140116004219A6878
:1025EC001142FCD08022802192012A430901116002
:1025FC00802252005A60734B2361734B5968FF2938
:10260C0000D85A600321684A6F4B116002399A68EE
:10261C001142FCD0E0201A681040802252011A436B
:10262C00106018684840032101400220116066497F
:10263C008A681042FCD0802292011343802212013E
:10264C001A608022614B52004A606361604B59688A
:10265C00FF2900D85A6080225E4BE16912015C4D63
:10266C001A60002907D0606901F04CFD431C58002A
:10267C00C0180338FDD2E02255490B681A4080235C
:10268C005B012B431A60802380229B012B43120198
:10269C001A608022414B52004A60E3614E4B5968EC
:1026AC00FF2900D85A6080224C4B216A12014A4DF6
:1026BC001A60002907D0606901F024FD431C580002
:1026CC00C0180338FDD2E02243490B681A4080231E
:1026DC005B012B431A60802380229B012B43120148
:1026EC001A60802380225B004B602C4BD202236249
:1026FC003B4B5968914200D25A608022394B616A37
:10270C001201374D1A60002907D0606901F0FAFCFC
:10271C00431C5800C0180338FDD2E02230490B6826
:10272C001A4080235B012B431A60802380229B017B
:10273C002B4312011A608023DB024B60184B63623F
:10274C00294B5A68FF2A02D8802252005A608022F4
:10275C00264BA1691201244D1A60002907D060692B
:10276C0001F0D0FC431C5800C0180338FDD2E02205
:10277C001D490B681A4080235B012B431A60802390
:10278C0080229B012B4312011A6080235B004B605B
:10279C000E4BA361DAE6C046D89D0020006CDC022B
:1027AC001BB70000008000403CB0004030B000403F
:1027BC00002F685900800240008C864700C0024000
:1027CC0030800040001BB7003C800040405973072C
:1027DC005480004054B000406080004060B0004025
:1027EC006C8000406CB000404880004048B0004015
:1027FC00014B8000C0587047D89D0020F8B50400EC
:10280C0021481D0017000E0001F07CFC010038006F
:10281C0001F078FC069B29041B0319432368002B49
:10282C0020DB1A4B1A4DE21853425A4180235B01AC
:10283C009C461203174B62441A60174B1A60170020
:10284C00AB689F43FBD1C022231D92011A43212365
:10285C002660A06013602368002BFCDA0823E1607B
:10286C001360F8BD3F2322681340B342D9D1A3684B
:10287C001B051B0D8342D4D1EE22E368D202134018
:10288C008B42CED1EDE7C046001BB7000040FDBF28
:10289C0000C0004000E0004000F000408023024AED
:1028AC009B000343D362704700800540AA23064A6D
:1028BC001B0113602F230549D360054B1960536826
:1028CC00002BFCDA7047C0460040024000B0FA0012
:1028DC00006002402C4B2D4A70B51A602C4A2D4BCF
:1028EC002D491A6014008B689C43FBD12B4D2C4E48
:1028FC00B54208D2013E761BB60808CD9847230096
:10290C000134B342F9D1FFF70BFE264A214B1A6072
:10291C00214A9368DB43DB01DD09002BF9D140220E
:10292C00214B224C224E9A675A671A67DA66B442D8
:10293C0008D223682000002B20D00C34FEF7D0FDE9
:10294C00B442F6D31B4E1C4CC022A168300002F0DE
:10295C0093FBA660FEF7E0FBFEF79AFDFEF75AFF2D
:10296C00164C174EB44208D2013E361BB60808CCA2
:10297C0098472B0001359E42F9D170BD0834FEF703
:10298C00A1FDB442D5D3DDE700E00040BFCDFBFE96
:10299C00FE7F3C0000F0004000C000403899002051
:1029AC0048990020FFFFFF0100F00140289900200A
:1029BC00389900200000002000ED00E0489900202C
:1029CC005099002000BEFDE710B5FFF7FBFFC04695
:1029DC000FB400B5084883B002F0B2FC049B002B86
:1029EC0007D005A91800019101F00CFB034802F077
:1029FC00A7FC0120FFF7E6FF009500205C93002068
:102A0C0010B50148FFF7E4FF1095002010B5014800
:102A1C00FFF7DEFF209500209A4200D288547047C1
:102A2C007047C046F8B557464E464546DE46E0B5BB
:102A3C0099460A9B07009A460D9B884693461500BB
:102A4C000B9E9B0710D10C9B9E420DD29D1B14001C
:102A5C000E005D4422004B46013431002020B84763
:102A6C00A542F7D1B0460B9E002E27D044467519CF
:102A7C005346AA1B013E985D21004B46B847002ED9
:102A8C00F6D123002C0098460D9B9B070FD55B4677
:102A9C00E51A0C9BAB420AD94646984622004B4697
:102AAC00310020200135B8470134A845F6D8200064
:102ABC00F0BCBB46B246A946A046F8BD2C00E3E7E5
:102ACC00F0B54F464646D646C0B584B098460EABD8
:102ADC001B78129F994694460D9C109B119EBA0729
:102AEC0025D4002E4BD19C4200D3BFE001223A40AA
:102AFC0092461F2C00D9B8E00C9A551E302201E0EA
:102B0C00202C03D001342A55A342F9D85246002A6E
:102B1C000DD0A6420BD9202C44D00C9A551E302235
:102B2C0001E0202C3ED001342A55B442F9D1FA06EA
:102B3C004DD57A053FD4002C39D10F9B102B00D1E9
:102B4C0079E00F9B022B00D18AE030230C9A0124F0
:102B5C0013704B46002B3FD02D230C9A1355013488
:102B6C000C9B624600930397434602960194FFF731
:102B7C0059FF04B0E0BCBA46B146A846F0BD0122EC
:102B8C0015003D40AA463A422FD04A46002A02D1AF
:102B9C000C323A4200D0013E9C42BAD21F2CABD927
:102BAC00202E27D92024FA06DAD57A0503D4A3429D
:102BBC002DD0A6422BD00F9B102B32D0022B20D025
:102BCC00202CCDD030220C9B1B191A700134202CD8
:102BDC00C6D04B46002BBFD17B070DD43B07BFD5CE
:102BEC0020230C9A13550134BAE79C429FD21F2C18
:102BFC0000D881E720249AE72B230C9A1355013433
:102C0C00AEE7202CACD00C9B1B1901343AE0631EB0
:102C1C00012C92D00F9A102A2AD0022A2FD01C00F5
:102C2C00D0E7BB060ED4202C9AD00C9B1A19013479
:102C3C0078231370C4E7BB060DD478230C9A0124B7
:102C4C001370BFE7202C00D18AE758220C9B1B196C
:102C5C001A700134B4E758230C9A01241370B1E7AD
:102C6C000C9A603301241370ACE7202400265EE735
:102C7C00023CBA06E9D40C9A12191C00D8E70C9A3B
:102C8C009246534462221A709AE7C04610B5002847
:102C9C0000D110BD02F008FBFBE7C0460B0010B5DD
:102CAC00002802D049681B68984710BDF0B5DE4675
:102CBC0057464E464546E0B59BB09B46249B8946FD
:102CCC009846259B0B900C924046424619009A461A
:102CDC0001F0E1FC002800D0D8E00122404651462A
:102CEC00774B524201F0D2FC002800D0CEE00122FA
:102CFC0040465146734B524201F0B2FC002800D0C2
:102D0C00C4E0002200234046514601F0A9FC0028F3
:102D1C0000D0B9E1424653460A9209938023289A7F
:102D2C00DB001A400E92289A1A4201D106232693F0
:102D3C000A9A099B1600134300D0C7E0289B002574
:102D4C0000261B0500D49BE100230D93269A0D9BB6
:102D5C009A4200DC9FE1D01A431E26938023289AC6
:102D6C00DB001A430023002728920D93279B002495
:102D7C00BB4200D9DC1B0223289A1A400E92289AD7
:102D8C00134203D07B427B415B421C400D9B002BCA
:102D9C0007D00A9809992A00330001F000FC0A9028
:102DAC000991002200234046514601F059FC0028AD
:102DBC0005D0802000068446099961440991289A1F
:102DCC00414B0B9D13400493269B0A9A0293099B3B
:102DDC0003940092019349465B4628000C9A00F03C
:102DEC008BF90400002F62D0289B220098061F2329
:102DFC00C0179843631C984649465B466530A84704
:102E0C000D9B0025DA179C18DB0F9A465440013FA6
:102E1C0001E0202D13D00AAA94461F2320006344FE
:102E2C000A2101355E1901F06DF930313170200045
:102E3C000A2101F067F926000400092EE9D80523C0
:102E4C000693002304930A330393534605970B9F71
:102E5C00029312AB009342465B46494638000195FB
:102E6C00FFF72EFE0E9B0400002B20D00C9BC51AE6
:102E7C00279BAB421BD91E0022005B4649462020F3
:102E8C000135B8470134AE42F6D810E0289B4246D3
:102E9C000493279B49460393269B0B980293534616
:102EAC00009201935B460C9A00F026F90400200076
:102EBC001BB0F0BCBB46B246A946A046F0BDC0460E
:102ECC00FFFFEF7FFFFFEFFFFFF7FFFF734B099F44
:102EDC009C467800400D604401F0F0FB704A714B49
:102EEC0001F07BFB704A714B01F050FB3B03704AC5
:102EFC001B0B1A4304000D00300011006D4B002217
:102F0C0001F03BFB6C4A6D4B01F067FB02000B00C0
:102F1C002000290001F03AFB01F0E8FB0D9001F0D4
:102F2C00CDFB674A674B04000D0001F056FB0022F5
:102F3C00654B01F02BFB01F0D9FB644A0600644B96
:102F4C002000290001F049FB040030000D000F9611
:102F5C0001F0B4FB5F4A604B01F03FFB02000B0039
:102F6C002000290001F009FB02000B0006000F00F5
:102F7C0001F033FB320004000D003B00300039003F
:102F8C0001F004FB002210901191544B20002900F9
:102F9C0001F005FB0022524B01F0F8FA02000B0085
:102FAC002000290001F0FBFA00224E4B01F0EEFA52
:102FBC0002000B002000290001F0F1FA0D00802125
:102FCC00040032003B000020C90501F0D6FA0200D3
:102FDC000B002000290001F0D9FA02000B00109818
:102FEC00119901F0DCFA0022314B01F0CFFA3E4B83
:102FFC000F9C9C4664440022230501F0EEFA050068
:10300C000E0002000B000A98099901F029FB002818
:10301C000AD00D9B2800013B31000D930022304B50
:10302C0001F0BDFA05000E00C6270D992B00633187
:10303C008F42BF4128997F420437090500D495E699
:10304C00334300D182E6099C284A2100284B0A9878
:10305C0001F014FB002808D000222100254B0A980F
:10306C0001F0FEFA002800D070E6269B002B00D160
:10307C007CE60E9B5A1E9341269AD31A269375E62C
:10308C00002304270D9371E643460A9380231B0605
:10309C005344099342E6002326935FE601FCFFFFAD
:1030AC00FB799F501344D33FB3C8608B288AC63F2B
:1030BC000000F03F0000F83F61436F63A787D23FE9
:1030CC0071A379094F930A400000E03F1655B5BB38
:1030DC00B16B0240EF39FAFE422EE63F00002C4065
:1030EC000000244000001840FF0300002D431CEB9F
:1030FC00E2361A3F80842E41F0B54E46DE465746E6
:10310C004546E0B597B09946209E219F229B834669
:10311C00984607910C923B0032003000390001F0C8
:10312C00BAFA002800D0A9E1012230003900CA4BBC
:10313C00524201F095FA002800D0E1E00122300063
:10314C003900C64B524201F0A1FA002800D0B7E07A
:10315C00002230003900C24B01F098FA002800D050
:10316C0099E0002230003900BE4B01F079FA0028BA
:10317C0000D090E0002200233000390001F070FAFA
:10318C00002800D0B1E000230D93249B5B0501D4F3
:10319C000623984608AB9C46172200243023414650
:1031AC00624404E0013413550139202C01D0092963
:1031BC00F8D888463000390001F098FA4346DA0016
:1031CC00A94B05009B181A685B680892099301F0DB
:1031DC0075FA02000B003000390001F0CEF9089AA4
:1031EC00099B01F0FAF90A900B9101F0A3FA8246BF
:1031FC0001F060FA02000B000A980B9901F0BDF97E
:10320C0000229A4B0A900B9101F040FA002800D151
:10321C00C0E001239C46E244504601F04BFA020008
:10322C000B000898099901F021FA002802D000231C
:10323C009A4601354346002B6AD008AB17269C46AC
:10324C0008956644554614E001235B4243440A2129
:10325C0028009A4600F056FF013430313719397086
:10326C0028000A2100F04EFF092D00D8D0E0D046EE
:10327C000500202CE8D10EAB98460323249A13406A
:10328C00012B00D196E02023249A01930392239AD8
:10329C00434602921EE0249B58460493239B0096BF
:1032AC000197039343460C9A029307994B46FFF7F9
:1032BC00FDFC17B0F0BCBB46B246A946A046F0BD1B
:1032CC00249B5B070ED40322694B24990192039132
:1032DC0023990291009358464B460C9A0799FFF795
:1032EC00A1FBE6E70422634BEFE73B003200002032
:1032FC00002101F042F9012306000F000D9344E771
:10330C00249B0393239B0293042301935A4BE1E7E1
:10331C00280001F0D3F902000B003000390001F055
:10332C002CF9524B002206000F0001F099F90EAB5C
:10333C00984600280AD10022300039004B4B01F08E
:10334C00A5F9002802D1EB0700D50135202C94D02B
:10335C0008AA94461723280063440A2101341E1935
:10336C0000F0A8FE3031280031700A2100F0A2FED6
:10337C00051EEBD10323249A1340012B1BD0202CC8
:10338C0000D180E70D9B002B35D02D224146631CCC
:10339C000A5579E700220A980B99344B01F060F931
:1033AC00002800D046E75346002B51D101239C4600
:1033BC00E2443FE72024239B002BE0D00D9B002B05
:1033CC0003D1249A0C33134202D0239B013B239349
:1033DC00239BA342D3D908AB9C46172230236244CB
:1033EC00202C00D14FE72399013413558C42C6D0C1
:1033FC00202CF8D147E7249B5B0724D4249A230084
:10340C00120700D440E72022414601330A553BE71E
:10341C005746089D202C00D12DE722003021404634
:10342C00002F09D00132B154202A00D123E7D34315
:10343C001B191B18002BF5D10EAB98462E234146B9
:10344C00541C8B5482E72B224146631C0A551BE704
:10345C00DB0700D4EEE6A9E7FFFFEFFFFFFFEF7FEE
:10346C0065CDCD4165CDCDC1289700200000E03F52
:10347C002C950020309500203C950020249B039334
:10348C00239B029303230193004B23E738950020E1
:10349C00F0B5DE464E4657464546E0B59FB01C009B
:1034AC00289B91460993C94AC94B8B4608901A60D0
:1034BC00002900D118E2002320789A46002800D178
:1034CC001AE226001D005C460AE02A006F1C4B46DF
:1034DC00089D2100A8473D0001363078002870D0A7
:1034EC002528F2D110239B46083B9A46043B98466C
:1034FC00023B00219C46721C107816000300203BF6
:10350C00DBB2102B03D8B34F9B00FB589F46030034
:10351C00303B092B32D900230A932A2868D0002388
:10352C0098462E283ED00300683BDBB2122B1CD8E9
:10353C00A94A9B00D3589F46012301321943DBE76C
:10354C00634601321943D7E7434601321943D3E7A7
:10355C005B4601321943CFE7534601321943CBE79F
:10356C0080235B007078194301360300253BDBB2E6
:10357C00532BAAD8994A9B00D3589F460027030087
:10358C00B800C01901364000C018337830381A0022
:10359C00303A0700092AF3D90A90180000239846FC
:1035AC002E28C0D180237078DB0019430300303BF8
:1035BC00721C092B00D8A1E12A2800D1B2E1160017
:1035CC00B1E7A346AA462C00D14503D801235B42A0
:1035DC004B449A464B46524659460020089DA847F4
:1035EC0020001FB0F0BCBB46B246A946A046F0BDB9
:1035FC00099B40CB0A96002E03DB50780993561C8E
:10360C008DE72838014370420A9009935078561C74
:10361C0085E7782800D1DFE1582800D14CE26F28EB
:10362C0000D14FE3622801D100F030FC10230A00D6
:10363C009A430B92692801D000F0A9FC0A230C9341
:10364C004B0500D5D0E10B9A802311009B0019404B
:10365C008B461A4200D0A1E2802311005B00194076
:10366C008A461A4200D0B6E313005B0600D5EDE2A1
:10367C00130009991B0601D400F076FC08C91BB293
:10368C00D8171A18424092B209919346DA0F129247
:10369C00002B09D1802310220B99DB000B409143A6
:1036AC000B91002B00D0E4E20B9A6123920600D51B
:1036BC0041230EA91F228C46DBB262440A3B5F46B3
:1036CC001395A34655460C9CB2460D9316000AE082
:1036DC003033DBB201357355A74200D2EDE2202D19
:1036EC0000D1EAE207002100380000F00BFDCBB25C
:1036FC000929EDD90D9A94466344DBB2EAE780239D
:10370C009B007078194301362FE77078682800D138
:10371C00CDE180230136194327E770786C2800D15E
:10372C00BFE180235B00194301361EE7462800D118
:10373C009BE10722099B0491073393430A9A1900D2
:10374C000392424602920CC9089800920193099187
:10375C002A004B462100FFF7CFFC01360500BCE6E2
:10376C002A006F1C4B46089D21002520A8470136D6
:10377C003D00B2E68B0700D4ADE1099B2A009A46C6
:10378C006B1C9846534601CB21009A46089F4B462A
:10379C00C0B2B8470A9B9C466544012B00D886E210
:1037AC00089B4746B04626004C4699463A002300F3
:1037BC00013731002020C847AF42F7D1A14653460C
:1037CC00340046460993013687E6C0466132002034
:1037DC008CAE00204495002088950020D4950020C4
:1037EC00099B04CB9B4643460992002B00D1C6E0B3
:1037FC0013789C46002B00D1BDE34346013B099A4C
:10380C000133D0180A9F130001E0834203D05A7889
:10381C000133002AF9D1099A0A979B1A0B9380233A
:10382C000A00DB001A400C92194204D00B9B434552
:10383C0001D943460B9302231A000A400D920B4206
:10384C0000D187E16046002800D168E10C9B002B79
:10385C0000D10DE1A844C246099B57465B1B984614
:10386C00089BB2462A0026004C46994609E02300E4
:10387C003100551CC8474346585D002800D126E14D
:10388C002A009742F3D1A1463D00340056460D9BC9
:10389C00002B00D043E15B46013609931DE6099BE2
:1038AC001A0008CA9246002B48D0212211438B469D
:1038BC000EA884461F216144099500220F27A446B7
:1038CC000D0002E0202A0CD00B003C001C40200014
:1038DC003730092C00D807380132A85419090F2B9E
:1038EC00F0D86446099D32E0DC4B20780893002325
:1038FC009A46002800D0E4E5002465E6434606001D
:10390C000A9F9800C01801324000801916780300F5
:10391C0030003038303B0928F3D930009846160077
:10392C000A9700E6099B023604CB9046D2434046E8
:10393C00D2171040804609933078F4E51022080025
:10394C00904311321043834600224905B0D55B46A3
:10395C0006930823059343460493102303930023F3
:10396C00029316AB019200932A004B462100089853
:10397C00FFF7A6F85346050001360993ADE5137819
:10398C009C46002B00D1F7E202235B4237E7202351
:10399C0002009A43472A04D180231B0119430223B6
:1039AC009843452801D1202319430722099B0491F0
:1039BC00073393430A9A19000392424602920CC9A8
:1039CC0008980092019309912A004B462100FFF7B9
:1039DC006DF90136050080E510230C930C230A00C9
:1039EC009A430B924B0503D501230B9A9A430B92E6
:1039FC00692800D127E6642800D124E60B9A80239D
:103A0C0011009B0019408B461A4200D066E18023BE
:103A1C0011005B0019408A461A4200D039E21300AB
:103A2C005B0600D53CE113001B0600D4A6E2099B03
:103A3C0004CB1204120C934609935B46002B00D066
:103A4C009AE10B9A1033110099430B91520500D453
:103A5C0092E100239A460B9B06930A9B05934346DF
:103A6C0004930C9B039300230CE12023194360E681
:103A7C00099B0A9A5B1B98464B4691461F00B2461F
:103A8C002600089C2A003B003100A0474346013524
:103A9C00585D0028F6D14A463400B94656460A927B
:103AAC00F5E6C0239B00B078194302365DE5C023D0
:103ABC00B0781943023658E50C230A009A431433A4
:103ACC001A43103B0B920C934B058DD496E7A146F1
:103ADC0034005646DBE60A9A012A00D853E26B1EE4
:103AEC009F18089BB04626004C4699462A00230096
:103AFC00013531002020C847BD42F7D1A146340022
:103B0C004646099B3A0001CB210098467D1C4B464A
:103B1C00089FC0B2B847434601360993DDE40B9BBE
:103B2C000A9AA8469A4200D8B5E694466544ED1A1E
:103B3C00089B4746B04626004C4699463A0023005F
:103B4C00013731002020C847AF42F7D1A1463400DD
:103B5C004646A0E60B9A0A99531C914200D814E2EF
:103B6C004B199B1A1F00089BB24626004C469946DF
:103B7C002A002300013531002020C847BD42F7D16F
:103B8C000A9BA14601330B93099B34001B785646C4
:103B9C009C466046002800D058E67CE60722099B2C
:103BAC0007339343013294469C4462465F68099202
:103BBC001A68FB1710931193109811990300534036
:103BCC000E930B007B400F9394460E9A0F9B121A88
:103BDC008B410E920F93FB0F6246129300233A43D4
:103BEC009B463DD00B9A6123920600D541230022BF
:103BFC00DBB20EA90A3B8C4692460D9343461F320C
:103C0C0062441395159655460E9E0F9FA2469046FC
:103C1C000C9C14930CE03032D2B2434601355A5509
:103C2C00BB4500D18AE1202D00D18AE106000F00AE
:103C3C00220000233000390000F0A2FAD2B2092A87
:103C4C00E9D90D9B9C466244D2B2E6E7FF23099961
:103C5C0004C913401A00099117E5C046F12700204A
:103C6C000B9A1033110099430B915205BAD50023CE
:103C7C009A460B9B06930A9B0593434604930C9B15
:103C8C000393129B02935346019316AB2A000093A5
:103C9C0021004B460898FEF713FF013605001CE483
:103CAC00FF22099B02CB11408B460993C5E6534674
:103CBC00454609930136FFF710FC56465C46AA466A
:103CCC00139DD6E708230C930B910B99642800D015
:103CDC0084E60B9B5B0500D586E6B4E40722099BC2
:103CEC0007339343013294469C44624609921A6806
:103CFC005B6810009B4613005A46134307D10B9A7E
:103D0C001033110099430B91520500D5A1E60B9A83
:103D1C006123920600D541230022DBB20EA90A3B97
:103D2C008C4692460D9343461F3262445F46129571
:103D3C00A34655460400B24690460C9E13930DE0E4
:103D4C003032D2B2434601355A550023BB4200D122
:103D5C0000E1202D00D100E104000F00320000230F
:103D6C002000390000F00CFAD2B2092AE8D90D9BD8
:103D7C009C466244D2B2E5E70B9A6123920600D5C9
:103D8C004123DBB20EA90A3B1F228C460D93230064
:103D9C0062445C461295170055469B46B2460C9EF3
:103DAC0008E03033DBB201357B55B4420ED3202D05
:103DBC000CD004003100200000F0A4F9CBB209298A
:103DCC00EFD90D9A94466344DBB2ECE756465C4659
:103DDC00AA46129D3FE6099B1A0008CAD9171392EE
:103DEC005A184A409246DA0F1292002B08D18023BF
:103DFC0010220B99DB000B4091430B91002B2BD124
:103E0C000B9A6123920600D541230EAA1F279446D4
:103E1C00DBB20A3B0D9567445D460993A3465446B5
:103E2C00B2460C9E08E03033DBB201357B55B44210
:103E3C000ED3202D0CD004003100200000F062F9CC
:103E4C00CBB20929EFD9099A94466344DBB2ECE76B
:103E5C0056465C46AB460D9D0B9B2A0006930A9B6F
:103E6C0021000593434604930C9B08980393129BE3
:103E7C00013602935B46019316AB00934B46FEF75B
:103E8C001FFE139B05000993FFF727FB02230C93DE
:103E9C001AE7099B04CB92461293002A08D180237F
:103EAC0010220B99DB000B4091430B91002B2BD173
:103EBC000B9A6123920600D541230EAA1F27944624
:103ECC00DBB20A3B0D9567445D460993A346544605
:103EDC00B2460C9E08E03033DBB201357B55B44260
:103EEC000ED3202D0CD004003100200000F00AF974
:103EFC00CBB20929EFD9099A94466344DBB2ECE7BB
:103F0C0056465C46AB460D9D0B9B2A0006930A9BBE
:103F1C0021000593434604930C9B089803930023BC
:103F2C0002935B46019316AB00934B46FEF7C8FD1C
:103F3C00129B050009930136FFF7CFFAB44200D863
:103F4C0071E6149B54460E960F97AA469846159EFA
:103F5C00139D8EE6A64200D8FBE6139B5646984668
:103F6C00AA465C46129D76E508C9D8171A18424035
:103F7C000991FFF78AFB00230B9350E4099B04CBB8
:103F8C009346099359E52F00BBE50B9301E6063BDD
:103F9C000C939AE60EB4012210B585B007AC08CC90
:103FAC0001000094524204480394FFF771FA05B0E3
:103FBC0010BC08BC03B01847E92700200CB410B59E
:103FCC0084B006AC08CC0A000094010004480394A9
:103FDC00FFF75EFA04B010BC08BC02B01847C0462C
:103FEC00E927002000B585B00391012102900093D0
:103FFC00034813004A4202A9FFF74AFA05B000BD74
:10400C006D2A002010B5094A0300146884B0002CF6
:10401C0008D0012200910648524203A9A047012072
:10402C0004B010BD01F08CF90020F9E78CAE002033
:10403C005D2A002001480421014B1847E09800201C
:10404C00413E0020014B5B6818470000E0980020BF
:10405C00142310B50100188804331B88984710BD31
:10406C00162310B50100188802331B88984710BD21
:10407C00F8B54746CE4680B50F1E19D01423994685
:10408C00043304000025012698464B461888434605
:10409C0021681B88984701C4431E98410135404252
:1040AC000640AF42F1D13000C0BCB946B046F8BDB5
:1040BC000126F8E7124A936F9B0815D29066D166D9
:1040CC00002905D0FFE7FFE7FFE7516F106F70473E
:1040DC0004B580210906C2175140002800D0C843FE
:1040EC0005F0A4F8002104BDF0B5146E556E576FA1
:1040FC00166FFFF7E3FF1466556657671667F0BD3A
:10410C00000000D0114A936F9B0813D210665166C1
:10411C00002905D0FFE7FFE7FFE7516F106F7047ED
:10412C0004B5002801D00020C04305F07FF8002121
:10413C0004BDC046F0B5146E556E576F166FFFF781
:10414C00E5FF1466556657671667F0BD000000D092
:10415C0094464A4A926F9208624601D228E0C046C1
:10416C00F0B5464E346E756E776F366F00F020F8F2
:10417C009446424A14665566576716676246F0BD08
:10418C0094463E4A926F9208624601D254E0C04671
:10419C00F0B53A4E346E756E776F366F00F04CF8A2
:1041AC009446364A14665566576716676246F0BDE4
:1041BC00002B24DB11D000293EDA00B5C943404264
:1041CC0000D1013100F038F8C943404200D101312F
:1041DC00DB43524200D1013300BD002AEBD1002851
:1041EC0001D1002905D00020C90FC90701D1C04356
:1041FC00410800B505F01AF80022002300BD00B5F7
:10420C0000290ADBDB43524200D1013300F014F8E1
:10421C00C943404200D1013100BDC943404200D1E5
:10422C000131DB43524200D1013300F005F8DB438E
:10423C00524200D1013300BD002923D1002B18D1EB
:10424C00002A0CD0BC460D4F38667A66002100233C
:10425C00FFE7FFE7FFE77A6F386F67467047002884
:10426C0001D00748010000B504F0E0FF0022002354
:10427C0000BD02000B00002000217047000000D0A0
:10428C00FFFFFFFF002B00D0BFE0130C28D1002A4A
:10429C00E7D080B4114F39667A66FFE7FFE730B498
:1042AC00040C7B6F396F1B0423433B667A66FFE774
:1042BC00FFE7FFE7C04684B27B6F3D6F1B042343CF
:1042CC003B667A66FFE7FFE7C04600232C042D0C03
:1042DC007A6F386F00196941B0BC7047000000D08C
:1042EC00F0B594460025140E01D112020835140FB6
:1042FC0001D112010435940F01D192000235D40F73
:10430C0001D152000135D40B0134254F7C66254C6C
:10431C003C660E0C93B2FFE7FFE7FFE73C6F66438A
:10432C00360C7703BE467343DF0B5B04C01AB941EE
:10433C00130C7343DB18C91ACE086643360CB6440B
:10434C0093B273431F0F1B01C01AB941130C734373
:10435C001F0B1B05C01AB941860D8F023E436643E5
:10436C00360C092D24DB520A7243801A7703460A55
:10437C006643360C16235B1BDE40DF40BF196446D8
:10438C006643821B7046043506330100D940A840B1
:10439C00C01900D30131A24206D20023F0BD0000A7
:1043AC00000000D0FFFFFFFF121B0130F3D3F1E739
:1043BC0009277F1BFE406446A2B27243801A00D2CA
:1043CC000139220C7243130C1204821A99410B000E
:1043DC007046043513370100F940A840801900D30A
:1043EC000131002B02D1A2420AD2F0BD013000D320
:1043FC000131121BFAD2013BF8D1A24200D2F0BD1E
:10440C00013000D30131121BF7E7F0B51C0C00D0C2
:10441C0080E00CB400251C0A04D11B02160E334399
:10442C00120208351C0B04D11B01160F3343120169
:10443C0004359C0B04D19B00960F3343920002353C
:10444C00DC0B02D192185B4101351C0097186441BA
:10445C000134464F7C66464C3C660E0CFFE7FFE78A
:10446C00FFE7C0463C6F6643360C7703BE4697B2F7
:10447C007743C01B00D20139C01B00D201399FB257
:10448C007743C91BC91B170C77437E04FF0B801B9A
:10449C00B941CE086643360C0C2D33DBB644120BF7
:1044AC001F053A431B0B97B27743C01B00D201394F
:1044BC009FB27743C91B170C77433E043F0C801BFC
:1044CC00B941860D8F023E43664329277F1BFE4070
:1044DC000C3D7746AF40BF1930BCA2B2ABB27243B1
:1044EC007343801A9941220C7243130C1204801AE4
:1044FC00994102000B000137001BA941F9D2781E2B
:10450C000021F0BD0C277F1BFE4077467F0BAF4090
:10451C00FF19E0E700245D1C07D0144F7D66396657
:10452C00FFE7FFE7FFE7FFE73C6F95B29EB26543FD
:10453C006643401BB141150C1E0C654366433604A3
:10454C002F0C3E432D04401BB141994204D2020072
:10455C000B0020000021F0BD01D19042F7D3801A4E
:10456C00994101349942F2D3F6E70000000000D0E3
:10457C00FFFFFFFF48404140484018B41B4B5B68AD
:10458C00FC46019308BD04DFFB45002018B4174B13
:10459C001B68FC46019308BD00DF054600209446CD
:1045AC00134A926F920809D2624618B40F4BDB681B
:1045BC00FC46019308BD0CDFBD4800200C4AF0B549
:1045CC00146E556E576F166F6246FFF7EEFF084A72
:1045DC001466556657671667F0BD18B4034B9B6895
:1045EC00FC46019308BD08DF61470020509A00206B
:1045FC00000000D0FFB550404240504059404B4065
:10460C00594000E0FFB5154F4C00640D03D0BC427F
:10461C0004D10C0314D80020090D09055C00640DAD
:10462C0003D0BC4204D11C030AD800221B0D1B056D
:10463C0001264B4009D44B4003D58B4200D182421A
:10464C00FFBD9942FCD19042FFBD0B43DB180343E5
:10465C001343F5D0C9434918FFBD0000FF07000004
:10466C0000B5FFF7CFFF804100BDC04600B5FFF796
:10467C00C9FF01D9002000BD012000BD00B5FFF726
:10468C00B9FF01D9002000BD012000BD00B5FFF726
:10469C00B1FF804100BD012040054A00121804D82A
:1046AC005A00121801D800207047012070470020D2
:1046BC00704700000021002805D17047C117484001
:1046CC00401AFAD0C90713B5064B1B6898470CBCA7
:1046DC00441CA2401005120B0349091B0905194380
:1046EC00114310BD44B200201F04000010B54C0053
:1046FC00620D8023D218DB00D21A5B057E2A10DDF6
:10470C009E3A13DACC170903490819435242D14097
:10471C00640001341532202A05DAD0400843604386
:10472C0010BD002010BD0846604310BDC80FC01856
:10473C00013810BD18B4044B5B6AFC46019308BDEC
:10474C0024DF154C00200000509A002018B4044BB4
:10475C009B69FC46019308BD18DF894A00200000C4
:10476C00509A0020132370B51D78012D15D010DD43
:10477C001C48FFF775FC1C4C01008022200000F047
:10478C007BFC022D06D01948FFF762FC184B186011
:10479C0070BD154C174BA364F5E7164B124C2360F8
:1047AC006360A360E36023616361A361E3612362DF
:1047BC006362A362E36223636363A363E3632364BF
:1047CC006364A364E36423656365A365E36523669F
:1047DC006366A366E36623676367A367E367A36403
:1047EC00D1E7C04653440000509A00204C330000DF
:1047FC0044B20020C945002007B5604601880A0A6A
:10480C000230DF2AFAD1C9B2820804D30288408868
:10481C000004104300E00068014A5050039007BDAB
:10482C00509A00200FB403BC0CBCF0B50124E40773
:10483C00634000E0F0B50C0DCF0F661E3605891BEA
:10484C00640503D3C943404200D30131640D03D046
:10485C00661CF60A07D0E41B00207F00791C890730
:10486C008912803C24031D0DDF0F6E1E36059B1B29
:10487C006D0503D3DB43524200D301336D0D03D0DE
:10488C006E1CF60A07D0ED1B00227F007B1C9B07D9
:10489C009B12803D2D032F1B661B58D4A446202E43
:1048AC0046DA20371400BC401D00BD40F2403341B5
:1048BC002A4380185941CB0F05D0C943C04300226D
:1048CC0064425041514162464D0D28D10D0D07D126
:1048DC0000281FD0241940414941013A0D0DF9D04F
:1048EC00640006D3013000D30131002C01D1400803
:1048FC004000013A0BD4941CE40A04D11205114473
:10490C00DB071944F0BDD907204B194300E0D90748
:10491C000020F0BD0029DDD1002CDBD1F0BD01322F
:10492C00C6074008CD0728434908002EE1D0D9E737
:10493C003C2E29DA203E40371400BC4000D0012424
:10494C00F24014431A00BB401C43D317ACE7AC46EF
:10495C00202F08DA20360400B4400D00B540F84092
:10496C0039412843A5E73C2F0CDA203F40360400A0
:10497C00B44000D00124F84004430800B1400C437B
:10498C00C117EAE710001900002494E70000F07F3B
:10499C00F0B50C0D661E3605891BE60A6405640D20
:1049AC0002D0651CED0A04D0002001210905803CD1
:1049BC002403A4461C0D671E3F05DB1BE70A640598
:1049CC00640D02D0651CED0A04D0002201231B05E6
:1049DC00803C24037740644497B484B296B2744309
:1049EC00070C7E43150C6F4380B26843361802D314
:1049FC00012000043F183004350C00197D41844619
:104A0C0088B29AB250430C0C62431F0C7C438EB29A
:104A1C007E43921902D301263604A4191604170CEE
:104A2C003618674101BC81B29AB25143040C6243FF
:104A3C001B0C5C4380B25843121802D301200004B3
:104A4C0024181004130C401863412D185E410020EB
:104A5C00474106BC88B293B258430C0C6343120C0A
:104A6C00544389B251435B1802D3012109046418E1
:104A7C0019041A0C091862416D185641002047415F
:104A8C0018BCF902720D1143F0026A0D1043ED02CD
:104A9C000A0D03D16D1940414941013B124E9B1B3C
:104AAC007600B3420ED26D0007D30130002671415F
:104ABC006646354301D1400840001B05C918E40780
:104ACC002144F0BD0BDA013306D1013004D10131A0
:104ADC004F0D01D04908F2E7E1070020F0BD013687
:104AEC0031050020EBE70000FF030000F0B51C0DC2
:104AFC00671E3F05DB1BE70A6405640D02D0661CCC
:104B0C00F60A04D0002201231B05803C2403D02587
:104B1C002D060026F6432E661E096E66CE0FF6197C
:104B2C00B44649004F0D02D07E1CF60A03D000207B
:104B3C000021403F3F033E1BB600B444013F7F05BC
:104B4C00C91B49082E6F013676089C02950D25432A
:104B5C007543ED137543AD1301356D10F603761BDC
:104B6C000CB4CC02450D2C43A2B2B3B25A43270C61
:104B7C007B43350C6F43A4B26C431B1902D3012445
:104B8C0024043F191C041D0CA4187D4124196D41EB
:104B9C00009A91B2ACB26143170C7C432B0C5F436F
:104BAC0092B25A43A41802D301221204BF18220451
:104BBC00230C52187B41019C6C431B19520ED901DA
:104BCC000A434401A01A81B2B2B2514303145A43AE
:104BDC00360C734387B27743D617D21900277E4120
:104BEC0036049B191704160C7F185E417316ED18CA
:104BFC00F301002680337541A90F06D16400690AC0
:104C0C00E8055B0A184309D22FE004229444803350
:104C1C007541A90AA8059B0A184326D3404149416E
:104C2C002404009A019B0D005543641B4343E41A72
:104C3C0095B286B27543170C7E43030C5F4392B258
:104C4C005A43B61802D301221204BF183204330C93
:104C5C0052197B4152429C41002C02D4002201305B
:104C6C0051414008CA071043490802B06246D707B1
:104C7C009210084BD218084B9A4203D2120589188D
:104C8C00C919F0BD0020002A01DC3900F0BD013348
:104C9C001905F5E7FD030000FE07000007DA002107
:104CAC0007E0C90FC907520D03D0C91201E04C49E6
:104CBC00090500207047C0464A00F2D2520D013A55
:104CCC00484B9A42EAD2F0B51405091B520801D39D
:104CDC00001849419B08D2181205944640A44A0C6E
:104CEC00A25C0B09534353431B1353435B13120234
:104CFC00D21A13005B435B0B4C086343DB13534327
:104D0C00DB1501335B10D21A130CD21A13005B4360
:104D1C008902840D21438DB29EB275430F0C7E43E4
:104D2C001B0C5F438CB25C43361902D30124240460
:104D3C003F193404330C64197B419D01A40E2C43A0
:104D4C002034A5B25543241454432D0C6419A411DA
:104D5C00D203121B95B28EB27543170C7E430C0C0A
:104D6C00674393B26343F61802D301231B04FF1865
:104D7C003304340C5B197C41DB186441DB180023D1
:104D8C0063419EB276439DB21F0C7D437F436C04FE
:104D9C00ED0BA4197D4106028F08361BAF417D0730
:104DAC00F6086E41B4B295B26C4337147D43120CC5
:104DBC005743B6B25643EA17AD1900267241120496
:104DCC00BF182E042A0C36197A410832521117D208
:104DDC009D0A9C05D117101969416144F0BD000072
:104DEC00FF070000FE070000F8EBDFD6CDC5BEB80C
:104DFC00B2ADA8A4A09C9995928F8D8A8885838149
:104E0C0052415D0ADC05D11714194D412B00634347
:104E1C00A6B27643A2B2270C7A437F435104D20B3D
:104E2C0089197A41D218D21880054942904102D48E
:104E3C00002301345D4160086908ED072843614493
:104E4C00F0BDC046002200B5203200F004F8080086
:104E5C0000BD000000220B150AD410B5944600F0DA
:104E6C0031F81414013400DA0021CB17144C20470C
:104E7C000020002170476244343A0CD40C2A07DA23
:104E8C0004009140904052422032D440214310BD46
:104E9C00D843D94310BD203207D40C46944052421B
:104EAC0020321141D040204310BD0800C9172032D8
:104EBC0003D452422032104110BD1800190010BD0D
:104ECC00474C00200A0DCC0F531E1B05C91A520566
:104EDC0003D3C943404200D30131520D03D0531CBC
:104EEC00DB0A07D0121B00206400611C89078912A1
:104EFC00803A1203014BD21A70470000FF030000E6
:104F0C0051434343C9188C46110C83B24B4310B424
:104F1C00040C614392B280B2504362431C041B0CDC
:104F2C00001910BC59411304120CC01851416144B2
:104F3C00704700004840414048400E4B5B681847A2
:104F4C000C4B1B6818470C4A936F9B0802D2094BF9
:104F5C00DB681847F0B5146E556E576F166FFFF778
:104F6C00F6FF054A1466556657671667F0BD014B88
:104F7C009B681847509B0020000000D0C10FC90748
:104F8C0000D54042002817D0F44603B40B4B1B68E5
:104F9C00984706BC81409E384042803107D20B06B0
:104FAC0007D04900490AC005104308436047013047
:104FBC00F8E7490A8902F5E77047000044B200207F
:104FCC00014B5B6A18470000509B0020132310B55F
:104FDC0012481C78FFF744F80100012C0AD003DDBD
:104FEC0080220F4800F048F80E48FFF731F80E4BBE
:104FFC00186010BD0A4C5422200000F03DF80B4BF9
:10500C006365A365E36523666366A366E36623674E
:10501C006367A367E3672362E361E5E75346000038
:10502C00509B00204C33000044B20020014E002065
:10503C0007B5604601880A0A0230DF2AFAD1C9B2E4
:10504C00820804D3028840880004104300E0006802
:10505C00014A5050039007BD509B00200148042189
:10506C00014B1847F0980020413E0020014B1B6873
:10507C0018470000F0980020014B5B6818470000AF
:10508C00F0980020030010B5080011001B68984729
:10509C0010BDC046F0B546464F46D646C0B5437D1A
:1050AC0080460E001700002B46D0002A3FDD4B1E19
:1050BC009946244B0125002400209A460DE04B46CE
:1050CC001B5D0D3B5A425341325DDBB20A2A0BD0B9
:1050DC002B00013401359F421ADD002CEFD14346E1
:1050EC00325D1B7D0A2AF3D1002BF1D1A04204DAE8
:1050FC004346211A1B6830189847434650461B6894
:10510C0002219847013428002B0001359F42E4DC32
:10511C00874204DD4346391A1B6830189847F61944
:10512C00013E33780D3B5A42534142461375E0BC65
:10513C00BA46B146A846F0BD036811003000984746
:10514C00F5E7C046D8970020F0B5C6460C000968B4
:10515C00060000B5802906D04B1C2360641826710C
:10516C0080BCB846F0BD0F4B1D68002D16D0231D1A
:10517C0098460D4F02E02D69002D0FD02B68002BA7
:10518C00F9D03B68002B01D0AB42F4D1280041464A
:10519C002268FFF77FFF2D69002DEFD1012300213D
:1051AC00DBE7C046809E0020889E0020F0B5DE46DE
:1051BC0057464E464546E0B585B017001C00060024
:1051CC000D00FCF765FD0023304A12184B41002BF3
:1051DC0058DB2F4908008A4604F05AF801906B1CE2
:1051EC0003D1300004F024F80500002C25D1294B04
:1051FC009846294B1C68002C15D0002F20D1274F26
:10520C0002E02469002C0ED02368002BF9D03B68F7
:10521C00002B01D0A342F4D120002A003100C0475A
:10522C002469002CF0D1019B002B27D105B0F0BCD8
:10523C00BB46B246A946A046F0BD194B9846D8E7E6
:10524C00164B994602ABDF1D0A239B4602E02469EC
:10525C00002CE8D02368002BF9D04B461B68002BA0
:10526C0001D0A342F3D12A0031002000C0475B4695
:10527C000122390020003B70C047E8E7504604F09B
:10528C0055F8D3E70122074B5242A2E740420F00E8
:10529C0030990020654E0020809E0020889E0020C2
:1052AC00554E0020FFFFFF7FF0B5CE46474680B538
:1052BC0083B06B460600DD1D2870FCF7E9FC00236B
:1052CC001A4A12184B41002B2BDB1949080088464F
:1052DC0003F0DEFF174B81461C68002C14D0164FD0
:1052EC0002E02469002C0FD02368002BF9D03B6816
:1052FC00002B01D0A342F4D1200001222900FFF79A
:10530C00C9FE2469002CEFD14B46002B05D130008F
:10531C0003B0C0BCB946B046F0BD404604F006F838
:10532C00F5E70122054B5242CFE7C04640420F0041
:10533C0030990020809E0020889E0020FFFFFF7F78
:10534C0070B5040003F074FF002301000500012276
:10535C002000FFF72BFF084B1C68002C06D063685D
:10536C00002B05D098472469002CF8D1280070BD7B
:10537C002469002CF3D1F9E7809E00200A4A1368B7
:10538C00002B05D10CE01A001B691032002B07D042
:10539C009842F8D1002902D103691360016170476A
:1053AC000029FCD01060FAE7809E0020F0B5CE46B4
:1053BC00474680B5A5B004000D00FCF769FC00233E
:1053CC002A4A12184B41002B49DB294E300003F0BE
:1053DC005FFF00230700039322002B00254803A93D
:1053EC00FEF700FE039B8046002B14D1224B1C6859
:1053FC00002C06D06368002B0BD098472469002C36
:10540C00F8D1002F27D1404625B0C0BCB946B046D4
:10541C00F0BD2469ECE7184B1D689946002D22D08D
:10542C00164C02E02D69002D11D02B68002BF9D001
:10543C002368002B01D09D42F4D1039B28001A0055
:10544C0004A90193FFF726FE2D69002DEDD14B46E3
:10545C0003951C68CCE7300003F068FFD3E701220A
:10546C00074B5242B1E70395CBE7C04640420F00D1
:10547C0030990020194F0020809E0020889E00202B
:10548C00FFFFFF7F0FB400B583B004A901C90191E0
:10549C00FFF78CFF03B008BC04B0184710B500F040
:1054AC00C5F8012010BDC046F0B50D1E15DD0E4B24
:1054BC000D271A680D4B4519D31859424B410C490D
:1054CC005B005E5E20210478A64207D093691942E6
:1054DC00FCD101301460A842F5D1F0BD936919429A
:1054EC00FCD11760F2E7C04660B200200080FCBF20
:1054FC005CB2002030B504000D1E26DD002010210A
:10550C001B4B013C1A689369194219D101309369FC
:10551C001942FCD1136823548542F4D1154B1B68F6
:10552C00002B0CD050239363516B183B34320B403F
:10553C001100802252010A431360002815D030BD9F
:10554C000C4B1B68002BEDD1F7E70A4B1B68002BAB
:10555C000BD050223821064B1B689A635A6B34339C
:10556C001140802252011343196003204042E6E7A8
:10557C0060B20020CC9D0020064B10B51B68002BA0
:10558C0006D00021044A12689163044A10689847B7
:10559C0010BDC046CC9D002060B20020D09D0020E4
:1055AC001D4BF0B51A68C64698461C4B0E00D31816
:1055BC0059424B411A4F14331C00050000B53B688F
:1055CC00002807D0002B11D0164B3D601E6080BC0C
:1055DC00B846F0BD002BF7D0906300212000FBF7FC
:1055EC00C1FD20001049FBF70DFEEDE720000E4930
:1055FC00FBF7DEFD01212000FBF7B4FD43465022F2
:10560C0038211B689A635A6B343311408022520143
:10561C0013431960D8E7C04660B200200080FCBF7D
:10562C00CC9D0020D09D0020495300200C4B10B580
:10563C001B780C4B0C4C1B780C4B0221002023606C
:10564C00FBF7DEFC02210120FBF7DAFCE1212068EC
:10565C004902FCF731FE01210548FFF78FFE10BD12
:10566C00F4020010F802001060B200200040034069
:10567C00009900207047C0460000000000000000A8
:10568C000BA10CC9126892009B581868203080F34B
:10569C000988022080F31488BFF36F8F3FBCAE469D
:1056AC0008BC04BC62B61847C046C046C046C046DB
:1056BC00000000D0A0AE0020D0231B061A6DD2072C
:1056CC0004D501219A6D1A6D1142FBD1D023FF2212
:1056DC001B061A658022024B52051A607047C046A1
:1056EC0004ED00E0000000000000000000000000DD
:1056FC00EFF309811AA00CC8106880001B181868F9
:10570C0020390160F0C144464D4656465F46F0C113
:10571C00146E556E566F176F3039F0C1106808B59E
:10572C0072B601F0E9FA62B60CBC11680868103068
:10573C00F0C8A046A946B246BB4680F309880D22A4
:10574C0012073038F0C81466556656671767F0C8EC
:10575C001847C046C046C046C046C046C046C046B4
:10576C00000000D0A0AE002010B5EFF3108472B68C
:10577C0002F01EF802F074FA002803D08022044BC9
:10578C0052051A6002F022FE84F3108810BDC04648
:10579C0004ED00E010B5FDF733F9C04610B58024D8
:1057AC00031F64041C60043B19600349043B19602B
:1057BC00143B40381A6010BD655500208022044B04
:1057CC0052051A60BFF34F8FBFF36F8F7047C046FF
:1057DC0004ED00E0D0231B061B6808499B005A58B7
:1057EC00002A08D00020585005495B58BFF35F8F42
:1057FC00106083F3108862B67047C0463CB100203D
:10580C006CB20220D02300221B065A657047C0469A
:10581C00002310B5084A094C052023601360FCF7DF
:10582C00E7FFFA218900FEF76DFC054B0138186083
:10583C000723236010BDC04618E000E010E000E034
:10584C0014E000E070B5244B1A78D0231B061B68BB
:10585C009A4232D0FF230220204A1B041168404296
:10586C000B4313601E4903F077F905201D49404294
:10587C0003F072F9D023FF221B061A651A6DD207AA
:10588C0004D501219A6D1A6D1142FBD1D0252D063C
:10589C002C68FF210F342000FBF78CFD20001249EF
:1058AC00FBF786FC01212000FBF75CFCFFF7E8FE10
:1058BC00286801F021FAFDF7A3F8FFF7A9FFFF23F1
:1058CC000120064A1B06116840420B43136007492E
:1058DC0003F042F9BEE7C0461899002020ED00E025
:1058EC00C154002045540020895400203955002013
:1058FC0010B5EFF3108372B6FFF7A4FF10B50E20AE
:10590C00FBF724FC0F20FBF721FC0022034B04487F
:10591C001A7003F08FF9FFF795FFC0461899002015
:10592C00C156002010B50A4B1B78FF2B0CD0EFF39F
:10593C000580002805D0D0231B061B684000C0182A
:10594C0010BD01F03BFEFBE7D0231B061868F7E700
:10595C001899002000B5154B83B01B78FF2B09D18B
:10596C000368BFF35F8F00221A6081F3108820BF99
:10597C0003B000BDD0231B061A6803680C489200C4
:10598C0013500C4811500C4A0221944663449B104E
:10599C00FF319940094B0122186801235B420093A7
:1059AC00090A002300F01EF9E2E7C046189900200E
:1059BC003CB100206CB2022000FFFF2FDCB20220B1
:1059CC0000B51C4A0B00127883B0FF2A29D01A4963
:1059DC0002688C46022162449210FF319140090A00
:1059EC0040BF0068BFF35F8F0022026083F3108812
:1059FC00EFF30583DBB2002B05D1104B186800F0D8
:105A0C004DF903B000BD0D4B0192186801AA00F0CE
:105A1C008DF9019B002BF4D08022094B52051A60A2
:105A2C00EFE740BF0268BFF35F8F0021116083F383
:105A3C001088E6E71899002000FFFF2FDCB2022047
:105A4C0004ED00E0F0B51D00314B07001B780E0093
:105A5C00140083B0FF2B4ED0FCF71AF922002B0058
:105A6C00121A8B4101212B484942801859410029B7
:105A7C0021DC1CD03B68BFF35F8F00221A6086F3D9
:105A8C001088254B5A6A95420AD98022234B52051D
:105A9C001A60BFF34F8FBFF36F8F002003B0F0BDC0
:105AAC009B6A0120A342F9D29542F7D1EDE7FA2384
:105ABC009B009842DED3FA2200239200FEF748FBAB
:105ACC00031ED7D0D0221206116815483A688900F7
