:020000041000EA
:1000000000B5324B212058609868022188439860DF
:10001000D860186158612E4B002199600221596106
:100020000121F02299502B49196001219960352056
:1000300000F044F80222904214D00621196600F024
:1000400034F8196E01211966002018661A6600F04E
:100050002CF8196E196E196E052000F02FF8012189
:100060000842F9D1002199601B49196000215960AB
:100070001A491B48016001219960EB211966A021F2
:10008000196600F012F800219960164914480160C1
:100090000121996001BC002800D000471248134993
:1000A000086003C880F30888084703B5996A0420EC
:1000B0000142FBD001200142F8D103BD02B5186610
:1000C0001866FFF7F2FF186E186E02BD00000240BE
:1000D000000000180000070000035F00212200005C
:1000E000F4000018222000A00001001008ED00E03C
:1000F00000000000000000000000000074B24E7A12
:1001000000200420F7010010C3010010C5010010F9
:10011000C1010010C1010010C1010010C101001097
:10012000C1010010C1010010C1010010C701001081
:10013000C1010010C1010010C9010010CB01001065
:10014000CD010010CD010010CD010010CD01001037
:10015000CD010010CD010010CD010010CD01001027
:10016000CD010010CD010010CD010010CD01001017
:10017000CD010010CD010010CD010010CD01001007
:10018000CD010010CD010010CD010010CD010010F7
:10019000CD010010CD010010CD010010CD010010E7
:1001A000CD010010CD010010CD010010CD010010D7
:1001B000CD010010CD010010CD010010CD010010C7
:1001C00000BE00BE00BE00BE00BE00BEEFF3058054
:1001D000103800BEF2EB8871D8020010F80200104F
:1001E0003402001090A31AE700202249086006C8D4
:1001F00081F30888104720480068002835D10DA4F5
:100200000ECC002902D000F012F8F9E71B491C4A75
:10021000002000E001C19142FCD11A4988471A49E7
:1002200088471A49884700BEFDE701C901C29A42C2
:10023000FBD37047F8020010C000002054D2002009
:100240008CD4001060D2002028ED002054EF001064
:10025000000004200000042054EF001000100420CF
:1002600000100420000000007047094800F014F856
:100270000047000008ED00E0000000D028ED00205D
:10028000041B0320C93F00203D200020BD4000206A
:10029000575600000000000001B40248844601BC2B
:1002A000604700BF1D57002006005250ABB360539B
:1002B00090E9002006005250861C0302A0E90020AD
:1002C000060052505422A29DA8E900200500525079
:0802D000DE65F46854EF001034
:1002D800CC020010C0020010B4020010B4E90020E3
:1002E800A8020010C0E90020CCE9002008EA00209C
:1002F800F8B5C0460448054B10B5834203D0044BFB
:10030800002B00D0984710BD28ED002028ED0020D4
:100318000000000006480749091A8B10C90FC918C0
:1003280010B5491003D0044B002B00D0984710BDDE
:1003380028ED002028ED00200000000010B5074C33
:100348002378002B09D1FFF7D5FF054B002B02D0EE
:10035800044800E000BF0123237010BD70F00020A6
:100368000000000054D20020054B10B5002B03D02C
:100378000449054800E000BFFFF7CCFF10BDC046A8
:100388000000000074F0002054D20020802210B534
:1003980000215200044806F003FB0022034B0448E6
:1003A8001A7006F067FC10BDCC140120F91A03205E
:1003B8006CE1002030B500240B4B0C4D83B0019448
:1003C8009C632B68002B0CD00021286801AA0BF035
:1003D80039FE019B2C60002B03D08022044B520570
:1003E8001A6003B030BDC04600400340C41A032061
:1003F80004ED00E0802210B50024094B52000021D2
:1004080008481C7006F0CCFA96210748490003F00A
:10041800EDFB064B06481C7006F02CFC10BDC046D0
:10042800FB1A0320CC14012000400340F91A0320D2
:1004380080E1002070B5D02504242D060A206C61C7
:100448000BF032FB0248AC610BF02EFBF6E7C0461E
:1004580060EA000070B582B00AF058F90A4D0B4CFA
:100468000B4E0190FA2101A889000BF0D7FA280059
:100478000CF04AFB20682A00402103F0F1F8300014
:10048800216806F099FCEDE704EC00200CEC002054
:1004980094E10020F0B5DE4657464E464546E0B5A5
:1004A80089B01E0012AB1B7806AC9B4613AB1B78B9
:1004B80003909A4614AB1B780491994615AB1B78A8
:1004C8000A21984616AB1F780023100023701500E8
:1004D80005F096FAC0B202010A212800059205F03B
:1004E8008FFA059A3000114361700A2105F088FAE5
:1004F8000A21C5B2300005F083FA2D010D43584694
:100508000A21A57005F07CFA0A21C5B2584605F003
:1005180077FA2D010D4350460A21E57005F070FA6F
:100528000A21C5B2504605F06BFA2D010D43484625
:100538000A21257105F064FA0A21C5B2484605F07A
:100548005FFA2D010D4340460A21657105F058FAFE
:100558000A21C5B2404605F053FA2D010D43380073
:100568000A21A57105F04CFA0A21C5B2380005F038
:1005780047FA00232D010D43E571220000930499E9
:10058800039808330CF06EFB09B0F0BCBB46B246CA
:10059800A946A046F0BDC046F0B5C646002300B542
:1005A80084B00C0006000322002103A89846029399
:1005B80006F0F6F90123214F02AD2A0000936821C5
:1005C80038000CF04FFB43462A000093682138009E
:1005D80007330CF0AFFBAB7930001A099100521ABF
:1005E80052009B186A79DBB22380130999005B1AC1
:1005F8005B00D3182A79A370130999005B1A5B0072
:10060800D318E370AA78EB782371130999005B1A61
:100618005B00D3186A786371130999005B1A5B0051
:10062800D3182A78A371130999005B1A5B00D318B1
:10063800E37104B080BCB846F0BDC046F4EC0020BD
:100648000A00F8B54318023B023A05001C78002A54
:100658000CDD002301263000E95C20404900091820
:10066800E9540133DBB264089342F4DB154E164FAC
:1006780034682900381906F099F9E0230734346002
:10068800DB009C4203D0114B1B68002B18D1104C87
:10069800E02223683900D800C01A8023DB029C4678
:1006A80000026044D2000DF0D1F8E0222368002156
:1006B80001333800D200236006F072F9002333605A
:1006C800F8BDC046C8140120C80D0120BC0D01208A
:1006D800EC0A0120F8B5CE46474680B5514D524C3C
:1006E8002A78531CA054514ADBB2914612682B70E9
:1006F800511E4A461160092B01D000296AD14C4885
:1007080006F05AFB2B78E218013A12785F1EFFB206
:100718009446002F47D0023B062B00D877E00020F4
:10072800210000238046BA08464601C901334640E5
:10073800DBB2B0469A42F7D13204120E330272404D
:100748001B0E5340320E534003213A00DBB28A435A
:10075800394226D0A15C4B40511CC9B28F4220D9E6
:10076800615C4B40911CC9B2DBB28F4219D9615C04
:100778004B40D11CC9B28F4213D9615C4B40111D4B
:10078800C9B28F420DD9615C4B40511DC9B28F422D
:1007980007D9615C0632D2B24B40974201D9A25CBC
:1007A80053407F271F40234B00229B5EBC4518D037
:1007B800152B2FD02021204A93691942FCD11523EB
:1007C800136000230021092220002B7006F0E8F8AE
:1007D8004B4619684B425941C8B2C0BCB946B046ED
:1007E800F8BD062B0BD02021134A93691942FCD17E
:1007F8000623136020002978FFF722FFE1E7202174
:100808000D4A93691942FCD10D231360EBE70023CD
:1008180000229FE72021084A93691942FCD10D2341
:100828001360C7E7F41A032018F60020BC0D012056
:10083800C4E10020D419012000400340F0B545462A
:1008480057464E46DE46E0B58E4B8F4D1F7898468C
:100858008E4B8BB0FC180023EE5E2403092E00DDBE
:10086800CCE03036F3B20693302307930226AE5716
:10087800092E00DDB3E03036F3B205933023089338
:100888000326AE57092E00DD9AE03036F3B2019305
:10089800302302930526AE57092E00DD81E030365D
:1008A800F3B20493302309930626AE57092E69DC68
:1008B8003036F3B2039330230093ED796DB2092DEE
:1008C80053DC30263035EDB2714872490378724AEC
:1008D8009B460B789A46137899460023037080202C
:1008E80013700B700022400103E01032824200D1E5
:1008F80093E0A35C91B2013BDBB2FD2BF5D9674BCA
:100908000909089A0901C918069B1004079A1B02CD
:100918001A431300059A034312061343099A0B60FE
:10092800019B1004029A1B021A431300049A034302
:10093800120613434B60039B32041802009B0343C7
:10094800180010432B0605001D435B460B735346E6
:100958004B734B468B7304238D60CB730BB0F0BC89
:10096800BB46B246A946A046F0BD0A21280005F0BC
:100978001FF830300A21C6B2280005F019F83031C6
:10098800CDB2A1E70A21300005F012F83030C3B229
:100998000A213000009305F00BF83031CBB20393F5
:1009A8008BE70A21300005F003F83030C3B20A2182
:1009B8003000099304F0FCFF3031CBB2049373E7A5
:1009C8000A21300004F0F4FF3030C3B20A213000AD
:1009D800029304F0EDFF3031CBB201935AE70A21BC
:1009E800300004F0E5FF3030C3B20A21300008932C
:1009F80004F0DEFF3031CBB2059341E70A21300025
:100A080004F0D6FF3030C3B20A213000079304F057
:100A1800CFFF3031CBB2069328E743461F4C002165
:100A2800200001371F7005F0BBFF089A069B1104D0
:100A3800079A1B021A431300059A0B431206134325
:100A4800099A2360019B1104029A1B021A4313009E
:100A5800049A0B43120613436360039B3204009EFF
:100A68001B021E432B06350015431D435B462373AB
:100A7800534663734B46A3730423A560E3730CF0DA
:100A880029FD6BE7FA1A032004EC0020810001001D
:100A9800FF1A0320011B0320001B0320D8F60020A7
:100AA800F0B5DE4657464E4645460023E0B587B0CA
:100AB8000B22002103A8029305F072FF00239A4637
:100AC800914B9B46914B9846914B99465B461868CB
:100AD800002800D0F7E009F019FE019040460CF01C
:100AE80013F84B4642461868402102F0B9FD4B46C0
:100AF8008848196806F060F90122874B874E1B6801
:100B080037005340864A80211340864A30001360DC
:100B18000822854B49001A60FA239B009C46834AA9
:100B2800674493680B42FCD1D36803800230874244
:100B3800F7D108227E4B7D491A60F8320B681342C0
:100B4800FCD08B68134206D18021784B4900DA68C3
:100B58009A680A42FBD000240025308805F08CFEF4
:100B6800744905F082FE05F0A9FE0022724B05F0DB
:100B780094F90022714B05F07EF902000B0005F094
:100B8800AAF902000B002000290005F07DF90236C1
:100B980004000D00B742E0D10022694B05F07DF951
:100BA80005F052FA534600225C1C664B05F093F997
:100BB80005F03EFA6B46082152465B189854624B82
:100BC800E4B21B78002B22D04346072159564A012C
:100BD800521A93019B1AD8004018FA218001890003
:100BE80004F00EFF5B4605001860434606200F21FF
:100BF800185604F0DDFE49B200296CD0002653488F
:100C0800514B401B1E700AF04FFF5B461E60434667
:100C1800DB795BB2042B4CDC434606200F211856C7
:100C280004F0C6FE49B2002943D16B46197A080080
:100C3800012C66D909236B44A4461E000D0001222D
:100C48000C00504633780F1C994200D21F1CF9B291
:100C58002F1C9D4200D91F1CFDB2E4181700013259
:100C6800A4B2D2B20136B842ECD120006446384B67
:100C78001970384B21001D7004F09AFE364B002481
:100C88001870FFF7DBFD8021344B4901187881305B
:100C980000030CF09BFD8022304B3149187852013B
:100CA800813000030CF0D2FD0F22002102A805F0CC
:100CB80077FE264901A80AF0B1FE5B461868A246ED
:100CC800002800D107E7214B181A0AF0EDFE00238F
:100CD8005A461360FFE6FFF7B1FD80211F4B49011B
:100CE8001878813000030CF071FD80221B4B1C49E1
:100CF80018785201813000030CF0A8FD5B461D688E
:100D08007CE70D00B3E7C046D0F4002004EC0020D7
:100D18000CEC0020D8E1002008C00440CC150120CC
:100D28000F00000F08D0044000E0044000C0044059
:100D380000F0044000404E3F00408F40006DFA3FF5
:100D480000407F4000C05240FC1A032060EA0000C7
:100D5800FF1A0320011B0320001B0320FA1A03209B
:100D6800D8F60020F0B5DE4657464E4645460023E5
:100D7800E0B5ADB01C22002125A8249305F010FE93
:100D8800CE4CCF48217806F017F823780E2B00D0E8
:100D9800FBE1CC4B012600249846CB4DCB4F764245
:100DA800731C00D1F7E02B78013BDBB2FD2B0FD889
:100DB800C74A1034944200D1C2E1C34903E0103459
:100DC800944200D1BCE1635C013BDBB2FD2BF6D958
:100DD800C04805F04FFFC04B103C1A93BF4B0A9414
:100DE8001B930A9A131E00DAAEE13500964200DD25
:100DF80071E39B46B34200D2B6E100230224984631
:100E080024AF0C962C21B04B14AAEB5C521813702B
:100E1800B34B0131EB5C14AA521813700023302035
:100E2800013114AA52181370AE4A14A9AA5C091801
:100E38000A70AD4A0130AA5C14A909180A70322157
:100E480014AA52181370A94A0330AA5C14A90918E5
:100E58000A70A74A0130AA5C14A909180A70362139
:100E680014AA52181370A34A0330AA5C14A90918CB
:100E78000A70A14A0130AA5C14A909180A703A211B
:100E880014AA521813709D4A0330AA5C14A90918B1
:100E98000A709B4A14A9AA5C013009180A703E21FD
:100EA80014AA52181370974BEE5C974BEB5C99465B
:100EB800964BEB5C9A46AB4500D1C3E0944805F0ED
:100EC800D9FE4346002B00D191E0924805F0D2FEAE
:100ED800534606934B46059323AB039322AB0293E9
:100EE80021AB019320AB8C4A00931C211FAB380027
:100EF800049604F0E1FC259A249B5340269A53401B
:100F0800279A5340289A5340299A53402A9A534083
:100F18001A04120E5A401902090E4A401B0E534079
:100F28005C40E4B27D4805F0A5FE3E78002E20D056
:100F38007B4B0D2000229B5E80469C46604600212C
:100F48000B9020223800A446764B34000B9E0029D3
:100F580040D1A64245D099690A42FCD11C6001786B
:100F680001300D394C4261410478C9B2002CEED1F0
:100F780064460F2002F074F90C9B0A9A934203DD31
:100F8800694B9D4200D13EE210355D4500D9EBE04A
:100F98000123984636E72B782600013BDBB24C4C00
:100FA800FD2B0CD93800103605F064FEA64200D19E
:100FB800C6E02B7C1035013BDBB2FD2BF2D83400A8
:100FC800404605F057FE424B10349C4200D1B7E032
:100FD8001035E5E699690A42C0D099690A42F9D103
:100FE800BCE799690A42FCD141461960B3E74F480A
:100FF80005F040FE534607934B46069323AB0493F4
:1010080022AB039321AB029320AB01931FAB1D21AD
:10101800474A009338000223059604F04DFC259AB0
:10102800249B5340269A5340279A5340289A53406A
:10103800299A53402A9A534019043A7F090E594075
:101048004A4068E73B4805F015FE4346002B00D0B0
:10105800DCE1394805F00EFE032308935346079355
:101068004B46069323AB049322AB039321AB029325
:1010780020AB01931FAB1F21304A00933800022395
:10108800059604F019FC259A249B5340269A534050
:10109800279A5340289A5340299A53402A9A5340F2
:1010A8002B9A53401A041902120E5A40090E4A404C
:1010B8001B0E53405C40E4B2BC7733E7F91A0320B7
:1010C800ECE1002028E200200010081014E20020C3
:1010D800007F010000E20020B00D0120A40D0120D6
:1010E800011008100210081003100810041008104E
:1010F800051008100610081007100810081008102E
:10110800091008100D1008100C1008100E10081007
:101118008CE20020B8E20020BCE20020DCE20020E3
:10112800D419012000400340F0FF170090E200208E
:1011380094E2002094E9002088E4002040E20020A6
:10114800CC4B1A93CC4B1B93CC4805F093FDCC4B5E
:1011580000229B5E152B00D10EE12021C94A93691C
:101168001942FCD1152313600A2200211A9805F0B0
:1011780017FC0A2200211B9805F012FC2DB0F0BCC8
:10118800BB46B246A946A046F0BDBA490B781A91AB
:10119800303B9A009B185B009A464A788B78303A25
:1011A800303B92449A009B18CA785B00303A9B18EF
:1011B8005BB20E930B79303B9A009B184A795B001F
:1011C800303A9B185BB217938B79303B9A009B1887
:1011D800CA795B00303A9B185BB219930B7A303BA3
:1011E8009A009B184A7A5B00303AA3499B185BB275
:1011F8001D930B781B91303B9A009B185B00994616
:101208004A788B78303A303B91449A009B18CA78D8
:101218005B00303A9B185BB20D930B79303B9A0018
:101228009B184A795B00303A9B185BB216938B790E
:10123800303B9A009B18CA795B00303A9B185BB226
:1012480018930B7A303B9A009B184A7A5B00303A25
:101258009B185BB21C93D14500D128E153464A46FE
:101268009B1A002B00DD89E700239B4615931493F6
:10127800139310930B93129311930F930C93013BB9
:101288001E000A93804B00279C46B04616E0504645
:10129800281A002809DB4046013075D0AB4500D13B
:1012A80083E05846281A00286EDBA9453FD04846F7
:1012B800281A002841DD1037674550D0734BF818BD
:1012C80003785A1ED2B2FD2AF5D8303B9A004578E9
:1012D8009B185B00303DED188378303B9A009B18D3
:1012E800C2785B00303A9B1802795BB2303A9100C1
:1012F80052184179520030395218817952B2303936
:101308008C000919C4794900303C0919047A49B29A
:10131800303CA600A419467A6400303EA41964B291
:10132800AA45B4D10E98984235D0181AB1E70D984D
:10133800984235D0181A0028BDDC0A98013005D02B
:101348000B98A84236D0281A0028B4DD0A9710371F
:1013580015941491139210930B956745AED1464698
:10136800731C00D03DE5454805F084FC444B002241
:101378009B5E152B00D0F0E62021424A9369194262
:10138800FCD10D231360E8E6B846AB4612941191E0
:101398000F920C9389E71798904210D0101A78E7AB
:1013A8001698904210D0101A83E70C98984210D0E3
:1013B800181A78E71098984210D0181AC4E71998A4
:1013C800884210D0081A64E71898884211D0081A81
:1013D8006FE70F98824211D0101A64E7139882427F
:1013E8005AD0101AB0E71D98A04200D153E7201A2E
:1013F8004FE71C98A042A0D0201A5AE711988842BB
:101408004FD0081A4FE793460025C1E5204805F05C
:1014180031FC03230793534606934B46059323ABAE
:10142800039322AB029321AB019320AB1E21194AEF
:10143800009338001FAB049604F03EFA259A249BCB
:101448005340269A5340279A5340289A5340299A42
:1014580053402A9A53402B9A53401A041902120EE9
:101468005A40090E4A401B0E53405C40E4B27C7758
:1014780058E5C046B00D0120A40D0120E8E2002087
:10148800D419012000400340007F0100001008101B
:1014980064E2002068E200201498884215D0081AF7
:1014A80052E71298A04200D1FFE6201AFBE60D9BF6
:1014B8000E9A934207D1169B179A934203D1189B11
:1014C800199A93420AD0D31ACBE61598A04200D1B4
:1014D800F1E6201A38E7C0235B038AE41C9B1D9AB7
:1014E800934200D1C0E6D31ABBE6C04610B50C4CF7
:1014F800012301222000072102F0D4FB2000012152
:1015080002F00EFC1420074901F0EEF80121142026
:1015180001F0A6F80121200002F034FC10BDC046FD
:101528000040034085010020F0B5454657464E4629
:10153800DE46E0B57B4B8BB000937B4B02AE01934C
:101548007A4B04AF1A680D0002921B796946337111
:10155800774B04001A6804929B88BB8006AB9846B8
:10156800744B1A68069242469B889380724B1A689D
:1015780008929A888A8426216A469B7952181370A1
:101588000100042268460BF0D7FC002800D1ADE02A
:10159800002D00D1B7E00320634218406B1E092BD1
:1015A80000D8B2E0002800D1A2E0012322785A40F6
:1015B8009246012800D1A0E063785A409246032859
:1015C80000D09DE0A3785A400323924699462B1AEF
:1015D800DBB29C469B089B460021002320189A00FA
:1015E800825801335140DAB29345F8D852460B0479
:1015F8001B0E4B405A400B021B0E5340090E032290
:101608004B40614691434A465218DBB2D2B28C45F0
:1016180039D0A15C4B40511CC9B28D4233D9615CB1
:101628004B40911CC9B2DBB28D422CD9615C4B4056
:10163800D11CC9B28D4226D9615C4B40111DC9B27B
:101648008D4220D9615C4B40511DC9B28D421AD9D7
:10165800615C4B40911DC9B28D4214D9615C4B400D
:10166800D11DC9B28D420ED9615C4B4011000831C1
:10167800C9B28D4207D9615C0932D2B24B4095425A
:1016880001D9A25C53406519013D2A789A4242D19A
:101698000422200001A90BF04FFC002838D13100AA
:1016A80020000BF0FDFD0023002807D018000BB028
:1016B800F0BCBB46B246A946A046F0BD39002000A2
:1016C8000BF0EEFD01230028F0D1414620000BF07D
:1016D800E7FD02230028E9D1200008A90BF0E0FD6E
:1016E80043425841042340420343DFE70323DDE735
:1016F8000023994601339A4669E70123994666E72C
:101708000223994663E70123BDE70123002280E70E
:1017180001235B42CAE7094805F04EFB01235B42FF
:10172800C4E7C046212121210152320260E4002091
:1017380078E4002084E4002090E40020F8E200200F
:1017480070B501242300C57901791A4E2B40490050
:10175800C9183368C9B29C46017161440A024179CB
:101768006B082340490059188379AD085B002C4069
:10177800C9B21C19104B41718918E4B20902002240
:101788009B5E611884713160062B0AD020200B4AB9
:1017980093691842FCD106230948136005F00CFB35
:1017A80070BD2020054A93691842FCD10D231360AF
:1017B800ECE7C046BC0D0120D419012000400340CD
:1017C80024E3002070B50378002486B02F2B01D0C5
:1017D80006B070BD43783F2BFAD14018C31E1B7862
:1017E800212BF5D1831E1B780D2BF1D101380378FD
:1017F8000A2BEDD12E4805F03DFA96222D4B120109
:101808001B88934251D042D89622920093424AD0E4
:101818009622D200934200D10224002311220021F3
:1018280001A8009305F0BCF8230014216846224A59
:1018380004F042F86B461C78002C18D0684600214A
:1018480020220D261D4B00255D5F1D4B002915D15B
:10185800A54217D099690A42FCD11C600178013071
:101868000D394C4261410478C9B2002CEED10122F5
:10187800144B15481A7005F0FDF9A9E799690A4251
:10188800FCD1EAE799690A42FCD11E60E2E7962298
:101898005201934205D0962292019342BDD105246C
:1018A800BBE70424B9E70124B7E70324B5E7C0463A
:1018B80038E3002014EC00204CE30020D419012068
:1018C80000400340FB1A032064E30020F0B5040045
:1018D8009BB0C6480D0005F0CDF96946C44B200001
:1018E8001A880A852A216A46521869469B78137015
:1018F800C04B1A888A852E216A469B785218137025
:10190800BD4B09A902220B800BF016FB002801D160
:10191800062D01D01BB0F0BDB84805F0ABF923780F
:10192800302B00D140E16378302B00D18CE1A378D3
:10193800302B00D18AE1E378302B00D188E123797C
:10194800302B00D186E16379302B00D184E1AC4B98
:1019580000229B5E152B00D1BBE02021A94A936988
:101968001942FCD1152313600334032221000AA86D
:101978000BF0E2FA002800D1B7E0210003220BA8FF
:101988000BF0DAFA041EC5D19F4805F073F900215F
:1019980033220DA80C9405F003F8032303220693C1
:1019A8009A4B0CA89A563034059202229A562F2642
:1019B800049200215A5E3721039207229A56002585
:1019C800029206229A566E4401925B79904A5BB263
:1019D8000093022303F070FF0C9A0D9B6846534056
:1019E8000E9A001953400F9A8A4F5340109A534049
:1019F800119A5340129A5340139A5340149A5340E1
:101A0800159A5340169A5340179A5340189A5340C0
:101A18003422825C190E68464A4035210019415C1F
:101A280036204A4069460919095C4A4019045A4057
:101A3800090E1B024A401B0E5340022253406A46BD
:101A4800121913542F3C06E0002D4AD101200AF048
:101A58002BF801350134315D380005F0ADF912215C
:101A6800280003F0A5FF0029EED001200AF01CF899
:101A7800372CEED16B4630229B181878002800D1FD
:101A880048E700215E4B0D2500241C5F0CAF5D4B21
:101A9800103A002911D1844216D099690A42FCD122
:101AA8001860397801370D39484241413878C9B250
:101AB800002800D12EE70029EDD099690A42EFD01D
:101AC80099690A42F9D1EBE799690A42FCD11D608C
:101AD800E3E720214B4A93691942FCD10D23136097
:101AE8003BE70A2005F07AF8BFE70D2200210C90A9
:101AF8000DA804F055FF03230193013B1021464A2A
:101B080000930CA8013B03F0D7FE0D9A0C9B4348A9
:101B180053400E9A53400F9A53401D0E1A04120E4A
:101B28005D401B0255401B0E6B4001255D40EDB228
:101B3800290005F041F93F226B469B181D706B4642
:101B48000F3A9B181D78002D18D000210D272C4B1B
:101B58000CA800269E5F2B4B103A002918D1AE42E4
:101B68001DD099690A42FCD11D60017801300D39F8
:101B78004D4269410578C9B2002DEED1284805F0DB
:101B880079F8284805F076F80222274B1A70F4E60F
:101B980099690A42E8D099690A42F9D1E4E7996952
:101BA8000A42FCD11F60DCE700230133E35C1F4AD3
:101BB800303B1288DDB2AA420AD2114B00229B5E4A
:101BC800152B39D020210F4A93691942FCD1C9E657
:101BD8002900174805F0F0F8052D02D8154BAD007F
:101BE800EE583100074802F001F8BDE678E300201E
:101BF80054E4002058E400200630000090E3002060
:101C0800D419012000400340F0E3002004EC002038
:101C180004E400204CE40020BCE30020A4E1002000
:101C2800D0E30020DCE30020FB1A032014EC0020A2
:101C3800A4E3002054E500202021084A93691942B2
:101C4800FCD10D231360BDE70123AEE70223ACE707
:101C58000323AAE70423A8E72B3BA6E70040034099
:101C6800F0B528218BB00BF0D9F808AD411C06223D
:101C780028000BF09BF92E782A79B300F6186B78B8
:101C88007600103BF618AB7894009F00DF19141902
:101C9800EB786A79124D103B103A28007F006400F7
:101CA800FF18A4180AF030FF2B78F6B20493AB782B
:101CB800FFB20393EB78E4B202932B7922000193ED
:101CC80068213B0007480096FEF7E4FB290006A8B8
:101CD800FEF762FC28000AF0C1FE0BB0F0BDC0465A
:101CE80004EC0020F4EC0020F0B528218BB00BF0B8
:101CF80095F808AD411C062228000BF057F92E78FC
:101D0800B300F6186B787600103BF618AB78F6B28D
:101D18009F00DF19EB787F00103BFF182B79FFB28B
:101D28009C001C196B7964000E4D103BE4182800C8
:101D3800E4B20AF0E9FEAB79EA79049603970294D3
:101D4800297909480191697900916821FEF7A2FB78
:101D5800290006A8FEF720FC28000AF07FFE0BB039
:101D6800F0BDC04604EC0020F4EC0020002370B560
:101D78008AB01222002105A8049304F011FE2D4D0B
:101D880004AC28000AF0C0FE032303930323EB5698
:101D9800152102930223EB56200001930022AB5E2B
:101DA800254A0093022303F087FD059A049B257DAD
:101DB8005340069A21485340079A5340089A534083
:101DC8001A0E5A4055401A04120E1B0255401B0E9B
:101DD8006B4002255D40EDB2290004F0EDFF25754A
:101DE8002578002D18D02000002120220D24144B26
:101DF80000269E5F134B002910D1AE4215D0996979
:101E08000A42FCD11D60017801300D394D4269410B
:101E18000578C9B2002DEED10AB070BD99690A42A1
:101E2800F0D099690A42F9D1ECE799690A42FCD1E4
:101E38001C60E4E704EC002098E40020A4E1002002
:101E4800D419012000400340C74BF0B545469846D9
:101E5800DE4657464E4600234246E0B51360C34B64
:101E680095B00022C2490093C24800230AF0B6FB8D
:101E7800C14B0700009300220023C049C0480AF064
:101E8800ADFBC04BC04C9946C04B03909B46002508
:101E980008F03CFC002302000121380000950AF0FC
:101EA800F9FB09F09BF8434618605023A363626B63
:101EB800183B13404A461360012201210020524278
:101EC8000AF018F80128E3D1A3691025DB06DED44F
:101ED80002972E00A3691E401D42FAD12368DBB287
:101EE8009A46AB4B1B78032B00D16DE153460A2B66
:101EF80045D0A84BA7491A785046531CDBB20B7043
:101F080059468854A44906AA81C981C2A34911AA7D
:101F180081C981C20888108089789170A04908AA6F
:101F280081C981C2097811709E490BAA81C981C2F1
:101F3800097811709C4A9D4905920EAA81C981C2EF
:101F480009881180082B13D0212B58D00D2B5ED077
:101F5800132B64D00E2B06D10A2258460EA90AF07C
:101F6800EBFF00280BD0A3691D42B2D0029F8EE779
:101F78000422584605A90AF0DFFF0028F3D10A20F9
:101F880004F02CFE834B83491B78C8205A1C0A7026
:101F980051465A46D15409F087FD08F0B7FB002393
:101FA8009A4602000221009303980AF073FB5346F5
:101FB80000220093032102980AF06CFB744B1B78F3
:101FC800012B00D1C0E0022B50D0002B36D0784B2B
:101FD80000229B5E152B00D120E12022029FA369DD
:101FE8001A42FCD115230297236080220021520057
:101FF800584604F0D5FC0023664A1370B3E708225C
:10200800584606A90AF098FF0028ACD1B7E70B227A
:10201800584611A90AF090FF0028A4D1AFE7092279
:10202800584608A90AF088FF0028A8D0092258466F
:102038000BA90AF081FF002895D1A0E72F21584667
:102048000AF0ECFE002807D05B46524AC31A117802
:10205800C91AC9B2FFF7B6FB08F058FB0023020003
:102068000121039800930AF015FBBEE7514804F0DC
:1020780001FE08F04BFB5346020001210093039830
:1020880000230AF007FB434B58461978FFF74CFA30
:102098000130C3B2052B00D9C9E0474A9B00D35889
:1020A8009F4603233A4A58461370FFF749FB404BB3
:1020B80000229B5E152B00D1C4E02022029FA36959
:1020C8001A42FCD18EE7FFF751FE8EE75846FFF71C
:1020D8000BFE8AE75846FFF7C3FD86E7374804F04A
:1020E800C9FD5B461B78002B2BD0029F04E05B46A2
:1020F80001369B5D002B23D0282BF8D15A46731C40
:10210800DBB2D25C02973B2A0AD0F6432C49C918A5
:102118008A555A460133DBB2D25C3B2AF6D1029784
:1021280059460133DAB2895C29290AD0029F254E23
:10213800D01A315459460132D2B2895C2929F6D1D4
:102148000297FEF70FFE50E708F0E0FA5346020048
:1021580000930121002303980AF09CFA0D4B58467E
:102168001978FFF7B3FB40E7C41A03205D0100208C
:1021780088130000B8E40020C50100203075000075
:10218800C4E400203450034000400340CC14012034
:10219800FB1A0320F91A03205CE4002068E40020FD
:1021A80074E4002080E40020212121218CE4002017
:1021B800D4190120D0E4002008E50020ECE4002038
:1021C800B00D0120A40D012008F0A0FA00230200A0
:1021D8000221029800960AF05DFA08F097FA039F28
:1021E800020000230221380000960AF053FA002367
:1021F80000220321029800960AF04CFA00230022DC
:102208000321380000960AF045FA5046FEF762FAB4
:10221800002800D1A7E60BF083F9A4E62022029F4C
:10222800A3691A42FCD10D2302972360D5E60E4B11
:1022380000229B5E152B0ED02022029FA3691A4212
:10224800FCD1CFE62022029FA3691A42FCD10D23BC
:102258000297236031E72022029FA3691A42FCD12A
:102268000D2302972360E7E7D419012030B585B024
:1022780004F0AEFDFA20800000F0F2FF96215B48E2
:10228800490001F0EFFBFFF731F90221002000F0CF
:10229800D7F80221012000F0D3F8D025022000F061
:1022A80013F9042308242D066B62032000F00CF9AF
:1022B8006C620AF095FD1F211A2000F0C1F8002277
:1022C80000211A2000F0D4F800211A2000F0E8F8C4
:1022D800E021474AC901136846480B4046490B604C
:1022E800962301211B041361444B1B684B4044494E
:1022F8000B4044490B60444B80211C60FA239B002F
:10230800C418490093680B42FCD1D368038002309B
:10231800A042F7D108223D4B35491A60F8320B68C4
:102328001342FCD08B68134206D18021304B490000
:10233800DA689A680A42FBD0012000F091FF0AF09F
:1023480071FB334933480AF063FC0321142000F081
:1023580077F80321152000F073F80BF099F82E4C4C
:1023680002A82100FEF718F920000AF077FB4020A8
:10237800002100F063FF0722FA21A25689000132EA
:102388005001801A8301181AC0008018800103F0D8
:1023980037FB002403258022204B21491860520076
:1023A800002320480194009509F0F4FBC022002383
:1023B8001D4912011D480194009509F0EBFB022309
:1023C80080221B490093520000231A48019409F007
:1023D800E1FB01238022184900935200002317488B
:1023E800019409F0D7FB09F0EBF8FEE70040034041
:1023F80000C00440CC15012000D0044008C00440AF
:102408000F00000F08D0044000E0044000F0044032
:10241800801A0600F4EC002004EC0020D0F4002020
:1024280020E50020710800202CE50020191C002060
:1024380038E500202502002048E50020050200209C
:10244800094A830094464022634410B51C68C000C2
:102458006240C02414408022520113431C60034B85
:102468009C466044416010BD04C0014000400140EA
:102478000A4B80009C4604236044002901D00C23A9
:102488000821002A00D10B00026853400C221A4090
:1024980080235B01184302607047C04604C00140B6
:1024A800084B80009C466044002905D080239B018E
:1024B8001843402303607047C0239B0118434023FF
:1024C8000360F8E704C001400123D02283401206CC
:1024D80093629361094A83009446402263441968D1
:1024E800C0004A40C02111408022520113431960A4
:1024F800034B9C46052360444360704704C0014079
:1025080000400140024B18688007C00F7047C04662
:1025180000C0064070B5EFF3108C72B60D4D2B68F5
:10252800002BFCD0BFF35F8F0724CB08C618C05C14
:1025380001230C40A3401C000440034207D103437D
:102548003370BFF35F8F2C608CF3108870BD100060
:1025580001F0D0FE2C0100D0F8B54746CE4688469B
:1025680080B5EFF3108C72B6214D2C68002CFCD08E
:10257800BFF35F8F9A422CD8D4080727055D061948
:1025880001241740BC402C421FD00721012789464F
:1025980009E0D408055D06194C4639001440A140ED
:1025A8000C00294211D001329342F2D2012040425C
:1025B800BFF35F8F00220E4B1A608CF3108800283F
:1025C8000FDBC0BCB946B046F8BD2C4310003470D0
:1025D800EEE7BFF35F8F00232B608CF31088012098
:1025E80040424346002BECD0089801F083FEC046D9
:1025F8002C0100D00021044B044ABFF35F8F02C3B3
:102608009342FAD17047C046000100D0800100D043
:10261800044A1078431CDBB2172B00D9102313701F
:102628007047C04616EC002010B50100024A034866
:10263800FFF770FF10BDC0466CE50020ECF50020E8
:1026480000B5054B83B00100009318221F230348EF
:10265800FFF782FF03B000BD8CE50020ECF50020F9
:1026680001238340002904D0034A1360034A1360FE
:102678007047034A1360FBE780E200E000E100E0F6
:1026880080E100E001228240034B1B6813405A1E80
:102698009341D8B27047C04600E100E0012383406F
:1026A800014A13607047C04600E200E0084B103052
:1026B8009B688000C358002B07D0064A00209B1A4D
:1026C8002F229A424041C0B270470020FCE7C04622
:1026D80000ED00E018EC0020024B10309B688000F1
:1026E800C058704700ED00E070B50D00EFF310869C
:1026F80072B60F4A1368002BFCD0BFF35F8F0D4BE7
:1027080010309B6884001B590B4A934203D09D42AA
:1027180001D001F00DFE074B9B681D51BFF35F8F81
:10272800BFF35F8F0022024B1A6086F3108870BDDA
:10273800240100D000ED00E0CD010010F0B55746AF
:102748004E46DE464546E0B585B0060002911700C4
:10275800EFF3108B72B6674A1368002BFCD0BFF3F7
:102768005F8F0025644B5D579A46002D00DAA4E080
:102778006B00624C03935B199B009846A146C144C9
:102788004B4652469B79103613705D4BB2009B68DE
:10279800019299580B1B2F2B34D95A4B994200D0D0
:1027A800A4E0039B584A9C46584B6544AD006353CC
:1027B800434602336519E418554B0121043B1B1BA2
:1027C8001B055B0D13436B80524BEF71AB80FF23EE
:1027D800AB71029BAB604B460B431900484B019A07
:1027E8009B689950BFF35F8FBFF35F8F0022414B07
:1027F8001A608BF3108805B0F0BCBB46B246A946F8
:10280800A046F0BD01200A008243D379BB422FD8ED
:1028180045464E46130040491B1B5B415943090D71
:102828003A4B63533A4B02356519043B5B1B1B0556
:10283800354D5B0D2B4373800426B446E044444475
:10284800131F1B1B4C46A17102991B05A160494629
:102858005B0D2B43A380314BE77101431360BDE748
:102868005800C01880002018C679BE422BD9020033
:102878000623D356002BF3DA101D824628488046DB
:1028880004267642B446E14450464E46361A300590
:10289800400D824656461C48957106439680039A19
:1028A800944665441D4AAD00641922604246A371EE
:1028B800029BA280E771A36090E701F039FD002533
:1028C80053465D5754E7101D824690884005001511
:1028D80084464046D444664604302018301AE02620
:1028E8000005400D360230438046C9E701F020FD5F
:1028F80057E7C046240100D0F51A032018EC002041
:1029080000ED00E0CD01001000E0FFFF00A1FFFF97
:1029180048EC002001BDFFFFAAAA0000014880473B
:1029280001BD0000F0B5DE4657464E464546E0B5C7
:102938000C0083B0EFF3108972B6584A1368002B65
:10294800FCD0BFF35F8F564B9A68030010339F008B
:10295800D559544A9046954232D0A54243D0524E5A
:10296800AA1B2F2A2CD801228240924651464F4A50
:1029780012681140019151464D4A1160BFF35F8FB3
:10298800EFF305829346002A33D101232A009A43A4
:1029980093689C4208D177E04B005B189B00F318C2
:1029A8009968A1422AD01A00062151560029F3DA63
:1029B800019B002B19D052463E4B1A603B4B1A60C4
:1029C800374B9B68DD51BFF35F8FBFF35F8F0022EA
:1029D800324B1A6089F3108803B0F0BCBB46B2468C
:1029E800A946A046F0BD1500EAE75246304B1A60EA
:1029F800E6E79342C9D001F09BFCC6E70621595689
:102A0800002921DB4A005018800034188046A0684D
:102A18009860E079D871062020569871002824DB48
:102A2800A488F01A6405241544440019E02400051C
:102A3800400D24022043988052181F4B9200B6186C
:102A48001A781970B271B3E7594600290FD1FF31CE
:102A580091711A49918018490A789A71184A9B1BF2
:102A68005B415A43120D0A70A2E71648E3E7164A7B
:102A78001649D21A083A5002400D01439980144968
:102A880052080A43DA8093E70621515613000029B9
:102A9800B8DA5A46002AEAD14546DCE7240100D0D4
:102AA80000ED00E0CD01001018EC002000E100E08E
:102AB80080E100E080E200E0F51A032001BDFFFF9D
:102AC800AAAA000001BD000052EC002000F0FFFFA0
:102AD80000F8FFFF032310B50400074A1840944686
:102AE800C0009C43FC3383406444226881409A437D
:102AF80013000B43236010BD00E400E070B5EFF352
:102B0800058101240443EFF3108C72B6214A13683F
:102B1800002BFCD0BFF35F8F1F4B05001F4AED1A37
:102B28006D416A43120D1E4D8900AE6852B2765847
:102B3800A6421CD00621595691421CD01221595642
:102B4800914222D01E215956914220D02A2159560D
:102B58000324914210D0134B19781A708171BFF376
:102B68005F8F00220B4B1A608CF3108870BDAB6826
:102B78000D4C5C50EFE700246100091989005B18CF
:102B8800FF21997109499980E5E70124F4E70224B6
:102B9800F2E7C046240100D018EC0020AAAA0000E1
:102BA80000ED00E0F51A0320CD01001001BDFFFF84
:102BB800054B064A1360064A136053609360D3605E
:102BC80013615361936170478080808000E400E066
:102BD80004E400E000B5074B83B001000093002235
:102BE80005230548FFF7B8FC002801DB1F23181A46
:102BF80003B000BDA8E50020FE1A0320024B9C4646
:102C080061448900016070474000003410B5040039
:102C1800FFF7FEFC01002000FFF7F0FF01235B42F5
:102C28006360BFF35F8F10BD10B50400FFF7F0FCC1
:102C380001002000FFF7E2FF01235B4263600023ED
:102C48002372BFF35F8F10BD10B504000120FFF79A
:102C5800F7FC044B9C46604480002060BFF35F8F04
:102C680010BDC04640000034034B9C4661448900B7
:102C78000160BFF35F8F70474000003483680B48E2
:102C880010B5844661446244090112019A18591822
:102C980054684B6801209C4201D802D00020C0B281
:102CA80010BD12680B689A42F9D8F7E7FFFFFF0FCB
:102CB800074810B50268EFF3108172B61368002B4D
:102CC800FCD0BFF35F8F06F08BFB0020002110BD06
:102CD800B8190120F8B557464E464546DE46E0B5D8
:102CE80099460CAB1C780DAB1B78060090469A46AB
:102CF8000768002C11D1BC7B002C42D065003B68D2
:102D08002D19033D59194B78BB73002B00D1FB7368
:102D180000238B704B700B7004E065003B682D1925
:102D2800033D5919B2682A4B94464246E3181B01E1
:102D380063441A604A465A600A9A9A600B9ADA60A3
:102D480000238B704B700B707B7B9B46002B2BD02A
:102D580022005946B8687B6898473A68002816D018
:102D68005B4658465B005B445519033BA870D11875
:102D7800D35C002B00D06B705B460C707B73A34553
:102D880013D0F0BCBB46B246A946A046F8BD5B4688
:102D98005B005B44033BD3189C705119525D002AB9
:102DA80000D05A705B460B707C7342464B46307DB0
:102DB80000F0CEFB051E06D05346002B03D12100A0
:102DC800306800F011FE0E9B002BDAD01D70D8E79A
:102DD800FFFFFF0FF0B5DE4657464E464546002337
:102DE800E0B58BB00893674B8200D45800239B460C
:102DF800099000F023FB626806000F00EFF31085CE
:102E080072B61368002BFCD0BFF35F8F23689C4613
:102E18005B7B9946002B00D169E0A2685A4B90462B
:102E28004B441B01984443461A685B68100019001C
:102E3800801BB941002900DC63E0099800F088FB99
:102E480000230022984600230692079300239A46FF
:102E58006368BFF35F8F5A461A6085F3108853463C
:102E6800002B08D10028C4D10BB0F0BCBB46B24639
:102E7800A946A046F0BD089B414618024B46184398
:102E8800D047626806000F00EFF3108572B613682A
:102E9800002BFCD0BFF35F8F002F50DB33003B4388
:102EA80002D02369002B61D12368D97B002907D080
:102EB8004A00521819688C4649466244033A5170D0
:102EC8009A7B002A01D14A469A734A46DA734B46DE
:102ED800E168013BCA5C0132CA545B4623616368FE
:102EE800BFF35F8F5A461A6085F3108881E7002385
:102EF80000229846002306920793002300209A4652
:102F0800A6E7002902D1002800D096E700216046F4
:102F180000F0E8FC43461A685B680692079343464C
:102F28009B689A464346DB689846E3684B44013BF6
:102F38001B7808931B0203432361002088E7236959
:102F4800002BB1D0069A079B921BBB41002B15DBC7
:102F58005946049101210391494602914146019144
:102F6800514620000091FFF7B5FEB6E700F066FA7B
:102F780032003B0012184B41002BE9DA0122034BC7
:102F88005242E5E7F00A0120FFFFFF0FFFFFFF7F36
:102F980010B5144C6368002B04D00A211248FFF7BF
:102FA8002DFE10BD2300114A1021206800F0B4FB4B
:102FB800032000F037FA032000F034FB03200C490B
:102FC80000F080FAFFF724FB0A4B9C460323237585
:102FD800D0231B061B6860446375074B8000606044
:102FE800DC60DAE760EC0020B81901204D2A0020E7
:102FF800A52B002040000034F00A0120004870474B
:1030080060EC0020F0B54E464546DE465746E0B532
:1030180085B0019310AB1B780600039300239946F3
:10302800984600927268EFF3108B72B61368002B03
:10303800FCD0BFF35F8F3568AC7B002C3DD06700B8
:103048002B683F19033FDB195A78AA73002A00D16D
:10305800EA73B168474A8C4600980199A218120190
:103068006244106051600E9991600F99D160424698
:103078009A705A701A706B7B9A46002B67D02200A0
:103088001900A8686B6898472A68002852D05346E8
:1030980050465B005344D719033BB870D118D35C32
:1030A800002B00D07B7053460C706B7354454FD087
:1030B800F3681B19013B187800E000207368BFF320
:1030C8005F8F42461A608BF31088002C4FD04B4616
:1030D800002B08D10002204305B0F0BCBB46B24625
:1030E800A946A046F0BD039B002B3ED00E9B0020B6
:1030F8000F999847030004000D000B4335D00029B1
:103108000ADA009A019B121BAB4100920193002B33
:103118000ADB039B994685E700F090F924184D4196
:1031280000940195002DF4DA0123134C5B420093BF
:103138000194EEE753465B005344033BD3189C705D
:10314800D119D25D002A00D05A7053460B706C73A7
:10315800307D009A019B00F0FBF981460028A7D03A
:103168002100306800F040FCA2E70020B4E701200D
:103178004042B1E7FFFFFF0FFFFFFF7F407D704731
:10318800F0B54746CE46040080B50D009626764237
:10319800F71736196F4185B08F4215D812D000F055
:1031A8004DF932003B00121A8B41002B16DC002B24
:1031B80039D02000290000F075F905B0C0BCB94627
:1031C800B046F0BD8642EAD90026002700F036F95D
:1031D80032003B00121A8B41002BE8DD00230293DA
:1031E8000193124B3200009311483B00FFF70AFF8E
:1031F8000028DEDBB846B1460E4F0F4E736A98457D
:1032080004D8B26A9145D4D99845D2D13A68EFF337
:10321800108172B61368002BFCD0BFF35F8F3800A3
:1032280006F0A8F8EAE7002AC3D0D7E7812A0020E9
:1032380060EC0020B81901200040054070B504007A
:103248000D0000F0FBF800196941002902DBFFF7C7
:1032580097FF70BD012001494042F8E7FFFFFF7F5B
:1032680070B5060000F0EAF8FA2204000D00002309
:1032780030000021920003F0C1FA001969410029C9
:1032880002DBFFF77DFF70BD012001494042F8E7EE
:10329800FFFFFF7FF0B5EFF30583CE46474680B5C5
:1032A80005000C0085B0002B12D02C4A0020536A70
:1032B8009C4203D8926A0130AA4204D305B0C0BC2C
:1032C800B946B046F0BDE01A421E9041C0B2F5E7DB
:1032D800234E02930193234B0200009330000B000E
:1032E800FFF790FE031EE0DD20BF7168EFF3108743
:1032F80072B60A68002AFCD0BFF35F8FDAB2944630
:103308003068427B62451DD0FF221A405100894631
:10331800016891448846494641440339897800291F
:1033280013D0F1681B0A88464244013A1278DBB28E
:103338009A420FD07368BFF35F8F00221A6087F339
:103348001088B2E7FF221A40EBE732699342F1D1C5
:103358003161EFE7614600F047FBEBE700400540CD
:1033680060EC0020812A0020F0B5EFF30582D646F4
:103378004F4646461000C0B51038EFF3108872B6B5
:10338800214C2368002BFCD0BFF35F8F0123190069
:1033980081401E4D1F006963AA461D4D29601D4DC1
:1033A8002E78AC463500C5402F402B4209D1BFF3DB
:1033B8005F8F276088F31088E0BCBA46B146A846FC
:1033C800F0BD5346144D5F6A83005D59AF420ED37A
:1033D800124A8E439B5862461670BFF35F8F0022D5
:1033E800226088F31088002BE6D09847E4E70C4B5E
:1033F80092009C46624413681360BFF35F8F0023FA
:10340800236088F31088D7E7280100D000400540E2
:103418003C700540FD1A0320C4190120D4F4002093
:10342800D03F054010B50100024A0348FFF772F883
:1034380010BDC046C4E50020F31A0320034B596AA7
:103448000A00986A596A8A42FAD1704700400540D2
:1034580070B504000D00124A536A1900966A536A3F
:103468008B42FAD13000190024184D41AB4211D8D3
:103478000ED02B000A494A6A9A42FCD307D1084A5F
:1034880002E0516A994202D1916AA142F9D370BD12
:10349800A642EED9012301246442E5175B42E9E71D
:1034A80000400540064A536A9942FCD807D1044BAC
:1034B80002E05A6A914202D19A6A8242F9D370476D
:1034C8000040054070B504000D00EFF3108672B699
:1034D8001A4A1368002BFCD0BFF35F8F002D1BD056
:1034E8002000FFF7F9F8164981420AD02000FFF7BB
:1034F800FBF801212000FFF7B3F80123A340114A8C
:103508001360114BA400E550BFF35F8F00220B4BF3
:103518001A6086F3108870BD0B4BA200D5500122AB
:10352800A2400A4920000B7893430B700449FFF727
:10353800F9F900212000FFF793F8E5E7280100D00A
:103548003931002038600540D4F40020FD1A0320EA
:10355800F0B54F46D6464646C0B507002C4C616AC2
:103568000D00A66A616AA942FAD18B4208D805D033
:103578000120E0BCBA46B146A846F0BDB242F7D930
:10358800EFF3108A72B6234801680029FCD0BFF314
:103598005F8F0125BD4020491D4C88460978894622
:1035A8002943C9B28C46414660460870391D1B48FC
:1035B800890065630A51B9000B50216A002029422D
:1035C80019D0616A0800A66A616A8142FAD18B4201
:1035D80019D801D1B24216D8CC4516D00C4B1F20B1
:1035E8001D625D6301230740BB400D4A1E3813600E
:1035F80043464A461A70BFF35F8F0022054B1A6094
:103608008AF31088B5E70020F5E70120F3E7C04604
:1036180000400540280100D0FD1A0320C4190120EC
:1036280080E200E0EFF3108C72B60A490B68002BB9
:10363800FCD0BFF35F8F01238340074A074813621A
:1036480002789A430270BFF35F8F00230B608CF3FC
:1036580010887047280100D000400540FD1A03205B
:10366800042330B5D3560F4C9B001B590025545FDB
:1036780087B00594072414570B4D04940624145757
:10368800039405241457029402241457013CA400FF
:1036980064590194D27852B20092044A02F00CF9AB
:1036A80007B030BDB4E60020D0E60020E8E50020F1
:1036B80070B5050014001600002915D00C00002A6A
:1036C80012D080686B689847296800280ED073006C
:1036D8009B196200033B1219CB18033A9C70881897
:1036E8008A5C002A15D10670200070BD63001B1982
:1036F8007200033B9219CB18033A9E7088188A5CB3
:10370800002A02D104703400EEE75A7004703400C5
:10371800EAE75A700670E7E730B583600023CCB259
:1037280043730133047342608373C4730D000068EC
:10373800012C06D9421C0133DBB2137003329C42C0
:10374800F9D1FF2129404B005918002340180338AC
:10375800437030BDF8B5CE46474606000C0080B52C
:10376800002907D04D0003686D18033D5A19577892
:10377800002F04D12000C0BCB946B046F8BD79007E
:10378800C919033988464344597889460021597034
:10379800517073683A0021008068984733680028A0
:1037A80014D042469A18947059195B5D002B00D0CA
:1037B80053700F70270049463000FFF7CBFF3900E0
:1037C80002003000FFF774FF0400D3E74246414689
:1037D8005D19AF709A185B5C002B00D06B70147089
:1037E800E9E7C046F0B557464546DE464E46E0B5E1
:1037F8000D006B0001685B19DF1E0400C85D83B013
:103808000192CA19002850D043001B18033BCB185B
:103818005E78B446002E1AD1019E002E42D0E67B77
:10382800002E04D073009B19CB18033B5D70A37B5B
:10383800002B00D1A573E57300282FD10023537006
:1038480003B0F0BCBB46B246A946A046F0BD720024
:103858006244033A89184A78904600224A70914691
:103868005A70010032002000FFF722FF43468246CB
:10387800002B07D05B0021684344033BCB185A78E0
:10388800002A16D1424651462000FFF711FF216851
:10389800019BCA19002BC2D10028CFD043001B18A6
:1038A800033BCB1800219970C8E7019B002BB6D1C8
:1038B800C4E75000801803380918487883464846FA
:1038C8004870587041462000FFF7F2FE594680467E
:1038D8002000FFF73FFF414602002000FFF7E8FE07
:1038E8008046CFE7F0B557464546DE464E46E0B53A
:1038F80083B00191457B04006B0000685B19DF1EF3
:10390800C15DC219002952D04B005B18033BC31894
:103918005E78B446002E1CD1019E002E44D0E67B72
:10392800002E04D073009B19C318033B5D70A37B62
:10393800002B00D1A573E573002931D1002328009D
:103948005370617303B0F0BCBB46B246A946A046AB
:10395800F0BD72006244033A801842789046002213
:10396800427091465A7020003200FFF7A1FE43468C
:103978008246002B07D05B0021684344033BCB18E9
:103988005A78002A17D1424651462000FFF790FE88
:10399800019B01002068C219002BC0D10029CDD09D
:1039A8004B005B18033BC31800209870C6E7019BC7
:1039B800002BB4D1C2E750008018033809184878A2
:1039C800834648464870587041462000FFF770FE0D
:1039D800594680462000FFF7BDFE41460200200000
:1039E800FFF766FE8046CEE770B5040000292CD0AC
:1039F800437B8B422ED005684800401803382818AE
:103A08008278002A21D053009B18033BEA5CEE1809
:103A18008A4202D11BE0002A08D053009B18033BBE
:103A2800EB185A788A42F6D142785A70002301225C
:103A3800837043702000FFF7D5FE617B02002000F1
:103A4800FFF736FE6073012000E0002070BD437868
:103A58003370EBE701221900FFF7C4FE6073012001
:103A6800F4E7C046F8B5CE464746040080B50620C0
:103A78000E0000F003FB051E51D0524B5249E218CC
:103A880053425A418023DB039C4692054F4B6244C4
:103A98001A604F4B1A6010008B689843FBD1494B52
:103AA8008021E3185A4253414A4A5B00490099521F
:103AB800062000F0E3FA3100C00001F0A1FFC309BD
:103AC80032D14022012190466162A362256BEB0747
:103AD80036D427008026E36A00232C3776013E433C
:103AE80033600620256300F0C9FA4146800001F0E2
:103AF80087FF236B05009846DB073BD46022E36A07
:103B08005A406E23134033604346236380231022B8
:103B18009B013B431A60304B23630323A3642800B3
:103B2800C0BCB946B046F8BD2C4A93423FD90023E1
:103B38002B492C4A6162A362256B9046EB07C8D5D6
:103B48002200C02330329B011343234A06201A6007
:103B5800666AA26AB601B61800F090FA224901F026
:103B68004FFFB6020100300001F04AFF0021FFF7C5
:103B78006FFCAEE72200C02330329B011343164A84
:103B880006201A60636AA26A9B019946914400F074
:103B980075FA4B4614499B02994601F031FF010022
:103BA800484601F02DFF0021FFF752FCA6E77F22CF
:103BB80099018846104001304008190080440300EC
:103BC80082E7C0460080FCBF00C0004000E0004023
:103BD80000F00040D419012001030000FEFF00009E
:103BE800FFFF0000C0FF3F004E0E0000F8B50400C4
:103BF80006200D0000F042FA2900C00001F000FF85
:103C0800C30924D0224A934239D90023214A224E9B
:103C18006262A362256BEB0720D52200C0233032F5
:103C28009B0113431D4A06201A60676AA26ABF01F6
:103C3800BF1800F023FA1A4901F0E2FEBF020100A2
:103C4800380001F0DDFE0021FFF702FC06E0402607
:103C580001226262A362256BEB07DED4E36A2200CD
:103C680080232C325B011343002206201A6025634F
:103C780000F004FA3100800001F0C2FEF8BD7F2296
:103C88001040013040089E011A0036180300E0E792
:103C9800FEFF0000FFFF0000C0FF3F00010300001F
:103CA8004E0E00000539013AF8B5D2004C01050066
:103CB8001443002B05D002222243012B2AD10533BD
:103CC8001C432E6BF3070BD4EA6A802362406E24F0
:103CD80014402A005B012C3213431C602E63F8BD8C
:103CE8002A00C02330329B0113430B4A06201A6076
:103CF8006F6AAA6ABF01BF1800F0C0F9074901F04E
:103D08007FFEBF020100380001F07AFE0021FFF7B4
:103D18009FFBD9E71400D4E7010300004E0E000012
:103D2800F8B54B1E9941066B05000C01F3070BD43F
:103D38001023E96A2A004C401C4080232C325B0186
:103D480013431C602E63F8BD0200C02330329B0170
:103D580013430A4A1A60476A826ABF010620BF18DD
:103D680000F08CF9064901F04BFEBF020100380053
:103D780001F046FE0021FFF76BFBD9E701030000C5
:103D88004E0E00004B1E9941F52349429943054BBD
:103D980001319C46604443425841034BFF31400087
:103DA800C15270470080FCBFD419012030B50C20E7
:103DB80083B000F0B9F9FEF7A5FB00280ED0994BA7
:103DC800994A1A605A609A60DA601A615A619A616F
:103DD800DA611A62954A5A6203B030BD944CA06702
:103DE80000F0F6F90122934B1A60636C012BFCD1A9
:103DF8000322914B1A608E4A936B012BFCD101333D
:103E080001218E4A8E480093043300F03DF90523C2
:103E18008C4A009301218C4800F036F98B4B5A6884
:103E2800FF2A02D8802252005A6080227D4C824BA1
:103E380021691201854D1A60002907D0606901F0D7
:103E4800DFFD431C5800C0180338FDD2E0217F4B2A
:103E580002201A681140802252012A431160196811
:103E6800484003210140116004219A681142FCD0A6
:103E78008022802192012A43090111608022520088
:103E88005A60734B2361734B5968FF2900D85A60F5
:103E98000321684A6F4B116002399A681142FCD0BD
:103EA800E0201A681040802252011A4310601868F6
:103EB8004840032101400220116066498A68104287
:103EC800FCD0802292011343802212011A608022C2
:103ED800614B52004A606361604B5968FF2900D802
:103EE8005A6080225E4BE16912015C4D1A6000291C
:103EF80007D0606901F084FD431C5800C0180338DE
:103F0800FDD2E02255490B681A4080235B012B4300
:103F18001A60802380229B012B4312011A608022A1
:103F2800414B52004A60E3614E4B5968FF2900D863
:103F38005A6080224C4B216A12014A4D1A600029AE
:103F480007D0606901F05CFD431C5800C0180338B5
:103F5800FDD2E02243490B681A4080235B012B43C2
:103F68001A60802380229B012B4312011A60802350
:103F780080225B004B602C4BD20223623B4B59687A
:103F8800914200D25A608022394B616A1201374D42
:103F98001A60002907D0606901F032FD431C5800FF
:103FA800C0180338FDD2E02230490B681A4080233C
:103FB8005B012B431A60802380229B012B43120153
:103FC8001A608023DB024B60184B6362294B5A68E6
:103FD800FF2A02D8802252005A608022264BA1690B
:103FE8001201244D1A60002907D0606901F008FD0C
:103FF800431C5800C0180338FDD2E0221D490B6845
:104008001A4080235B012B431A60802380229B0186
:104018002B4312011A6080235B004B600E4BA36197
:10402800DAE6C046F0F50020006CDC021BB70000A1
:10403800008000403CB0004030B00040002F68597C
:1040480000800240008C864700C00240308000405B
:10405800001BB7003C800040405973075480004063
:1040680054B000406080004060B000406C80004068
:104078006CB000404880004048B00040014B8000D0
:10408800C0587047F0F50020F8B5040021481D001D
:1040980017000E0001F0B4FC0100380001F0B0FC7C
:1040A800069B29041B0319432368002B20DB1A4BAA
:1040B8001A4DE21853425A4180235B019C46120371
:1040C800174B62441A60174B1A601700AB689F437E
:1040D800FBD1C022231D92011A4321232660A06030
:1040E80013602368002BFCDA0823E1601360F8BD35
:1040F8003F2322681340B342D9D1A3681B051B0D87
:104108008342D4D1EE22E368D20213408B42CED14F
:10411800EDE7C046001BB7000040FDBF00C00040EF
:1041280000E0004000F000408023024A9B00034367
:10413800D36270470080054010B5140080221B4BE5
:10414800D2051A6000281AD00123194A1843194BBE
:10415800DA61194A42401A62596298628022134B06
:10416800D2051A601549164A1160E022D2041A6075
:10417800002C07D18022134B12061A6010BD0D4B7C
:10418800D861EBE763011B1B9A0080231219120107
:104198005B049A4200D30C4A0C4B1A60054B5A60D8
:1041A8008022084BD2051A60E8E7C04600B00540F7
:1041B800D3C007B0008005402D3FF84FFCFF010039
:1041C8000820014000A00540FFFFFF00DC0A012095
:1041D800AA23064A1B0113602F230549D360054B08
:1041E80019605368002BFCDA7047C0460040024053
:1041F80000B0FA00006002402C4B2D4A70B51A60DE
:104208002C4A2D4B2D491A6014008B689C43FBD116
:104218002B4D2C4EB54208D2013E761BB60808CD70
:10422800984723000134B342F9D1FFF7BFFD264A6E
:10423800214B1A60214A9368DB43DB01DD09002B1F
:10424800F9D14022214B224C224E9A675A671A67AD
:10425800DA66B44208D223682000002B20D00C3440
:10426800FEF7E2FCB442F6D31B4E1C4CC022A168F8
:10427800300002F09BFBA660FEF7BCF9FEF798FC45
:10428800FEF786FE164C174EB44208D2013E361B86
:10429800B60808CC98472B0001359E42F9D170BD6D
:1042A8000834FEF7B3FCB442D5D3DDE700E00040A4
:1042B800BFCDFBFEFE7F3C0000F0004000C0004088
:1042C8000CED00201CED0020FFFFFF0100F0014075
:1042D800FCEC00200CED00200000002000ED00E0C8
:1042E8001CED002028ED002000BEFDE710B5FFF70B
:1042F800FBFFC0460FB400B5084883B002F0BAFC13
:10430800049B002B07D005A91800019101F0F8FAC9
:10431800034802F0AFFC0120FFF7E6FF00E70020AA
:10432800B8E3002010B50148FFF7E4FF10E70020CC
:1043380010B50148FFF7DEFF20E700209A4200D2BF
:10434800885470477047C046F8B557464E464546AC
:10435800DE46E0B599460A9B07009A460D9B8846BB
:10436800934615000B9E9B0710D10C9B9E420DD2C5
:104378009D1B14000E005D4422004B4601343100A1
:104388002020B847A542F7D1B0460B9E002E27D073
:10439800444675195346AA1B013E985D21004B46B9
:1043A800B847002EF6D123002C0098460D9B9B079A
:1043B8000FD55B46E51A0C9BAB420AD94646984690
:1043C80022004B46310020200135B8470134A8456A
:1043D800F6D82000F0BCBB46B246A946A046F8BDB8
:1043E8002C00E3E7F0B54F464646D646C0B584B044
:1043F80098460EAB1B78129F994694460D9C109BCD
:10440800119EBA0725D4002E4BD19C4200D3BFE0A1
:1044180001223A4092461F2C00D9B8E00C9A551E4A
:10442800302201E0202C03D001342A55A342F9D8C8
:104438005246002A0DD0A6420BD9202C44D00C9A03
:10444800551E302201E0202C3ED001342A55B442BA
:10445800F9D1FA064DD57A053FD4002C39D10F9BF6
:10446800102B00D179E00F9B022B00D18AE030237A
:104478000C9A012413704B46002B3FD02D230C9A25
:10448800135501340C9B62460093039743460296EA
:104498000194FFF759FF04B0E0BCBA46B146A846FC
:1044A800F0BD012215003D40AA463A422FD04A46A7
:1044B800002A02D10C323A4200D0013E9C42BAD2C4
:1044C8001F2CABD9202E27D92024FA06DAD57A0555
:1044D80003D4A3422DD0A6422BD00F9B102B32D051
:1044E800022B20D0202CCDD030220C9B1B191A7007
:1044F8000134202CC6D04B46002BBFD17B070DD4EE
:104508003B07BFD520230C9A13550134BAE79C42C8
:104518009FD21F2C00D881E720249AE72B230C9ADE
:1045280013550134AEE7202CACD00C9B1B19013479
:104538003AE0631E012C92D00F9A102A2AD0022A40
:104548002FD01C00D0E7BB060ED4202C9AD00C9B91
:104558001A19013478231370C4E7BB060DD47823E5
:104568000C9A01241370BFE7202C00D18AE7582247
:104578000C9B1B191A700134B4E758230C9A0124B8
:104588001370B1E70C9A603301241370ACE7202450
:1045980000265EE7023CBA06E9D40C9A12191C0000
:1045A800D8E70C9A9246534462221A709AE7C0469A
:1045B80010B5002800D110BD02F010FBFBE7C04683
:1045C8000B0010B5002802D049681B68984710BD39
:1045D800F0B5DE4657464E464546E0B59BB09B468D
:1045E800249B89469846259B0B900C924046424650
:1045F80019009A4601F0CDFC002800D0D8E001222D
:1046080040465146774B524201F0BEFC002800D08C
:10461800CEE0012240465146734B524201F09EFCC7
:10462800002800D0C4E0002200234046514601F093
:1046380095FC002800D0B9E1424653460A920993F6
:104648008023289ADB001A400E92289A1A4201D138
:10465800062326930A9A099B1600134300D0C7E045
:10466800289B002500261B0500D49BE100230D9301
:10467800269A0D9B9A4200DC9FE1D01A431E26938E
:104688008023289ADB001A430023002728920D93E1
:10469800279B0024BB4200D9DC1B0223289A1A401E
:1046A8000E92289A134203D07B427B415B421C4006
:1046B8000D9B002B07D00A9809992A00330001F0B6
:1046C800ECFB0A900991002200234046514601F074
:1046D80045FC002805D080200006844609996144DD
:1046E8000991289A414B0B9D13400493269B0A9AE3
:1046F8000293099B03940092019349465B46280064
:104708000C9A00F08BF90400002F62D0289B22003D
:1047180098061F23C0179843631C984649465B4672
:104728006530A8470D9B0025DA179C18DB0F9A46C1
:104738005440013F01E0202D13D00AAA94461F23BC
:10474800200063440A2101355E1901F059F930311E
:10475800317020000A2101F053F926000400092EC7
:10476800E9D805230693002304930A330393534699
:1047780005970B9F029312AB009342465B4649464E
:1047880038000195FFF72EFE0E9B0400002B20D069
:104798000C9BC51A279BAB421BD91E0022005B4607
:1047A800494620200135B8470134AE42F6D810E01A
:1047B800289B42460493279B49460393269B0B98C4
:1047C80002935346009201935B460C9A00F026F937
:1047D800040020001BB0F0BCBB46B246A946A04668
:1047E800F0BDC046FFFFEF7FFFFFEFFFFFF7FFFFC2
:1047F800734B099F9C467800400D604401F0DCFB38
:10480800704A714B01F067FB704A714B01F03CFB39
:104818003B03704A1B0B1A4304000D0030001100C3
:104828006D4B002201F027FB6C4A6D4B01F053FBE6
:1048380002000B002000290001F026FB01F0D4FB48
:104848000D9001F0B9FB674A674B04000D0001F0B9
:1048580042FB0022654B01F017FB01F0C5FB644ADF
:104868000600644B2000290001F035FB04003000ED
:104878000D000F9601F0A0FB5F4A604B01F02BFB87
:1048880002000B002000290001F0F5FA02000B00DD
:1048980006000F0001F01FFB320004000D003B0072
:1048A8003000390001F0F0FA002210901191544BB9
:1048B8002000290001F0F1FA0022524B01F0E4FA3D
:1048C80002000B002000290001F0E7FA00224E4BFD
:1048D80001F0DAFA02000B002000290001F0DDFAED
:1048E8000D008021040032003B000020C90501F0C2
:1048F800C2FA02000B002000290001F0C5FA0200EC
:104908000B001098119901F0C8FA0022314B01F000
:10491800BBFA3E4B0F9C9C4664440022230501F0E1
:10492800DAFA05000E0002000B000A98099901F056
:1049380015FB00280AD00D9B2800013B31000D9380
:104948000022304B01F0A9FA05000E00C6270D9988
:104958002B0063318F42BF4128997F4204370905F4
:1049680000D495E6334300D182E6099C284A210009
:10497800284B0A9801F000FB002808D000222100EB
:10498800254B0A9801F0EAFA002800D070E6269B29
:10499800002B00D17CE60E9B5A1E9341269AD31A0F
:1049A800269375E6002304270D9371E643460A9380
:1049B80080231B065344099342E6002326935FE6AF
:1049C80001FCFFFFFB799F501344D33FB3C8608BB2
:1049D800288AC63F0000F03F0000F83F61436F633C
:1049E800A787D23F71A379094F930A400000E03F9F
:1049F8001655B5BBB16B0240EF39FAFE422EE63FC1
:104A080000002C400000244000001840FF03000074
:104A18002D431CEBE2361A3F80842E41F0B54E46FA
:104A2800DE4657464546E0B597B09946209E219FF9
:104A3800229B8346984607910C923B003200300037
:104A4800390001F0A6FA002800D0A9E101223000BF
:104A58003900CA4B524201F081FA002800D0E1E047
:104A6800012230003900C64B524201F08DFA00286D
:104A780000D0B7E0002230003900C24B01F084FAC0
:104A8800002800D099E0002230003900BE4B01F028
:104A980065FA002800D090E0002200233000390099
:104AA80001F05CFA002800D0B1E000230D93249BAC
:104AB8005B0501D40623984608AB9C4617220024C0
:104AC80030234146624404E0013413550139202C57
:104AD80001D00929F8D888463000390001F084FA55
:104AE8004346DA00A94B05009B181A685B680892D0
:104AF800099301F061FA02000B003000390001F05F
:104B0800BAF9089A099B01F0E6F90A900B9101F0AD
:104B18008FFA824601F04CFA02000B000A980B99B2
:104B280001F0A9F900229A4B0A900B9101F02CFA96
:104B3800002800D1C0E001239C46E244504601F021
:104B480037FA02000B000898099901F00DFA0028BD
:104B580002D000239A4601354346002B6AD008ABA1
:104B680017269C4608956644554614E001235B4287
:104B780043440A2128009A4600F042FF01343031AC
:104B88003719397028000A2100F03AFF092D00D89A
:104B9800D0E0D0460500202CE8D10EAB9846032380
:104BA800249A1340012B00D196E02023249A0193E4
:104BB8000392239A434602921EE0249B584604938C
:104BC800239B00960197039343460C9A02930799F7
:104BD8004B46FFF7FDFC17B0F0BCBB46B246A946F2
:104BE800A046F0BD249B5B070ED40322694B249991
:104BF8000192039123990291009358464B460C9ACF
:104C08000799FFF7A1FBE6E70422634BEFE73B00B8
:104C180032000020002101F02EF9012306000F00C8
:104C28000D9344E7249B0393239B0293042301934E
:104C38005A4BE1E7280001F0BFF902000B003000F1
:104C4800390001F018F9524B002206000F0001F05C
:104C580085F90EAB984600280AD1002230003900A9
:104C68004B4B01F091F9002802D1EB0700D5013533
:104C7800202C94D008AA94461723280063440A21BC
:104C880001341E1900F094FE3031280031700A21D9
:104C980000F08EFE051EEBD10323249A1340012B4E
:104CA8001BD0202C00D180E70D9B002B35D02D2266
:104CB8004146631C0A5579E700220A980B99344B40
:104CC80001F04CF9002800D046E75346002B51D19B
:104CD80001239C46E2443FE72024239B002BE0D09D
:104CE8000D9B002B03D1249A0C33134202D0239B33
:104CF800013B2393239BA342D3D908AB9C4617229D
:104D080030236244202C00D14FE7239901341355F6
:104D18008C42C6D0202CF8D147E7249B5B0724D4CB
:104D2800249A2300120700D440E720224146013389
:104D38000A553BE75746089D202C00D12DE7220055
:104D480030214046002F09D00132B154202A00D129
:104D580023E7D3431B191B18002BF5D10EAB98463C
:104D68002E234146541C8B5482E72B224146631C58
:104D78000A551BE7DB0700D4EEE6A9E7FFFFEFFFC4
:104D8800FFFFEF7F65CDCD4165CDCDC128E900207E
:104D98000000E03F2CE7002030E700203CE700203F
:104DA800249B0393239B029303230193004B23E744
:104DB80038E70020F0B5DE464E4657464546E0B592
:104DC8009FB01C00289B91460993C94AC94B8B4642
:104DD80008901A60002900D118E2002320789A462A
:104DE800002800D11AE226001D005C460AE02A00CD
:104DF8006F1C4B46089D2100A8473D0001363078BE
:104E0800002870D02528F2D110239B46083B9A46EB
:104E1800043B9846023B00219C46721C1078160001
:104E28000300203BDBB2102B03D8B34F9B00FB5889
:104E38009F460300303B092B32D900230A932A28C6
:104E480068D0002398462E283ED00300683BDBB28A
:104E5800122B1CD8A94A9B00D3589F460123013224
:104E68001943DBE7634601321943D7E7434601326A
:104E78001943D3E75B4601321943CFE75346013262
:104E88001943CBE780235B00707819430136030090
:104E9800253BDBB2532BAAD8994A9B00D3589F468F
:104EA80000270300B800C01901364000C018337845
:104EB80030381A00303A0700092AF3D90A90180046
:104EC800002398462E28C0D180237078DB00194330
:104ED8000300303B721C092B00D8A1E12A2800D11D
:104EE800B2E11600B1E7A346AA462C00D14503D883
:104EF80001235B424B449A464B4652465946002092
:104F0800089DA84720001FB0F0BCBB46B246A94682
:104F1800A046F0BD099B40CB0A96002E03DB5078D3
:104F28000993561C8DE72838014370420A9009936B
:104F38005078561C85E7782800D1DFE1582800D141
:104F48004CE26F2800D14FE3622801D100F030FC19
:104F580010230A009A430B92692801D000F0A9FC9B
:104F68000A230C934B0500D5D0E10B9A802311003E
:104F78009B0019408B461A4200D0A1E28023110001
:104F88005B0019408A461A4200D0B6E313005B065C
:104F980000D5EDE2130009991B0601D400F076FC58
:104FA80008C91BB2D8171A18424092B20991934601
:104FB800DA0F1292002B09D1802310220B99DB0003
:104FC8000B4091430B91002B00D0E4E20B9A612334
:104FD800920600D541230EA91F228C46DBB26244FB
:104FE8000A3B5F461395A34655460C9CB2460D9363
:104FF80016000AE03033DBB201357355A74200D200
:10500800EDE2202D00D1EAE207002100380000F08F
:10501800F7FCCBB20929EDD90D9A94466344DBB26B
:10502800EAE780239B007078194301362FE77078F0
:10503800682800D1CDE180230136194327E770782D
:105048006C2800D1BFE180235B00194301361EE7BD
:10505800462800D19BE10722099B0491073393431B
:105068000A9A19000392424602920CC908980092C3
:10507800019309912A004B462100FFF7CFFC013626
:105088000500BCE62A006F1C4B46089D2100252020
:10509800A84701363D00B2E68B0700D4ADE1099B75
:1050A8002A009A466B1C9846534601CB21009A4623
:1050B800089F4B46C0B2B8470A9B9C466544012BE3
:1050C80000D886E2089B4746B04626004C469946DB
:1050D8003A002300013731002020C847AF42F7D1FA
:1050E800A1465346340046460993013687E6C04632
:1050F800854B0020D80A012044E7002088E70020DB
:10510800D4E70020099B04CB9B4643460992002B19
:1051180000D1C6E013789C46002B00D1BDE343467E
:10512800013B099A0133D0180A9F130001E083421A
:1051380003D05A780133002AF9D1099A0A979B1AA1
:105148000B9380230A00DB001A400C92194204D00A
:105158000B9B434501D943460B9302231A000A408F
:105168000D920B4200D187E16046002800D168E12A
:105178000C9B002B00D10DE1A844C246099B574661
:105188005B1B9846089BB2462A0026004C46994667
:1051980009E023003100551CC8474346585D0028E4
:1051A80000D126E12A009742F3D1A1463D00340000
:1051B80056460D9B002B00D043E15B460136099310
:1051C8001DE6099B1A0008CA9246002B48D02122E6
:1051D80011438B460EA884461F216144099500227D
:1051E8000F27A4460D0002E0202A0CD00B003C003B
:1051F8001C4020003730092C00D807380132A85449
:1052080019090F2BF0D86446099D32E0DC4B207851
:10521800089300239A46002800D0E4E5002465E6B8
:10522800434606000A9F9800C018013240008019C2
:105238001678030030003038303B0928F3D93000A5
:10524800984616000A9700E6099B023604CB90465A
:10525800D2434046D2171040804609933078F4E58F
:10526800102208009043113210438346002249055A
:10527800B0D55B4606930823059343460493102351
:1052880003930023029316AB019200932A004B4626
:1052980021000898FFF7A6F8534605000136099340
:1052A800ADE513789C46002B00D1F7E202235B4260
:1052B80037E7202302009A43472A04D180231B01A1
:1052C800194302239843452801D120231943072273
:1052D800099B0491073393430A9A190003924246A3
:1052E80002920CC908980092019309912A004B4632
:1052F8002100FFF76DF90136050080E510230C93B6
:105308000C230A009A430B924B0503D501230B9AF1
:105318009A430B92692800D127E6642800D124E635
:105328000B9A802311009B0019408B461A4200D02B
:1053380066E1802311005B0019408A461A4200D0BA
:1053480039E213005B0600D53CE113001B0600D4CC
:10535800A6E2099B04CB1204120C934609935B4600
:10536800002B00D09AE10B9A1033110099430B914E
:10537800520500D492E100239A460B9B06930A9BA0
:105388000593434604930C9B039300230CE12023CD
:10539800194360E6099B0A9A5B1B98464B4691465F
:1053A8001F00B2462600089C2A003B003100A04797
:1053B80043460135585D0028F6D14A463400B946BF
:1053C80056460A92F5E6C0239B00B0781943023688
:1053D8005DE5C023B0781943023658E50C230A006E
:1053E8009A4314331A43103B0B920C934B058DD4FC
:1053F80096E7A14634005646DBE60A9A012A00D809
:1054080053E26B1E9F18089BB04626004C469946EF
:105418002A002300013531002020C847BD42F7D1BA
:10542800A14634004646099B3A0001CB2100984624
:105438007D1C4B46089FC0B2B847434601360993C6
:10544800DDE40B9B0A9AA8469A4200D8B5E6944632
:105458006544ED1A089B4746B04626004C469946D7
:105468003A002300013731002020C847AF42F7D166
:10547800A14634004646A0E60B9A0A99531C91426D
:1054880000D814E24B199B1A1F00089BB24626004D
:105498004C4699462A002300013531002020C84790
:1054A800BD42F7D10A9BA14601330B93099B3400F7
:1054B8001B7856469C466046002800D058E67CE695
:1054C8000722099B07339343013294469C44624662
:1054D8005F6809921A68FB17109311931098119935
:1054E800030053400E930B007B400F9394460E9A93
:1054F8000F9B121A8B410E920F93FB0F6246129369
:1055080000233A439B463DD00B9A6123920600D56F
:1055180041230022DBB20EA90A3B8C4692460D932A
:1055280043461F3262441395159655460E9E0F9FAB
:10553800A24690460C9C14930CE03032D2B24346FB
:1055480001355A55BB4500D18AE1202D00D18AE1A9
:1055580006000F00220000233000390000F08EFA08
:10556800D2B2092AE9D90D9B9C466244D2B2E6E739
:10557800FF23099904C913401A00099117E5C04689
:10558800154100200B9A1033110099430B915205D5
:10559800BAD500239A460B9B06930A9B059343466C
:1055A80004930C9B0393129B02935346019316ABEF
:1055B8002A00009321004B460898FEF713FF013696
:1055C80005001CE4FF22099B02CB11408B4609937E
:1055D800C5E65346454609930136FFF710FC564683
:1055E8005C46AA46139DD6E708230C930B910B99AA
:1055F800642800D084E60B9B5B0500D586E6B4E4FE
:105608000722099B07339343013294469C44624620
:1056180009921A685B6810009B4613005A461343A8
:1056280007D10B9A1033110099430B91520500D5FD
:10563800A1E60B9A6123920600D541230022DBB232
:105648000EA90A3B8C4692460D9343461F3262448C
:105658005F461295A34655460400B24690460C9EF6
:1056680013930DE03032D2B2434601355A55002328
:10567800BB4200D100E1202D00D100E104000F0061
:10568800320000232000390000F0F8F9D2B2092ACC
:10569800E8D90D9B9C466244D2B2E5E70B9A612398
:1056A800920600D54123DBB20EA90A3B1F228C4685
:1056B8000D93230062445C461295170055469B469D
:1056C800B2460C9E08E03033DBB201357B55B4425C
:1056D8000ED3202D0CD004003100200000F090F9EA
:1056E800CBB20929EFD90D9A94466344DBB2ECE7B3
:1056F80056465C46AA46129D3FE6099B1A0008CA10
:10570800D91713925A184A409246DA0F1292002B70
:1057180008D1802310220B99DB000B4091430B9199
:10572800002B2BD10B9A6123920600D541230EAA98
:105738001F279446DBB20A3B0D9567445D460993E3
:10574800A3465446B2460C9E08E03033DBB201351E
:105758007B55B4420ED3202D0CD00400310020001C
:1057680000F04EF9CBB20929EFD9099A944663445F
:10577800DBB2ECE756465C46AB460D9D0B9B2A0018
:1057880006930A9B21000593434604930C9B0898B3
:105798000393129B013602935B46019316AB009369
:1057A8004B46FEF71FFE139B05000993FFF727FBE7
:1057B80002230C931AE7099B04CB92461293002A02
:1057C80008D1802310220B99DB000B4091430B91E9
:1057D800002B2BD10B9A6123920600D541230EAAE8
:1057E8001F279446DBB20A3B0D9567445D46099333
:1057F800A3465446B2460C9E08E03033DBB201356E
:105808007B55B4420ED3202D0CD00400310020006B
:1058180000F0F6F8CBB20929EFD9099A9446634407
:10582800DBB2ECE756465C46AB460D9D0B9B2A0067
:1058380006930A9B21000593434604930C9B089802
:105848000393002302935B46019316AB00934B46E8
:10585800FEF7C8FD129B050009930136FFF7CFFA42
:10586800B44200D871E6149B54460E960F97AA4688
:105878009846159E139D8EE6A64200D8FBE6139B1C
:1058880056469846AA465C46129D76E508C9D8173A
:105898001A1842400991FFF78AFB00230B9350E442
:1058A800099B04CB9346099359E52F00BBE50B935D
:1058B80001E6063B0C939AE60CB410B584B006AC2E
:1058C80008CC0A000094010004480394FFF772FA18
:1058D80004B010BC08BC02B01847C0460D410020F7
:1058E80000B585B00391012102900093034813008D
:1058F8004A4202A9FFF75EFA05B000BD91430020B5
:1059080010B5094A0300146884B0002C08D001229D
:1059180000910648524203A9A047012004B010BDD7
:1059280001F0A8F90020F9E7D80A012081430020F6
:1059380001480421014B184790EC00203D570020F6
:10594800014B5B681847000090EC0020142310B549
:105958000100188804331B88984710BD162310B51A
:105968000100188802331B88984710BDF8B54746D0
:10597800CE4680B50F1E19D014239946043304006F
:105988000025012698464B461888434621681B88FF
:10599800984701C4431E9841013540420640AF4232
:1059A800F1D13000C0BCB946B046F8BD0126F8E7D1
:1059B800124A936F9B0815D29066D166002905D0CC
:1059C800FFE7FFE7FFE7516F106F704704B58021CD
:1059D8000906C2175140002800D0C84307F01CFA36
:1059E800002104BDF0B5146E556E576F166FFFF7A2
:1059F800E3FF1466556657671667F0BD000000D0D0
:105A0800114A936F9B0813D210665166002905D07E
:105A1800FFE7FFE7FFE7516F106F704704B50028F5
:105A280001D00020C04307F0F7F9002104BDC046AB
:105A3800F0B5146E556E576F166FFFF7E5FF1466D5
:105A4800556657671667F0BD000000D094464A4A6D
:105A5800926F9208624601D228E0C046F0B5464EE1
:105A6800346E756E776F366F00F020F89446424AB0
:105A780014665566576716676246F0BD94463E4AF7
:105A8800926F9208624601D254E0C046F0B53A4E91
:105A9800346E756E776F366F00F04CF89446364A60
:105AA80014665566576716676246F0BD002B24DBFF
:105AB80011D000293EDA00B5C943404200D1013176
:105AC80000F038F8C943404200D10131DB4352426B
