:020000041000EA
:1000000000B5324B212058609868022188439860DF
:10001000D860186158612E4B002199600221596106
:100020000121F02299502B49196001219960352056
:1000300000F044F80222904214D00621196600F024
:1000400034F8196E01211966002018661A6600F04E
:100050002CF8196E196E196E052000F02FF8012189
:100060000842F9D1002199601B49196000215960AB
:100070001A491B48016001219960EB211966A021F2
:10008000196600F012F800219960164914480160C1
:100090000121996001BC002800D000471248134993
:1000A000086003C880F30888084703B5996A0420EC
:1000B0000142FBD001200142F8D103BD02B5186610
:1000C0001866FFF7F2FF186E186E02BD00000240BE
:1000D000000000180000070000035F00212200005C
:1000E000F4000018222000A00001001008ED00E03C
:1000F00000000000000000000000000074B24E7A12
:1001000000200420F7010010C3010010C5010010F9
:10011000C1010010C1010010C1010010C101001097
:10012000C1010010C1010010C1010010C701001081
:10013000C1010010C1010010C9010010CB01001065
:10014000CD010010CD010010CD010010CD01001037
:10015000CD010010CD010010CD010010CD01001027
:10016000CD010010CD010010CD010010CD01001017
:10017000CD010010CD010010CD010010CD01001007
:10018000CD010010CD010010CD010010CD010010F7
:10019000CD010010CD010010CD010010CD010010E7
:1001A000CD010010CD010010CD010010CD010010D7
:1001B000CD010010CD010010CD010010CD010010C7
:1001C00000BE00BE00BE00BE00BE00BEEFF3058054
:1001D000103800BEF2EB8871D8020010F80200104F
:1001E0003402001090A31AE700202249086006C8D4
:1001F00081F30888104720480068002835D10DA4F5
:100200000ECC002902D000F012F8F9E71B491C4A75
:10021000002000E001C19142FCD11A4988471A49E7
:1002200088471A49884700BEFDE701C901C29A42C2
:10023000FBD37047F8020010C000002044C5002026
:100240007CC7001050C5002078DC0020A4DE001020
:100250000000042000000420A4DE00100010042090
:1002600000100420000000007047094800F014F856
:100270000047000008ED00E0000000D078DC00201E
:100280003C0303209D350020A1160020913600205C
:10029000575600000000000001B40248844601BC2B
:1002A000604700BFF14C002006005250ABB36053D2
:1002B000D8D8002006005250861C0302E8D800203F
:1002C000060052505422A29DF0D800200500525042
:0802D000DE65F468A4DE0010F5
:1002D800CC020010C0020010B4020010FCD80020AC
:1002E800A802001008D9002014D9002050D90020F5
:1002F800F8B5C0460448054B10B5834203D0044BFB
:10030800002B00D0984710BD78DC002078DC002056
:100318000000000006480749091A8B10C90FC918C0
:1003280010B5491003D0044B002B00D0984710BDDE
:1003380078DC002078DC00200000000010B5074CB5
:100348002378002B09D1FFF7D5FF054B002B02D0EE
:10035800044800E000BF0123237010BDC0DF002067
:100368000000000044C50020054B10B5002B03D049
:100378000449054800E000BFFFF7CCFF10BDC046A8
:1003880000000000C4DF002044C5002030B5002470
:100398000B4B0C4D83B001949C632B68002B0CD045
:1003A8000021286801AA0BF04DF9019B2C60002B55
:1003B80003D08022044B52051A6003B030BDC046FA
:1003C80000400340FC02032004ED00E0802210B549
:1003D80052000021034805F0CDFD0022024B1A709F
:1003E80010BDC04604FD002031030320802210B553
:1003F8000024074B5200002106481C7005F0BAFD86
:1004080096210548490002F0DBFE044B1C7010BD24
:100418003303032004FD0020004003403103032080
:1004280030B583B009F072FC084C094D01902000EA
:100438000BF094FE28682200402102F0FBFBFA2111
:1004480001A889000AF0EAFDF1E7C04654DB002064
:100458005CDB002070B5D02504242D060A206C61D1
:100468000AF022FE0248AC610AF01EFEF6E7C0461A
:1004780060EA000070B5002684B00322002103A8BA
:10048800029605F077FD01231F4D02AC2200009370
:10049800682128000BF0CCFF2200072368212800E0
:1004A80000960CF02DF8A279184B11098800091A4A
:1004B80049005218D2B21A8061790A099000121ABA
:1004C80052008A189A7021790A099000121A52006B
:1004D8008A18DA70E2781A71A1780A099000121A5B
:1004E80052008A185A7161780A099000121A52004B
:1004F8008A1821789A710A099000121A52008A18EB
:10050800DA7104B070BDC04644DC002054DB002022
:10051800F0B5C64600B586B009F0F8FB0123002601
:100528009846274F274D039004AC274903A80AF0A3
:1005380075FD0322002105A8266005F01BFD434632
:10054800220000936821012338000BF071FF22007C
:1005580007236821380000960BF0D2FFA379280002
:100568001A099100521A52009B18DBB22B8062794B
:10057800130999005B1A5B00D318AB702279130931
:1005880099005B1A5B00D318EB70E3782B71A278A3
:10059800130999005B1A5B00D3186B716278130911
:1005A80099005B1A5B00D3182278AB711309990084
:1005B8005B1A5B00D318EB710BF07AFDB5E7C04608
:1005C80044DC002054DB0020C0270900F0B5DE46DB
:1005D80057464E464546E0B589B01E0012AB1B781B
:1005E80006AC9B4613AB1B7803909A4614AB1B785A
:1005F8000491994615AB1B780A21984616AB1F78CB
:10060800002310002370150004F0E4FCC0B20201BE
:100618000A212800059204F0DDFC059A30001143F8
:1006280061700A2104F0D6FC0A21C5B2300004F03A
:10063800D1FC2D010D4358460A21A57004F0CAFCCF
:100648000A21C5B2584604F0C5FC2D010D43504699
:100658000A21E57004F0BEFC0A21C5B2504604F038
:10066800B9FC2D010D4348460A21257104F0B2FC5E
:100678000A21C5B2484604F0ADFC2D010D434046A1
:100688000A21657104F0A6FC0A21C5B2404604F0AF
:10069800A1FC2D010D4338000A21A57104F09AFC34
:1006A8000A21C5B2380004F095FC00232D010D4342
:1006B800E571220000930499039808330BF0B8FE03
:1006C80009B0F0BCBB46B246A946A046F0BDC0463C
:1006D80010B50C4C012302222000072102F0CCFDAA
:1006E8002000012102F006FE1420074901F0E6FA75
:1006F8000121142001F09EFA0121200002F02CFEB5
:1007080010BDC046004003405D010020F0B5C6465C
:1007180000B5002900D1B0E0032443421C404B1E21
:10072800092B00D8ABE0002C00D195E0012302781A
:100738005A40012C00D180E043785A40032C00D065
:1007480098E083785A4003239C460F1BFFB2BB08EE
:1007580098460025002304199E00A65901337540C8
:10076800DEB2B045F8D82B041B0E6B405A402B0262
:100778001B0E5A402B0E53403C0003229443624602
:100788001519DBB2EAB2A74239D0845C6340541C25
:10079800E4B2A14233D9045D6340941CE4B2DBB2F5
:1007A800A1422CD9045D6340D41CE4B2A14226D9ED
:1007B800045D6340141DE4B2A14220D9045D634086
:1007C800541DE4B2A1421AD9045D6340941DE4B2F9
:1007D800A14214D9045D6340D41DE4B2A1420ED9EC
:1007E800045D634014000834E4B2A14207D9045DF3
:1007F8000932D2B26340914201D9825C5340411818
:1008080001390A789A4213D10378012B10D1437821
:10081800522B0DD18378322B0AD1C378022B07D102
:100828000279502A0CD0302A02D18279392A17D07D
:100838000120404280BCB846F0BD01239C4684E7B5
:1008480043792E2BF4D18379302BF1D1C07931380B
:10085800431E98414042EDE7002301229C4674E77D
:10086800007A31280ED03238421E904140429843D7
:100878000230DFE702239C4667E70123BFE7012335
:10088800002282E73038D5E770B50278002386B0B9
:100898002F2A01D006B070BD42783F2AFAD182785B
:1008A800362AF7D1C278312AF4D14018C21E1278FC
:1008B800212AEFD1821E12780D2AEBD10138027855
:1008C8000A2AE7D19621274A090112888A4247D085
:1008D80038D8962189008A423ED09621C9008A429A
:1008E80000D102231121204A01A804F0CFFA6B4657
:1008F80000211C7999758C4217D020220D251B4B9D
:1009080001A800269E5F1A4B002912D1A64214D0D6
:1009180099690A42FCD11C60017801300D394C42BA
:1009280061410478C9B2002CEED10122114B1A7032
:10093800B0E799690A42FCD1EDE799690A42FCD10E
:100948001D60E5E7962149018A4207D09621890171
:100958008A42C7D10523C5E70123C3E70423C1E7BA
:100968000323BFE764DB002098D300200C0201209A
:10097800004003403303032010B50378062B0CD046
:10098800444B00229B5E152B2CD02021424A9369B0
:100998001942FCD11523136010BD43189A1E127812
:1009A8000D2AEDD1013B1B780A2BE9D10629E7D1A5
:1009B8004378302B6BD08378302B66D0C378302BBC
:1009C80061D00379302B5CD04379302B1AD0314B6E
:1009D80000229B5E152B0DD020212F4A93691942C6
:1009E800FCD1D7E720212C4A93691942FCD10D2369
:1009F8001360CAE72022284B99690A42FCD10D22CC
:100A08001A60E9E72C3B0233C35C2449303B098870
:100A1800DAB291420CD21F4B00229B5E152B28D0D4
:100A280020221D4B99690A42FCD115221A60B3E7AE
:100A3800184B00215B5E062B13D02021164B9869BA
:100A48000142FCD106211960052A02D8144B9200F4
:100A5800D4582100104802F0B3FB0222114B1A703F
:100A68009AE720210C4B98690142FCD10D211960AD
:100A7800E3E72022084B99690A42FCD10D221A604B
:100A8800CEE70323BFE70223BDE70123BBE700232B
:100A9800B9E7C0460C0201200040034064DB002097
:100AA800A0D400203303032030B5282189B00BF0EF
:100AB8009BFD06AC411C062220000BF023FEA37808
:100AC800154D9A009B18E2785B00103A9B18227922
:100AD800DBB2910052186179520010395218297806
:100AE800D2B20491A9780391E97802912979019108
:100AF8002178880009186078490010380918C9B2A7
:100B0800064800916821FFF761FDFFF7B3FC280054
:100B18000BF0CEFA09B030BD54DB002044DC0020D5
:100B280030B5282189B00BF05FFD06AC411C0622C8
:100B380020000BF0E7FD2178154D88000918607832
:100B4800490010380918C9B2AB79EA790491A1783B
:100B580088000918E078490010380918C9B20391CB
:100B68002179880009186079490010380918C9B234
:100B78000291297907480191697900916821FFF765
:100B880025FDFFF777FC28000BF092FA09B030BD7D
:100B980054DB002044DC0020F0B5454657464E465D
:100BA800DE46E0B58E4B8F4D1F7898468E4B8BB046
:100BB800FC180023EE5E2403092E00DDCCE030365D
:100BC800F3B20693302307930226AE57092E00DDB1
:100BD800B3E03036F3B20593302308930326AE57BB
:100BE800092E00DD9AE03036F3B2019330230293E8
:100BF8000526AE57092E00DD81E03036F3B20493A6
:100C0800302309930626AE57092E69DC3036F3B235
:100C1800039330230093ED796DB2092D53DC302610
:100C28003035EDB2714872490378724A9B460B78A9
:100C38009A461378994600230370802013700B702E
:100C48000022400103E01032824200D193E0A35C0D
:100C580091B2013BDBB2FD2BF5D9674B0909089A24
:100C68000901C918069B1004079A1B021A431300AE
:100C7800059A034312061343099A0B60019B10045B
:100C8800029A1B021A431300049A034312061343E1
:100C98004B60039B32041802009B03431800104367
:100CA8002B0605001D435B460B7353464B734B469F
:100CB8008B7304238D60CB730BB0F0BCBB46B2467C
:100CC800A946A046F0BD0A21280004F05BF930309F
:100CD8000A21C6B2280004F055F93031CDB2A1E797
:100CE8000A21300004F04EF93030C3B20A21300036
:100CF800009304F047F93031CBB203938BE70A2114
:100D0800300004F03FF93030C3B20A2130000993B3
:100D180004F038F93031CBB2049373E70A2130007C
:100D280004F030F93030C3B20A213000029304F0E5
:100D380029F93031CBB201935AE70A21300004F087
:100D480021F93030C3B20A213000089304F01AF9AF
:100D58003031CBB2059341E70A21300004F012F993
:100D68003030C3B20A213000079304F00BF9303158
:100D7800CBB2069328E743461F4C002120000137D9
:100D88001F7005F0F7F8089A069B1104079A1B02D2
:100D98001A431300059A0B4312061343099A23605A
:100DA800019B1104029A1B021A431300049A0B4375
:100DB800120613436360039B3204009E1B021E430A
:100DC8002B06350015431D435B4623735346637357
:100DD8004B46A3730423A560E3730BF0EFFC6BE7AA
:100DE8003203032054DB0020810001003603032076
:100DF80038030320370303201CE60020F0B5C6465D
:100E0800504B00B5984618000BF0A8F94E4C4246D6
:100E18004021206801F00EFF21684C4805F0CAFA0D
:100E280005F048FA01224A4B4A4E1B68802153407C
:100E3800494A30001340494A490013600822484B88
:100E48001A60FA23474A9B00F71893680B42FCD1B3
:100E5800D368038002308742F7D10822424B4149C8
:100E68001A60F8320B681342FCD08B68134206D123
:100E780080213C4B4900DA689A680A42FBD000247A
:100E88000025308804F0E2FF384904F0D8FF04F068
:100E9800FFFF0022364B04F0D8FA02000B0004F0E2
:100EA80004FB02000B002000290004F0D7FA0236E8
:100EB80004000D00B742E4D100222E4B04F0D7FA0B
:100EC80004F0ACFB00222C4B04F0EFFA00222B4B71
:100ED80004F0CDFA0022002304000D0004F028FBE2
:100EE8000026002804D12000290004F08BFBC6B29C
:100EF8004346DB795BB2042B08DC434606200F210E
:100F0800185604F03FF849B2002902D080BCB84610
:100F1800F0BD1B4B1E701B4B1E701B4B1E70FFF74A
:100F28003BFE8021194C49012078813000030BF0E9
:100F380063FD8022207816498130000352010BF0AE
:100F48009BFDE3E754DB00205CDB0020BCD30020E2
:100F580008C0044004FE00200F00000F08D0044021
:100F680000E0044000C0044000F0044000404E3F50
:100F780072CE994000407F4000C0524000408F40F0
:100F880036030320380303203703032032030320EA
:100F98001CE60020F0B54E4645465746DE46E0B50D
:100FA800794BD5B01E78303EB300F618764B7600F4
:100FB8005B78303BF118744B0E009B78303B9F00F8
:100FC800DF19714B7F00DB78303BFF187BB20E9343
:100FD8006D4B1B79303B9A009B186B4A5B0052792A
:100FE800303A9B185BB21793674B9B79303B9A005A
:100FF8009B18654A5B00D279303A9B185BB219930B
:10100800614B1B7A303B9A009B185F4A5B00527A0F
:10101800303A9B185BB21B935C4B1D78303DAB009C
:10102800ED186D00A846594B5B78303B9844574BF8
:101038009B78303B9A009B18544A5B00D278303A30
:101048009B185BB29946514B1B79303B9A009B1811
:101058004E4A5B005279303A9B185BB216934B4B61
:101068009B79303B9A009B18484A5B00D279303A0A
:101078009B185BB21893454B1B7A303B9A009B1820
:10108800424A5B00527A303A9B185BB21A93884501
:1010980000D1F1E14346CB1A002B00DDD4E1002456
:1010A8006022002123A8229404F064FF602200211A
:1010B8003CA83B9404F05EFF00239C469B46159396
:1010C8001493139310930C93129311930D93013B64
:1010D8000B930A9363460025B2460F9319E05046D6
:1010E800301A00280BDB0A98013000D155E1B345CE
:1010F80000D163E15846301A002800DA4DE1B045C6
:101108004AD04046301A00284DDD214B10359D420B
:101118005DD0204BE81803785A1ED2B2FD2AF4D8C5
:10112800303B46789A009B185B00303EF61883786F
:10113800303B9A009B18C2785B00303A9B180279C2
:101148005BB2303A91005218417952003039521846
:10115800817952B230398C000919C4794900303C80
:101168000919047A407A303CA700BC4664446400FC
:101178003038241849B264B2B245B0D10E989842BA
:1011880000D111E1181AACE7F0FC0020E4FC0020C3
:10119800007F010000100810994500D109E1484678
:1011A800181A0028B1DC0B98013006D00C98B04210
:1011B80000D108E1301A0028A7DD1093C04B0B9529
:1011C80010351594149113920C969D42A1D10A9B47
:1011D8005A1C00D121E10B9A511C00D11DE11900C4
:1011E8001C001300914201DDC0235B030A9A0D9392
:1011F8009A4200D91EE101231EAD22AE0C932C2188
:10120800B04B12AAE35C52181370AF4B0131E35C88
:1012180012AA5218137000233420013112AA52184E
:101228001370AA4A12A9A25C09182A70A84A0130A8
:10123800A25CAB706A70A74AA25C0A70A64A12A99F
:10124800A25C09180A70362112AA52181370A34A10
:101258000330A25C12A909180A70A14A0130A25CE5
:1012680012A909180A703A2112AA521813709D4A35
:101278000330A25C12A909180A709B4A12A9A25C41
:10128800013009180A703E2112AA52181370974BA0
:10129800E35C9946964BE35C9A46964BE35C9B4627
:1012A8000D9B9C4200D133E15B4606935346059360
:1012B8004B46049321AB039320AB02931FAB1E2133
:1012C8008D4A019330001DAB009503F0DFFD239A92
:1012D800229B317E5340249A3BA85340259A534081
:1012E800269A5340279A5340727E4A40B17E009511
:1012F8004A4019045A40090E4A401902090E4A4048
:101308001B0E53400C9A1E215A40D3B20C935B46D5
:101318000693534605934B46049321AB039320ABA6
:1013280002931FAB0193744A1DAB03F0AFFDA422D7
:1013380012AB9B181B789946002B20D06F4B0D27BA
:1013480000229B5EB8469C46002167462022A446A0
:101358004C466B4B3BA8002900D0A2E0A74200D125
:10136800A7E099690A42FCD11C60017801300D3967
:101378004C4261410478C9B2002CECD164460A9B06
:101388000B9A934203DD5F4B9C4200D108E10D9B11
:1013980010349C4200D832E74CE0B3460A951294C8
:1013A80011910F920D93AAE61798904210D0101A37
:1013B80097E61698904210D0101AA4E60D98984215
:1013C80010D0181A98E61098834210D0181AF2E62E
:1013D8001998884216D0081A83E6189888420BD0C4
:1013E800081A90E60F98824212D0101A84E61398D1
:1013F800824230D0101ADEE61A98A04200D1D2E616
:10140800201A80E61B98A04200D16CE6201A68E6F4
:101418001198814228D0081A6EE6384B00229B5E4C
:10142800152B00D1BFE02021354A93691942FCD120
:10143800152313600A220021334804F09BFD0A2279
:101448000021324804F096FD55B0F0BCBB46B246C8
:10145800A946A046F0BD149888420BD1159884423D
:1014680000D152E6201AA6E61298A04200D146E61C
:10147800201A41E6081A9EE60E9B994502D04A4674
:101488009B1A09E6169B179A934208D1189B199A3A
:10149800934204D11A9B1B9A934200D1FFE5D31AB9
:1014A800FAE599690A4200D15EE799690A42F8D1DA
:1014B8005AE799690A42FCD14146196051E7C0468A
:1014C800007F010000100810011008100210081019
:1014D8000310081004100810051008100610081052
:1014E8000710081008100810091008100D1008102F
:1014F8000C1008100E10081018D400200C0201203F
:1015080000400340F0FF1700F0FC0020E4FC00203E
:101518000323984607935B460693534605934B4629
:10152800049321AB039320AB02931FAB01933000CC
:101538001DAB214A00951E3903F0A8FC239A229B73
:101548003BA85340249A5340259A5340269A534027
:10155800279A5340289A53401904327F090E59405C
:101568004A401902090E4A401B0E53400C9A1F218B
:101578005A40D3B20C930893434607935B460693AD
:10158800534605934B46049321AB039320AB029338
:101598001FAB0193094A00951DAB03F077FCC6E623
:1015A80000240D922BE62021054A93691942FCD1AB
:1015B8000D23136037E7C046D0D30020F4D30020B2
:1015C80000400340A94BF0B54E469946DE465746C3
:1015D800454600234A46E0B51360A54B89B0002272
:1015E800A4490093A44800230AF0F8FAA34B8046C4
:1015F800009301220023A249A2480AF0EFFAA24B65
:1016080000269A46A14C0390454608F07FFB00232C
:1016180002000121280000960AF03CFB08F0DEFFDA
:101628004B4618605023A363626B183B1340524625
:101638001360012201210020524209F05BFF0128BA
:10164800E3D1A3691027DB06DFD4A8463D00A369D0
:101658001D401F42FAD12368DBB29B460A2B1FD0DC
:1016680008F054FB002302000221404600950AF0CE
:1016780011FB874B1B78082B04D80C2102AA52189F
:101688005946D15482495A1C0A705946814A82489F
:10169800D15405A904F08EFEA3691F42D6D0B3E742
:1016A8007B4B7B491B785A1C0A705946794AD1549E
:1016B80008F02CFB002302000221039800960AF090
:1016C800E9FA002300220321404600960AF0E2FAD4
:1016D800724B1B789B46012B00D186E0022B32D03F
:1016E800002B1DD06E4B00229B5E152B11D02022A3
:1016F800A3691A42FCD1152323606A4804F0A4FDAB
:10170800802200216348520004F034FC604B1E70B4
:10171800C2E72022A3691A42FCD10D232360E6E721
:10172800614804F091FD08F0F1FA5B46020000936D
:101738000121002303980AF0ADFA554B5548197852
:10174800FFF7A2F8D9E7594804F07EFD08F0DEFA61
:10175800002302000121039800960AF09BFA4C4BE3
:101768004C481978FEF7D2FF012850D034DC431CCE
:1017780068D0002852D14E4804F066FD454B1B78CE
:10178800002B05D125E0434B01355B5D002B20D0B4
:10179800282BF8D13F4A6B1CDBB2D25C3B2A09D01C
:1017A800ED434449C9184A5501333A4ADBB2D25C81
:1017B8003B2AF6D137490133DAB2895C292908D0A6
:1017C8003D4DD01A295401323249D2B2895C2929B7
:1017D800F6D1FFF7DFFB90E702281FD1374804F066
:1017E80033FD2C48FFF79CF987E7354804F02CFDBA
:1017F80008F08CFA002302000121039800960AF0F1
:1018080049FA234B23481978FFF7B6F875E72D48AE
:1018180004F01AFD1F48FFF747F96EE72A4804F05D
:1018280013FD1F4B00229B5E152B04D02022A369B9
:101838001A42FCD15FE72022A3691A42FCD10D238A
:101848002360F3E7214804F0FFFC154B00229B5E60
:10185800152B04D02022A3691A42FCD14BE7202281
:10186800A3691A42FCD10D232360F3E7FC0203208D
:101878009D0100208813000038D40020BD010020FD
:101888003075000044D40020345003400040034029
:101898003103032004FD0020ACD3002033030320D0
:1018A8000C0201206CD40020DCD8002054D4002085
:1018B8005CD40020F0FC0020E4FC002064D400206C
:1018C80050D4002060D4002068D4002058D40020D0
:1018D80030B583B004F07AFDFA20800000F0AAFF4A
:1018E80096213C48490001F0A7FBFEF7F1FE0221D2
:1018F800002000F08FF80221012000F08BF8022070
:1019080000F0CCF8D02304221B065A620AF04EFEDF
:101918001F211B2000F07EF8002200211B2000F070
:1019280091F800211B2000F0A5F880232A4A5B01CA
:10193800116801204B40E021C9010B4027490024D0
:101948000B6096231B04136100F074FF0AF094FBEC
:10195800234924480AF042FD0321142000F05AF8D4
:101968000321152000F056F80AF00AFFFEF782FD61
:101978001D480AF09DFB4020002100F049FF1B494B
:101988001B480AF00DFC0323C022022519490093C5
:10199800120100231848019409F0FCFB002380225F
:1019A800164917480194009509F0F4FB002380229A
:1019B800144915480194009509F0ECFB0123802295
:1019C8001249009312480023019409F0E3FB09F03F
:1019D800F7F8FEE70040034000C0044000D0044090
:1019E800801A060044DC002054DB0020CD0B0020C8
:1019F8004CDB002070D40020951300207CD40020FC
:101A0800F10100208CD40020E102002094D40020B1
:101A180025020020094A830094464022634410B5F9
:101A28001C68C0006240C024144080225201134345
:101A38001C60034B9C466044416010BD04C00140DB
:101A4800004001400A4B80009C4604236044002962
:101A580001D00C230821002A00D10B000268534052
:101A68000C221A4080235B01184302607047C0466D
:101A780004C00140084B80009C466044002905D002
:101A880080239B011843402303607047C0239B01B8
:101A9800184340230360F8E704C001400123D02223
:101AA8008340120693629361094A83009446402258
:101AB80063441968C0004A40C02111408022520185
:101AC80013431960034B9C460523604443607047E9
:101AD80004C0014000400140024B18688007C00F55
:101AE8007047C04600C0064070B5EFF3108C72B660
:101AF8000D4D2B68002BFCD0BFF35F8F0724CB085C
:101B0800C618C05C01230C40A3401C0004400342DB
:101B180007D103433370BFF35F8F2C608CF31088B9
:101B280070BD100001F0D0FE2C0100D0F8B547467A
:101B3800CE46884680B5EFF3108C72B6214D2C68DE
:101B4800002CFCD0BFF35F8F9A422CD8D40807270B
:101B5800055D061901241740BC402C421FD00721FF
:101B68000127894609E0D408055D06194C46390065
:101B78001440A1400C00294211D001329342F2D204
:101B880001204042BFF35F8F00220E4B1A608CF396
:101B9800108800280FDBC0BCB946B046F8BD2C43FE
:101BA80010003470EEE7BFF35F8F00232B608CF3D7
:101BB8001088012040424346002BECD0089801F0E1
:101BC80083FEC0462C0100D00021044B044ABFF319
:101BD8005F8F02C39342FAD17047C046000100D01C
:101BE800800100D0044A1078431CDBB2172B00D9BF
:101BF800102313707047C04666DB002010B5010043
:101C0800024A0348FFF770FF10BDC046B8D4002051
:101C18003CE5002000B5054B83B001000093182275
:101C28001F230348FFF782FF03B000BDD8D400206C
:101C38003CE5002001238340002904D0034A1360B7
:101C4800034A13607047034A1360FBE780E200E031
:101C580000E100E080E100E001228240034B1B68C4
:101C680013405A1E9341D8B27047C04600E100E0C5
:101C780001238340014A13607047C04600E200E038
:101C8800084B10309B688000C358002B07D0064AC9
:101C980000209B1A2F229A424041C0B27047002070
:101CA800FCE7C04600ED00E068DB0020024B103086
:101CB8009B688000C058704700ED00E070B50D00CB
:101CC800EFF3108672B60F4A1368002BFCD0BFF3EF
:101CD8005F8F0D4B10309B6884001B590B4A934251
:101CE80003D09D4201D001F00DFE074B9B681D51AA
:101CF800BFF35F8FBFF35F8F0022024B1A6086F33A
:101D0800108870BD240100D000ED00E0CD01001066
:101D1800F0B557464E46DE464546E0B585B0060066
:101D280002911700EFF3108B72B6674A1368002B05
:101D3800FCD0BFF35F8F0025644B5D579A46002D9A
:101D480000DAA4E06B00624C03935B199B00984691
:101D5800A146C1444B4652469B79103613705D4BE1
:101D6800B2009B68019299580B1B2F2B34D95A4B00
:101D7800994200D0A4E0039B584A9C46584B6544BE
:101D8800AD006353434602336519E418554B0121EE
:101D9800043B1B1B1B055B0D13436B80524BEF7100
:101DA800AB80FF23AB71029BAB604B460B43190022
:101DB800484B019A9B689950BFF35F8FBFF35F8FC1
:101DC8000022414B1A608BF3108805B0F0BCBB466B
:101DD800B246A946A046F0BD01200A008243D37945
:101DE800BB422FD845464E46130040491B1B5B415A
:101DF8005943090D3A4B63533A4B02356519043B75
:101E08005B1B1B05354D5B0D2B4373800426B446C5
:101E1800E0444444131F1B1B4C46A17102991B0547
:101E2800A16049465B0D2B43A380314BE771014309
:101E38001360BDE75800C01880002018C679BE425C
:101E48002BD902000623D356002BF3DA101D824645
:101E58002848804604267642B446E14450464E4619
:101E6800361A3005400D824656461C489571064381
:101E78009680039A944665441D4AAD006419226011
:101E88004246A371029BA280E771A36090E701F02C
:101E980039FD002553465D5754E7101D824690884A
:101EA8004005001584464046D44466460430201850
:101EB800301AE0260005400D360230438046C9E757
:101EC80001F020FD57E7C046240100D02D03032070
:101ED80068DB002000ED00E0CD01001000E0FFFF0E
:101EE80000A1FFFF98DB002001BDFFFFAAAA0000A8
:101EF8000148804701BD0000F0B5DE4657464E4612
:101F08004546E0B50C0083B0EFF3108972B6584A25
:101F18001368002BFCD0BFF35F8F564B9A68030001
:101F280010339F00D559544A9046954232D0A54265
:101F380043D0524EAA1B2F2A2CD801228240924607
:101F480051464F4A12681140019151464D4A11605D
:101F5800BFF35F8FEFF305829346002A33D1012345
:101F68002A009A4393689C4208D177E04B005B189B
:101F78009B00F3189968A1422AD01A0006215156ED
:101F88000029F3DA019B002B19D052463E4B1A6008
:101F98003B4B1A60374B9B68DD51BFF35F8FBFF334
:101FA8005F8F0022324B1A6089F3108803B0F0BCAF
:101FB800BB46B246A946A046F0BD1500EAE7524620
:101FC800304B1A60E6E79342C9D001F09BFCC6E7A4
:101FD80006215956002921DB4A0050188000341880
:101FE8008046A0689860E079D871062020569871DC
:101FF800002824DBA488F01A640524154444001939
:10200800E0240005400D24022043988052181F4BFD
:102018009200B6181A781970B271B3E759460029B8
:102028000FD1FF3191711A49918018490A789A7134
:10203800184A9B1B5B415A43120D0A70A2E71648C7
:10204800E3E7164A1649D21A083A5002400D0143EE
:102058009980144952080A43DA8093E706215156B9
:1020680013000029B8DA5A46002AEAD14546DCE7C7
:10207800240100D000ED00E0CD01001068DB002055
:1020880000E100E080E100E080E200E02D030320B1
:1020980001BDFFFFAAAA000001BD0000A2DB0020CD
:1020A80000F0FFFF00F8FFFF032310B50400074A04
:1020B80018409446C0009C43FC3383406444226823
:1020C80081409A4313000B43236010BD00E400E0F5
:1020D80070B5EFF3058101240443EFF3108C72B659
:1020E800214A1368002BFCD0BFF35F8F1F4B0500FC
:1020F8001F4AED1A6D416A43120D1E4D8900AE68E4
:1021080052B27658A6421CD00621595691421CD08C
:1021180012215956914222D01E215956914220D05F
:102128002A2159560324914210D0134B19781A705A
:102138008171BFF35F8F00220B4B1A608CF31088FC
:1021480070BDAB680D4C5C50EFE7002461000919C5
:1021580089005B18FF21997109499980E5E70124F5
:10216800F4E70224F2E7C046240100D068DB00202F
:10217800AAAA000000ED00E02D030320CD01001005
:1021880001BDFFFF054B064A1360064A1360536002
:102198009360D3601361536193617047808080803E
:1021A80000E400E004E400E000B5074B83B0010060
:1021B8000093002205230548FFF7B8FC002801DB3F
:1021C8001F23181A03B000BDF4D4002035030320E0
:1021D800024B9C466144890001607047400000340E
:1021E80010B50400FFF7FEFC01002000FFF7F0FF28
:1021F80001235B426360BFF35F8F10BD10B504001D
:10220800FFF7F0FC01002000FFF7E2FF01235B422B
:10221800636000232372BFF35F8F10BD10B5040005
:102228000120FFF7F7FC044B9C46604480002060C7
:10223800BFF35F8F10BDC04640000034034B9C467F
:10224800614489000160BFF35F8F7047400000342C
:1022580083680B4810B58446614462440901120141
:102268009A18591854684B6801209C4201D802D02A
:102278000020C0B210BD12680B689A42F9D8F7E77F
:10228800FFFFFF0F074810B50268EFF3108172B621
:102298001368002BFCD0BFF35F8F06F0A1FB002072
:1022A800002110BDF0010120F8B557464E464546BD
:1022B800DE46E0B599460CAB1C780DAB1B780600E2
:1022C80090469A460768002C11D1BC7B002C42D05E
:1022D80065003B682D19033D59194B78BB73002BDA
:1022E80000D1FB7300238B704B700B7004E065000A
:1022F8003B682D19033D5919B2682A4B944642464A
:10230800E3181B0163441A604A465A600A9A9A60A5
:102318000B9ADA6000238B704B700B707B7B9B46AB
:10232800002B2BD022005946B8687B6898473A683A
:10233800002816D05B4658465B005B445519033BA2
:10234800A870D118D35C002B00D06B705B460C7062
:102358007B73A34513D0F0BCBB46B246A946A04642
:10236800F8BD5B465B005B44033BD3189C70511976
:10237800525D002A00D05A705B460B707C7342464F
:102388004B46307D00F0CEFB051E06D05346002B91
:1023980003D12100306800F011FE0E9B002BDAD02B
:1023A8001D70D8E7FFFFFF0FF0B5DE4657464E46D3
:1023B80045460023E0B58BB00893674B8200D4589C
:1023C80000239B46099000F023FB626806000F007B
:1023D800EFF3108572B61368002BFCD0BFF35F8F44
:1023E80023689C465B7B9946002B00D169E0A26874
:1023F8005A4B90464B441B01984443461A685B6805
:1024080010001900801BB941002900DC63E009981D
:1024180000F088FB002300229846002306920793C9
:1024280000239A466368BFF35F8F5A461A6085F3A4
:1024380010885346002B08D10028C4D10BB0F0BC3B
:10244800BB46B246A946A046F0BD089B41461802C5
:102458004B461843D047626806000F00EFF310851B
:1024680072B61368002BFCD0BFF35F8F002F50DBD0
:1024780033003B4302D02369002B61D12368D97B09
:10248800002907D04A00521819688C464946624408
:10249800033A51709A7B002A01D14A469A734A46F8
:1024A800DA734B46E168013BCA5C0132CA545B46A9
:1024B80023616368BFF35F8F5A461A6085F31088FB
:1024C80081E7002300229846002306920793002301
:1024D80000209A46A6E7002902D1002800D096E7F6
:1024E8000021604600F0E8FC43461A685B680692E3
:1024F800079343469B689A464346DB689846E368D9
:102508004B44013B1B7808931B02034323610020C3
:1025180088E72369002BB1D0069A079B921BBB4121
:10252800002B15DB5946049101210391494602917C
:1025380041460191514620000091FFF7B5FEB6E7EC
:1025480000F066FA32003B0012184B41002BE9DA22
:102558000122034B5242E5E730FA0020FFFFFF0F4C
:10256800FFFFFF7F10B5144C6368002B04D00A21CD
:102578001248FFF72DFE10BD2300114A10212068D4
:1025880000F0B4FB032000F037FA032000F034FB1E
:1025980003200C4900F080FAFFF724FB0A4B9C4605
:1025A80003232375D0231B061B6860446375074B00
:1025B80080006060DC60DAE7B0DB0020F001012019
:1025C80021200020792100204000003430FA00202A
:1025D80000487047B0DB0020F0B54E464546DE4661
:1025E8005746E0B585B0019310AB1B7806000393FE
:1025F80000239946984600927268EFF3108B72B6E2
:102608001368002BFCD0BFF35F8F3568AC7B002CC0
:102618003DD067002B683F19033FDB195A78AA732E
:10262800002A00D1EA73B168474A8C46009801999C
:10263800A21812016244106051600E9991600F99BE
:10264800D16042469A705A701A706B7B9A46002B7A
:1026580067D022001900A8686B6898472A68002884
:1026680052D0534650465B005344D719033BB870C9
:10267800D118D35C002B00D07B7053460C706B7361
:1026880054454FD0F3681B19013B187800E000202F
:102698007368BFF35F8F42461A608BF31088002C73
:1026A8004FD04B46002B08D10002204305B0F0BCA8
:1026B800BB46B246A946A046F0BD039B002B3ED0C0
:1026C8000E9B00200F999847030004000D000B4350
:1026D80035D000290ADA009A019B121BAB410092FF
:1026E8000193002B0ADB039B994685E700F090F9DC
:1026F80024184D4100940195002DF4DA0123134C60
:102708005B4200930194EEE753465B005344033B5E
:10271800D3189C70D119D25D002A00D05A70534644
:102728000B706C73307D009A019B00F0FBF98146B9
:102738000028A7D02100306800F040FCA2E7002064
:10274800B4E701204042B1E7FFFFFF0FFFFFFF7F23
:10275800407D7047F0B54746CE46040080B50D0071
:1027680096267642F71736196F4185B08F4215D8ED
:1027780012D000F04DF932003B00121A8B41002BA9
:1027880016DC002B39D02000290000F075F905B0BF
:10279800C0BCB946B046F0BD8642EAD9002600273B
:1027A80000F036F932003B00121A8B41002BE8DDAD
:1027B800002302930193124B3200009311483B000F
:1027C800FFF70AFF0028DEDBB846B1460E4F0F4E72
:1027D800736A984504D8B26A9145D4D99845D2D13C
:1027E8003A68EFF3108172B61368002BFCD0BFF380
:1027F8005F8F380006F0BEF8EAE7002AC3D0D7E7B3
:1028080055200020B0DB0020F001012000400540E9
:1028180070B504000D0000F0FBF8001969410029AB
:1028280002DBFFF797FF70BD012001494042F8E73E
:10283800FFFFFF7F70B5060000F0EAF8FA220400F7
:102848000D00002330000021920003F0C1FA0019A6
:102858006941002902DBFFF77DFF70BD01200149B6
:102868004042F8E7FFFFFF7FF0B5EFF30583CE4660
:10287800474680B505000C0085B0002B12D02C4AC5
:102888000020536A9C4203D8926A0130AA4204D3BA
:1028980005B0C0BCB946B046F0BDE01A421E904132
:1028A800C0B2F5E7234E02930193234B0200009335
:1028B80030000B00FFF790FE031EE0DD20BF7168BB
:1028C800EFF3108772B60A68002AFCD0BFF35F8F57
:1028D800DAB294463068427B62451DD0FF221A4026
:1028E8005100894601689144884649464144033964
:1028F8008978002913D0F1681B0A88464244013AB6
:102908001278DBB29A420FD07368BFF35F8F002250
:102918001A6087F31088B2E7FF221A40EBE73269A2
:102928009342F1D13161EFE7614600F047FBEBE7F5
:1029380000400540B0DB002055200020F0B5EFF343
:102948000582D6464F4646461000C0B51038EFF30C
:10295800108872B6214C2368002BFCD0BFF35F8F20
:102968000123190081401E4D1F006963AA461D4DB1
:1029780029601D4D2E78AC463500C5402F402B42AE
:1029880009D1BFF35F8F276088F31088E0BCBA468F
:10299800B146A846F0BD5346144D5F6A83005D59A1
:1029A800AF420ED3124A8E439B5862461670BFF34D
:1029B8005F8F0022226088F31088002BE6D09847AA
:1029C800E4E70C4B92009C46624413681360BFF323
:1029D8005F8F0023236088F31088D7E7280100D091
:1029E800004005403C70054034030320FC010120F1
:1029F80024E40020D03F054010B50100024A0348F6
:102A0800FFF772F810BDC04610D500202C03032034
:102A1800034B596A0A00986A596A8A42FAD1704780
:102A28000040054070B504000D00124A536A1900B1
:102A3800966A536A8B42FAD13000190024184D4126
:102A4800AB4211D80ED02B000A494A6A9A42FCD3ED
:102A580007D1084A02E0516A994202D1916AA1421B
:102A6800F9D370BDA642EED9012301246442E517CB
:102A78005B42E9E700400540064A536A9942FCD8A0
:102A880007D1044B02E05A6A914202D19A6A824203
:102A9800F9D370470040054070B504000D00EFF30E
:102AA800108672B61A4A1368002BFCD0BFF35F8FEA
:102AB800002D1BD02000FFF7F9F8164981420AD0F3
:102AC8002000FFF7FBF801212000FFF7B3F80123EE
:102AD800A340114A1360114BA400E550BFF35F8F68
:102AE80000220B4B1A6086F3108870BD0B4BA200B6
:102AF800D5500122A2400A4920000B7893430B705D
:102B08000449FFF7F9F900212000FFF793F8E5E7FA
:102B1800280100D00D2700203860054024E400205B
:102B280034030320F0B54F46D6464646C0B50700E5
:102B38002C4C616A0D00A66A616AA942FAD18B42DF
:102B480008D805D00120E0BCBA46B146A846F0BD79
:102B5800B242F7D9EFF3108A72B623480168002908
:102B6800FCD0BFF35F8F0125BD4020491D4C88462E
:102B7800097889462943C9B28C464146604608709F
:102B8800391D1B48890065630A51B9000B50216A39
:102B98000020294219D0616A0800A66A616A814248
:102BA800FAD18B4219D801D1B24216D8CC4516D0E9
:102BB8000C4B1F201D625D6301230740BB400D4A7B
:102BC8001E38136043464A461A70BFF35F8F0022CF
:102BD800054B1A608AF31088B5E70020F5E7012055
:102BE800F3E7C04600400540280100D03403032025
:102BF800FC01012080E200E0EFF3108C72B60A4974
:102C08000B68002BFCD0BFF35F8F01238340074A7A
:102C18000748136202789A430270BFF35F8F00235C
:102C28000B608CF310887047280100D000400540E5
:102C380034030320042330B5D3560F4C9B001B5993
:102C48000025545F87B00594072414570B4D04944E
:102C58000624145703940524145702940224145785
:102C6800013CA40064590194D27852B20092044AFB
:102C780002F00CF907B030BD00D600201CD60020A9
:102C880034D5002070B5050014001600002915D0B1
:102C98000C00002A12D080686B68984729680028C1
:102CA8000ED073009B196200033B1219CB18033A2C
:102CB8009C7088188A5C002A15D10670200070BDA7
:102CC80063001B197200033B9219CB18033A9E70DC
:102CD80088188A5C002A02D104703400EEE75A7022
:102CE80004703400EAE75A700670E7E730B583608D
:102CF8000023CCB243730133047342608373C473FB
:102D08000D000068012C06D9421C0133DBB2137098
:102D180003329C42F9D1FF2129404B005918002366
:102D280040180338437030BDF8B5CE464746060014
:102D38000C0080B5002907D04D0003686D18033DCD
:102D48005A195778002F04D12000C0BCB946B046A4
:102D5800F8BD7900C919033988464344597889462A
:102D680000215970517073683A00210080689847B3
:102D78003368002814D042469A18947059195B5D3C
:102D8800002B00D053700F70270049463000FFF722
:102D9800CBFF390002003000FFF774FF0400D3E7CF
:102DA800424641465D19AF709A185B5C002B00D013
:102DB8006B701470E9E7C046F0B557464546DE46E5
:102DC8004E46E0B50D006B0001685B19DF1E04007C
:102DD800C85D83B00192CA19002850D043001B185F
:102DE800033BCB185E78B446002E1AD1019E002E04
:102DF80042D0E67B002E04D073009B19CB18033B0E
:102E08005D70A37B002B00D1A573E57300282FD13B
:102E18000023537003B0F0BCBB46B246A946A04697
:102E2800F0BD72006244033A89184A78904600223D
:102E38004A7091465A70010032002000FFF722FFC5
:102E480043468246002B07D05B0021684344033B7E
:102E5800CB185A78002A16D1424651462000FFF76F
:102E680011FF2168019BCA19002BC2D10028CFD0BD
:102E780043001B18033BCB1800219970C8E7019B3E
:102E8800002BB6D1C4E750008018033809184878D9
:102E9800834648464870587041462000FFF7F2FEC6
:102EA800594680462000FFF73FFF414602002000B8
:102EB800FFF7E8FE8046CFE7F0B557464546DE46C1
:102EC8004E46E0B583B00191457B04006B00006875
:102ED8005B19DF1EC15DC219002952D04B005B1877
:102EE800033BC3185E78B446002E1CD1019E002E09
:102EF80044D0E67B002E04D073009B19C318033B13
:102F08005D70A37B002B00D1A573E573002931D137
:102F1800002328005370617303B0F0BCBB46B2466F
:102F2800A946A046F0BD72006244033A8018427870
:102F380090460022427091465A7020003200FFF7F6
:102F4800A1FE43468246002B07D05B00216843441C
:102F5800033BCB185A78002A17D142465146200025
:102F6800FFF790FE019B01002068C219002BC0D119
:102F78000029CDD04B005B18033BC3180020987084
:102F8800C6E7019B002BB4D1C2E750008018033874
:102F980009184878834648464870587041462000CA
:102FA800FFF770FE594680462000FFF7BDFE4146F8
:102FB80002002000FFF766FE8046CEE770B50400E9
:102FC80000292CD0437B8B422ED00568480040183E
:102FD800033828188278002A21D053009B18033B15
:102FE800EA5CEE188A4202D11BE0002A08D053009E
:102FF8009B18033BEB185A788A42F6D142785A70EC
:1030080000230122837043702000FFF7D5FE617B07
:1030180002002000FFF736FE6073012000E0002068
:1030280070BD43783370EBE701221900FFF7C4FE47
:1030380060730120F4E7C046F8B5CE464746040061
:1030480080B506200E0000F003FB051E51D0524B40
:103058005249E21853425A418023DB039C469205A9
:103068004F4B62441A604F4B1A6010008B689843AC
:10307800FBD1494B8021E3185A4253414A4A5B002D
:1030880049009952062000F0E3FA3100C00001F02F
:10309800A1FFC30932D14022012190466162A36297
:1030A800256BEB0736D427008026E36A00232C37EC
:1030B80076013E4333600620256300F0C9FA414695
:1030C800800001F087FF236B05009846DB073BD49F
:1030D8006022E36A5A406E231340336043462363F9
:1030E800802310229B013B431A60304B2363032348
:1030F800A3642800C0BCB946B046F8BD2C4A934228
:103108003FD900232B492C4A6162A362256B904664
:10311800EB07C8D52200C02330329B011343234A52
:1031280006201A60666AA26AB601B61800F090FA1C
:10313800224901F04FFFB6020100300001F04AFFBA
:103148000021FFF76FFCAEE72200C02330329B015D
:103158001343164A06201A60636AA26A9B019946BD
:10316800914400F075FA4B4614499B02994601F0C8
:1031780031FF0100484601F02DFF0021FFF752FC06
:10318800A6E77F22990188461040013040081900BF
:103198008044030082E7C0460080FCBF00C00040B6
:1031A80000E0004000F000400C0201200103000094
:1031B800FEFF0000FFFF0000C0FF3F004E0E0000B2
:1031C800F8B5040006200D0000F042FA2900C000FE
:1031D80001F000FFC30924D0224A934239D90023C1
:1031E800214A224E6262A362256BEB0720D522009A
:1031F800C02330329B0113431D4A06201A60676AB8
:10320800A26ABF01BF1800F023FA1A4901F0E2FED2
:10321800BF020100380001F0DDFE0021FFF702FCCB
:1032280006E0402601226262A362256BEB07DED42A
:10323800E36A220080232C325B011343002206201C
:103248001A60256300F004FA3100800001F0C2FE24
:10325800F8BD7F221040013040089E011A00361840
:103268000300E0E7FEFF0000FFFF0000C0FF3F0093
:10327800010300004E0E00000539013AF8B5D200EE
:103288004C0105001443002B05D002222243012BD8
:103298002AD105331C432E6BF3070BD4EA6A80232B
:1032A80062406E2414402A005B012C3213431C60D8
:1032B8002E63F8BD2A00C02330329B0113430B4A0A
:1032C80006201A606F6AAA6ABF01BF1800F0C0F929
:1032D800074901F07FFEBF020100380001F07AFEC5
:1032E8000021FFF79FFBD9E71400D4E70103000092
:1032F8004E0E0000F8B54B1E9941066B05000C01F7
:10330800F3070BD41023E96A2A004C401C408023A1
:103318002C325B0113431C602E63F8BD0200C023EE
:1033280030329B0113430A4A1A60476A826ABF0116
:103338000620BF1800F08CF9064901F04BFEBF02C9
:103348000100380001F046FE0021FFF76BFBD9E7CA
:10335800010300004E0E00004B1E9941F52349421F
:103368009943054B01319C46604443425841034B05
:10337800FF314000C15270470080FCBF0C020120A1
:1033880030B50C2083B000F0B9F9FEF7A5FB002892
:103398000ED0994B994A1A605A609A60DA601A619D
:1033A8005A619A61DA611A62954A5A6203B030BD6D
:1033B800944CA06700F0F6F90122934B1A60636CF5
:1033C800012BFCD10322914B1A608E4A936B012B7F
:1033D800FCD1013301218E4A8E480093043300F05A
:1033E8003DF905238C4A009301218C4800F036F9F9
:1033F8008B4B5A68FF2A02D8802252005A608022DA
:103408007D4C824B21691201854D1A60002907D035
:10341800606901F0DFFD431C5800C0180338FDD275
:10342800E0217F4B02201A681140802252012A4372
:1034380011601968484003210140116004219A680D
:103448001142FCD08022802192012A430901116097
:10345800802252005A60734B2361734B5968FF29CD
:1034680000D85A600321684A6F4B116002399A6884
:103478001142FCD0E0201A681040802252011A4301
:103488001060186848400321014002201160664915
:103498008A681042FCD080229201134380221201D4
:1034A8001A608022614B52004A606361604B596820
:1034B800FF2900D85A6080225E4BE16912015C4DF9
:1034C8001A60002907D0606901F084FD431C580088
:1034D800C0180338FDD2E02255490B681A408023F2
:1034E8005B012B431A60802380229B012B4312012E
:1034F8001A608022414B52004A60E3614E4B596882
:10350800FF2900D85A6080224C4B216A12014A4D8B
:103518001A60002907D0606901F05CFD431C58005F
:10352800C0180338FDD2E02243490B681A408023B3
:103538005B012B431A60802380229B012B431201DD
:103548001A60802380225B004B602C4BD2022362DE
:103558003B4B5968914200D25A608022394B616ACC
:103568001201374D1A60002907D0606901F032FD59
:10357800431C5800C0180338FDD2E02230490B68BC
:103588001A4080235B012B431A60802380229B0111
:103598002B4312011A608023DB024B60184B6362D5
:1035A800294B5A68FF2A02D8802252005A6080228A
:1035B800264BA1691201244D1A60002907D06069C1
:1035C80001F008FD431C5800C0180338FDD2E02262
:1035D8001D490B681A4080235B012B431A60802326
:1035E80080229B012B4312011A6080235B004B60F1
:1035F8000E4BA361DAE6C04640E50020006CDC0211
:103608001BB70000008000403CB0004030B00040D4
:10361800002F685900800240008C864700C0024095
:1036280030800040001BB7003C80004040597307C1
:103638005480004054B000406080004060B00040BA
:103648006C8000406CB000404880004048B00040AA
:10365800014B8000C058704740E50020F8B50400D1
:1036680021481D0017000E0001F0B4FC01003800CD
:1036780001F0B0FC069B29041B0319432368002BA7
:1036880020DB1A4B1A4DE21853425A4180235B0142
:103698009C461203174B62441A60174B1A601700B6
:1036A800AB689F43FBD1C022231D92011A432123FB
:1036B8002660A06013602368002BFCDA0823E16011
:1036C8001360F8BD3F2322681340B342D9D1A368E1
:1036D8001B051B0D8342D4D1EE22E368D2021340AE
:1036E8008B42CED1EDE7C046001BB7000040FDBFBE
:1036F80000C0004000E0004000F000408023024A83
:103708009B000343D36270470080054010B5140046
:1037180080221B4BD2051A6000281AD00123194AAF
:103728001843194BDA61194A42401A625962986281
:103738008022134BD2051A601549164A1160E022FF
:10374800D2041A60002C07D18022134B12061A608B
:1037580010BD0D4BD861EBE763011B1B9A0080235A
:10376800121912015B049A4200D30C4A0C4B1A60DE
:10377800054B5A608022084BD2051A60E8E7C0461C
:1037880000B00540D3C007B0008005402D3FF84F7A
:10379800FCFF01000820014000A00540FFFFFF00DA
:1037A80020FA0020AA23064A1B0113602F2305498B
:1037B800D360054B19605368002BFCDA7047C0468C
:1037C8000040024000B0FA00006002402C4B2D4A35
:1037D80070B51A602C4A2D4B2D491A6014008B685D
:1037E8009C43FBD12B4D2C4EB54208D2013E761B93
:1037F800B60808CD984723000134B342F9D1FFF742
:10380800BFFD264A214B1A60214A9368DB43DB013E
:10381800DD09002BF9D14022214B224C224E9A6718
:103828005A671A67DA66B44208D223682000002B68
:1038380020D00C34FEF7E2FCB442F6D31B4E1C4CED
:10384800C022A168300002F09BFBA660FEF7BCF91D
:10385800FEF798FCFEF786FE164C174EB44208D2C7
:10386800013E361BB60808CC98472B0001359E420E
:10387800F9D170BD0834FEF7B3FCB442D5D3DDE707
:1038880000E00040BFCDFBFEFE7F3C0000F00040A2
:1038980000C000405CDC00206CDC0020FFFFFF0162
:1038A80000F001404CDC00205CDC0020000000201F
:1038B80000ED00E06CDC002078DC002000BEFDE7B5
:1038C80010B5FFF7FBFFC0460FB400B5084883B03A
:1038D80002F0BAFC049B002B07D005A9180001913F
:1038E80001F0F8FA034802F0AFFC0120FFF7E6FF09
:1038F8004CD60020A8D3002010B50148FFF7E4FFFC
:103908005CD6002010B50148FFF7DEFF6CD600201A
:103918009A4200D2885470477047C046F8B5574657
:103928004E464546DE46E0B599460A9B07009A464C
:103938000D9B8846934615000B9E9B0710D10C9B48
:103948009E420DD29D1B14000E005D4422004B4682
:10395800013431002020B847A542F7D1B0460B9E6C
:10396800002E27D0444675195346AA1B013E985D80
:1039780021004B46B847002EF6D123002C0098466C
:103988000D9B9B070FD55B46E51A0C9BAB420AD9EA
:103998004646984622004B46310020200135B8475C
:1039A8000134A845F6D82000F0BCBB46B246A9466B
:1039B800A046F8BD2C00E3E7F0B54F464646D6468C
:1039C800C0B584B098460EAB1B78129F99469446B2
:1039D8000D9C109B119EBA0725D4002E4BD19C42FA
:1039E80000D3BFE001223A4092461F2C00D9B8E02C
:1039F8000C9A551E302201E0202C03D001342A55A0
:103A0800A342F9D85246002A0DD0A6420BD9202C41
:103A180044D00C9A551E302201E0202C3ED00134AF
:103A28002A55B442F9D1FA064DD57A053FD4002C6F
:103A380039D10F9B102B00D179E00F9B022B00D1BD
:103A48008AE030230C9A012413704B46002B3FD098
:103A58002D230C9A135501340C9B6246009303974F
:103A6800434602960194FFF759FF04B0E0BCBA46FA
:103A7800B146A846F0BD012215003D40AA463A428B
:103A88002FD04A46002A02D10C323A4200D0013ED9
:103A98009C42BAD21F2CABD9202E27D92024FA0653
:103AA800DAD57A0503D4A3422DD0A6422BD00F9B9A
:103AB800102B32D0022B20D0202CCDD030220C9BC2
:103AC8001B191A700134202CC6D04B46002BBFD1CD
:103AD8007B070DD43B07BFD520230C9A135501341F
:103AE800BAE79C429FD21F2C00D881E720249AE78E
:103AF8002B230C9A13550134AEE7202CACD00C9B29
:103B08001B1901343AE0631E012C92D00F9A102A37
:103B18002AD0022A2FD01C00D0E7BB060ED4202CB6
:103B28009AD00C9B1A19013478231370C4E7BB068A
:103B38000DD478230C9A01241370BFE7202C00D1F0
:103B48008AE758220C9B1B191A700134B4E75823D2
:103B58000C9A01241370B1E70C9A60330124137096
:103B6800ACE7202400265EE7023CBA06E9D40C9AAA
:103B780012191C00D8E70C9A9246534462221A7014
:103B88009AE7C04610B5002800D110BD02F010FB1E
:103B9800FBE7C0460B0010B5002802D049681B6837
:103BA800984710BDF0B5DE4657464E464546E0B547
:103BB8009BB09B46249B89469846259B0B900C926C
:103BC8004046424619009A4601F0CDFC002800D034
:103BD800D8E0012240465146774B524201F0BEFCE4
:103BE800002800D0CEE0012240465146734B524295
:103BF80001F09EFC002800D0C4E0002200234046CB
:103C0800514601F095FC002800D0B9E142465346E0
:103C18000A9209938023289ADB001A400E92289A68
:103C28001A4201D1062326930A9A099B16001343C8
:103C380000D0C7E0289B002500261B0500D49BE187
:103C480000230D93269A0D9B9A4200DC9FE1D01A1F
:103C5800431E26938023289ADB001A43002300275B
:103C680028920D93279B0024BB4200D9DC1B02231A
:103C7800289A1A400E92289A134203D07B427B411D
:103C88005B421C400D9B002B07D00A9809992A001B
:103C9800330001F0ECFB0A90099100220023404612
:103CA800514601F045FC002805D0802000068446D6
:103CB800099961440991289A414B0B9D134004933B
:103CC800269B0A9A0293099B039400920193494602
:103CD8005B4628000C9A00F08BF90400002F62D094
:103CE800289B220098061F23C0179843631C9846F8
:103CF80049465B466530A8470D9B0025DA179C1896
:103D0800DB0F9A465440013F01E0202D13D00AAA48
:103D180094461F23200063440A2101355E1901F0EF
:103D280059F93031317020000A2101F053F9260089
:103D38000400092EE9D805230693002304930A33C7
:103D48000393534605970B9F029312AB0093424689
:103D58005B46494638000195FFF72EFE0E9B04008E
:103D6800002B20D00C9BC51A279BAB421BD91E00E9
:103D780022005B46494620200135B8470134AE424F
:103D8800F6D810E0289B42460493279B49460393A4
:103D9800269B0B9802935346009201935B460C9A1C
:103DA80000F026F9040020001BB0F0BCBB46B24668
:103DB800A946A046F0BDC046FFFFEF7FFFFFEFFF1B
:103DC800FFF7FFFF734B099F9C467800400D604446
:103DD80001F0DCFB704A714B01F067FB704A714BD4
:103DE80001F03CFB3B03704A1B0B1A4304000D0017
:103DF800300011006D4B002201F027FB6C4A6D4B1F
:103E080001F053FB02000B002000290001F026FB03
:103E180001F0D4FB0D9001F0B9FB674A674B040031
:103E28000D0001F042FB0022654B01F017FB01F089
:103E3800C5FB644A0600644B2000290001F035FBED
:103E4800040030000D000F9601F0A0FB5F4A604BA4
:103E580001F02BFB02000B002000290001F0F5FA0D
:103E680002000B0006000F0001F01FFB32000400E7
:103E78000D003B003000390001F0F0FA00221090EC
:103E88001191544B2000290001F0F1FA0022524B05
:103E980001F0E4FA02000B002000290001F0E7FA23
:103EA80000224E4B01F0DAFA02000B002000290034
:103EB80001F0DDFA0D008021040032003B000020F3
:103EC800C90501F0C2FA02000B002000290001F028
:103ED800C5FA02000B001098119901F0C8FA0022E7
:103EE800314B01F0BBFA3E4B0F9C9C4664440022C8
:103EF800230501F0DAFA05000E0002000B000A980B
:103F0800099901F015FB00280AD00D9B2800013BF8
:103F180031000D930022304B01F0A9FA05000E0084
:103F2800C6270D992B0063318F42BF4128997F42E4
:103F38000437090500D495E6334300D182E6099C8D
:103F4800284A2100284B0A9801F000FB002808D0D5
:103F580000222100254B0A9801F0EAFA002800D037
:103F680070E6269B002B00D17CE60E9B5A1E9341DF
:103F7800269AD31A269375E6002304270D9371E633
:103F880043460A9380231B065344099342E60023C1
:103F980026935FE601FCFFFFFB799F501344D33F54
:103FA800B3C8608B288AC63F0000F03F0000F83F86
:103FB80061436F63A787D23F71A379094F930A4082
:103FC8000000E03F1655B5BBB16B0240EF39FAFE71
:103FD800422EE63F00002C4000002440000018401C
:103FE800FF0300002D431CEBE2361A3F80842E416C
:103FF800F0B54E46DE4657464546E0B597B0994679
:10400800209E219F229B8346984607910C923B0055
:1040180032003000390001F0A6FA002800D0A9E1EA
:10402800012230003900CA4B524201F081FA0028BF
:1040380000D0E1E0012230003900C64B524201F0C5
:104048008DFA002800D0B7E0002230003900C24BBA
:1040580001F084FA002800D099E0002230003900ED
:10406800BE4B01F065FA002800D090E00022002342
:104078003000390001F05CFA002800D0B1E00023DC
:104088000D93249B5B0501D40623984608AB9C46F8
:104098001722002430234146624404E001341355BA
:1040A8000139202C01D00929F8D888463000390078
:1040B80001F084FA4346DA00A94B05009B181A68F8
:1040C8005B680892099301F061FA02000B00300066
:1040D800390001F0BAF9089A099B01F0E6F90A904B
:1040E8000B9101F08FFA824601F04CFA02000B00A6
:1040F8000A980B9901F0A9F900229A4B0A900B91A2
:1041080001F02CFA002800D1C0E001239C46E244CB
:10411800504601F037FA02000B000898099901F09F
:104128000DFA002802D000239A4601354346002B99
:104138006AD008AB17269C4608956644554614E095
:1041480001235B4243440A2128009A4600F042FFBB
:10415800013430313719397028000A2100F03AFF4C
:10416800092D00D8D0E0D0460500202CE8D10EABB0
:1041780098460323249A1340012B00D196E020236C
:10418800249A01930392239A434602921EE0249BA9
:1041980058460493239B00960197039343460C9A31
:1041A800029307994B46FFF7FDFC17B0F0BCBB46DE
:1041B800B246A946A046F0BD249B5B070ED4032255
:1041C800694B2499019203912399029100935846CF
:1041D8004B460C9A0799FFF7A1FBE6E70422634BCD
:1041E800EFE73B0032000020002101F02EF9012307
:1041F80006000F000D9344E7249B0393239B02932F
:10420800042301935A4BE1E7280001F0BFF90200AB
:104218000B003000390001F018F9524B002206005B
:104228000F0001F085F90EAB984600280AD100224C
:10423800300039004B4B01F091F9002802D1EB070F
:1042480000D50135202C94D008AA944617232800BD
:1042580063440A2101341E1900F094FE303128000D
:1042680031700A2100F08EFE051EEBD10323249A3B
:104278001340012B1BD0202C00D180E70D9B002B75
:1042880035D02D224146631C0A5579E700220A9849
:104298000B99344B01F04CF9002800D046E75346FF
:1042A800002B51D101239C46E2443FE72024239B65
:1042B800002BE0D00D9B002B03D1249A0C33134222
:1042C80002D0239B013B2393239BA342D3D908AB62
:1042D8009C46172230236244202C00D14FE72399B3
:1042E800013413558C42C6D0202CF8D147E7249BC3
:1042F8005B0724D4249A2300120700D440E7202225
:10430800414601330A553BE75746089D202C00D10A
:104318002DE7220030214046002F09D00132B15448
:10432800202A00D123E7D3431B191B18002BF5D1F2
:104338000EAB98462E234146541C8B5482E72B2201
:104348004146631C0A551BE7DB0700D4EEE6A9E7E4
:10435800FFFFEFFFFFFFEF7F65CDCD4165CDCDC1FD
:1043680070D800200000E03F78D600207CD60020DE
:1043780088D60020249B0393239B02930323019355
:10438800004B23E784D60020F0B5DE464E4657465C
:104398004546E0B59FB01C00289B91460993C94A41
:1043A800C94B8B4608901A60002900D118E20023F7
:1043B80020789A46002800D11AE226001D005C46A3
:1043C8000AE02A006F1C4B46089D2100A8473D00C3
:1043D80001363078002870D02528F2D110239B466A
:1043E800083B9A46043B9846023B00219C46721CB7
:1043F800107816000300203BDBB2102B03D8B34F14
:104408009B00FB589F460300303B092B32D9002301
:104418000A932A2868D0002398462E283ED0030005
:10442800683BDBB2122B1CD8A94A9B00D3589F4685
:10443800012301321943DBE7634601321943D7E709
:10444800434601321943D3E75B4601321943CFE7AC
:10445800534601321943CBE780235B007078194338
:1044680001360300253BDBB2532BAAD8994A9B009F
:10447800D3589F4600270300B800C01901364000F2
:10448800C018337830381A00303A0700092AF3D9AF
:104498000A901800002398462E28C0D180237078EF
:1044A800DB0019430300303B721C092B00D8A1E143
:1044B8002A2800D1B2E11600B1E7A346AA462C008B
:1044C800D14503D801235B424B449A464B4652469A
:1044D80059460020089DA84720001FB0F0BCBB46E5
:1044E800B246A946A046F0BD099B40CB0A96002ECD
:1044F80003DB50780993561C8DE728380143704236
:104508000A9009935078561C85E7782800D1DFE196
:10451800582800D14CE26F2800D14FE3622801D11E
:1045280000F030FC10230A009A430B92692801D04E
:1045380000F0A9FC0A230C934B0500D5D0E10B9A97
:10454800802311009B0019408B461A4200D0A1E23B
:10455800802311005B0019408A461A4200D0B6E356
:1045680013005B0600D5EDE2130009991B0601D480
:1045780000F076FC08C91BB2D8171A18424092B24C
:1045880009919346DA0F1292002B09D18023102249
:104598000B99DB000B4091430B91002B00D0E4E218
:1045A8000B9A6123920600D541230EA91F228C463F
:1045B800DBB262440A3B5F461395A34655460C9C02
:1045C800B2460D9316000AE03033DBB2013573555D
:1045D800A74200D2EDE2202D00D1EAE20700210037
:1045E800380000F0F7FCCBB20929EDD90D9A9446B2
:1045F8006344DBB2EAE780239B00707819430136F5
:104608002FE77078682800D1CDE18023013619435F
:1046180027E770786C2800D1BFE180235B0019433D
:1046280001361EE7462800D19BE10722099B049129
:10463800073393430A9A19000392424602920CC91F
:1046480008980092019309912A004B462100FFF730
:10465800CFFC01360500BCE62A006F1C4B46089DBE
:1046680021002520A84701363D00B2E68B0700D47B
:10467800ADE1099B2A009A466B1C9846534601CB2C
:1046880021009A46089F4B46C0B2B8470A9B9C46F1
:104698006544012B00D886E2089B4746B0462600B1
:1046A8004C4699463A002300013731002020C8477C
:1046B800AF42F7D1A1465346340046460993013626
:1046C80087E6C046594100201CFA002090D60020F9
:1046D800D4D6002020D70020099B04CB9B46434614
:1046E8000992002B00D1C6E013789C46002B00D11C
:1046F800BDE34346013B099A0133D0180A9F1300D2
:1047080001E0834203D05A780133002AF9D1099A8B
:104718000A979B1A0B9380230A00DB001A400C921D
:10472800194204D00B9B434501D943460B930223FE
:104738001A000A400D920B4200D187E1604600281A
:1047480000D168E10C9B002B00D10DE1A844C246C2
:10475800099B57465B1B9846089BB2462A002600D1
:104768004C46994609E023003100551CC84743468A
:10477800585D002800D126E12A009742F3D1A146CE
:104788003D00340056460D9B002B00D043E15B46AC
:10479800013609931DE6099B1A0008CA9246002BA8
:1047A80048D0212211438B460EA884461F2161441C
:1047B800099500220F27A4460D0002E0202A0CD0FC
:1047C8000B003C001C4020003730092C00D807386B
:1047D8000132A85419090F2BF0D86446099D32E01C
:1047E800DC4B2078089300239A46002800D0E4E5A3
:1047F800002465E6434606000A9F9800C018013267
:10480800400080191678030030003038303B092802
:10481800F3D93000984616000A9700E6099B02363D
:1048280004CB9046D2434046D217104080460993A5
:104838003078F4E510220800904311321043834683
:1048480000224905B0D55B460693082305934346E5
:104858000493102303930023029316AB0192009351
:104868002A004B4621000898FFF7A6F85346050092
:1048780001360993ADE513789C46002B00D1F7E289
:1048880002235B4237E7202302009A43472A04D1D8
:1048980080231B01194302239843452801D1202373
:1048A80019430722099B0491073393430A9A190075
:1048B8000392424602920CC908980092019309910A
:1048C8002A004B462100FFF76DF90136050080E507
:1048D80010230C930C230A009A430B924B0503D523
:1048E80001230B9A9A430B92692800D127E6642882
:1048F80000D124E60B9A802311009B0019408B46B7
:104908001A4200D066E1802311005B0019408A46F4
:104918001A4200D039E213005B0600D53CE11300CF
:104928001B0600D4A6E2099B04CB1204120C934682
:1049380009935B46002B00D09AE10B9A10331100C3
:1049480099430B91520500D492E100239A460B9BA0
:1049580006930A9B0593434604930C9B03930023F9
:104968000CE12023194360E6099B0A9A5B1B9846D1
:104978004B4691461F00B2462600089C2A003B0081
:104988003100A04743460135585D0028F6D14A4614
:104998003400B94656460A92F5E6C0239B00B07823
:1049A800194302365DE5C023B0781943023658E54D
:1049B8000C230A009A4314331A43103B0B920C93AE
:1049C8004B058DD496E7A14634005646DBE60A9A95
:1049D800012A00D853E26B1E9F18089BB046260098
:1049E8004C4699462A002300013531002020C8474B
:1049F800BD42F7D1A14634004646099B3A0001CB97
:104A0800210098467D1C4B46089FC0B2B8474346D4
:104A180001360993DDE40B9B0A9AA8469A4200D80E
:104A2800B5E694466544ED1A089B4746B04626000D
:104A38004C4699463A002300013731002020C847E8
:104A4800AF42F7D1A14634004646A0E60B9A0A9930
:104A5800531C914200D814E24B199B1A1F00089B63
:104A6800B24626004C4699462A00230001353100FB
:104A78002020C847BD42F7D10A9BA14601330B93BA
:104A8800099B34001B7856469C466046002800D097
:104A980058E67CE60722099B073393430132944684
:104AA8009C4462465F6809921A68FB171093119339
:104AB80010981199030053400E930B007B400F93FD
:104AC80094460E9A0F9B121A8B410E920F93FB0F6E
:104AD8006246129300233A439B463DD00B9A6123CA
:104AE800920600D541230022DBB20EA90A3B8C4670
:104AF80092460D9343461F326244139515965546C8
:104B08000E9E0F9FA24690460C9C14930CE03032E8
:104B1800D2B2434601355A55BB4500D18AE1202D12
:104B280000D18AE106000F0022000023300039007E
:104B380000F08EFAD2B2092AE9D90D9B9C4662444C
:104B4800D2B2E6E7FF23099904C913401A00099174
:104B580017E5C046E93600200B9A10331100994337
:104B68000B915205BAD500239A460B9B06930A9BD4
:104B78000593434604930C9B0393129B029353465D
:104B8800019316AB2A00009321004B460898FEF7C4
:104B980013FF013605001CE4FF22099B02CB1140DC
:104BA8008B460993C5E65346454609930136FFF7F8
:104BB80010FC56465C46AA46139DD6E708230C937C
:104BC8000B910B99642800D084E60B9B5B0500D5FC
:104BD80086E6B4E40722099B0733934301329446DF
:104BE8009C44624609921A685B6810009B46130051
:104BF8005A46134307D10B9A1033110099430B916E
:104C0800520500D5A1E60B9A6123920600D54123EF
:104C18000022DBB20EA90A3B8C4692460D9343460E
:104C28001F3262445F461295A34655460400B246B9
:104C380090460C9E13930DE03032D2B243460135B4
:104C48005A550023BB4200D100E1202D00D100E1DC
:104C580004000F00320000232000390000F0F8F9AA
:104C6800D2B2092AE8D90D9B9C466244D2B2E5E744
:104C78000B9A6123920600D54123DBB20EA90A3BA9
:104C88001F228C460D93230062445C461295170040
:104C980055469B46B2460C9E08E03033DBB20135E0
:104CA8007B55B4420ED3202D0CD0040031002000D7
:104CB80000F090F9CBB20929EFD90D9A94466344D4
:104CC800DBB2ECE756465C46AA46129D3FE6099BD6
:104CD8001A0008CAD91713925A184A409246DA0F8E
:104CE8001292002B08D1802310220B99DB000B4075
:104CF80091430B91002B2BD10B9A6123920600D57F
:104D080041230EAA1F279446DBB20A3B0D95674440
:104D18005D460993A3465446B2460C9E08E03033DC
:104D2800DBB201357B55B4420ED3202D0CD00400E4
:104D38003100200000F04EF9CBB20929EFD9099AC9
:104D480094466344DBB2ECE756465C46AB460D9DA1
:104D58000B9B2A0006930A9B210005934346049364
:104D68000C9B08980393129B013602935B460193B0
:104D780016AB00934B46FEF71FFE139B05000993E5
:104D8800FFF727FB02230C931AE7099B04CB9246F3
:104D98001293002A08D1802310220B99DB000B40C4
:104DA80091430B91002B2BD10B9A6123920600D5CE
:104DB80041230EAA1F279446DBB20A3B0D95674490
:104DC8005D460993A3465446B2460C9E08E030332C
:104DD800DBB201357B55B4420ED3202D0CD0040034
:104DE8003100200000F0F6F8CBB20929EFD9099A72
:104DF80094466344DBB2ECE756465C46AB460D9DF1
:104E08000B9B2A0006930A9B2100059343460493B3
:104E18000C9B08980393002302935B46019316ABFF
:104E280000934B46FEF7C8FD129B05000993013617
:104E3800FFF7CFFAB44200D871E6149B54460E9699
:104E48000F97AA469846159E139D8EE6A64200D84F
:104E5800FBE6139B56469846AA465C46129D76E5A5
:104E680008C9D8171A1842400991FFF78AFB00238E
:104E78000B9350E4099B04CB9346099359E52F0003
:104E8800BBE50B9301E6063B0C939AE60CB410B510
:104E980084B006AC08CC0A000094010004480394CE
:104EA800FFF772FA04B010BC08BC02B01847C0463D
:104EB800E136002000B585B00391012102900093EE
:104EC800034813004A4202A9FFF75EFA05B000BD85
:104ED8006539002010B5094A0300146884B0002C15
:104EE80008D0012200910648524203A9A047012098
:104EF80004B010BD01F0A8F90020F9E71CFA002061
:104F08005539002001480421014B1847E0DB0020F7
:104F1800114D0020014B5B6818470000E0DB0020C2
:104F2800142310B50100188804331B88984710BD56
:104F3800162310B50100188802331B88984710BD46
:104F4800F8B54746CE4680B50F1E19D014239946AA
:104F5800043304000025012698464B46188843462A
:104F680021681B88984701C4431E98410135404277
:104F78000640AF42F1D13000C0BCB946B046F8BDDA
:104F88000126F8E7124A936F9B0815D29066D166FE
:104F9800002905D0FFE7FFE7FFE7516F106F704763
:104FA80004B580210906C2175140002800D0C84323
:104FB80007F018FB002104BDF0B5146E556E576F4D
:104FC800166FFFF7E3FF1466556657671667F0BD5F
:104FD800000000D0114A936F9B0813D210665166E7
:104FE800002905D0FFE7FFE7FFE7516F106F704713
:104FF80004B5002801D00020C04307F0F3FA0021CF
:1050080004BDC046F0B5146E556E576F166FFFF7A6
:10501800E5FF1466556657671667F0BD000000D0B7
:1050280094464A4A926F9208624601D228E0C046E6
:10503800F0B5464E346E756E776F366F00F020F817
:105048009446424A14665566576716676246F0BD2D
:1050580094463E4A926F9208624601D254E0C04696
:10506800F0B53A4E346E756E776F366F00F04CF8C7
:105078009446364A14665566576716676246F0BD09
:10508800002B24DB11D000293EDA00B5C943404289
:1050980000D1013100F038F8C943404200D1013154
:1050A800DB43524200D1013300BD002AEBD1002876
:1050B80001D1002905D00020C90FC90701D1C0437B
:1050C800410800B507F08EFA0022002300BD00B5A4
:1050D80000290ADBDB43524200D1013300F014F807
:1050E800C943404200D1013100BDC943404200D10B
:1050F8000131DB43524200D1013300F005F8DB43B4
:10510800524200D1013300BD002923D1002B18D110
:10511800002A0CD0BC460D4F38667A660021002361
:10512800FFE7FFE7FFE77A6F386F674670470028A9
:1051380001D00748010000B507F054FA0022002307
:1051480000BD02000B00002000217047000000D0C5
:10515800FFFFFFFF002B00D0BFE0130C28D1002A6F
:10516800E7D080B4114F39667A66FFE7FFE730B4BD
:10517800040C7B6F396F1B0423433B667A66FFE799
:10518800FFE7FFE7C04684B27B6F3D6F1B042343F4
:105198003B667A66FFE7FFE7C04600232C042D0C28
:1051A8007A6F386F00196941B0BC7047000000D0B1
:1051B800F0B594460025140E01D112020835140FDB
:1051C80001D112010435940F01D192000235D40F98
:1051D80001D152000135D40B0134254F7C66254C92
:1051E8003C660E0C93B2FFE7FFE7FFE73C6F6643B0
:1051F800360C7703BE467343DF0B5B04C01AB94114
:10520800130C7343DB18C91ACE086643360CB64430
:1052180093B273431F0F1B01C01AB941130C734398
:105228001F0B1B05C01AB941860D8F023E4366430A
:10523800360C092D24DB520A7243801A7703460A7A
:105248006643360C16235B1BDE40DF40BF196446FD
:105258006643821B7046043506330100D940A840D6
:10526800C01900D30131A24206D20023F0BD0000CC
:10527800000000D0FFFFFFFF121B0130F3D3F1E75E
:1052880009277F1BFE406446A2B27243801A00D2EF
:105298000139220C7243130C1204821A99410B0033
:1052A8007046043513370100F940A840801900D32F
:1052B8000131002B02D1A2420AD2F0BD013000D345
:1052C8000131121BFAD2013BF8D1A24200D2F0BD43
:1052D800013000D30131121BF7E7F0B51C0C00D0E8
:1052E80080E00CB400251C0A04D11B02160E3343BF
:1052F800120208351C0B04D11B01160F334312018F
:1053080004359C0B04D19B00960F33439200023561
:10531800DC0B02D192185B4101351C0097186441DF
:105328000134464F7C66464C3C660E0CFFE7FFE7AF
:10533800FFE7C0463C6F6643360C7703BE4697B21C
:105348007743C01B00D20139C01B00D201399FB27C
:105358007743C91BC91B170C77437E04FF0B801BBF
:10536800B941CE086643360C0C2D33DBB644120B1C
:105378001F053A431B0B97B27743C01B00D2013974
:105388009FB27743C91B170C77433E043F0C801B21
:10539800B941860D8F023E43664329277F1BFE4095
:1053A8000C3D7746AF40BF1930BCA2B2ABB27243D6
:1053B8007343801A9941220C7243130C1204801A09
:1053C800994102000B000137001BA941F9D2781E50
:1053D8000021F0BD0C277F1BFE4077467F0BAF40B6
:1053E800FF19E0E700245D1C07D0144F7D6639667D
:1053F800FFE7FFE7FFE7FFE73C6F95B29EB2654323
:105408006643401BB141150C1E0C654366433604C8
:105418002F0C3E432D04401BB141994204D2020097
:105428000B0020000021F0BD01D19042F7D3801A73
:10543800994101349942F2D3F6E70000000000D008
:10544800FFFFFFFF48404140484018B41B4B5B68D2
:10545800FC46019308BD04DFCB54002018B4174B59
:105468001B68FC46019308BD00DFD5540020944614
:10547800134A926F920809D2624618B40F4BDB6840
:10548800FC46019308BD0CDF8D5700200C4AF0B58F
:10549800146E556E576F166F6246FFF7EEFF084A97
:1054A8001466556657671667F0BD18B4034B9B68BA
:1054B800FC46019308BD08DF3156002080DD00203E
:1054C800000000D0FFB550404240504059404B408A
:1054D800594000E0FFB5154F4C00640D03D0BC42A5
:1054E80004D10C0314D80020090D09055C00640DD3
:1054F80003D0BC4204D11C030AD800221B0D1B0593
:1055080001264B4009D44B4003D58B4200D182423F
:10551800FFBD9942FCD19042FFBD0B43DB1803430A
:105528001343F5D0C9434918FFBD0000FF07000029
:1055380000B5FFF7CFFF804100BDC04600B5FFF7BB
:10554800C9FF01D9002000BD012000BD00B5FFF74B
:10555800B9FF01D9002000BD012000BD00B5FFF74B
:10556800B1FF804100BD012040054A00121804D84F
:105578005A00121801D800207047012070470020F7
:10558800704700000021002805D17047C117484026
:10559800401AFAD0C90713B5064B1B6898470CBCCC
:1055A800441CA2401005120B0349091B09051943A5
:1055B800114310BDEC0101201F04000010B54C0080
:1055C800620D8023D218DB00D21A5B057E2A10DD1B
:1055D8009E3A13DACC170903490819435242D140BD
:1055E800640001341532202A05DAD04008436043AC
:1055F80010BD002010BD0846604310BDC80FC0187C
:10560800013810BD18B4044B5B6AFC46019308BD11
:1056180024DFE55A0020000080DD002018B4044B88
:105628009B69FC46019308BD18DF5959002000000A
:1056380080DD0020132370B51D78012D15D010DDF5
:105648001C48FFF775FC1C4C01008022200000F06C
:1056580097FC022D06D01948FFF762FC184B18601A
:1056680070BD154C174BA364F5E7164B124C23601D
:105678006360A360E36023616361A361E361236204
:105688006362A362E36223636363A363E3632364E4
:105698006364A364E36423656365A365E3652366C4
:1056A8006366A366E36623676367A367E367A36428
:1056B800D1E7C0465344000080DD00204C33000091
:1056C800EC0101209954002007B5604601880A0AB8
:1056D8000230DF2AFAD1C9B2820804D3028840888E
:1056E8000004104300E00068014A5050039007BDD1
:1056F80080DD00200FB403BC0CBCF0B50124E40726
:10570800634000E0F0B50C0DCF0F661E3605891B0F
:10571800640503D3C943404200D30131640D03D06B
:10572800661CF60A07D0E41B00207F00791C890755
:105738008912803C24031D0DDF0F6E1E36059B1B4E
:105748006D0503D3DB43524200D301336D0D03D003
:105758006E1CF60A07D0ED1B00227F007B1C9B07FE
:105768009B12803D2D032F1B661B58D4A446202E68
:1057780046DA20371400BC401D00BD40F2403341DA
:105788002A4380185941CB0F05D0C943C043002292
:1057980064425041514162464D0D28D10D0D07D14B
:1057A80000281FD0241940414941013A0D0DF9D074
:1057B800640006D3013000D30131002C01D1400828
:1057C8004000013A0BD4941CE40A04D11205114498
:1057D800DB071944F0BDD907204B194300E0D9076E
:1057E8000020F0BD0029DDD1002CDBD1F0BD013255
:1057F800C6074008CD0728434908002EE1D0D9E75D
:105808003C2E29DA203E40371400BC4000D0012449
:10581800F24014431A00BB401C43D317ACE7AC4614
:10582800202F08DA20360400B4400D00B540F840B7
:1058380039412843A5E73C2F0CDA203F40360400C5
:10584800B44000D00124F84004430800B1400C43A0
:10585800C117EAE710001900002494E70000F07F60
:10586800F0B50C0D661E3605891BE60A6405640D45
:1058780002D0651CED0A04D0002001210905803CF6
:105888002403A4461C0D671E3F05DB1BE70A6405BD
:10589800640D02D0651CED0A04D0002201231B050B
:1058A800803C24037740644497B484B296B274432E
:1058B800070C7E43150C6F4380B26843361802D339
:1058C800012000043F183004350C00197D4184463E
:1058D80088B29AB250430C0C62431F0C7C438EB2C0
:1058E8007E43921902D301263604A4191604170C14
:1058F8003618674101BC81B29AB25143040C624325
:105908001B0C5C4380B25843121802D301200004D8
:1059180024181004130C401863412D185E41002010
:10592800474106BC88B293B258430C0C6343120C2F
:10593800544389B251435B1802D301210904641806
:1059480019041A0C091862416D1856410020474184
:1059580018BCF902720D1143F0026A0D1043ED02F2
:105968000A0D03D16D1940414941013B124E9B1B61
:105978007600B3420ED26D0007D301300026714184
:105988006646354301D1400840001B05C918E407A5
:105998002144F0BD0BDA013306D1013004D10131C5
:1059A8004F0D01D04908F2E7E1070020F0BD0136AC
:1059B80031050020EBE70000FF030000F0B51C0DE7
:1059C800671E3F05DB1BE70A6405640D02D0661CF1
:1059D800F60A04D0002201231B05803C2403D025AD
:1059E8002D060026F6432E661E096E66CE0FF619A2
:1059F800B44649004F0D02D07E1CF60A03D00020A1
:105A08000021403F3F033E1BB600B444013F7F05E1
:105A1800C91B49082E6F013676089C02950D25434F
:105A28007543ED137543AD1301356D10F603761B01
:105A38000CB4CC02450D2C43A2B2B3B25A43270C86
:105A48007B43350C6F43A4B26C431B1902D301246A
:105A580024043F191C041D0CA4187D4124196D4110
:105A6800009A91B2ACB26143170C7C432B0C5F4394
:105A780092B25A43A41802D301221204BF18220476
:105A8800230C52187B41019C6C431B19520ED901FF
:105A98000A434401A01A81B2B2B2514303145A43D3
:105AA800360C734387B27743D617D21900277E4145
:105AB80036049B191704160C7F185E417316ED18EF
:105AC800F301002680337541A90F06D16400690AE5
